:1000000000800010F51A0000251B0000271B0000CF
:10001000291B00002B1B00002D1B0000000000000E
:100020000000000000000000000000002F1B000086
:10003000311B000000000000331B0000351B0000D6
:10004000371B0000371B0000371B0000371B000068
:10005000371B0000371B0000371B0000371B000058
:10006000371B0000371B0000371B0000371B000048
:10007000371B0000371B0000371B0000371B000038
:10008000371B0000371B0000371B0000371B000028
:10009000371B0000371B0000371B0000371B000018
:1000A000371B0000371B0000371B0000371B000008
:1000B000371B0000371B0000371B0000371B0000F8
:1000C000371B0000371B0000371B0000044B05489E
:1000D0001B1A062B02D9044B03B11847704700BF07
:1000E0008701001084010010000000000549064847
:1000F000091A891001EBD171491002D0034B03B1E9
:1001000018477047840100108401001000000000AF
:1001100010B5064C237843B9FFF7D8FF044B13B151
:100120000448AFF300800123237010BD8401001048
:10013000000000004867000008B5084B1BB10849E3
:100140000848AFF300800848036813B9BDE80840C9
:10015000CCE7064B002BF9D09847F7E700000000EA
:1001600088010010486700008401001000000000B2
:1001700010B5044608461146606001F051FC0023AA
:100180002370204610BD00BF70B50F4E0F4D336871
:100190002A68934211D0044683B941F63C730C4A55
:1001A000D05801F035FE64680B460246094904F157
:1001B000400001F0E7FB33682B6070BD044A02EB9E
:1001C000C3035868EDE700BF00210010A001001034
:1001D000C0010010C860000030B40025C560017186
:1001E0008260036030BC7047F8B50446006800F0D8
:1001F000D9FB104A104D13682779591C05EBC3062B
:10020000B1F57A7FE060116005F8337070600DDB46
:100210000A4B586959680068014208D1DB681960C7
:1002200007490120002308701360F8BDF8BD1B6961
:100230001960F5E700210010C0010010A4010010B2
:10024000BC010010054B0022184605491A605A608F
:100250009A60DA601A615A6100F06CB9A40100106A
:100260003FC00920704700BF0148FFF7BDBF00BF76
:100270005C21001010B5044601F063FC204610BD5F
:1002800010B50446044B036001F0B2F8204601F0BB
:1002900019FC204610BD00BF4463000010B50446A1
:1002A000064B403003F1180103F14C022360216436
:1002B000626401F055FB204610BD00BFE8620000FB
:1002C000A0F14000EAE700BFA0F14400E6E700BF6C
:1002D00010B50446054B036001F08AF8204601F092
:1002E000F1FB204601F02DFC204610BD44630000C8
:1002F00008B5074C074B002218464FF4FA519C6191
:10030000DA6201F07DF80448FFF73EFFFBE700BF2B
:1003100069020000042100106C21001010B5044691
:10032000074B403003F1180103F14C0223602164B4
:10033000626401F015FB204601F003FC204610BD6D
:10034000E8620000A0F14000E8E700BFA0F144002F
:10035000E4E700BF2DE9F843234FDFF8C8803846B3
:10036000224900F0DFFA4046214900F0DBFA214B38
:10037000214E00241846DFF8B0902049204D1C6023
:100380005C609C60DC601C615C6100F0D3F823461B
:1003900030461C4A1C4900F0FBFF4A461B493046C8
:1003A00001F0CAFB284601F079FB194B4A46284662
:1003B00018492B60AC61EC6201F0BEFB43464AF683
:1003C000444201211448FFF707FF21463B464AF605
:1003D00044421248FFF700FF3146BDE8F8434FF4AE
:1003E00016520F48FFF7C4BE7821001019C009202B
:1003F00017C00920342100107C21001032C00920D0
:100400000421001001C0092000C009209D02000045
:1004100044630000810200004C2100105C210010A8
:100420006C21001074210010C8000010074A084811
:1004300008B50021121A02F061FBAFF3008002F050
:10044000A7FA01F03DF901F0D1FF00BFE023001051
:1004500084010010022801DC0120704701F0F8B887
:10046000EFF3058303B100BE02F004BBEFF3058395
:1004700003B100BE02F006BB08B5012001F0B6FFD3
:1004800008B5FFF7F9FF00BF30B585B018246D46F9
:1004900020462946ABBE0446204605B030BD00BF0D
:1004A000024B186800F00100704700BFF0ED00E05B
:1004B00038B5054600F00AFB044600F007FB001BB8
:1004C000A842FAD338BD00BF4FF47A7303FB00F0A3
:1004D000FFF7EEBF0FB400B5064A83B004AB53F884
:1004E000041B10681A46C068019302F0EBFC01205F
:1004F00001F07CFF3401001000487047E460000008
:10050000014800F053B800BFE4600000FFF7C8BF27
:1005100038B50D46044600F0D1F9013509D0204622
:10052000002100F0EDF92046BDE83840032100F03D
:10053000E3B938BD38B50D46044600F0BFF90135C2
:100540000CD023696268204601211A6000F0D8F9B6
:100550002046BDE83840022100F0CEB938BD00BFCA
:1005600070B50D461646044600F0A8F9013511D0C5
:1005700066B9236962681A602046012100F0C0F95B
:100580002046BDE87040022100F0B6B9E368626819
:100590001A60F1E770BD00BF38B504460D46036828
:1005A0001B68984763681D6038BD00BF036870B55D
:1005B000DB68054698476B685B6883B12A681C68EE
:1005C00053689847201A00286A680DDC5068116843
:1005D000836853600029F0D040688847EBE72B68B8
:1005E000BDE870409B6818472B6852681B6910680B
:1005F000BDE87040184700BF30B583B072B644689C
:100600000A6065684B608DB12B68D31A002B05DA40
:100610000CE01C68141B002C03DB1D46AB68002B90
:10062000F7D1A9608B6062B603B030BD036861602A
:100630001B691046019198472B460199F2E700BFCC
:1006400008B572B643685A688A4211D04AB19368B5
:10065000994208D02BB19A68914205D01346002BDD
:10066000F9D162B608BD13468A689A6062B608BDC1
:1006700092685A60036822B110681B69984762B695
:1006800008BD9B689847ECE703685B68184700BFA4
:1006900000B599B072B617496846FFF74BFF06A838
:1006A0001549FFF747FF0CA81449FFF743FF12A8AD
:1006B0001349FFF73FFF039A01990A9B11600799BD
:1006C000109A19600D99159B1160139A96201A6063
:1006D000FFF7FAFE049A0199099B116007990F9A96
:1006E00019600D99169B1160139A96201A60FFF7F6
:1006F000EBFEE0E732C0092034C0092035C00920F4
:1007000037C00920431C1CD00B685A1C1AD09842D1
:1007100010B5044602D10AE09C4208D051F80C3FC3
:100720005A1CF9D10948BDE81040FFF7D3BE204656
:10073000896800F0F1F92046BDE81040022100F080
:1007400007BA70470148FFF7C5BE00BFEC60000064
:1007500088420AD0421C09D0013106D008B50448AD
:10076000FFF7B8FE4FF0FF3008BD704708467047EE
:10077000006100000B685A1C08D0984202D107E0C3
:10078000834205D051F80C3F5A1CF9D118467047E6
:1007900048687047421C0ED008B50B685A1C04D13B
:1007A0000AE051F80C3F5A1C06D09842F9D148682B
:1007B000411C01D008BD70470248FFF78BFE4FF087
:1007C000FF3008BD146100000C4B30B49D689A687E
:1007D0002B46B2F1805F0CD2094AC43553F8044B62
:1007E000AB4242F8044FF9D14FF080521346034C0C
:1007F000A260103043F8201030BC704700ED00E0DC
:10080000FCFFFF0F2B4A2023F0B4C2F8A031D2F82E
:10081000A031980645D4274B002519460124AA206B
:10082000552202270B26C3F80471C3F8A851C3F858
:10083000AC51C3F80C41C3F88460C3F88C00C3F812
:100840008C20C3F88040C3F88C00C3F88C20D1F80A
:100850008830184A5B01FAD511460324AA20552393
:10086000C2F88040C2F88C00C2F88C30D1F88830D1
:10087000104A13F0407FF9D00F4900230520C2F839
:100880000801C2F8C410C2F8C8311368F0BC23F4E0
:10089000704323F03A0343F4405343F03A031360A8
:1008A0007047D2F8A0315906B5D4D2F8A031590614
:1008B000F7D5B0E700C00F40DE8728044A1C01606E
:1008C00018D038B50C4605460021204600F024F922
:1008D00024F01F0104F01F020123934001F11804CA
:1008E00001F11C0001F11402A9606B60EC60286149
:1008F0006A6138BD704700BF006800F029B900BFC9
:1009000041B1012905D18268436811680B43136026
:100910007047704782684168136823EA01031360D7
:10092000704700BF70B50C46184D06462946204654
:10093000FFF730FF164A3070D2F8C430154E43F43A
:100940008053C2F8C430D2F8A831134923F0407361
:10095000C2F8A831D2F8A801104B40F08070C2F85C
:10096000A80132680E4E1144CA4383FB0103D20F23
:100970000B44C2EBE3531B0243F400132946204609
:100980003360BDE87040FFF7BDBE00BF546100009A
:1009900000C00F40CC0000103F5DC600A5E830A5A8
:1009A000004003402B4B70B51A461968007821F0BF
:1009B000FF011960196801258540294319601968EC
:1009C00041F0807119605068224B0028FBDA1A460A
:1009D0001968C0F30B1021F080711960196821F0BB
:1009E000FF011960196829431960196841F0807185
:1009F000196053681749002BFBDA0C460E68C3F3E5
:100A00000B1226F080730B600B6823F0FF030B6062
:100A10000B681D430D600B6843F080730B606368C7
:100A20000C49002BFBDA0C68824224F08074C3F37B
:100A30000B130C6002D2014610460A46934228BFAF
:100A40001346984238BF184601F014FB024901F0E2
:100A500069FB70BD004003400108803938B510497A
:100A6000104B01241C60D1F8C4300F4A43F400033A
:100A70000E480025C1F8C430156703680C480221F0
:100A8000A0FB03031B0D013B51600420D360094907
:100A90005460FFF799FE084B10221A6038BD00BF62
:100AA00000C00F40DC21001000400940CC000010C5
:100AB00083DE1B430105000000E100E0024B1B68E0
:100AC00003B17047FFF7CABFDC21001008B5044B23
:100AD0001B680BB9FFF7C2FF024B986808BD00BF47
:100AE000DC21001000400940034B98615A6942F034
:100AF00001025A61704700BF00400940024A536931
:100B000023F001035361704700400940014B01226B
:100B10001A6070470040094000F16040A0F51C20B9
:100B200003099B0003F1804303F53033400010B408
:100B300000F01E001C680322824024EA02021A60B0
:100B40001A68814041EA0200186010BC704700BF7B
:100B500000F16040A0F51C2043099B0003F1804395
:100B600003F5303330B400F01F029C6EC1F38005F2
:100B700005FA02F224EA02049C669C6E22439A66FD
:100B80009DB903099B0003F1804303F53033400016
:100B90001C6C00F01E000322824024EA02021A6448
:100BA0001A6C01FA00F01043186430BC704700BFA3
:100BB000154B9968C1F34201012918D0022914D1BB
:100BC000124A516F013106D0D2F88010906F086040
:100BD00092F8A61089B1106F0C4B38B193F8A6307B
:100BE00023B10B4B00211B68184770477047074B18
:100BF000186F38B1064B1B681847596821F001017E
:100C00005960E8E7704700BF00800940E821001004
:100C1000E4210010F8B5294C0368A34247D03FDD1A
:100C2000274CA34229D004F58044A34242D1254D4C
:100C3000082632BB01290BD04268234CC2EBC2020A
:100C400004EBC20292F8364092F83520D44213D118
:100C5000B1FA81F25D68012404FA01F125EA01018B
:100C60005960036852095B6804FA02F21A4203D120
:100C7000164BB440C3F88040F8BD154D0726002A36
:100C8000D8D05868012707FA01F2024374B25A60BB
:100C900029462046FFF798FD0C4BA7401F60F8BD82
:100CA000A4F58044A34205D10A4D0526C1E70A4DAB
:100CB0000626BEE700252E46BBE700BF0000014028
:100CC00000800940DD0C0000E821001000E100E098
:100CD000B10B0000490D0000A90D0000174B9968E9
:100CE000C1F3420101291BD0022917D1144AD2F8BD
:100CF000AC10013107D0D2F8B810D2F8B0000860BB
:100D000092F8DE1099B1D2F8A8000D4B38B193F8E3
:100D1000DE3023B10B4B00211B681847704770472A
:100D2000074BD3F8A80038B1064B1B681847596821
:100D300021F001015960E6E7704700BF00C009409B
:100D4000E8210010E4210010144B9968C1F342011E
:100D5000012917D0022913D1114A5168013105D058
:100D600011699068086092F8361089B110680C4BD0
:100D700038B193F8363023B10A4B00211B6818476D
:100D800070477047064B186838B1064B1B68184708
:100D9000596821F001015960E8E7704700C0004040
:100DA000E8210010E4210010144B9968C1F34201BE
:100DB000012917D0022913D1114AD16B013105D075
:100DC000916C106C086092F86E1089B1906B0C4BAE
:100DD00038B193F86E3023B10A4B00211B681847D5
:100DE00070477047064B986B38B1064B1B68184725
:100DF000596821F001015960E8E77047000001409F
:100E0000E8210010E42100102DE9F04F02686E4B3C
:100E100089B09A420790069200F0C88040F3B480EF
:100E20006A4B0698984272D003F58043984240F08E
:100E30009D80674BD3F8AC2122F44022C3F8AC214B
:100E4000D3F8AC2142F48022C3F8AC21614A0B01F3
:100E50001268B2FBF3F003FB1023039280B2002B65
:100E600000F09080039B4FF001085A009C009446CC
:100E7000A246C3468E4699460023059204940090EC
:100E80000291019300242546029E5FFA88F7BCF187
:100E9000000FB5BFBCFBF6F0BAFBF6F00009400945
:100EA0000130C0F34F0008EB040200283DD00CB124
:100EB00001283BD0034603FB02F3DB00B9FBF3F34D
:100EC0000133C1EB5303002BB8BF5B42734505DA16
:100ED000994230D09E46BB468DE821000134E5B2F0
:100EE000AF420E44D3D8039B08F101089944059BF7
:100EF000B8F1100F9C44049B9A44029B0B4402934C
:100F0000C0D1019B009843EA0B15EDB216E0304BBF
:100F1000D3F8AC2122F44032C3F8AC21D3F8AC2191
:100F200042F48032C3F8AC2190E714B102200346AA
:100F3000C1E70120BEE745EA0715EDB20699C0F307
:100F400007220B7BC0B243F080030B7307990B6839
:100F50001A710B6818700B6883F828500A68137BA5
:100F600003F07F03137309B0BDE8F08F194A0B013A
:100F70001268B2FBF3F003FB1023039280B2002B44
:100F80007FF470AF1025D9E7A3F580439A42EDD1E5
:100F90000F4BD3F8A82122F0C002C3F8A821D3F840
:100FA000A82142F04002C3F8A8214FE7084BD3F82C
:100FB000A82122F44072C3F8A821D3F8A82142F452
:100FC0008072C3F8A82141E7000001400080094079
:100FD00000C00F40CC000010436810B40448054C1A
:100FE000C3EBC30344F83320016010BC704700BF5B
:100FF000E4210010E82100100268137DDB07FCD516
:1010000043680949C3EBC30301EBC3035968107874
:101010000131C0B206D059699B680B60536843F038
:1010200001035360704700BFE82100104368154A70
:10103000C3EBC303DB00D11810B4CC6901340FD06B
:101040000B460A6B1C335B6812681A4205D10368B1
:1010500010BC187DC0F380107047002010BC704792
:1010600003681B7D9B0607D491F8340010BC0F2841
:101070008CBF002001207047002381F8343001200C
:1010800010BC7047E821001038B504460D462046D4
:10109000FFF7CCFF0028FAD02368EDB21D7063681B
:1010A000054AC3EBC30302EBC30393F834200132B8
:1010B00083F8342038BD00BFE82100102DE9F04F3F
:1010C000054644482C6883B084420F4691469A46B0
:1010D0001DD06E6800243246DFF804B14FEAC6081E
:1010E000C2EBC201C6EB08000BEBC00000220BEB09
:1010F000C1014FF0FF3381F83520C36143601146D1
:101100002846FFF787FD4FB903B0BDE8F08F237C79
:101110006E6803F03F0323746A68DDE72E49484692
:10112000FFF728FB2D4901905046FFF723FBBA1E1D
:10113000012A30D9012FE7D1B9F1FF3FE4D0254A88
:10114000019B29680720934208720BD154B148468D
:10115000237C214943F04003237403B0BDE8F04FE2
:10116000FFF7D0BAC6EB08060BEBC60049460430C1
:101170000022FFF7F5F96A680124C2EBC2020BEB0B
:10118000C20328462246002183F8354003B0BDE85B
:10119000F04FFFF73FBDBAF1FF3F0AD00D4A904232
:1011A0000DD0C6EB08000BEBC00051461C30FFF71A
:1011B000AFF9032FA8D1B9F1FF3FC0D1A4E7002CAC
:1011C000EFD0227C504642F0800222740349FFF7A0
:1011D00099FAEEE700000140C0610000BC62000027
:1011E000E82100102DE9F0410F46054659493846DF
:1011F0001646FFF7CFFA584904463046FFF7CAFAB9
:1012000001462046FFF7A4FA544B04469842286052
:101210007FD06FD9524B98424BD003F58043984210
:1012200006D1504AD2F8C43043F00073C2F8C4303B
:10123000012323722B684FF00008C3F804804FF499
:1012400016512846FFF7E0FD2B6803221A73414927
:101250003846FFF757FA40493046FFF753FA7A1CF1
:1012600003D041463846FFF773FC731C03D0304669
:101270000021FFF76DFC394B9C4247D021D9384BF8
:101280009C4263D003F580439C424AD103236B60A8
:10129000354CC3EBC3034FF0FF3604EBC3042846C1
:1012A000334632466660E6610021BDE8F041FFF753
:1012B00005BF2C4AD2F8C43043F08073C2F8C43062
:1012C000B6E7A3F580439C422BD1274E4FF0FF3465
:1012D000002169602346224628467460F461FFF7C6
:1012E000EDFE224B01221A6028686968204B03C377
:1012F000BDE8F081A3F58043984299D1194AD2F80C
:10130000C43043F00803C2F8C43091E701236B6096
:10131000BEE7144AD2F8C43043F01003C2F8C43018
:1013200086E76E68104BC6EBC6064FF0FF3703EB3F
:10133000C6063A463B46002128467760F761FFF72C
:10134000BDFE0C4B9C42CCD0BDE8F08102236B600B
:101350009EE700BF50620000E46100000000014011
:101360000080094000C00F40E8210010E02100107B
:10137000D423001000C0004000F05ABBA0F1400090
:10138000FFF7FABF00F058BBA0F14000FFF7FABF2B
:1013900038B504461D4600F025FB294604F14000FF
:1013A00000F0BCFA054B204603F1080103F12002CE
:1013B000543321602264636438BD00BFE0620000E2
:1013C00010B5044643694168194400F089FBE36A9B
:1013D0003BB1A06920B104F11C01BDE810401847E1
:1013E00010BDA369002BFBD0BDE81040184700BF1B
:1013F00010B5044600F07AFB0023A361E36210BD40
:1014000038B50D46044600F071FB65612069FFF7B1
:101410003BF929182046BDE8384000F061BB00BF09
:10142000036870B501221B690021044698470646EF
:1014300001300ED0236802221B6900212046984704
:101440002368054631461B692046002298472846F6
:1014500070BD304670BD00BF024A03490348FFF724
:10146000C1BE00BF03C0092002C00920D423001060
:10147000074A084B10B4026003F58071002453F84A
:10148000042F904208BF1C608B42F8D110BC7047FB
:1014900070630000C4220010F0B50E4685B03749D5
:1014A000054602F072FC28B9354B1B68002B43D06F
:1014B00005B0F0BD3349284602F067FC30B9304B27
:1014C0001B68002B43D0012005B0F0BD2E492846F3
:1014D00002F05BFC002835D02C4B002402E00134E4
:1014E000402C3DD053F8042F002AF8D12B783A2B0A
:1014F0003DD0294602A800F01FF902A800F072F9B9
:1015000070B302A800F054F928BB02A800F040F91B
:10151000054628B3036802A89F6800F037F926F44F
:10152000803201462846B8470346CBB1184AE01C32
:1015300042F8243005B0F0BD0190FFF78DFF01980F
:1015400005B0F0BD0E4B1B686BB10220B0E7FFF792
:1015500083FF0120ACE702A800F034F90346E4E77A
:101560004FF0FF30A4E7FFF777FF0220A0E72846FF
:1015700002AA084902F09AFB029BD6E750630000DA
:10158000E02100106063000058630000C4220010D6
:10159000C82200109463000002280ADD074AC31E17
:1015A00052F82300002142F8231020B103685B6841
:1015B0001847002070474FF0FF307047C8220010D6
:1015C000022812DC0E4B70B51B680C4616460BB990
:1015D000FFF742FFA51936B114F8011B0948FFF7C0
:1015E00053FDAC42F8D1304670BD074B033853F879
:1015F000200010B103681B6818474FF0FF30704798
:10160000E0210010D4230010C822001002280DDCB5
:101610000C4B10B51B680C460BB9FFF71DFF0A48B1
:10162000FFF7EAFC01232070184610BD074B033872
:1016300053F8200010B103689B6818474FF0FF3340
:1016400018467047E0210010D4230010C822001073
:10165000022807DD064B033853F8200020B1036849
:10166000DB681847012070474FF0FF30704700BF1C
:10167000C8220010022807DD064B033853F820006B
:1016800020B103681B691847002070474FF0FF30F6
:10169000704700BFC8220010022808B504D84FF4D4
:1016A00000534B60002008BD00F09AFE0923036040
:1016B0004FF0FF3008BD00BF704700BF704700BF4C
:1016C00008B5FFF7FBFFFFF7F7FFBDE80840FEF79F
:1016D0000FBE00BF074A13681918EFF30880814254
:1016E00002D2184611607047034B0C221A604FF06B
:1016F000FF307047D0000010DC2300100B4C08B501
:1017000023680546986800F08FFF2368D86800F0CA
:101710008BFFFEF7FBFE20B905B9FEE7FEF7B8FF29
:10172000FBE7FEF7B1FE002DF7D0F7E7340100101C
:10173000002102F007BA00BF38B500230360436000
:101740000A7804462F2A01D0204638BD4A78002A5C
:10175000FAD0481C20604D782F2D13D085B1034658
:1017600000E06AB15D1A013323601A782F2AF8D19C
:1017700029460133236000F083F86060204638BDBD
:101780002946F8E719460346F3E700BF00687047AB
:10179000436843B110B50446184600F08BF80128A1
:1017A00003D1606810BD00207047002010BD00BF4D
:1017B000406830B108B500F07DF8B0FA80F040091B
:1017C00008BD704743684BB110B50446184600F099
:1017D00071F828B9606818B1043810BD002070474E
:1017E000002010BD4068003018BF0120704700BFC6
:1017F000094A8368026053B1084B1A68904201D1CC
:1018000006E01A4653689842FBD14368536070471C
:1018100042681A60704700BFAC630000C823001024
:101820000C4A836810B50446026053B10A4B1A682B
:10183000904201D10AE01A4653689C42FBD163688A
:101840005360204600F07DF9204610BD42681A60C2
:10185000F7E700BFAC630000C823001010B4064CCB
:101860000023027381600460436019B1034B1A685E
:101870001860426010BC7047AC630000C8230010C1
:10188000F8B50B4B1C688CB107460E46A56855B1E0
:1018900032463946284602F08AFA20B9284602F034
:1018A0007EFA864202D06468002CEFD12046F8BD53
:1018B000C8230010007B7047F8B58E18B1420F4660
:1018C0000ED005460C4601E0A64207D02B6814F85E
:1018D000011B5B6A284698470130F5D1E01BF8BD33
:1018E0000C46FBE7F8B58E18B1420F460ED0054600
:1018F0000C4603E004F8010BA64205D02B682846ED
:101900009B6A9847431CF5D1E01BF8BD0C46FBE7EA
:1019100000207047002070470020704710B5044633
:1019200084B000F091F80B4B002203F108013C3326
:1019300084E80A00626101A82246074902F092F990
:10194000064901A800F070FF6061FFF7F1FE204634
:1019500004B010BDB463000094630000F86300009D
:1019600010B50446064B406903F108023C3384E895
:101970000C0000F0A1FD204600F07AF8204610BDD2
:10198000B46300000EB430B5044682B005AB53F822
:10199000045B4069019300F047FE29466069019AA3
:1019A00001F090FA02B0BDE8304003B0704700BFCC
:1019B0004A1C02EB420200EBC202936853B101EBF6
:1019C0004101C9004218D2681AB1014410311046D1
:1019D0001847704701EB410300EBC301CB68002BB4
:1019E000F7D0184770B504460B4E0023251D4FF461
:1019F0001650E06363602846A360E360236263627D
:101A0000A3632660FFF7EEFB284622460349FFF753
:101A1000E3FA204670BD00BF04640000B119000065
:101A200038B504460D460430FFF7EEF9E56338BDDE
:101A30000430FFF7E1BA00BF10B50C460430FFF7E1
:101A400023FB204610BD00BF10B50446064B002204
:101A500040F8043BFFF702FF044B204603F1080265
:101A6000343384E80C0010BD706300000C64000087
:101A700010B50446064B03F108023433026040F807
:101A8000043FFFF7B5FE2046FFF7F2FC204610BDED
:101A90000C64000003689B68184700BF074A0023D6
:101AA00010B580E80C008360C3600446FEF724FD97
:101AB00003492061FEF770FD204610BD5064000010
:101AC000951A0000014610B50446044B006941F820
:101AD000043BFEF7B5FD204610BD00BF506400007A
:101AE00003460A46011D0069FEF786BD011D006917
:101AF000FEF7A6BD0649074A074B9A42BEBF51F8FA
:101B0000040B42F8040BF8E70448804704480047F8
:101B10004C670000C8000010840100100508000098
:101B20002D040000FEE7FEE7FEE7FEE7FEE7FEE726
:101B3000FEE7FEE7FEE7FEE70B460146184600F02B
:101B400041BCFEF793BC000081F0004102E000BF01
:101B500083F0004330B54FEA41044FEA430594EA6D
:101B6000050F08BF90EA020F1FBF54EA000C55EAA8
:101B7000020C7FEA645C7FEA655C00F0E2804FEA79
:101B80005454D4EB5555B8BF6D420CDD2C4480EA5B
:101B9000020281EA030382EA000083EA010180EA8B
:101BA000020281EA0303362D88BF30BD11F0004FD9
:101BB0004FEA01314FF4801C4CEA113102D040420F
:101BC00061EB410113F0004F4FEA03334CEA13334A
:101BD00002D0524263EB430394EA050F00F0A78062
:101BE000A4F10104D5F1200E0DDB02FA0EFC22FA5D
:101BF00005F2801841F1000103FA0EF2801843FA51
:101C000005F359410EE0A5F120050EF1200E012A41
:101C100003FA0EFC28BF4CF0020C43FA05F3C0187F
:101C200051EBE37101F0004507D54FF0000EDCF1F8
:101C3000000C7EEB00006EEB0101B1F5801F1BD3A1
:101C4000B1F5001F0CD349085FEA30004FEA3C0CA5
:101C500004F101044FEA445212F5800F80F09A809B
:101C6000BCF1004F08BF5FEA500C50F1000041EB9F
:101C7000045141EA050130BD5FEA4C0C404141EBA3
:101C8000010111F4801FA4F10104E9D191F0000FCA
:101C900004BF01460020B1FA81F308BF2033A3F14D
:101CA0000B03B3F120020CDA0C3208DD02F1140C44
:101CB000C2F10C0201FA0CF021FA02F10CE002F17F
:101CC0001402D8BFC2F1200C01FA02F120FA0CFC78
:101CD000DCBF41EA0C019040E41AA2BF01EB0451C1
:101CE000294330BD6FEA04041F3C1CDA0C340EDCBF
:101CF00004F11404C4F1200220FA04F001FA02F302
:101D000040EA030021FA04F345EA030130BDC4F1BF
:101D10000C04C4F1200220FA02F001FA04F340EAB4
:101D20000300294630BD21FA04F0294630BD94F065
:101D3000000F83F4801306BF81F480110134013D4C
:101D40004EE77FEA645C18BF7FEA655C29D094EABD
:101D5000050F08BF90EA020F05D054EA000C04BF3B
:101D60001946104630BD91EA030F1EBF0021002026
:101D700030BD5FEA545C05D14000494128BF41F0C5
:101D8000004130BD14F580043CBF01F5801130BD29
:101D900001F0004545F0FE4141F470014FF00000B4
:101DA00030BD7FEA645C1ABF194610467FEA655C65
:101DB0001CBF0B46024650EA013406BF52EA033507
:101DC00091EA030F41F4002130BD00BF90F0000FF5
:101DD00004BF0021704730B54FF4806404F1320431
:101DE0004FF000054FF0000150E700BF90F0000FEA
:101DF00004BF0021704730B54FF4806404F1320411
:101E000010F0004548BF40424FF000013EE700BFE0
:101E100042004FEAE2014FEA31014FEA02701FBF70
:101E200012F07F4393F07F4F81F06051704792F042
:101E3000000F14BF93F07F4F704730B54FF46074BC
:101E400001F0004521F0004120E700BF50EA010207
:101E500008BF704730B54FF000050AE050EA0102B4
:101E600008BF704730B511F0004502D5404261EB24
:101E700041014FF4806404F132045FEA915C3FF465
:101E8000DCAE4FF003025FEADC0C18BF03325FEAFE
:101E9000DC0C18BF033202EBDC02C2F1200300FAB3
:101EA00003FC20FA02F001FA03FE40EA0E0021FAD8
:101EB00002F11444C1E600BF4FEA410212F50012DC
:101EC00015D211D56FF47873B3EB625212D94FEA81
:101ED000C12343F0004343EA505311F0004F23FA6B
:101EE00002F018BF404270474FF00000704750EAC0
:101EF000013005D111F0004008BF6FF0004070477D
:101F00004FF00000704700BF80F0004002E000BFCB
:101F100081F0004142001FBF5FEA410392EA030FD4
:101F20007FEA226C7FEA236C6AD04FEA1262D2EB1E
:101F30001363C1BFD218414048404140B8BF5B4223
:101F4000192B88BF704710F0004F40F4000020F0BC
:101F50007F4018BF404211F0004F41F4000121F0D2
:101F60007F4118BF494292EA030F3FD0A2F101021C
:101F700041FA03FC10EB0C00C3F1200301FA03F15A
:101F800000F0004302D5494260EB4000B0F5000F7D
:101F900013D3B0F1807F06D340084FEA310102F13C
:101FA0000102FE2A51D2B1F1004F40EBC25008BFEE
:101FB00020F0010040EA03007047490040EB0000B8
:101FC00010F4000FA2F10102EDD1B0FA80FCACF1E7
:101FD000080CB2EB0C0200FA0CF0AABF00EBC250E6
:101FE00052421843BCBFD0401843704792F0000FD4
:101FF00081F4000106BF80F400000132013BB5E727
:102000004FEA41037FEA226C18BF7FEA236C21D09C
:1020100092EA030F04D092F0000F08BF0846704701
:1020200090EA010F1CBF0020704712F07F4F04D1CF
:10203000400028BF40F00040704712F100723CBFE2
:1020400000F50000704700F0004343F0FE4040F40C
:10205000000070477FEA226216BF08467FEA2363CA
:102060000146420206BF5FEA412390EA010F40F4B5
:10207000800070474FF0000304E000BF10F0004301
:1020800048BF40425FEA000C08BF704743F09643E8
:1020900001464FF000001CE050EA010208BF704703
:1020A0004FF000030AE000BF50EA010208BF70478A
:1020B00011F0004302D5404261EB41015FEA010C9F
:1020C00002BF84460146002043F0B64308BFA3F197
:1020D0008053A3F50003BCFA8CF2083AA3EBC25379
:1020E00010DB01FA02FC634400FA02FCC2F1200298
:1020F000BCF1004F20FA02F243EB020008BF20F0CF
:102100000100704702F1200201FA02FCC2F1200234
:1021100050EA4C0021FA02F243EB020008BF20EA29
:10212000DC7070474FF0FF0C1CEAD0521EBF1CEA57
:10213000D15392EA0C0F93EA0C0F6FD01A4480EA45
:10214000010C400218BF5FEA41211ED04FF000632E
:1021500043EA501043EA5111A0FB01310CF000405A
:10216000B1F5000F3EBF490041EAD3715B0040EA80
:10217000010062F17F02FD2A1DD8B3F1004F40EB50
:10218000C25008BF20F00100704790F0000F0CF023
:10219000004C08BF49024CEA502040EA51207F3AE7
:1021A000C2BFD2F1FF0340EAC250704740F40000C2
:1021B0004FF00003013A5DDC12F1190FDCBF00F0B3
:1021C00000407047C2F10002410021FA02F1C2F161
:1021D000200200FA02FC5FEA310040F1000053EAFD
:1021E0004C0308BF20EADC70704792F0000F00F04B
:1021F000004C02BF400010F4000F013AF9D040EA51
:102200000C0093F0000F01F0004C02BF490011F4E4
:10221000000F013BF9D041EA0C018FE70CEAD153E2
:1022200092EA0C0F18BF93EA0C0F0AD030F0004C62
:1022300018BF31F0004CD8D180EA010000F0004016
:10224000704790F0000F17BF90F0004F084691F0D4
:10225000000F91F0004F14D092EA0C0F01D142020E
:102260000FD193EA0C0F03D14B0218BF084608D1D7
:1022700080EA010000F0004040F0FE4040F4000021
:10228000704740F0FE4040F4400070474FF0FF0CB4
:102290001CEAD0521EBF1CEAD15392EA0C0F93EAFB
:1022A0000C0F69D0A2EB030280EA010C49024FEA4D
:1022B000402037D04FF0805343EA111143EA101306
:1022C0000CF000408B4238BF5B0042F17D024FF4BE
:1022D000000C8B4224BF5B1A40EA0C00B3EB510F99
:1022E00024BFA3EB510340EA5C00B3EB910F24BF82
:1022F000A3EB910340EA9C00B3EBD10F24BFA3EB07
:10230000D10340EADC001B0118BF5FEA1C1CE0D1CE
:10231000FD2A3FF650AF8B4240EBC25008BF20F081
:10232000010070470CF0004C4CEA50207F32C2BFD5
:10233000D2F1FF0340EAC250704740F400004FF072
:102340000003013A37E792F0000F00F0004C02BFA3
:10235000400010F4000F013AF9D040EA0C0093F06D
:10236000000F01F0004C02BF490011F4000F013BC7
:10237000F9D041EA0C0195E70CEAD15392EA0C0F2F
:1023800008D142027FF47DAF93EA0C0F7FF470AF67
:10239000084676E793EA0C0F04D14B023FF44CAFAA
:1023A00008466EE730F0004C18BF31F0004CCAD13F
:1023B00030F000427FF45CAF31F000437FF43CAF7B
:1023C0005FE700BF10B5054C13462CB10A46014625
:1023D0000220AFF3008010BD204610BD00000000B9
:1023E000014B1868704700BF3401001008B5074B57
:1023F000044613B10021AFF30080054B1868836ACF
:1024000003B198472046FFF779F900BF00000000AC
:10241000C064000070B505460C4609B9002070BDC7
:1024200018B183690BB900F051F9204B9C4201D1DE
:102430006C6808E01E4B9C4201D1AC6803E01D4B68
:102440009C4208BFEC68B4F90C30002BE6D0214662
:10245000284600F039F8236B064633B1216A284636
:1024600098470028B8BF4FF0FF36A3891B0603D555
:102470002169284600F04AFB616B41B104F1440335
:10248000994202D0284600F041FB00236363A16C0F
:1024900021B1284600F03AFB0023A36400F082F942
:1024A0000023A38100F07FF9304670BD5C6400001A
:1024B0007C6400009C640000024B01461868FFF732
:1024C000A9BF00BF340100108A892DE9F0410546FB
:1024D00010070C4659D44B68002B02DC0B6C002B08
:1024E00017DDE66AAEB102F48052002392B22F6883
:1024F0002B600AB1606D15E0216A01232846B047C0
:10250000411C0FD12B686BB11D2B01D0162B03D1B1
:102510002F600020BDE8F081A38943F04003A38130
:10252000BDE8F081A3895A0705D56368C01A636BBB
:102530000BB1236CC01A00230246E66A216A2846C2
:10254000B047431CA38906D129681D2939D8204AE0
:10255000CA40D60735D5002262602269D9042260BC
:1025600004D5421C01D12B6803B96065616B2F60F3
:102570000029CED004F14403994202D0284600F04D
:10258000C5FA00206063BDE8F0810F69002FC0D05C
:1025900093070E680CBF4B690023C7EB06080F605A
:1025A0008B6002E00744C0EB0808B8F1000FB0DD13
:1025B00043463A46216A2846A66AB0470028F1DC1D
:1025C000A38943F04003A3814FF0FF30BDE8F081C1
:1025D0000100402038B50B6905460C46DBB118B147
:1025E00083690BB900F072F80C4B9C4201D16C6806
:1025F00008E00B4B9C4201D1AC6803E0094B9C42C4
:1026000008BFEC68B4F90C302BB121462846BDE870
:102610003840FFF759BF002038BD00BF5C640000A0
:102620007C6400009C640000014620B9044B05490D
:10263000186800F08FB9044B1868FFF7CBBF00BFD4
:10264000C0640000D525000034010010014900F0ED
:1026500081B900BFD525000010B5044600230360F2
:102660004360836081814366C2810361436183610A
:10267000194608225C3000F041FA054B246263627F
:10268000044BA362044BE362044B236310BD00BF01
:10269000013D0000273D00005F3D0000833D00003C
:1026A00070B568234D1E5D430E4605F1740100F0C0
:1026B00071FA044640B1002180E842000C30A0606D
:1026C00005F1680200F01AFA204670BD836910B562
:1026D000044633BB8364C3640365124B124A1B6810
:1026E0008262984204BF0123836100F01FF860609A
:1026F000204600F01BF8A060204600F017F80022EA
:10270000E06004216068FFF7A7FF01220921A068AB
:10271000FFF7A2FF02221221E068FFF79DFF0123CD
:10272000A36110BDC06400004D260000F8B51C4B2D
:1027300007461E68B36913B93046FFF7C7FF48362E
:10274000B4687368013B04D4B4F90C507DB16834AB
:10275000F8E733680BB13668F2E704213846FFF733
:102760009FFF30600028F6D10C233B60F8BD4FF688
:10277000FF73E3810123A38165662560A560656021
:1027800025616561A5610822294604F15C0000F01D
:10279000B5F96563A563A564E5642046F8BD00BF8F
:1027A000C064000070477047F7B50F46114601AA94
:1027B000054602F055FB064608B9002029E02846E8
:1027C000FFF7B4FF04460028F7D04FF4DB73019AFB
:1027D0003946284601F03CF9002806DA0025FFF7C3
:1027E000E1FFA581FFF7DFFFE7E70B4BE0816362C5
:1027F0000A4BA681A3620A4B2462E362094B23635E
:10280000F30505D5022300222146284600F014F8DE
:10281000204603B0F0BD00BF013D0000273D000091
:102820005F3D0000833D0000024B0A4601461868E8
:10283000FFF7BABF3401001000F000B82DE9F843EB
:102840000C4690461E46054618B183690BB9FFF742
:102850003DFF3D4B9C4201D16C6808E03B4B9C42E4
:1028600001D1AC6803E03A4B9C4208BFEC68A389F5
:1028700003F48473B3F5847F03D121462846FFF720
:10288000A9FEE76A0FB91D232BE0012E04D0022E0A
:102890002BD056B3162324E021462846FFF79AFE94
:1028A000A28902F4805292B20AB1606D05E0216AF9
:1028B00033462846B847411C14D0A3895A0706D589
:1028C0006368C01A636B4BB1236CC01A06E01B0728
:1028D00004D5236813B122699B1A1844804400264A
:1028E00003E02B604FF0FF392BE023691BB9214631
:1028F000284600F073F821462846FFF76BFE814614
:102900000028EFD133464246216A2846B8470130B5
:10291000E8D0616B41B104F14403994202D02846EA
:1029200000F0F4F800236363236900212360A38986
:10293000616023F40263A381082204F15C0000F0CB
:10294000DDF84846BDE8F8835C6400007C64000064
:102950009C6400002DE9F8438046894600F1480454
:10296000002694B1A5686768013F0CD4AB89012BA0
:1029700007D9B5F90E30013303D029464046C84780
:1029800006436835F0E72468EBE73046BDE8F88396
:102990000E4B70B51E460E4C0025E41AA410A5423D
:1029A00004D056F8253098470135F8E703F080FB4E
:1029B000084B094C1E46E41AA4100025A54204D079
:1029C00056F8253098470135F8E770BD74010010BE
:1029D000740100107401001080010010F0B58B89A3
:1029E00091B09D0706460C4625D4B1F90E1000297A
:1029F00008DAA389002513F0800F14BF40274FF495
:102A000080670DE001AA02F063FA0028F1DB029D65
:102A10004FF4806705F47045A5F500514D424D41D6
:102A20003946304600F0B6F860B9A3899A051DD43E
:102A300043F00203A38104F14703236023610123D0
:102A4000636113E00A4BB362A389206043F0800303
:102A5000A381206167614DB1B4F90E10304602F0D8
:102A600049FA18B1A38943F00103A38111B0F0BD65
:102A70004D260000024B0146186800F08BB800BFDD
:102A800034010010024B0146186800F03FB800BF47
:102A90003401001010B5C9B202449042034605D07B
:102AA0001C7801308C42F8D1184610BD002010BDB2
:102AB00010B5431E0A44914204D011F8014B03F8AB
:102AC000014FF8E710BD884210B501EB020301D8B1
:102AD000421E0BE09842FBD28118D21AD34204D096
:102AE00013F8014D01F8014DF8E710BD994204D0EB
:102AF00011F8014B02F8014FF8E710BD03460244FC
:102B0000934202D003F8011BFAE7704730B5002961
:102B10003CD051F8042C0B1F1D49002AB8BF9B184C
:102B20000A680C4612B95A600B6030BD9A420DD942
:102B300019685818824201BF106852680918196054
:102B40005A60236030BD994203D80A465168002973
:102B5000F9D1146815199D420AD11B682344D01875
:102B60008142136012D10868034413604B680CE083
:102B700002D90C23036030BD18681C18A14201BFA4
:102B80000C684968001918605960536030BD00BF77
:102B9000D023001070B5CD1C25F0030508350C2D91
:102BA00038BF0C25002D064603DA0C2333600020C5
:102BB00070BDA942F9D81F4B1C681A462146A1B125
:102BC0000B685B1B0ED40B2B03D90B60CC18CD50BC
:102BD0001EE08C420BBF63684B681360636018BFD4
:102BE0000C4615E00C464968E9E7134C23681BB90D
:102BF000304600F067FF20602946304600F062FF53
:102C0000431CD2D0C41C24F00304A0420AD1256086
:102C100004F10B00231D20F00700C31A09D05A420B
:102C2000E25070BD211A304600F04CFF0130EED169
:102C3000BBE770BDD0230010CC230010936810B404
:102C4000013B002B936008DA9469A34202DBCBB20C
:102C50000A2B02D110BC01F0FDB91368581C10609A
:102C60001970C8B210BC7047F8B506460F46144636
:102C7000D518AC4208D03A4614F8011B3046FFF78D
:102C8000DDFF431CF5D100E00020F8BD2DE9F04F39
:102C90009DB00C4617460393064618B183690BB9DD
:102CA000FFF714FD7F4B9C4201D1746808E07E4B16
:102CB0009C4201D1B46803E07C4B9C4208BFF4689D
:102CC000A38918070CD5236953B100230993202346
:102CD0008DF8293030238DF82A30DFF8D4B144E064
:102CE0002146304601F01CFA0028EED04FF0FF30AC
:102CF000D5E0039A111D12680391002A80F28C809E
:102D0000524243F002000792049098F800302E2BB4
:102D100000F08480032298F800106548FFF7BAFE9F
:102D200048B14023CBEB000003FA00F0049B08F10C
:102D300001081843049098F8001006225D4808F135
:102D400001078DF82810FFF7A5FE002800F09580F8
:102D5000594B002B40F08880039B073323F0070377
:102D600008330393099B53440993B846454615F825
:102D7000013B1BB9B8EB07090FD003E0252BF9D0B5
:102D8000A846F3E74B463A4621463046FFF76CFF2C
:102D900001307FD0099B4B44099398F80030002BF9
:102DA00078D000234FF0FF320493079305920693E7
:102DB0008DF853301A930127052229783F48FFF7F1
:102DC00069FE05F10108049B38B13C4A4546801A6A
:102DD00007FA00F018430490EEE7D90644BF20221A
:102DE0008DF853201A0744BF2B228DF853202A78E0
:102DF0002A2A3FF47EAF079A00210A20A84698F8B5
:102E000000300135303B092B03D800FB0232012191
:102E1000F4E700293FF479AF079276E798F801309C
:102E20002A2B0BD1039B08F102081A1D1B68039281
:102E3000002BB8BF4FF0FF3305936BE70023194613
:102E4000059308F101000A25804698F8002001301A
:102E5000303A092A03D805FB01210123F4E7002BAE
:102E60003FF458AF059155E703AB00932246144B4E
:102E700004A9304600F0C2F807E003AB00932246F5
:102E80000F4B04A9304600F065FBB0F1FF3F8246CE
:102E90007FF468AFA3895B063FF528AF09981DB0A2
:102EA000BDE8F08F5C6400007C6400009C6400005E
:102EB000CA640000CE640000FD2F0000C46400005E
:102EC000692C000013460A46014602480068FFF7D5
:102ED000DDBE00BF340100102DE9F04788B0149F1B
:102EE000002B1E461299B8BF03F1004327F02007BC
:102EF000B6BF1E4600232D23462F1446109DDDF835
:102F00004CA00B7003D0452F03D1013501E0032302
:102F100000E0022307AA049206AA03928DE828047F
:102F20002246334601F004FA472F804602D1119B16
:102F3000DB0728D5462F08EB050911D198F800309A
:102F4000302B0AD1002200232046314603F07EF8C0
:102F500018B9C5F10105CAF80050DAF800309944F3
:102F6000002200232046314603F070F808B93022D1
:102F700002E0CDF81C9006E0079B994503D9591C47
:102F800007911A70F8E74046079B159AC8EB0303B0
:102F9000136008B0BDE8F087034673B50029B8BFD9
:102FA000494203F8022BB4BF2D222B22092942707B
:102FB0001ADD0DF1070216460A2591FBF5F405FB13
:102FC0001411092C01F1300102F8011D2146F4DC35
:102FD0003031541E02F8011CB4421A460AD214F8C9
:102FE000012B03F8012BF7E71A463024214402F89D
:102FF000024B5970101A02B070BD00002DE9F04F5D
:103000008FB00C4616461F46DDF86080054601F07D
:1030100081FFD0F800B0584600F0C1FE00230C93A9
:10302000D8F800300890073323F0070303F10802B3
:1030300094F81890C8F80020D3E90023C4E91223BB
:10304000D4E9120100F016FD012819D1D4E91201CA
:103050000022002303F004F810B12D2384F843303C
:103060009A4B9B4AB9F1470F8CBF90469846032371
:103070002361236823F0040323604FF0000A93E0E8
:10308000D4E9120100F0F6FC236848B9914A92494C
:10309000B9F1470F8CBF8846904603222261E9E7C9
:1030A000D4F804E0D4E91201BEF1FF3F01D10622B9
:1030B0000AE0B9F1670F02D0B9F1470F05D1BEF1AF
:1030C000000F40F0B68101226260002243F4806369
:1030D00006920CAA2360059201930BAA63680392DF
:1030E0000DF12B020292009302460B46CDF8109090
:1030F0002846FFF7F1FE09F0DF03472B804609D190
:103100000B9BD81C02DB6268934230DDA9F10209F7
:103110005FFA89F9B9F1650F0B9912D801394A465E
:1031200004F150000B91FFF737FF0C9A8246831889
:10313000012A236102DC2268D1072FD501332361E4
:103140002CE0B9F1660F14D10029636807DD216115
:1031500013B92268D2071DD501330B4419E013B906
:103160002268D00701D5023313E0012311E04FF0AC
:1031700067090B9B0C9A934205DB22682361D107F8
:1031800008D5013305E0002BD4BFC3F102030123AE
:10319000134423610B9B4FF0000AA3659DF82B306D
:1031A00013B12D2384F84330009733460DAA2146EE
:1031B000284600F059F9013002D14FF0FF3050E1BC
:1031C00023685A0501D4236965E0B9F1650F40F21F
:1031D000D580D4E912010022002302F037FF78B332
:1031E00001233E4A31462846B8470130E5D00C9BC2
:1031F0000B9A9A420BDB2368D80708D423689B07F5
:1032000040F111814FF0000804F1190906E1089B13
:103210005A4631462846B8470130CED04FF0000814
:1032200004F11A090C9B013B9845E7DA01234A4651
:1032300031462846B8470130BFD008F10108F1E710
:103240000B9B002B29DC0123244A31462846B84732
:103250000130B2D00B9B23B90C9B13B92368D9075B
:10326000CCD5089B5A4631462846B8470130A4D0F1
:103270004FF0000904F11A0A0B9B5B42994509DAE9
:103280000123524631462846B847013095D009F10E
:103290000109F1E70C9B4246A7E00C9AA36D9A4204
:1032A000A8BF1A46002A914607DC04F11A034FF022
:1032B000000A29EAE97909931CE01346314642469F
:1032C0002846B8470130F0D177E700BFD564000049
:1032D000D9640000DD640000E16400002A6500009C
:1032E0000123099A31462846B84701303FF465AFBB
:1032F0000AF1010AA36DC9EB03029245F0DB08EB6A
:1033000003090B9A0C9B9A420FDB2368DA070CD453
:103310000C9B0B9A9844C9EB08089B1A9845A8BFC8
:103320009846B8F1000F08DC0FE0089B5A4631467A
:103330002846B8470130EBD13FE743464A4631467D
:103340002846B84701303FF438AF4FF0000928EA6B
:10335000E87804F11A0A09E001235246314628466A
:10336000B84701303FF429AF09F101090B9A0C9BD2
:103370009B1AC8EB03039945EEDB3FE70C9A012A41
:1033800001DCDB0738D50123424631462846B847E1
:1033900001303FF412AF089B5A4631462846B847E1
:1033A00001303FF40AAFD4E912010022002302F0F9
:1033B0004DFE20B14FF0000804F11A090EE00C9BFD
:1033C00008F10102013B19E001234A463146284633
:1033D000B84701303FF4F1AE08F101080C9B013B06
:1033E0009845F1DB534604F1500231462846B84770
:1033F00001307FF403AFE0E6424601233146284620
:10340000B8470130EED1D8E601234A463146284676
:10341000B84701303FF4D1AE08F10108E3680D9AD6
:103420009B1A9845F0DBE0680D9B9842B8BF1846A0
:1034300017E0002206920CAA05920BAA43F48063BF
:1034400003920DF12B022360029201930246CDF804
:103450001090CDF800E00B462846FFF73DFD804672
:103460004EE60FB0BDE8F08F2DE9F04791461F46BC
:103470000A698B6806469342B8BF1346C9F8003004
:1034800091F843200C46DDF8208012B10133C9F8D1
:1034900000302368990642BFD9F800300233C9F8DA
:1034A0000030256815F0060510D104F1190A07E06F
:1034B0000123524639463046C04701301AD0013503
:1034C000E368D9F800209B1A9D42F1DB94F8433061
:1034D0002268003318BF012392060FD5E11830206F
:1034E00081F843005A1C94F845102244023382F8B4
:1034F000431003E04FF0FF30BDE8F08704F14302D2
:1035000039463046C0470130F4D02268D9F800501F
:10351000E36802F00602042A08BF5D1B2269A36863
:103520000CBF25EAE57500259342C4BF9B1AED1830
:103530004FF000091A344D4509D00123224639467F
:103540003046C0470130D5D009F10109F3E700202A
:10355000BDE8F0872DE9F04317460A7E85B06E2A54
:10356000984606460C460C9B01F1430E00F0AE80D7
:1035700011D8632A22D009D8002A00F0BB80582A2B
:1035800040F0CA8081F84520834955E0642A1ED066
:10359000692A1CD0C0E0732A00F0B08009D86F2AD5
:1035A0002ED0702A40F0B8800A6842F020020A60EB
:1035B0003EE0752A24D0782A3AD0ADE01A6801F1AD
:1035C0004205111D1960136884F84230A8E0216893
:1035D0001A6811F0800F02D0111D196008E011F077
:1035E000400F02F10401196002D0B2F9003000E08E
:1035F0001368002B3CDA2D225B4284F8432037E02D
:1036000021681A6811F0800F02D0111D196007E0BF
:1036100011F0400F02F10401196001D0138800E09D
:103620001368227E5C496F2A14BF0A2208221BE01D
:1036300078225A4984F845202268186812F0800FD1
:1036400000F104051D6003D1550601D5038800E093
:103650000368D00744BF42F0200222601BB92268F1
:1036600022F0200222601022002084F8430001E0B2
:1036700049490A226568002DA56008DB206820F012
:10368000040020602BB9002D7DD175460CE0002B85
:1036900079D07546B3FBF2F002FB1033CB5C05F832
:1036A000013D03460028F5D1082A0BD12368DA072B
:1036B00008D5236962689A42DEBF302305F8013CD1
:1036C00005F1FF35C5EB0E0323612EE008681A688B
:1036D00010F0800F496903D0101D1860136808E0CE
:1036E00010F0400F02F104001860136801D0198037
:1036F00000E0196000232361754616E01A68111D69
:1037000019601568002162682846FFF7C3F908B1FF
:10371000401B6060636804E004F1420584F84220C5
:1037200001232361002384F84330CDF800803B4619
:1037300003AA21463046FFF797FE013002D14FF031
:10374000FF3026E023692A4639463046C04701301B
:10375000F5D023689B0710D5002504F1190907E06F
:1037600001234A4639463046C0470130E7D001358B
:10377000E368039A9B1A9D42F2DBE068039B984240
:10378000B8BF184605E00B7804F1420584F84230D2
:103790008AE705B0BDE8F083E5640000F664000048
:1037A0002DE9F84315468A6880460C4632B98A6985
:1037B000002A0CBF01224FF0FF328A602268DFF836
:1037C000A890D10658BF1A684FF000065EBF111DC1
:1037D00019601768A069F8B923680136DA065EBF78
:1037E0002B681B783B702A686B6802F101022A6023
:1037F000A26803F1FF3302F1FF326B6058BF01375B
:10380000A260E2B1002BE5DCD4F8803129464046C5
:1038100098470028DED012E0012806D12B681A78DC
:1038200063699B5C002BD7D119E0022807D12B6874
:10383000D9F800201B7813445B781B07CCD523688C
:1038400013F0100305D1E2680132E260A26902B10F
:103850003B70236900201E442661BDE8F883002EDA
:10386000EDD1BDE8F88300BF380100102DE9F04F1D
:103870000C469A46724B87B08346164693E807007B
:1038800003ABA76883E807006E4BA1696E4A04F199
:103890001C09032918BF1A467B1EB3F5AE7F84BFEF
:1038A00040F25D13A360236888BF6FF4AE7543F4E4
:1038B000506323604B4600928CBF7F1900274FF066
:1038C00000083168019303AB53F8280002220978FD
:1038D000FFF7E0F8019B002833D0B8F1010F0BD1BE
:1038E00062682AB908226260226842F4007222608B
:1038F000226822F4A0620CE0B8F1020F0AD122681B
:1039000002F4C061B1F5007F1BD11021616042F467
:1039100080722260A268511EA16092B132685D1C63
:10392000511C316012781A707368013B002B736070
:1039300006DCD4F88031314658469847002841D1FA
:103940002B4608F10108B8F1030FBAD162680AB931
:103950000A22626062683D496069891A019300F039
:10396000C1F8019B4FF000081D46A36863B331689E
:1039700060690A78805C38B3302A226808D1100563
:1039800006D508F1010857B10133013FA36006E0F5
:1039900022F4106222600B78013505F8013C73684F
:1039A000013B002B736003DD33680133336005E0B6
:1039B000D4F8803131465846984728B9A368013B6E
:1039C000A360D2E74FF000082368D9050CD54D4518
:1039D00008D915F8011C6F1ED4F87C3132465846C0
:1039E00098473D464D4527D0226812F010021BD162
:1039F0002A70636849465846009EB0472268DAF844
:103A0000003012F0200F07D1D20705D51A1DCAF8D1
:103A100000201B68188004E01A1DCAF800201B68EB
:103A20001860E3680133E3602369C9EB0505454489
:103A30001D442561002000E0012007B0BDE8F08FA3
:103A400008650000E53E0000D93D00002465000047
:103A500038B5074C054608461146002222601A4632
:103A6000FDF71AFD431C02D1236803B12B6038BD5A
:103A7000DC23001031F0004310B51BD00F4AA1F534
:103A80008014944210D901F1FF410C4A01F5E00184
:103A9000914209D9B3F5801F08D3094A934207D14F
:103AA000B0FA80F0400910BD042010BD032010BD05
:103AB000002010BD0028E6D1022010BDFFFFDF7FEF
:103AC0000000F07F38B5064C002305460846236009
:103AD000FDF700FE431C02D1236803B12B6038BD03
:103AE000DC23001070B50B78441E5E2B13BF4A1CFC
:103AF0008A1C4B78002108BF012100F1FF0504F862
:103B0000011FAC42FBD10BB9501E70BD81F0010406
:103B10001146C4540D784A1C2D2D06D05D2D0FD0B2
:103B20000DB12B46F4E7084670BD4E785D2EF8D0F7
:103B3000B342F6DC023101339E42C454FBDCE9E7B8
:103B4000104670BD00294FF480630CBF0222002292
:103B500000F000B82DE9F0411D463D4B04461E68BB
:103B60000F46904626B1B36913B93046FEF7AEFD55
:103B7000384B9C4201D1746808E0374B9C4201D11C
:103B8000B46803E0354B9C4208BFF468B8F1020FFB
:103B900059D8002D57DB21463046FEF71BFD002388
:103BA0006360A361A3891B0603D521693046FEF734
:103BB000ADFFA389B8F1020F23F08303A38112D0D4
:103BC00037BB002D08BF4FF480652846FCF748FC42
:103BD0000746C8B94FF48060FCF742FC074688B935
:103BE0004FF0FF3000E00020A38943F00203A381DF
:103BF0000023A36004F14703236023610123636171
:103C0000BDE8F0814FF48065A38943F08003A38170
:103C1000B8F1010F05D1A38943F00103A3816B42E1
:103C2000A3610F4BB362A389276003F0080080B241
:103C30002761656148B113F0030F18BF0025A56027
:103C40000020BDE8F0814FF0FF30BDE8F08100BFFB
:103C5000340100105C6400007C6400009C6400007F
:103C60004D2600000EB400B54FF402719CB0ADF8C3
:103C700014106FF00041049107914FF6FF711DABD6
:103C800002900690084853F8042BADF8161000680F
:103C900002A9019301F0B8FC029B00221A701CB02B
:103CA0005DF804EB03B07047340100100EB430B57A
:103CB0009CB01FAC4FF4017254F8045BADF81420B3
:103CC0000290069000F06BF80B4B03900B930023CF
:103CD0000F9314934FF6FF7307900848ADF8163012
:103CE0002A46234602A90068019401F0DDFD1CB0BC
:103CF000BDE8304003B07047233D000034010010A0
:103D000010B50C46B1F90E1001F01CFF0028ABBF36
:103D1000636DA3891B1823F48053ACBF6365A38133
:103D200010BD002070472DE9F0411F468B890546E4
:103D3000DB050C46164605D502230022B1F90E100C
:103D400001F0ECF8A389324623F48053A381B4F93F
:103D50000E103B462846BDE8F04100F0CFB910B543
:103D60000C46B1F90E1001F0D9F8431CA38915BF18
:103D7000606523F4805343F48053A38118BFA3816B
:103D800010BDB1F90E1000F037BA10F8012B11F880
:103D9000013B012A28BF9A42F7D0D01A7047034648
:103DA00013F8012B002AFBD1181A0138704730B5DF
:103DB00082B1451E013915F8013F11F8014FA342A8
:103DC00006D1EC431444E04201D0002BF3D11C4651
:103DD000181B30BD104630BD2DE9F0470F46804618
:103DE0003F48D0F800903D4615F8014B09EB040020
:103DF000407800F0080000F0FF0608B12F46F2E717
:103E00002D2C03D1BD1C7C78012603E02B2C04BF94
:103E10007C78BD1C13B1102B0AD15BE0302C57D13C
:103E2000287800F0DF0058284DD16C781023023537
:103E3000002E14BF4FF0004C6FF0004CBCFBF3FAA7
:103E40000027384603FB1ACC09EB040E9EF801E06C
:103E50001EF0040F01D0303C0BE01EF0030E1BD00F
:103E6000BEF1010F0CBF4FF0370E4FF0570ECEEBE7
:103E70000404A34210DDB7F1FF3F0AD0504506D835
:103E800001D1644503DC03FB0040012701E04FF052
:103E9000FF3715F8014BD7E77B1C0CD1002E4FF0F4
:103EA000220314BF4FF000406FF00040C8F800300C
:103EB0002AB9BDE8F08706B1404272B107B1691E68
:103EC0001160BDE8F0873024002BB1D10823AFE7A3
:103ED0000A23ADE7302CA3D0AAE7BDE8F08700BFE6
:103EE000380100102DE9F0470E4680463B48D0F8D7
:103EF0000090354615F8014B09EB0400407800F0BE
:103F0000080000F0FF0708B12E46F2E72D2C03D180
:103F1000B51C7478012703E02B2C04BF7478B51C02
:103F200013B1102B0AD153E0302C4FD1287800F078
:103F3000DF00582845D16C78102302354FF0FF3C44
:103F4000BCFBF3FC03FB0CFA00266FEA0A0A3046BE
:103F500009EB040E9EF801E01EF0040F01D0303C86
:103F60000BE01EF0030E1AD0BEF1010F0CBF4FF094
:103F7000370E4FF0570ECEEB0404A3420FDD002E98
:103F800008DB604506D801D1544503DC03FB004043
:103F9000012601E04FF0FF3615F8014BD8E7002E5F
:103FA00007DA2223C8F800304FF0FF302AB9BDE805
:103FB000F08707B1404272B106B1691E1160BDE8D9
:103FC000F0873024002BB9D10823B7E70A23B5E7DF
:103FD000302CABD0B2E7BDE8F08700BF380100104D
:103FE0002DE9F0410C46496B04F1440399421AD182
:103FF0004FF48061FEF7CEFD18B94FF0FF30BDE8F9
:10400000F0814FF48063A36394F84630606380F8D6
:10401000FF3394F8453000F2FD30437094F844309B
:104020000370206012E0A66B77003A4601F06CFA4C
:1040300005460028E1D000EB06080146324640461E
:10404000FEF736FDC4F800806563A7630020BDE875
:10405000F0810000F8B50F461446064618B1836992
:104060000BB9FEF733FB224B9C4201D1746808E088
:10407000204B9C4201D1B46803E01F4B9C4208BF17
:10408000F468A369A360A3891A0709D523693BB122
:1040900023682069FDB2181A636998420FDB08E0B3
:1040A0002146304600F03CF80028F1D04FF0FF30B8
:1040B000F8BD21463046FEF78DFA0028F6D1A368F8
:1040C000013BA36023685A1C22601F706269431C75
:1040D000934204D0A389DB0707D50A2D05D12146D9
:1040E0003046FEF777FA0028E0D12846F8BD00BF39
:1040F0005C6400007C6400009C64000038B5074CE0
:10410000054608461146002222601A46FDF758FA75
:10411000431C02D1236803B12B6038BDDC2300109F
:10412000314B70B51D6806460C4625B1AB6913B915
:104130002846FEF7CBFA2D4B9C4201D16C6808E073
:104140002B4B9C4201D1AC6803E02A4B9C4208BF38
:10415000EC68A3899AB211071DD4D50602D40922AE
:10416000326038E0500712D5616B41B104F144036D
:10417000994202D03046FEF7C9FC00236363A3894D
:1041800023F02403A3810023636023692360A389B0
:1041900043F00803A38123694BB9A38903F4207377
:1041A000B3F5007F03D021463046FEF717FCA38904
:1041B00013F0010205D00022A26062695242A2619E
:1041C00003E0990758BF6269A26022694AB903F007
:1041D000800080B230B143F04003A3814FF0FF3044
:1041E00070BD002070BD00BF340100105C64000091
:1041F0007C6400009C64000038B5064C0023054632
:1042000008462360FDF7C8F9431C02D1236803B1B7
:104210002B6038BDDC2300102DE9F74F03690C69D2
:1042200080469C427FDC013C01F114074FEA840E7A
:1042300000F1140606EB0E0357F82450019356F8CC
:1042400024300135B3FBF5F507EB0E09C5B34FF08C
:10425000000A3846B446D34650F8043B9AB205FBF0
:1042600002A21B0C4FEA124A05FB03A392B2C2EB57
:104270000B0BBCF800204FEA134A5A441FFA83FB89
:10428000DCF800308145CBEB134303EB224392B2C1
:1042900042EA03424FEA234B4CF8042BDCD256F897
:1042A0000E306BB9019B043B9E421A4602D3C8F8FC
:1042B000104005E01268043B002AF8D1013CF3E706
:1042C000404601F04AF800282BDB304601354FF01C
:1042D000000E57F8042B036891B2C1EB0E0E120CBE
:1042E00099B27144C2EB134303EB214389B24FEA05
:1042F000234EB94541EA034340F8043BE9D256F85E
:10430000242006EB840362B9043B9E421A4602D382
:10431000C8F8104005E01268043B002AF8D1013CBF
:10432000F3E7284600E0002003B0BDE8F08F00006E
:104330002DE9F04F456A95B08246219CCDE90223D4
:1043400045B91020FCF78CF8CAF824004560856058
:104350000560C560DAF82430196859B15A6801233C
:1043600093404A608B60504600F01FFEDAF824301C
:1043700000221A60039BA04A002BBDBF01232360CB
:10438000039B0023BCBF23F000430393DDF80C80A4
:10439000A8BF236028F000431B0D1B0593421DD1CD
:1043A00042F20F73209A1360029B43B9934A944BD5
:1043B000C8F31300002814BF1846104600E09048C8
:1043C000229B002B00F04685C37813B100F108034F
:1043D00000E0C31C229A136000F03CBDDDE90245F9
:1043E000002200232046294601F030FE074658B13E
:1043F000209A01231360229B002B00F01E85814828
:104400001860013800F026BD12AB019313AB009386
:1044100022462B46504601F01BF8C8F30A5604907A
:1044200056B1C5F3130343F07F51204641F44011C8
:10443000A6F2FF3611971DE0139B129E1E4406F252
:104440003243202B0ADD029A06F21240C3F14003E8
:1044500022FA00F008FA03F3184304E0C3F1200045
:10446000029B03FA00F0FDF7B1FC0123A1F1F87102
:10447000013E11930022644BFDF76AFB58A3D3E978
:10448000002301F07BFB58A3D3E90023FDF762FB77
:10449000044630460D46FDF7A9FC55A3D3E9002399
:1044A00001F06CFB02460B4620462946FDF752FB05
:1044B00004460D46FDF700FD0022834600232046FA
:1044C000294601F0CDFD58B15846FDF78FFC024654
:1044D0000B462046294601F0B9FD08B90BF1FF3B18
:1044E000BBF1160F0DD8DDE90223484901EBCB01E2
:1044F000D1E9000101F0D2FD30B10BF1FF3B002307
:1045000000E00123109300E01090129B9E1B731E8D
:10451000079343BFC3F10008002307934FF000083F
:10452000BBF1000F06DB079BCDF82CB05B44079373
:10453000002705E00023CBEB0808CBF100070B9325
:104540001E9B092B28D8052BC4BF043B1E931E9B22
:10455000C8BF0025A3F10203D8BF0125032B20D833
:10456000DFE803F0060E0204012302E0012308E065
:1045700000230A931F9B002B1DDD9946059321E024
:1045800000230A931F9B0BEB030909F10103012B85
:104590000593B8BF012315E0012500231E930A955A
:1045A00001E001230A934FF0FF390022CDF8149067
:1045B00012231F9206E04FF001094B46CDF81490EC
:1045C000CDF87C90DAF8244000226260042101F1E9
:1045D00014029A421CD86268490001326260F6E710
:1045E00061436F63A787D23FB3C8608B288AC63FF9
:1045F000FB799F501344D33F0000F07F30660000EA
:10460000396600002B6500000000F83F4866000096
:104610006168504600F094FCDAF8243020601B6892
:104620000693059B0E2B00F25B81002D00F0588154
:10463000DDE90234BBF1000FCDE90E3430DD9F4AD5
:104640000BF00F034FEA2B1502EBC303E80618CB60
:10465000CDE908340CD5DDE90E01994B05F00F05C5
:10466000D3E9082301F0B4FB0324CDE9020100E003
:104670000224934E6DB1E90708D5DDE90801D6E9BA
:10468000002301F07BFACDE9080101346D100836F2
:10469000F0E7DDE90823DDE9020101F099FB20E004
:1046A000CBF1000505B3DDE90E01844B05F00F02E7
:1046B00003EBC203D3E9002301F060FACDE9020164
:1046C0007F4E2D110023022455B1EA0705D5D6E906
:1046D000002301F053FA013401236D100836F3E78B
:1046E0001BB1CDE9020100E00224109BE3B1DDE93A
:1046F00002560022734B2846314601F0B1FC98B1B6
:10470000059B8BB1B9F1000F40F3E6800BF1FF334D
:104710000893314600226C4B284601F02FFA0134F1
:10472000CDE902014E4602E0059ECDF820B02046BC
:10473000FDF75CFBDDE9022301F020FA634B002268
:10474000FDF708FAA1F1507304460C931D46D6B943
:10475000DDE9020100225E4BFDF7FAF922460C9BCF
:10476000CDE9020101F09AFC002840F03F820C994B
:10477000224601F10043DDE9020101F071FC00284D
:1047800040F02B82A8E00A9A4C4B711E002A49D0B7
:1047900003EBC103D3E9002300204E4901F018FBCD
:1047A00022462B46FDF7D4F9CDE90C01069CDDE944
:1047B0000201FDF781FB0546FDF718FB02460B469B
:1047C000DDE90201FDF7C4F9DDE90C23303504F819
:1047D000015BCDE9020101F043FC002840F01D839C
:1047E000DDE9022300203749FDF7B2F9DDE90C23AA
:1047F00001F036FC002840F0D180069BE31AB3425A
:104800006ADADDE90C0100222F4B01F0B7F9002232
:10481000CDE90C01DDE902012B4B01F0AFF9CDE947
:104820000201C4E703EBC1012246D1E900012B4696
:1048300001F0A4F9069BCDE90C011D469C19DDE9A8
:104840000201FDF739FB0646FDF7D0FA02460B469A
:10485000DDE90201FDF77CF9303605F8016BAC4269
:10486000CDE902014FF0000222D11A4BDDE90C0123
:10487000FDF770F902460B46DDE9020101F00EFC7E
:10488000002840F08B80DDE90C2300201149FDF762
:104890005FF902460B46DDE9020101F0E1FBD8B108
:1048A00014F8013C621E302B40F0B7821446F7E743
:1048B000054B01F063F9CDE90201C0E7486600004D
:1048C000206700000000F03F0000244000001C4072
:1048D000000014400000E03FDDE90E34CDE9023471
:1048E000139B002B7CDBBBF10E0F79DCAB4B03EB96
:1048F000CB03D3E900671F9B002B14DA059B002B29
:1049000011DC40F06C810022A54B3046394601F0A5
:1049100035F9DDE9022301F0B7FB059D2E4600289D
:1049200040F05F8165E1069CDDE9028932463B4645
:104930004046494601F04CFAFDF7BEFA0546FDF740
:1049400055FA32463B4601F019F90B4602464946F4
:104950004046FDF7FDF805F1300E069B04F801EB2B
:10496000C3EB040E059B73452DD102460B46FDF7A4
:10497000F1F88046894602460B463046394601F03A
:104980006FFB78B942464B463046394601F05EFB34
:10499000002800F04482EB0704D440E2DDF820B0A8
:1049A00000E01C4614F8012C631E392A07D1069A30
:1049B0009A42F6D1069930220BF1010B0A701A784F
:1049C00001321A702BE20022764B01F0D7F8002258
:1049D00000238046894601F039FB0028A6D01EE25C
:1049E0000A9A002A2BD01E9A012A0ADC119A12B1C7
:1049F00003F2334302E0129BC3F136033D464446C3
:104A000013E0059B5D1EAF42BFBF0B9BEA1B9B18CB
:104A10000B93059BB6BF2F467D1B0025002BA7BF20
:104A20004446059BC3EB08040023079A01211A445E
:104A300050469844079200F057FB064602E03D4678
:104A400044460A9E5CB1079B002B08DDA342A8BF29
:104A50002346079AC3EB0808E41AD31A0793002FDA
:104A60001DDD0A9BABB18DB131462A46504600F0A0
:104A7000D5FB049A01460646504600F03EFB0499D9
:104A80000890504600F091FA089B04937A1B06D0D8
:104A900000E03A460499504600F0C0FB0490012122
:104AA000504600F021FB0B9B05465BB31A460146BE
:104AB000504600F0B3FB1E9B0546012B18DC029B01
:104AC00083B9039BC3F3130373B9039B23F000471C
:104AD0003F0D3F054FB1079B08F1010801330793D4
:104AE000012702E0002700E0029F0B9B73B100E06A
:104AF00000272B6905EB8303186900F0A8FAC0F1C1
:104B0000200004E01E9B012BD9DD0B9F0120079B99
:104B1000184410F01F0008D0C0F12003042B02DD60
:104B2000C0F11C0002E006D018461C30079B8044F0
:104B3000034404440793B8F1000F05DD424604998D
:104B4000504600F0B9FB0490079B002B05DD294679
:104B50001A46504600F0B0FB0546109B23B3294689
:104B6000049800F0FAFB00281EDA00230A220499B8
:104B7000504600F031FA0A9B0BF1FF3B0490002BEA
:104B800000F05F81314600230A22504600F024FAEB
:104B9000B9F1000F06463FDC3BE000BF486600006D
:104BA0000000144000002440059B002B2BDC1E9BC2
:104BB000022B28DDDDF81490B9F1000F11D1294640
:104BC0004B460522504600F007FA01460546049878
:104BD00000F0C3FB00280CDC03E0354600E00025B4
:104BE0002E461F9B069C6FEA030B09E03546DDF855
:104BF00020B0069B069A5C1C312313700BF1010B4D
:104C000005960026F7E00A9BDDF8149023B9069C70
:104C1000B2E01E9B022BCFDC002C05DD3146224684
:104C2000504600F049FB06469FB17168504600F0BF
:104C300087F90446326906F10C01023292000C3009
:104C4000FDF736FF01222146504600F035FB059066
:104C500000E00596029B069F03F001030793294697
:104C60000498FFF7D9FA3146044600F13008049859
:104C700000F073FB059A02902946504600F089FB2C
:104C8000C36802463BB901460A90049800F065FBF0
:104C90000A9A034600E00123114650460A9300F0A9
:104CA00084F90A9B53B91E9A42B9079A32B9B8F1EE
:104CB000390F2AD0029B002B1CDC1DE0029A002A2F
:104CC00004DB1BD11E9ACAB9079ABAB9002B13DDAF
:104CD00001220499504600F0EFFA2946049000F0B2
:104CE0003CFB002803DC07D118F0010F04D0B8F119
:104CF000390F0AD004F131087C1C0CE0002B07F1BD
:104D000001040BDDB8F1390F03D139233B700137B2
:104D100056E008F1010887F800806CE0069B274602
:104D2000E31A4B4504F8018C3BD000230A22049976
:104D3000504600F051F9059B04909E424FF00A0244
:104D40004FF000033146504604D100F045F90646C5
:104D5000059084E700F040F9002306460A220599F1
:104D6000504600F039F9059079E700230A220499AA
:104D7000504600F031F9049029460498FFF74CFAA8
:104D8000069B00F1300804F8018BE31A4B45ECDB7D
:104D9000069B0596B9F1010FACBF4B4401331F468A
:104DA000002601220499504600F086FA2946049014
:104DB00000F0D3FA002803DC15D118F0010F12D04F
:104DC0003C4614F8013C621E392B09D1069B9342E4
:104DD00004D10BF1010B3123069A02E01446F0E7EF
:104DE0000133137007E03C4614F8013C621E302B7F
:104DF00001D11446F8E72946504600F0D6F8059B45
:104E00006BB12EB19E4203D03146504600F0CDF832
:104E10000599504600F0C9F801E0DDF820B004998A
:104E2000504600F0C2F80023209A23700BF10103D2
:104E30001360229B1BB11C6001E008480AE0069841
:104E400008E0B9F1000F3FF7E2AE1E9B022B7FF79F
:104E5000DEAEB1E615B0BDE8F08F00BF2A650000F8
:104E60000B7830B5722B0ED0772B07D0612B0ED17B
:104E70004FF4027401234FF484701AE04FF4C064BD
:104E80000123082015E000242346042011E0162306
:104E90000360002030BD622D10D0782D11D02B2D55
:104EA00007D120F01C0023F0030340F0100043F072
:104EB000020311F8015F002DEDD105E043F48033CA
:104EC000F7E743F40063F4E72343136030BD0000C9
:104ED00038B5074C00230546084611462360FCF709
:104EE000DBFB431C02D1236803B12B6038BD00BF3C
:104EF000DC23001038B5064C002305460846236025
:104F0000FBF7A8FA431C02D1236803B12B6038BD1C
:104F1000DC230010004870473C01001038B5074CF6
:104F2000054608461146002222601A46FCF7A2FBFD
:104F3000431C02D1236803B12B6038BDDC23001071
:104F400070B5456A04460E463DB91020FBF788FA55
:104F50006062456085600560C560656AEB6843B165
:104F6000636ADB6853F8260078B1026843F82620AC
:104F700017E021220421204600F0B8FA636AE860B5
:104F8000DB68002BECD1002070BD012101FA06F591
:104F90006A1D9200204600F0A9FA0028F3D046606E
:104FA000856000230361C36070BD70B5446A064626
:104FB0000D463CB91020FBF753FA706244608460E0
:104FC0000460C4603DB1736A6A68DB6853F82210FC
:104FD000296043F8225070BD2DE9F04106460C4689
:104FE0000D691F4601F1140E0023DEF800000133A5
:104FF00081B202FB0171000C0F0C02FB007089B240
:1050000001EB00419D424FEA10474EF8041BECDCD7
:10501000D7B1A3689D4212DB616830460131FFF7CA
:105020008FFF8046226904F10C01023292000C309D
:10503000FDF73EFD21463046FFF7B7FF444604EB3F
:10504000850301355F6125612046BDE8F081030CD1
:105050001B0413B90004102300E0002310F07F4F5D
:1050600004BF0002083310F0704F04BF0001043386
:1050700010F0404F04BF80000233002803DB4200E1
:1050800003D5581C704718467047202070470368A6
:1050900013F007020BD0D90722D49A074BBF5B0845
:1050A0009B08036003604CBF01200220704799B247
:1050B00009B91B0C102213F0FF0F04BF1B0A0832A2
:1050C000190704BF1B090432990704BF9B08023269
:1050D000D90702D45B0805D001320360104670473F
:1050E000002070472020704710B50C460121FFF7C3
:1050F00027FF01224461026110BD2DE9F74F1446DC
:105100000A69236988469A42BEBF0B46A0461C46E0
:10511000D8F81070D4F81090D8F80830D8F80410E7
:1051200007EB09069E42C8BF0131FFF709FF00F1F6
:1051300014052B4605EB860C0022634502D243F88A
:10514000042BFAE704F1140208F1140102EB8903BD
:1051500001EB87070093009B0192934257D9B2F865
:1051600000B0BBF1000F23D08946AE464FF00008D7
:1051700059F8044BBEF800A0A3B20BFB03A34FEAFF
:10518000144ADEF8004043444FEA14480BFB0A84FB
:10519000F24604EB13449BB243EA04434F454FEA03
:1051A00014484AF8043B01D9D646E1E7CEF804801A
:1051B000019B0432B3F802A0BAF1000F21D02C46B3
:1051C00089462B684FF00008B9F800E0B4F802B047
:1051D0009BB20AFB0EBEA346F04443EA08434BF8D9
:1051E000043B59F8043BB4F804E01B0C0AFB03E34E
:1051F0004F4503EB18434FEA134801D95C46E3E7F8
:1052000063600435A7E75CF8043D13B9013E002E46
:10521000F9DC066103B0BDE8F08F00002DE9F8432A
:10522000154612F0030206460F4607D0214C013AFC
:10523000002354F82220FFF7CFFE0746AD1036D0EA
:10524000746A3CB91020FBF70BF97062446084600B
:105250000460C460D6F82480D8F808404CB940F205
:1052600071213046FFF740FF04460023C8F80800CC
:1052700003604FF00008EB070AD539462246304656
:10528000FFF73BFF814639463046FFF78EFE4F461B
:105290006D100CD0206808B10446ECE72246214688
:1052A0003046FFF72AFF2060C0F80080F4E7384658
:1052B000BDE8F883106700002DE9F0470C4607466B
:1052C000914626694FEA621A56444968A368751CDC
:1052D000AB4202DA01315B00FAE73846FFF730FEF5
:1052E000002380461A4600F11401534503DA41F8C1
:1052F00023200133F9E72AEAEA73206901EB8303EB
:1053000019F01F0904F1140101EB800E14D0C9F14A
:10531000200C002208689A4600FA09F0024343F87C
:10532000042B51F8042B8E4522FA0CF2F2D8CAF85D
:10533000042042B1B51C06E0043B51F8042B8E4515
:1053400043F8042FF9D8013D3846C8F810502146DB
:10535000FFF72BFE4046BDE8F08703690A6910B5E8
:105360009B1A11D192001430143183180A4453F857
:10537000044D52F8041D8C4202D007D3012010BD09
:105380009842F4D3002010BD184610BD4FF0FF30F6
:1053900010BD2DE9F8430C46074611462046154638
:1053A000FFF7DBFF061E08D131463846FFF7C8FD80
:1053B000012303614661BDE8F883BCBF23462C4648
:1053C00038466168BABF1D4601260026FFF7B8FDC2
:1053D0002B69C660266905F1140904F1140101EB7B
:1053E000860709EB830800F114054FF0000C51F813
:1053F000042B59F8044B93B29C44A3B2240CC3EB86
:105400000C03C4EB124202EB23429BB24FEA224C44
:10541000C84543EA02428E4645F8042BE7D8BE450C
:105420000ED25EF8041B8AB26244131403EB1143DC
:1054300092B242EA03424FEA234C45F8042BEEE7CE
:1054400055F8043D0BB9013EFAE70661BDE8F88363
:105450002DE9F3411C4601219046089E099DFFF766
:105460006FFDC4F31302C4F30A5407460CB142F4AF
:1054700080120192B8F1000F19D002A840F8088DEF
:10548000FFF705FE009B48B1019AC0F1200102FA26
:1054900001F10B43C2407B61019200E07B61019B03
:1054A000002B14BF02210121BB61396107E001A873
:1054B000FFF7EDFD019B01217B613961203034B1A3
:1054C000A4F2334404443460C0F1350009E0A0F292
:1054D000324007EB810330601869FFF7B8FDC0EB7D
:1054E00041102860384602B0BDE8F08138B502FBB3
:1054F00001F42146FDF74EFB054618B12246002176
:10550000FDF7FCFA284638BDF8B5074615460E46A5
:1055100021B91146BDE8F840FDF73CBB1AB9FDF7CB
:10552000F5FA2846F8BD00F01FFB85420ED9294642
:105530003846FDF72FFB044650B131462A46FDF7A9
:10554000B7FA31463846FDF7E1FA01E03046F8BDDA
:105550002046F8BD2DE9F0478E6882469E420C46F3
:10556000914698463ED88A8912F4906F3AD02568C1
:10557000096902236F1A656905EB450595FBF3F58B
:105580007B1C43449D4238BF1D4653050FD5294619
:10559000FDF700FB064698B13A462169FDF788FA07
:1055A000A38923F4906343F08003A38113E02A4688
:1055B000FFF7AAFF064670B921695046FDF7A6FA23
:1055C0000C23CAF80030A3894FF0FF3043F04003AA
:1055D000A381BDE8F08726613E44266046466561AA
:1055E000ED1BA560464528BF464649463246206821
:1055F000FDF769FAA36800209B1BA36023681E4483
:105600002660BDE8F08700002DE9F04F9DB00393C0
:105610008B8980461C060D4616460DD50B695BB975
:105620004021FDF7B7FA2860286118B90C23C8F8A3
:105630000030CDE040236B610023099320238DF8D7
:105640002930DFF89CB130238DF82A3037463C46AC
:1056500014F8013B1BB9B7EB060910D003E0252B6A
:10566000F9D02746F3E74B46324629464046FFF736
:1056700071FF013000F0A780099B4B4409933B78F0
:10568000002B00F0A08000234FF0FF32049307931B
:10569000059206938DF853301A930126052221783E
:1056A0004E48FDF7F7F9671C049B38B14B4A3C465E
:1056B000801A06FA00F018430490EFE7D90644BFB9
:1056C00020228DF853201A0744BF2B228DF8532037
:1056D00022782A2A03D0079A00210A200BE0039A95
:1056E000111D12680391002A10DA524243F00200A1
:1056F000079204900BE027463B780134303B092B9E
:1057000003D800FB02320121F5E701B107923B7893
:105710002E2B1ED17B782A2B0AD1039B02371A1D10
:105720001B680392002BB8BF4FF0FF33059310E0C6
:10573000002319460593781C0A2407463A7801305D
:10574000303A092A03D804FB01210123F5E703B10C
:105750000591032239782248FDF79CF940B1402396
:10576000CBEB000003FA00F0049B013718430490D0
:10577000397806221B487E1C8DF82810FDF78AF91F
:1057800088B1194B33B9039B073323F00703083360
:10579000039314E003AB00932A46144B04A940463C
:1057A000FDF72CFC07E003AB00932A460F4B04A93E
:1057B0004046FDF7CFFEB0F1FF3F824603D0099B84
:1057C0005344099342E7AB895B0601D4099801E091
:1057D0004FF0FF301DB0BDE8F08F00BFC464000083
:1057E000CA640000CE640000FD2F00005555000083
:1057F0004B1C70B50E46144602D14FF0FF3070BD01
:105800009389CDB223F020039381536B526883B107
:10581000A36B9A4207DA23685A1E226003F8016CD0
:10582000636801331FE02146FEF7DAFB0028F2D05F
:10583000E3E72169236851B1994208D213F8011CAA
:105840008D4204D1013B0132236062600CE0E363CE
:1058500004F1440363630323A3632346226403F830
:10586000466F236001236360284670BD10B50C4667
:10587000496B69B104F14403994201D0FDF746F93F
:10588000236C00206063636013B1E36B236010BD81
:1058900023694FF0FF30236000236360A38943F046
:1058A0002003A38110BD00002DE9F04FDFF8909296
:1058B00007460C46CA46ADF5257D01930023469365
:1058C00047939B4B0DF10C08A2939A4BDFF868B2FB
:1058D000CDF82081A3931578002D00F02081D9F810
:1058E00000302B445B7803F0080303F0FF01F3B1B1
:1058F0006368002B10DD2368DAF800001978014492
:1059000049780D0710D547990133013147916168F6
:10591000236001396160EBE7A39B21463846009282
:105920009847009A0028E6D0561C3246D3E7252D2A
:1059300002F101064BD14391459153782A2B02BFC6
:105940001023961C43930A2231783546A1F1300387
:10595000092B06F1010605D8459B02FB0313303BDA
:105960004593F1E703227448FDF794F840B13546BA
:105970000123CBEB000003FA00F0439B0343439366
:105980006E1C2D78672D0FD8652D78D25B2D54D0E5
:1059900005D8002D00F0C580252D18D071E0632DAD
:1059A00057D0642D3FD06CE0702D32D007D86E2DCB
:1059B00055D03AD8692D64D1002344933BE0752D2E
:1059C00031D0782D29D0732D5BD102233FE063685D
:1059D000002B0DDD23681A78954240F0A08001333A
:1059E00062682360479B013A0133626047939CE7FA
:1059F000A39B2146384698470028EBD046980028BC
:105A000000F08F80A38913F0400F18BF4FF0FF30D4
:105A100089E0439B43F020034393439B43F400738B
:105A20004393102302E00A2300E008236E2D4493E1
:105A300001DD04230BE0032309E031464046FEF775
:105A400051F80646439B43F0400343930123499397
:105A50001BE0439B43F0400343930023F7E7439A43
:105A6000D0063FF562AF12F0010F019A479B02F199
:105A700004010191126814BF1380136055E70523D8
:105A8000E5E7032349930A2344936368002B03DD6E
:105A9000439B590611D518E0A39B214638469847E9
:105AA0000028F5D0AAE7479A013247926268013A86
:105AB000002A626013DD013323602368DAF80010E6
:105AC0001A780A4452781207EDD4499B022B0DDC58
:105AD00001AB224643A93846FDF762FE19E0A39BBD
