:1000000000800010511F0000811F0000831F0000AE
:10001000851F0000871F0000891F000000000000EE
:100020000000000000000000000000008B1F000026
:100030008D1F0000000000008F1F0000911F0000B6
:10004000931F0000931F0000931F0000931F0000E8
:10005000931F0000931F0000931F0000931F0000D8
:10006000931F0000931F0000931F0000931F0000C8
:10007000931F0000931F0000931F0000931F0000B8
:10008000931F0000931F0000931F0000931F0000A8
:10009000931F0000931F0000931F0000931F000098
:1000A000931F0000931F0000931F0000931F000088
:1000B000931F0000931F0000931F0000931F000078
:1000C000931F0000931F0000931F0000044B05487E
:1000D0001B1A062B02D9044B03B11847704700BF07
:1000E000830100108001001000000000054906484F
:1000F000091A891001EBD171491002D0034B03B1E9
:1001000018477047800100108001001000000000B7
:1001100010B5064C237843B9FFF7D8FF044B13B151
:100120000448AFF300800123237010BD800100104C
:1001300000000000606F000008B5084B1BB10849C3
:100140000848AFF300800848036813B9BDE80840C9
:10015000CCE7064B002BF9D09847F7E700000000EA
:1001600084010010606F000080010010000000009A
:1001700030B5044683B04FF0FF35009501F08EFE98
:10018000002204F1140318466261A261E261226256
:100190006262A262069900F083FA2046084901F0E3
:1001A000C3FE20460821032201F0B2FE236AA269A1
:1001B0004FF4FA701A6000F029FA204603B030BDFF
:1001C00080841E0010B50446436A826901F03F0135
:1001D0001A6041F0800101F0AFFE2046002101F0DD
:1001E000ABFE236AA2691A6010BD00BF0021FFF7B1
:1001F000E9BF00BF70B504461546436A866901F041
:100200003F011E6001F098FE2946204601F094FE51
:10021000236AA2691A6070BDCAB21D21FFF7EABF46
:10022000044ACB1782FB0121C3EB2122D2B2212148
:10023000FFF7E0BFAD8BDB6810B50446084602F05F
:1002400003F80022054B02F08FF902F075FA222123
:10025000C2B22046BDE81040FFF7CCBF0000F43F1B
:1002600010B50446084601F0EFFF0022054B02F0EE
:100270007BF902F061FA2321C2B22046BDE81040AA
:10028000FFF7B8BF0000F43FCAB22421FFF7B2BFA6
:10029000CAB22521FFF7AEBFCAB22621FFF7AABF17
:1002A000CAB22A21FFF7A6BFCAB22D21FFF7A2BF0B
:1002B000CAB22E21FFF79EBFCAB22F21FFF79ABF05
:1002C000CAB23121FFF796BF38B50C462C2105463E
:1002D000FFF778FF00F0100040EA0402D2B228468F
:1002E000BDE838402C21FFF785BF00BF70B51E4622
:1002F0008469436AC9B21C60144641F0E0010546B6
:1003000001F01AFE002EC8BF361907DD002128466D
:1003100001F012FE04F8010BB442F7D12B6AAA696E
:100320001A6070BD10B582B00C466A4606233221B1
:10033000FFF7DCFFBDF80010BDF80220BDF8043067
:1003400084E80E0002B010BD704700BF704700BFC8
:10035000014803F0F5BF00BFB867000010B50446C0
:10036000064B403003F1180103F14C022360216475
:10037000626401F0A3FC204610BD00BF006B0000CA
:10038000A0F14000EAE700BFA0F14400E6E700BFAB
:1003900010B5044601F003FE204610BD10B53048EC
:1003A00084B0002401940294039404F059F82D4879
:1003B000FFF71CFF01462C4803F0C2FF21462948E5
:1003C000FFF772FF0B212748FFF77AFF0F2125481F
:1003D000FFF77AFF4B212348FFF756FF4B212148B7
:1003E000FFF756FF0A211F48FFF756FF40211D481F
:1003F000FFF75EFF40211B48FFF75EFF072119480A
:10040000FFF74EFF0F211748FFF70AFF322115486B
:10041000FFF702FF50211348FFF70EFFC8211148D4
:10042000FFF71EFF50210F48FFF706FF08210D4878
:10043000FFF73AFF0D490E4801F0AEFC0D4800F001
:10044000F1F801A90748FFF76DFFBDF90C30BDF9C0
:100450000820BDF90410084803F072FFEEE700BF62
:10046000CC670000F4010010E867000051030000B1
:1004700020020010CDCCCC3D0068000010B5044631
:10048000074B403003F1180103F14C022360216453
:10049000626401F013FC204601F081FD204610BD8E
:1004A000006B0000A0F14000E8E700BFA0F14400AD
:1004B000E4E700BF70B5144B144D82B0144C0093A8
:1004C000144E01332846144A1449FFF751FE2246C0
:1004D0002846134901F05EFD124D00233046124AB2
:1004E000124901F033F922463046114901F052FD1C
:1004F0002846104901F02CFC224628460E4902B03D
:10050000BDE8704001F046BD06C00920F4010010AE
:10051000C80000109C01001008C0092009C0092073
:100520004D0300002002001003C0092002C0092072
:100530005D03000017C00920E11C0000074A0848BD
:1005400008B50021121A02F03FFFAFF3008002F05D
:1005500085FE01F063FA02F0AFFB00BF4C0500100E
:1005600080010010022801DC0120704701F01EBA52
:10057000EFF3058303B100BE02F0E2BEEFF30583A3
:1005800003B100BE02F0E4BE08B5012002F094FB06
:1005900008B5FFF7F9FF00BF036870B5DB680546D3
:1005A00098476B685B6883B12A681C6853689847F2
:1005B000201A00286A680DDC50681168836853604F
:1005C0000029F0D040688847EBE72B68BDE8704011
:1005D0009B6818472B6852681B691068BDE870401B
:1005E000184700BF30B585B018246D46204629460F
:1005F000ABBE0446204605B030BD00BF024B1868B4
:1006000000F00100704700BFF0ED00E038B505468E
:1006100000F03AFC044600F037FC001BA842FAD375
:1006200038BD00BF08B5044902F0BCF902F00AFB6E
:10063000BDE80840FFF7EABF002474494FF47A731D
:1006400003FB00F0FFF7E2BF0FB400B5064A83B02A
:1006500004AB53F8041B10681A46C068019303F0FA
:1006600097F8012002F028FB340100100148FFF741
:1006700093BF00BF20680000FFF7C0BF38B50D462C
:10068000044600F095FB013509D02046002100F01A
:10069000B1FB2046BDE83840032100F0A7BB38BDC0
:1006A00038B50D46044600F083FB01350CD02369B4
:1006B0006268204601211A6000F09CFB2046BDE8DC
:1006C0003840022100F092BB38BD00BF70B50D4626
:1006D0001646044600F06CFB013511D066B923695B
:1006E00062681A602046012100F084FB2046BDE8C4
:1006F0007040022100F07ABBE36862681A60F1E79B
:1007000070BD00BF431C1CD00B685A1C1AD0984205
:1007100010B5044602D10AE09C4208D051F80C3FC3
:100720005A1CF9D10948BDE81040FFF78DBF20469B
:10073000896800F0CFFB2046BDE81040022100F0A0
:10074000E5BB70470148FFF77FBF00BF2868000086
:1007500088420AD0421C09D0013106D008B50448AD
:10076000FFF772FF4FF0FF3008BD70470846704733
:100770003C6800000B685A1C08D0984202D107E080
:10078000834205D051F80C3F5A1CF9D118467047E6
:1007900048687047421C0ED008B50B685A1C04D13B
:1007A0000AE051F80C3F5A1C06D09842F9D148682B
:1007B000411C01D008BD70470248FFF745FF4FF0CC
:1007C000FF3008BD5068000000B599B072B61749F7
:1007D0006846FFF765FF06A81549FFF761FF0CA8FB
:1007E0001449FFF75DFF12A81349FFF759FF039A59
:1007F00001990A9B11600799109A19600D99159B30
:100800001160139A96201A60FFF718FF049A019955
:10081000099B116007990F9A19600D99169B116039
:10082000139A96201A60FFF709FFE0E732C009200B
:1008300034C0092035C0092037C009200C4B30B422
:100840009D689A682B46B2F1805F0CD2094AC43584
:1008500053F8044BAB4242F8044FF9D14FF08052A9
:100860001346034CA260103043F8201030BC704790
:1008700000ED00E0FCFFFF0F2B4A2023F0B4C2F88C
:10088000A031D2F8A031980645D4274B002519464F
:100890000124AA20552202270B26C3F80471C3F8AD
:1008A000A851C3F8AC51C3F80C41C3F88460C3F835
:1008B0008C00C3F88C20C3F88040C3F88C00C3F8C8
:1008C0008C20D1F88830184A5B01FAD511460324F0
:1008D000AA205523C2F88040C2F88C00C2F88C30A0
:1008E000D1F88830104A13F0407FF9D00F49002327
:1008F0000520C2F80801C2F8C410C2F8C831136854
:10090000F0BC23F4704323F03A0343F4405343F024
:100910003A0313607047D2F8A0315906B5D4D2F823
:10092000A0315906F7D5B0E700C00F40DE87280494
:100930002DE9F04F0F4683B080462B4938461646C6
:100940001D460C9CFFF726FF284981463046FFF7DD
:1009500021FF274901902846FFF71CFF25498246C1
:100960002046FFF717FF019B834619464846FFF7CD
:10097000EFFE594681465046FFF7EAFE01464846DB
:10098000FFF7E6FE1C4BC8F80000984223D003F5A1
:10099000B023984214D038461349FFF7B3FE3046CF
:1009A0001249FFF7AFFE28461149FFF7ABFE631C63
:1009B0000ED020460F4903B0BDE8F04FFFF7A2BEAE
:1009C0000E4AD2F8C43043F40013C2F8C430E2E750
:1009D00003B0BDE8F08F094AD2F8C43043F4806315
:1009E000C2F8C430D7E700BF30690000906800004B
:1009F000CC6800006C6900000000034000C00F409C
:100A0000002B036830B45C684FEAC21024F0020483
:100A10005C601C6800F0800001F1FF3141EA0001D8
:100A2000C2F340024FEA144041EA82114FEA00400B
:100A300040EA010018605A6814BF0425002522F01E
:100A40000D022A435A605A6830BC42F002025A60D2
:100A5000704700BFF8B507682D4A7B68974223F0BE
:100A600002037B6041D02B4B9F422FD02A4B08467C
:100A70001E6801F043FF0224054603E00234B4F58A
:100A8000807F40D0B6FBF4F001F038FF294602F039
:100A90003DF84FF07C5101F07DFE01F0E7FB05F0E1
:100AA0006FFD01F049FEFF28E8DC3C613B6801383E
:100AB00023F47F0323F47F433B603B6843EA002039
:100AC00038607B6843F002037B60F8BD03F5E823E0
:100AD000D3F8AC2122F44062C3F8AC21D3F8AC21A6
:100AE00042F48062C3F8AC21C0E70C4BD3F8A821D4
:100AF00022F44012C3F8A821D3F8A82142F48012AE
:100B0000C3F8A821B2E70648BDE8F840FFF79CBD4E
:100B10000000034000800840CC00001000C00F40DF
:100B2000086900000368DA689007FCD59960DA6804
:100B30005207FCD5986870472DE9F04F434B83B0BE
:100B40005C689F685E6A9D6A14B39946DFF800810D
:100B5000DFF800B14FF0010A05E00AFA03F3E41AE6
:100B6000C9F80C3014D0B4FA84F3C3F11F03DBB21C
:100B700058F823000028F0D0DBF800200121019371
:100B80009047019B0AFA03F3E41AC9F80C30EAD142
:100B9000DFB1DFF8BC80DFF8BCA0DFF8B09006E082
:100BA000012303FA04F43F1BC9F80C400DD0B7FA37
:100BB00087F4C4F11F04E4B258F824000028EFD0F1
:100BC000DAF8003002219847EAE7EEB1DFF88080DA
:100BD000DFF880901D4F05E0012303FA04F4361B73
:100BE000FC6211D0B6FA86F4C4F11F04E4B20F2CF3
:100BF00004F12003F0D858F823000028ECD0D9F8ED
:100C0000003001219847E7E7E5B1114FDFF8448054
:100C10000E4E05E0012303FA04F42D1BF46211D0FB
:100C2000B5FA85F4C4F11F04E4B20F2C04F12003DB
:100C3000F0D857F823000028ECD0D8F80030022173
:100C40009847E7E703B0BDE8F08F00BF808002401F
:100C50008402001080020010B1F1FF3F29D070B56E
:100C60000446154E1D46154821F01F03B34201F0FE
:100C70001F0102602360616019D0114A934206D0BF
:100C80001048FFF7E1FC23686168B3420FD001F11F
:100C900020020D4BA2600D49152043F82250FFF7AA
:100CA000CDFD0B4B4FF400121A60002070BD0A46B8
:100CB000EFE70846704700BF00C00920800200101F
:100CC00040C00920A869000084020010390B000010
:100CD00000E100E08268024B002143F822107047D7
:100CE0008402001030B403682E4CA3421CD02E4D59
:100CF000AB4207D0012934D0A3421CD0AB4208D06C
:100D000030BC704745680123284CAB400129E362A1
:100D10002ED0264940680123F2B930BC4A6B83408B
:100D200022EA03034B637047456801231F4CAB4025
:100D30000129E36025D01D49406801232AB130BC58
:100D40004A69834013434B6170474A69834022EAF2
:100D500003034B6130BC70474A6B834013434B63C2
:100D6000CEE7A3420AD0AB42CAD1436801FA03F3EB
:100D70000E498AB10A6B13430B63C1E7436801FA5A
:100D800003F30A491AB10A6913430B61B8E70A6908
:100D900022EA03030B61B3E70A6B22EA03030B6346
:100DA000AEE700BF00C0092040C00920808002409B
:100DB0004A1C016018D038B50C4605460021204673
:100DC00000F088F824F01F0104F01F020123934073
:100DD00001F1180401F11C0001F11402A9606B601B
:100DE000EC6028616A6138BD704700BF006800F0A0
:100DF0008DB800BF41B1012905D1826843681168EF
:100E00000B4313607047704782684168136823EA98
:100E100001031360704700BF38B51049104B01241F
:100E20001C60D1F8C4300F4A43F400030E4800257B
:100E3000C1F8C430156703680C480221A0FB030306
:100E40001B0D013B51600420D36009495460FFF73A
:100E5000F5FC084B10221A6038BD00BF00C00F40DF
:100E60004403001000400940CC00001083DE1B4307
:100E70006D06000000E100E0024B1B6803B1704703
:100E8000FFF7CABF4403001008B5044B1B680BB939
:100E9000FFF7C2FF024B986808BD00BF4403001073
:100EA00000400940034B98615A6942F001025A61BF
:100EB000704700BF00400940024A536923F0010314
:100EC0005361704700400940014B01221A6070478E
:100ED0000040094000F16040A0F51C2003099B0080
:100EE00003F1804303F53033400010B400F01E00DE
:100EF0001C680322824024EA02021A601A688140B8
:100F000041EA0200186010BC704700BF00F1604069
:100F1000A0F51C2043099B0003F1804303F5303307
:100F200030B400F01F029C6EC1F3800505FA02F296
:100F300024EA02049C669C6E22439A669DB90309CA
:100F40009B0003F1804303F5303340001C6C00F03C
:100F50001E000322824024EA02021A641A6C01FA7B
:100F600000F01043186430BC704700BF154B9968FF
:100F7000C1F34201012918D0022914D1124A516F3C
:100F8000013106D0D2F88010906F086092F8A61058
:100F900089B1106F0C4B38B193F8A63023B10B4BCD
:100FA00000211B68184770477047074B186F38B10E
:100FB000064B1B681847596821F001015960E8E7A2
:100FC000704700BF00800940500300104C03001020
:100FD000F8B5294C0368A34247D03FDD274CA34214
:100FE00029D004F58044A34242D1254D082632BBC6
:100FF00001290BD04268234CC2EBC20204EBC202AF
:1010000092F8364092F83520D44213D1B1FA81F2E9
:101010005D68012404FA01F125EA010159600368C1
:1010200052095B6804FA02F21A4203D1164BB4402B
:10103000C3F88040F8BD154D0726002AD8D058685F
:10104000012707FA01F2024374B25A60294620468A
:10105000FFF7F4FB0C4BA7401F60F8BDA4F58044DC
:10106000A34205D10A4D0526C1E70A4D0626BEE773
:1010700000252E46BBE700BF00000140008009406C
:10108000991000005003001000E100E06D0F000017
:101090000511000065110000174B9968C1F342016A
:1010A00001291BD0022917D1144AD2F8AC10013102
:1010B00007D0D2F8B810D2F8B000086092F8DE106D
:1010C00099B1D2F8A8000D4B38B193F8DE3023B1B6
:1010D0000B4B00211B68184770477047074BD3F82C
:1010E000A80038B1064B1B681847596821F0010168
:1010F0005960E6E7704700BF00C009405003001088
:101100004C030010144B9968C1F34201012917D018
:10111000022913D1114A5168013105D01169906833
:10112000086092F8361089B110680C4B38B193F80A
:10113000363023B10A4B00211B68184770477047AF
:10114000064B186838B1064B1B681847596821F0E0
:1011500001015960E8E7704700C0004050030010EB
:101160004C030010144B9968C1F34201012917D0B8
:10117000022913D1114AD16B013105D0916C106C49
:10118000086092F86E1089B1906B0C4B38B193F8EF
:101190006E3023B10A4B00211B6818477047704717
:1011A000064B986B38B1064B1B681847596821F0FD
:1011B00001015960E8E7704700000140500300104A
:1011C0004C0300102DE9F04F02686E4B89B09A4233
:1011D0000790069200F0C88040F3B4806A4B0698EE
:1011E000984272D003F58043984240F09D80674B4F
:1011F000D3F8AC2122F44022C3F8AC21D3F8AC21BF
:1012000042F48022C3F8AC21614A0B011268B2FBA0
:10121000F3F003FB1023039280B2002B00F09080C8
:10122000039B4FF001085A009C009446A246C34617
:101230008E469946002305920494009002910193F2
:1012400000242546029E5FFA88F7BCF1000FB5BF67
:10125000BCFBF6F0BAFBF6F0000940090130C0F320
:101260004F0008EB040200283DD00CB101283BD010
:10127000034603FB02F3DB00B9FBF3F30133C1EBDD
:101280005303002BB8BF5B42734505DA994230D057
:101290009E46BB468DE821000134E5B2AF420E44C4
:1012A000D3D8039B08F101089944059BB8F1100FAE
:1012B0009C44049B9A44029B0B440293C0D1019B23
:1012C000009843EA0B15EDB216E0304BD3F8AC2191
:1012D00022F44032C3F8AC21D3F8AC2142F480327E
:1012E000C3F8AC2190E714B102200346C1E7012006
:1012F000BEE745EA0715EDB20699C0F307220B7B5E
:10130000C0B243F080030B7307990B681A710B6826
:1013100018700B6883F828500A68137B03F07F036A
:10132000137309B0BDE8F08F194A0B011268B2FBC4
:10133000F3F003FB1023039280B2002B7FF470AF15
:101340001025D9E7A3F580439A42EDD10F4BD3F88E
:10135000A82122F0C002C3F8A821D3F8A82142F0A6
:101360004002C3F8A8214FE7084BD3F8A82122F484
:101370004072C3F8A821D3F8A82142F48072C3F8C0
:10138000A82141E7000001400080094000C00F4053
:10139000CC000010436810B40448054CC3EBC303F1
:1013A00044F83320016010BC704700BF4C030010AC
:1013B000500300100268137DDB07FCD54368094920
:1013C000C3EBC30301EBC303596810780131C0B20A
:1013D00006D059699B680B60536843F00103536062
:1013E000704700BF500300104368154AC3EBC303A6
:1013F000DB00D11810B4CC6901340FD00B460A6B56
:101400001C335B6812681A4205D1036810BC187D52
:10141000C0F380107047002010BC704703681B7D2C
:101420009B0607D491F8340010BC0F288CBF002015
:1014300001207047002381F83430012010BC704730
:101440005003001038B504460D462046FFF7CCFF88
:101450000028FAD02368EDB21D706368054AC3EB1B
:10146000C30302EBC30393F83420013283F8342022
:1014700038BD00BF500300102DE9F04F0546444829
:101480002C6883B084420F4691469A461DD06E6800
:1014900000243246DFF804B14FEAC608C2EBC201AD
:1014A000C6EB08000BEBC00000220BEBC1014FF0B4
:1014B000FF3381F83520C361436011462846FFF7AA
:1014C00087FD4FB903B0BDE8F08F237C6E6803F051
:1014D0003F0323746A68DDE72E494846FFF74AF95F
:1014E0002D4901905046FFF745F9BA1E012A30D91F
:1014F000012FE7D1B9F1FF3FE4D0254A019B2968CC
:101500000720934208720BD154B14846237C2149ED
:1015100043F04003237403B0BDE8F04FFFF7F2B887
:10152000C6EB08060BEBC600494604300022FFF765
:10153000CDF86A680124C2EBC2020BEBC203284655
:101540002246002183F8354003B0BDE8F04FFFF795
:101550003FBDBAF1FF3F0AD00D4A90420DD0C6EB15
:1015600008000BEBC00051461C30FFF787F8032F33
:10157000A8D1B9F1FF3FC0D1A4E7002CEFD0227C65
:10158000504642F0800222740349FFF7BBF8EEE7B1
:1015900000000140D8690000D46A00005003001028
:1015A0002DE9F0410F460546594938461646FFF7E2
:1015B000F1F8584904463046FFF7ECF8014620465A
:1015C000FFF7C6F8544B0446984228607FD06FD985
:1015D000524B98424BD003F58043984206D1504A73
:1015E000D2F8C43043F00073C2F8C4300123237230
:1015F0002B684FF00008C3F804804FF416512846BA
:10160000FFF7E0FD2B6803221A7341493846FFF7C4
:1016100079F840493046FFF775F87A1C03D0414607
:101620003846FFF773FC731C03D030460021FFF7E8
:101630006DFC394B9C4247D021D9384B9C4263D03A
:1016400003F580439C424AD103236B60354CC3EBC6
:10165000C3034FF0FF3604EBC3042846334632463B
:101660006660E6610021BDE8F041FFF705BF2C4A46
:10167000D2F8C43043F08073C2F8C430B6E7A3F5A3
:1016800080439C422BD1274E4FF0FF3400216960EC
:101690002346224628467460F461FFF7EDFE224B94
:1016A00001221A6028686968204B03C3BDE8F081F5
:1016B000A3F58043984299D1194AD2F8C43043F037
:1016C0000803C2F8C43091E701236B60BEE7144AF7
:1016D000D2F8C43043F01003C2F8C43086E76E6815
:1016E000104BC6EBC6064FF0FF3703EBC6063A4673
:1016F0003B46002128467760F761FFF7BDFE0C4BA3
:101700009C42CCD0BDE8F08102236B609EE700BF15
:10171000686A0000FC690000000001400080094088
:1017200000C00F4050030010480300104005001097
:1017300000C0004000F078BBA0F14000FFF7FABF06
:1017400000F076BBA0F14000FFF7FABF38B50446C1
:101750001D4600F04BFB294604F1400000F08CFAD6
:10176000054B204603F1080103F1200254332160A8
:101770002264636438BD00BFF86A0000036870B576
:1017800001221B69002104469847064601300ED00D
:10179000236802221B6900212046984723680546DA
:1017A00031461B69204600229847284670BD3046C6
:1017B00070BD00BF024A03490348FFF7F1BE00BFF6
:1017C00003C0092002C0092040050010074A084B49
:1017D00010B4026003F58071002453F8042F904286
:1017E00008BF1C608B42F8D110BC7047746B0000BE
:1017F0002C040010F0B50E4685B03749054602F0BE
:10180000C2FF28B9354B1B68002B43D005B0F0BD93
:101810003349284602F0B7FF30B9304B1B68002B24
:1018200043D0012005B0F0BD2E49284602F0ABFFA1
:10183000002835D02C4B002402E00134402C3DD050
:1018400053F8042F002AF8D12B783A2B3DD02946A3
:1018500002A800F01FF902A800F072F970B302A804
:1018600000F054F928BB02A800F040F9054628B35F
:10187000036802A89F6800F037F926F48032014619
:101880002846B8470346CBB1184AE01C42F824303A
:1018900005B0F0BD0190FFF78DFF019805B0F0BDD8
:1018A0000E4B1B686BB10220B0E7FFF783FF0120EE
:1018B000ACE702A800F034F90346E4E74FF0FF304C
:1018C000A4E7FFF777FF0220A0E7284602AA08490D
:1018D00002F0EAFE029BD6E7546B000048030010BA
:1018E000646B00005C6B00002C04001030040010DE
:1018F000986B000002280ADD074AC31E52F8230035
:10190000002142F8231020B103685B6818470020CB
:1019100070474FF0FF30704730040010022812DC8F
:101920000E4B70B51B680C4616460BB9FFF742FF0D
:10193000A51936B114F8011B0948FFF783FDAC4225
:10194000F8D1304670BD074B033853F8200010B172
:1019500003681B6818474FF0FF30704748030010BA
:10196000400500103004001002280DDC0C4B10B5AF
:101970001B680C460BB9FFF71DFF0A48FFF71AFD5D
:1019800001232070184610BD074B033853F8200080
:1019900010B103689B6818474FF0FF331846704733
:1019A000480300104005001030040010022807DD35
:1019B000064B033853F8200020B10368DB68184752
:1019C000012070474FF0FF30704700BF3004001017
:1019D000022807DD064B033853F8200020B10368C6
:1019E0001B691847002070474FF0FF30704700BF59
:1019F00030040010022808B504D84FF400534B609F
:101A0000002008BD01F052F9092303604FF0FF30B8
:101A100008BD00BF704700BF704700BF08B5FFF7A3
:101A2000FBFFFFF7F7FFBDE80840FEF7B7BC00BFBC
:101A3000074A13681918EFF30880814202D218464A
:101A400011607047034B0C221A604FF0FF30704753
:101A5000D0000010480500100B4C08B5236805465F
:101A6000986801F047FA2368D86801F043FAFEF756
:101A700003FE20B905B9FEE7FEF7A6FEFBE7FEF779
:101A8000B1FD002DF7D0F7E734010010002102F07E
:101A900057BD00BF38B50023036043600A78044691
:101AA0002F2A01D0204638BD4A78002AFAD0481C97
:101AB00020604D782F2D13D085B1034600E06AB128
:101AC0005D1A013323601A782F2AF8D12946013391
:101AD000236000F083F86060204638BD2946F8E7AF
:101AE00019460346F3E700BF00687047436843B1F7
:101AF00010B50446184600F08BF8012803D1606841
:101B000010BD00207047002010BD00BF406830B1FC
:101B100008B500F07DF8B0FA80F0400908BD7047C4
:101B200043684BB110B50446184600F071F828B967
:101B3000606818B1043810BD00207047002010BD47
:101B40004068003018BF0120704700BF094A836811
:101B5000026053B1084B1A68904201D106E01A4660
:101B600053689842FBD143685360704742681A60DB
:101B7000704700BFB06B0000300500100C4A83684E
:101B800010B50446026053B10A4B1A68904201D165
:101B90000AE01A4653689C42FBD1636853602046B2
:101BA00000F0FDF9204610BD42681A60F7E700BF5B
:101BB000B06B00003005001010B4064C0023027317
:101BC00081600460436019B1034B1A681860426079
:101BD00010BC7047B06B000030050010F8B50B4B1F
:101BE0001C688CB107460E46A56855B13246394689
:101BF000284602F0DAFD20B9284602F0CEFD8642E2
:101C000002D06468002CEFD12046F8BD30050010EA
:101C1000007B7047F8B58E18B1420F460ED00546CE
:101C20000C4601E0A64207D02B6814F8011B5B6A42
:101C3000284698470130F5D1E01BF8BD0C46FBE77C
:101C4000F8B58E18B1420F460ED005460C4603E09B
:101C500004F8010BA64205D02B6828469B6A9847DA
:101C6000431CF5D1E01BF8BD0C46FBE70020704794
:101C7000002070470020704710B5044684B000F083
:101C8000DFF80B4B002203F108013C3384E80A0023
:101C9000626101A82246074902F0E2FC064901A858
:101CA00001F028FA6061FFF7F1FE204604B010BD94
:101CB000B86B0000986B0000FC6B000010B5044688
:101CC000064B406903F108023C3384E80C0001F044
:101CD00059F8204600F0C8F8204610BDB86B000047
:101CE00010B50446034B40F81C3BFEF7F3FF2046BB
:101CF00010BD00BF086C000010B50446044B40F84E
:101D00001C3BFEF7E7FF204600F049F9204610BDD6
:101D1000086C000001290DD0022907D1436D33B1B1
:101D2000026C32B100F14401104618477047036C51
:101D300063B97047C36B33B1826A002AF9D000F1EE
:101D40002C0110461847836A002BF2D0184700BFB9
:101D500070B5054604460E460D4B002245F8043B7F
:101D6000426003466A60AA60EA602A616A611C30C8
:101D7000E26122626262A262E26322646265054AF3
:101D8000FEF76AFF28463146FEF778FC204670BD14
:101D9000086C0000151D000039B10023012281628A
:101DA000C36311461C30FEF79DBF8162C1630A46C2
:101DB0001C300121FEF796BF4A1C02EB420200EBE9
:101DC000C202936853B101EB4101C9004218D268C5
:101DD0001AB10144103110461847704701EB410316
:101DE00000EBC301CB68002BF7D0184770B5044651
:101DF0000B4E0023251D4FF41650E0636360284608
:101E0000A360E36023626362A3632660FFF7C8FBFD
:101E1000284622460349FFF7BDFA204670BD00BFA1
:101E2000186C0000B91D00000430FFF7C3BA00BFF2
:101E300010B50C460430FFF705FB204610BD00BF6F
:101E400010B50446064B002240F8043BFFF7B4FEF1
:101E5000044B204603F10802343384E80C0010BD23
:101E6000746B0000206C000010B50446064B03F1B3
:101E700008023433026040F8043FFFF767FE204653
:101E8000FFF7A4FC204610BD206C0000704700BF87
:101E900010B5044600F083F8204610BDF0B50446A6
:101EA00083B00E4E0827A7600D48089F251D2660A9
:101EB0000026206166602846E6600097FEF738FD40
:101EC00033462846E268A168FEF79AFD2846216954
:101ED000FEF7C0FD204603B0F0BD00BF646C0000FB
:101EE00040420F0070B5094D2B6883420CD0044668
:101EF000061D30460023E268A168FEF781FD3046EA
:101F00002169FEF7A7FD2C6070BD00BF34050010ED
:101F100010B4044C002323608160C26010BCFFF742
:101F2000E1BF00BF34050010024B002201611A60BE
:101F3000FFF7D8BF3405001038B504460D46FFF74B
:101F4000D1FF2946201DBDE83840FEF7EBBD00BF9C
:101F50000649074A074B9A42BEBF51F8040B42F8A4
:101F6000040BF8E70448804704480047646F00000A
:101F7000C800001080010010790800003D05000035
:101F8000FEE7FEE7FEE7FEE7FEE7FEE7FEE7FEE729
:101F9000FEE7FEE70B460146184600F079BEFEF765
:101FA000EDBA000081F0004102E000BF83F0004381
:101FB00030B54FEA41044FEA430594EA050F08BFE4
:101FC00090EA020F1FBF54EA000C55EA020C7FEAA8
:101FD000645C7FEA655C00F0E2804FEA5454D4EB25
:101FE0005555B8BF6D420CDD2C4480EA020281EAEF
:101FF000030382EA000083EA010180EA020281EA27
:102000000303362D88BF30BD11F0004F4FEA013178
:102010004FF4801C4CEA113102D0404261EB410187
:1020200013F0004F4FEA03334CEA133302D052420D
:1020300063EB430394EA050F00F0A780A4F10104C9
:10204000D5F1200E0DDB02FA0EFC22FA05F2801803
:1020500041F1000103FA0EF2801843FA05F35941E9
:102060000EE0A5F120050EF1200E012A03FA0EFC68
:1020700028BF4CF0020C43FA05F3C01851EBE37192
:1020800001F0004507D54FF0000EDCF1000C7EEBAF
:1020900000006EEB0101B1F5801F1BD3B1F5001FED
:1020A0000CD349085FEA30004FEA3C0C04F101040C
:1020B0004FEA445212F5800F80F09A80BCF1004F35
:1020C00008BF5FEA500C50F1000041EB045141EAB7
:1020D000050130BD5FEA4C0C404141EB010111F4B8
:1020E000801FA4F10104E9D191F0000F04BF014663
:1020F0000020B1FA81F308BF2033A3F10B03B3F141
:1021000020020CDA0C3208DD02F1140CC2F10C02D0
:1021100001FA0CF021FA02F10CE002F11402D8BF2E
:10212000C2F1200C01FA02F120FA0CFCDCBF41EAFA
:102130000C019040E41AA2BF01EB0451294330BDC9
:102140006FEA04041F3C1CDA0C340EDC04F11404A6
:10215000C4F1200220FA04F001FA02F340EA03007D
:1021600021FA04F345EA030130BDC4F10C04C4F1C3
:10217000200220FA02F001FA04F340EA03002946A3
:1021800030BD21FA04F0294630BD94F0000F83F4ED
:10219000801306BF81F480110134013D4EE77FEAD0
:1021A000645C18BF7FEA655C29D094EA050F08BF1C
:1021B00090EA020F05D054EA000C04BF19461046FD
:1021C00030BD91EA030F1EBF0021002030BD5FEA41
:1021D000545C05D14000494128BF41F0004130BD69
:1021E00014F580043CBF01F5801130BD01F00045BD
:1021F00045F0FE4141F470014FF0000030BD7FEA30
:10220000645C1ABF194610467FEA655C1CBF0B462A
:10221000024650EA013406BF52EA033591EA030F41
:1022200041F4002130BD00BF90F0000F04BF002139
:10223000704730B54FF4806404F132044FF000056C
:102240004FF0000150E700BF90F0000F04BF0021E5
:10225000704730B54FF4806404F1320410F000454B
:1022600048BF40424FF000013EE700BF42004FEA46
:10227000E2014FEA31014FEA02701FBF12F07F43C3
:1022800093F07F4F81F06051704792F0000F14BFC0
:1022900093F07F4F704730B54FF4607401F0004504
:1022A00021F0004120E700BF50EA010208BF70475B
:1022B00030B54FF000050AE050EA010208BF704750
:1022C00030B511F0004502D5404261EB41014FF4B9
:1022D000806404F132045FEA915C3FF4DCAE4FF0BD
:1022E00003025FEADC0C18BF03325FEADC0C18BFA4
:1022F000033202EBDC02C2F1200300FA03FC20FAF5
:1023000002F001FA03FE40EA0E0021FA02F1144441
:10231000C1E600BF70B54FF0FF0C4CF4E06C1CEA56
:1023200011541DBF1CEA135594EA0C0F95EA0C0FCB
:1023300000F0DEF82C4481EA030621EA4C5123EA3E
:102340004C5350EA013518BF52EA033541F480116D
:1023500043F4801338D0A0FB02CE4FF00005E1FB20
:1023600002E506F00042E0FB03E54FF00006E1FB6A
:1023700003569CF0000F18BF4EF0010EA4F1FF04AD
:10238000B6F5007F64F5407404D25FEA4E0E6D41ED
:1023900046EB060642EAC62141EA55514FEAC520FE
:1023A00040EA5E504FEACE2EB4F1FD0C88BFBCF57A
:1023B000E06F1ED8BEF1004F08BF5FEA500E50F12B
:1023C000000041EB045170BD06F0004646EA0101F1
:1023D00040EA020081EA0301B4EB5C04C2BFD4EB23
:1023E0000C0541EA045170BD41F480114FF0000E1C
:1023F000013C00F3AB8014F1360FDEBF002001F08A
:10240000004170BDC4F10004203C35DA0C341BDC03
:1024100004F11404C4F1200500FA05F320FA04F0D5
:1024200001FA05F240EA020001F0004221F0004109
:1024300010EBD37021FA04F642EB06015EEA430E7C
:1024400008BF20EAD37070BDC4F10C04C4F12005AC
:1024500000FA04F320FA05F001FA04F240EA02005F
:1024600001F0004110EBD37041F100015EEA430E30
:1024700008BF20EAD37070BDC4F1200500FA05F250
:102480004EEA020E20FA04F301FA05F243EA0203CF
:1024900021FA04F001F0004121FA04F220EA0200DE
:1024A00000EBD3705EEA430E08BF20EAD37070BD24
:1024B00094F0000F0FD101F00046400041EB010104
:1024C00011F4801F08BF013CF7D041EA060195F0E6
:1024D000000F18BF704703F00046520043EB0303A0
:1024E00013F4801F08BF013DF7D043EA060370478D
:1024F00094EA0C0F0CEA135518BF95EA0C0F0CD098
:1025000050EA410618BF52EA4306D1D181EA0301DD
:1025100001F000414FF0000070BD50EA410606BFD7
:102520001046194652EA430619D094EA0C0F02D11C
:1025300050EA013613D195EA0C0F05D152EA033661
:102540001CBF104619460AD181EA030101F000417F
:1025500041F0FE4141F470014FF0000070BD41F0C8
:10256000FE4141F4780170BD70B54FF0FF0C4CF4A2
:10257000E06C1CEA11541DBF1CEA135594EA0C0FC1
:1025800095EA0C0F00F0A7F8A4EB050481EA030E0E
:1025900052EA03354FEA013100F088804FEA0333F5
:1025A0004FF0805545EA131343EA12634FEA0222C3
:1025B00045EA111545EA10654FEA00260EF0004184
:1025C0009D4208BF964244F1FD0404F5407402D2D6
:1025D0005B084FEA3202B61A65EB03055B084FEA67
:1025E00032024FF480104FF4002CB6EB020E75EB64
:1025F000030E22BFB61A754640EA0C005B084FEA8C
:102600003202B6EB020E75EB030E22BFB61A754608
:1026100040EA5C005B084FEA3202B6EB020E75EB53
:10262000030E22BFB61A754640EA9C005B084FEACB
:102630003202B6EB020E75EB030E22BFB61A7546D8
:1026400040EADC0055EA060E18D04FEA051545EAC7
:1026500016754FEA06164FEAC30343EA52734FEA70
:10266000C2025FEA1C1CC0D111F4801F0BD141EAE9
:1026700000014FF000004FF0004CB6E711F4801F4E
:1026800004BF01430020B4F1FD0C88BFBCF5E06F2E
:102690003FF6AFAEB5EB030C04BFB6EB020C5FEA3E
:1026A000500C50F1000041EB045170BD0EF0004E93
:1026B0004EEA113114EB5C04C2BFD4EB0C0541EAC5
:1026C000045170BD41F480114FF0000E013C90E6C2
:1026D00045EA060E8DE60CEA135594EA0C0F08BF86
:1026E00095EA0C0F3FF43BAF94EA0C0F0AD150EA85
:1026F00001347FF434AF95EA0C0F7FF425AF104618
:1027000019462CE795EA0C0F06D152EA03353FF43F
:10271000FDAE1046194622E750EA410618BF52EABC
:1027200043067FF4C5AE50EA41047FF40DAF52EA90
:1027300043057FF4EBAE12E74FEA410212F50012B7
:1027400015D211D56FF47873B3EB625212D94FEAF8
:10275000C12343F0004343EA505311F0004F23FAE2
:1027600002F018BF404270474FF00000704750EA37
:10277000013005D111F0004008BF6FF000407047F4
:102780004FF00000704700BF80F0004002E000BF43
:1027900081F0004142001FBF5FEA410392EA030F4C
:1027A0007FEA226C7FEA236C6AD04FEA1262D2EB96
:1027B0001363C1BFD218414048404140B8BF5B429B
:1027C000192B88BF704710F0004F40F4000020F034
:1027D0007F4018BF404211F0004F41F4000121F04A
:1027E0007F4118BF494292EA030F3FD0A2F1010294
:1027F00041FA03FC10EB0C00C3F1200301FA03F1D2
:1028000000F0004302D5494260EB4000B0F5000FF4
:1028100013D3B0F1807F06D340084FEA310102F1B3
:102820000102FE2A51D2B1F1004F40EBC25008BF65
:1028300020F0010040EA03007047490040EB00002F
:1028400010F4000FA2F10102EDD1B0FA80FCACF15E
:10285000080CB2EB0C0200FA0CF0AABF00EBC2505D
:1028600052421843BCBFD0401843704792F0000F4B
:1028700081F4000106BF80F400000132013BB5E79E
:102880004FEA41037FEA226C18BF7FEA236C21D014
:1028900092EA030F04D092F0000F08BF0846704779
:1028A00090EA010F1CBF0020704712F07F4F04D147
:1028B000400028BF40F00040704712F100723CBF5A
:1028C00000F50000704700F0004343F0FE4040F484
:1028D000000070477FEA226216BF08467FEA236342
:1028E0000146420206BF5FEA412390EA010F40F42D
:1028F000800070474FF0000304E000BF10F0004379
:1029000048BF40425FEA000C08BF704743F096435F
:1029100001464FF000001CE050EA010208BF70477A
:102920004FF000030AE000BF50EA010208BF704701
:1029300011F0004302D5404261EB41015FEA010C16
:1029400002BF84460146002043F0B64308BFA3F10E
:102950008053A3F50003BCFA8CF2083AA3EBC253F0
:1029600010DB01FA02FC634400FA02FCC2F120020F
:10297000BCF1004F20FA02F243EB020008BF20F046
:102980000100704702F1200201FA02FCC2F12002AC
:1029900050EA4C0021FA02F243EB020008BF20EAA1
:1029A000DC7070474FF0FF0C1CEAD0521EBF1CEACF
:1029B000D15392EA0C0F93EA0C0F6FD01A4480EABD
:1029C000010C400218BF5FEA41211ED04FF00063A6
:1029D00043EA501043EA5111A0FB01310CF00040D2
:1029E000B1F5000F3EBF490041EAD3715B0040EAF8
:1029F000010062F17F02FD2A1DD8B3F1004F40EBC8
:102A0000C25008BF20F00100704790F0000F0CF09A
:102A1000004C08BF49024CEA502040EA51207F3A5E
:102A2000C2BFD2F1FF0340EAC250704740F4000039
:102A30004FF00003013A5DDC12F1190FDCBF00F02A
:102A400000407047C2F10002410021FA02F1C2F1D8
:102A5000200200FA02FC5FEA310040F1000053EA74
:102A60004C0308BF20EADC70704792F0000F00F0C2
:102A7000004C02BF400010F4000F013AF9D040EAC8
:102A80000C0093F0000F01F0004C02BF490011F45C
:102A9000000F013BF9D041EA0C018FE70CEAD1535A
:102AA00092EA0C0F18BF93EA0C0F0AD030F0004CDA
:102AB00018BF31F0004CD8D180EA010000F000408E
:102AC000704790F0000F17BF90F0004F084691F04C
:102AD000000F91F0004F14D092EA0C0F01D1420286
:102AE0000FD193EA0C0F03D14B0218BF084608D14F
:102AF00080EA010000F0004040F0FE4040F4000099
:102B0000704740F0FE4040F4400070474FF0FF0C2B
:102B10001CEAD0521EBF1CEAD15392EA0C0F93EA72
:102B20000C0F69D0A2EB030280EA010C49024FEAC4
:102B3000402037D04FF0805343EA111143EA10137D
:102B40000CF000408B4238BF5B0042F17D024FF435
:102B5000000C8B4224BF5B1A40EA0C00B3EB510F10
:102B600024BFA3EB510340EA5C00B3EB910F24BFF9
:102B7000A3EB910340EA9C00B3EBD10F24BFA3EB7E
:102B8000D10340EADC001B0118BF5FEA1C1CE0D146
:102B9000FD2A3FF650AF8B4240EBC25008BF20F0F9
:102BA000010070470CF0004C4CEA50207F32C2BF4D
:102BB000D2F1FF0340EAC250704740F400004FF0EA
:102BC0000003013A37E792F0000F00F0004C02BF1B
:102BD000400010F4000F013AF9D040EA0C0093F0E5
:102BE000000F01F0004C02BF490011F4000F013B3F
:102BF000F9D041EA0C0195E70CEAD15392EA0C0FA7
:102C000008D142027FF47DAF93EA0C0F7FF470AFDE
:102C1000084676E793EA0C0F04D14B023FF44CAF21
:102C200008466EE730F0004C18BF31F0004CCAD1B6
:102C300030F000427FF45CAF31F000437FF43CAFF2
:102C40005FE700BF4FEA4002B2F1FE4F0FD34FF0F3
:102C50009E03B3EB12620DD94FEA002343F0004309
:102C600010F0004F23FA02F018BF404270474FF0B7
:102C70000000704712F1610F01D1420205D110F03E
:102C8000004008BF6FF0004070474FF000007047F1
:102C900010B5054C13462CB10A4601460220AFF38D
:102CA000008010BD204610BD00000000014B1868D8
:102CB000704700BF3401001008B5074B044613B13C
:102CC0000021AFF30080054B1868836A03B1984771
:102CD0002046FEF7C1FE00BF00000000D46C0000DB
:102CE00070B505460C4609B9002070BD18B183695E
:102CF0000BB900F051F9204B9C4201D16C6808E0FF
:102D00001E4B9C4201D1AC6803E01D4B9C4208BFA6
:102D1000EC68B4F90C30002BE6D02146284600F0D0
:102D200039F8236B064633B1216A284698470028B4
:102D3000B8BF4FF0FF36A3891B0603D5216928468B
:102D400000F04AFB616B41B104F14403994202D0A7
:102D5000284600F041FB00236363A16C21B12846A3
:102D600000F03AFB0023A36400F082F90023A38162
:102D700000F07FF9304670BD706C0000906C000070
:102D8000B06C0000024B01461868FFF7A9BF00BFF6
:102D9000340100108A892DE9F041054610070C46E0
:102DA00059D44B68002B02DC0B6C002B17DDE66A54
:102DB000AEB102F48052002392B22F682B600AB1A8
:102DC000606D15E0216A01232846B047411C0FD1F0
:102DD0002B686BB11D2B01D0162B03D12F60002067
:102DE000BDE8F081A38943F04003A381BDE8F081F1
:102DF000A3895A0705D56368C01A636B0BB1236CAE
:102E0000C01A00230246E66A216A2846B047431CDE
:102E1000A38906D129681D2939D8204ACA40D60776
:102E200035D5002262602269D904226004D5421C93
:102E300001D12B6803B96065616B2F600029CED08A
:102E400004F14403994202D0284600F0C5FA00205C
:102E50006063BDE8F0810F69002FC0D093070E6852
:102E60000CBF4B690023C7EB06080F608B6002E0C4
:102E70000744C0EB0808B8F1000FB0DD43463A46FE
:102E8000216A2846A66AB0470028F1DCA38943F0EE
:102E90004003A3814FF0FF30BDE8F08101004020E6
:102EA00038B50B6905460C46DBB118B183690BB91F
:102EB00000F072F80C4B9C4201D16C6808E00B4B9F
:102EC0009C4201D1AC6803E0094B9C4208BFEC680E
:102ED000B4F90C302BB121462846BDE83840FFF745
:102EE00059BF002038BD00BF706C0000906C00001E
:102EF000B06C0000014620B9044B0549186800F089
:102F00008FB9044B1868FFF7CBBF00BFD46C00002B
:102F1000A12E000034010010014900F081B900BF6A
:102F2000A12E000010B504460023036043608360B7
:102F300081814366C281036143618361194608222E
:102F40005C3000F041FA054B24626362044BA362DB
:102F5000044BE362044B236310BD00BFFD46000039
:102F6000234700005B4700007F47000070B56823DF
:102F70004D1E5D430E4605F1740100F071FA0446E2
:102F800040B1002180E842000C30A06005F16802E9
:102F900000F01AFA204670BD836910B5044633BBB1
:102FA0008364C3640365124B124A1B6882629842B1
:102FB00004BF0123836100F01FF86060204600F029
:102FC0001BF8A060204600F017F80022E060042102
:102FD0006068FFF7A7FF01220921A068FFF7A2FFA1
:102FE00002221221E068FFF79DFF0123A36110BDBB
:102FF000D46C0000192F0000F8B51C4B07461E6862
:10300000B36913B93046FFF7C7FF4836B468736831
:10301000013B04D4B4F90C507DB16834F8E733684F
:103020000BB13668F2E704213846FFF79FFF3060A6
:103030000028F6D10C233B60F8BD4FF6FF73E38107
:103040000123A38165662560A560656025616561D2
:10305000A5610822294604F15C0000F0B5F965631A
:10306000A563A564E5642046F8BD00BFD46C0000EC
:1030700070477047F7B50F46114601AA054602F0A2
:10308000EFFB064608B9002029E02846FFF7B4FF09
:1030900004460028F7D04FF4DB73019A39462846DE
:1030A00001F03CF9002806DA0025FFF7E1FFA581D1
:1030B000FFF7DFFFE7E70B4BE08163620A4BA68176
:1030C000A3620A4B2462E362094B2363F30505D52F
:1030D000022300222146284600F014F8204603B0BF
:1030E000F0BD00BFFD460000234700005B47000025
:1030F0007F470000024B0A4601461868FFF7BABF37
:103100003401001000F000B82DE9F8430C46904659
:103110001E46054618B183690BB9FFF73DFF3D4BCD
:103120009C4201D16C6808E03B4B9C4201D1AC68E9
:1031300003E03A4B9C4208BFEC68A38903F4847314
:10314000B3F5847F03D121462846FFF7A9FEE76A3D
:103150000FB91D232BE0012E04D0022E2BD056B325
:10316000162324E021462846FFF79AFEA28902F49E
:10317000805292B20AB1606D05E0216A334628465A
:10318000B847411C14D0A3895A0706D56368C01AF2
:10319000636B4BB1236CC01A06E01B0704D5236890
:1031A00013B122699B1A18448044002603E02B6067
:1031B0004FF0FF392BE023691BB92146284600F068
:1031C00073F821462846FFF76BFE81460028EFD1B1
:1031D00033464246216A2846B8470130E8D0616B41
:1031E00041B104F14403994202D0284600F0F4F8BA
:1031F00000236363236900212360A389616023F4B2
:103200000263A381082204F15C0000F0DDF8484667
:10321000BDE8F883706C0000906C0000B06C00009A
:103220002DE9F8438046894600F14804002694B110
:10323000A5686768013F0CD4AB89012B07D9B5F9A4
:103240000E30013303D029464046C847064368354F
:10325000F0E72468EBE73046BDE8F8830E4B70B525
:103260001E460E4C0025E41AA410A54204D056F8C0
:10327000253098470135F8E703F092FA084B094CDE
:103280001E46E41AA4100025A54204D056F82530A5
:1032900098470135F8E770BD740100107401001003
:1032A000740100107C010010F0B58B8991B09D076E
:1032B00006460C4625D4B1F90E10002908DAA38978
:1032C000002513F0800F14BF40274FF480670DE0F6
:1032D00001AA02F0FDFA0028F1DB029D4FF480679D
:1032E00005F47045A5F500514D424D413946304633
:1032F00000F0B6F860B9A3899A051DD443F0020323
:10330000A38104F14703236023610123636113E078
:103310000A4BB362A389206043F08003A38120613C
:1033200067614DB1B4F90E10304602F0E3FA18B1FE
:10333000A38943F00103A38111B0F0BD192F000050
:10334000024B0146186800F08BB800BF3401001032
:10335000024B0146186800F03FB800BF340100106E
:1033600010B5C9B202449042034605D01C78013022
:103370008C42F8D1184610BD002010BD10B5431E78
:103380000A44914204D011F8014B03F8014FF8E7C9
:1033900010BD884210B501EB020301D8421E0BE0BC
:1033A0009842FBD28118D21AD34204D013F8014DAF
:1033B00001F8014DF8E710BD994204D011F8014B16
:1033C00002F8014FF8E710BD03460244934202D0D1
:1033D00003F8011BFAE7704730B500293CD051F8DB
:1033E000042C0B1F1D49002AB8BF9B180A680C4605
:1033F00012B95A600B6030BD9A420DD9196858183D
:10340000824201BF10685268091819605A6023602F
:1034100030BD994203D80A4651680029F9D1146891
:1034200015199D420AD11B682344D01881421360AC
:1034300012D10868034413604B680CE002D90C23D6
:10344000036030BD18681C18A14201BF0C684968B0
:10345000001918605960536030BD00BF3C05001072
:1034600070B5CD1C25F0030508350C2D38BF0C2593
:10347000002D064603DA0C233360002070BDA942FC
:10348000F9D81F4B1C681A462146A1B10B685B1B7B
:103490000ED40B2B03D90B60CC18CD501EE08C4200
:1034A0000BBF63684B681360636018BF0C4615E080
:1034B0000C464968E9E7134C23681BB9304600F015
:1034C000FFFF20602946304600F0FAFF431CD2D0AF
:1034D000C41C24F00304A0420AD1256004F10B00AF
:1034E000231D20F00700C31A09D05A42E25070BDD4
:1034F000211A304600F0E4FF0130EED1BBE770BD89
:103500003C05001038050010936810B4013B002BF7
:10351000936008DA9469A34202DBCBB20A2B02D192
:1035200010BC01F095BA1368581C10601970C8B22D
:1035300010BC7047F8B506460F461446D518AC4285
:1035400008D03A4614F8011B3046FFF7DDFF431C54
:10355000F5D100E00020F8BD2DE9F04F9DB00C46FC
:1035600017460393064618B183690BB9FFF714FD9C
:103570007F4B9C4201D1746808E07E4B9C4201D194
:10358000B46803E07C4B9C4208BFF468A389180729
:103590000CD5236953B10023099320238DF82930DA
:1035A00030238DF82A30DFF8D4B144E0214630468C
:1035B00001F0B4FA0028EED04FF0FF30D5E0039AC6
:1035C000111D12680391002A80F28C80524243F050
:1035D00002000792049098F800302E2B00F08480AF
:1035E000032298F800106548FFF7BAFE48B140235F
:1035F000CBEB000003FA00F0049B08F1010818432C
:10360000049098F8001006225D4808F101078DF833
:103610002810FFF7A5FE002800F09580594B002BDD
:1036200040F08880039B073323F00703083303939C
:10363000099B53440993B846454615F8013B1BB90D
:10364000B8EB07090FD003E0252BF9D0A846F3E724
:103650004B463A4621463046FFF76CFF01307FD09B
:10366000099B4B44099398F80030002B78D0002335
:103670004FF0FF3204930793059206938DF8533071
:103680001A930127052229783F48FFF769FE05F1C3
:103690000108049B38B13C4A4546801A07FA00F0FD
:1036A00018430490EEE7D90644BF20228DF853203A
:1036B0001A0744BF2B228DF853202A782A2A3FF478
:1036C0007EAF079A00210A20A84698F800300135FD
:1036D000303B092B03D800FB02320121F4E700291B
:1036E0003FF479AF079276E798F801302A2B0BD197
:1036F000039B08F102081A1D1B680392002BB8BF38
:103700004FF0FF3305936BE700231946059308F14B
:1037100001000A25804698F800200130303A092A35
:1037200003D805FB01210123F4E7002B3FF458AF38
:10373000059155E703AB00932246144B04A930468C
:1037400000F0C2F807E003AB009322460F4B04A938
:10375000304600F065FBB0F1FF3F82467FF468AF72
:10376000A3895B063FF528AF09981DB0BDE8F08F2F
:10377000706C0000906C0000B06C0000DE6C00000B
:10378000E26C0000C9380000D86C0000353500003C
:1037900013460A46014602480068FFF7DDBE00BF37
:1037A000340100102DE9F04788B0149F002B1E460D
:1037B0001299B8BF03F1004327F02007B6BF1E4699
:1037C00000232D23462F1446109DDDF84CA00B70CE
:1037D00003D0452F03D1013501E0032300E002238C
:1037E00007AA049206AA03928DE8280422463346CB
:1037F00001F09EFA472F804602D1119BDB0728D5A6
:10380000462F08EB050911D198F80030302B0AD16A
:10381000002200232046314602F090FF18B9C5F17E
:103820000105CAF80050DAF800309944002200235C
:103830002046314602F082FF08B9302202E0CDF87E
:103840001C9006E0079B994503D9591C07911A70F3
:10385000F8E74046079B159AC8EB0303136008B0CE
:10386000BDE8F087034673B50029B8BF494203F8A5
:10387000022BB4BF2D222B22092942701ADD0DF133
:10388000070216460A2591FBF5F405FB1411092CD5
:1038900001F1300102F8011D2146F4DC3031541EE3
:1038A00002F8011CB4421A460AD214F8012B03F89C
:1038B000012BF7E71A463024214402F8024B5970D5
:1038C000101A02B070BD00002DE9F04F8FB00C4609
:1038D00016461F46DDF86080054602F01BF8D0F85A
:1038E00000B0584600F059FF00230C93D8F8003080
:1038F0000890073323F0070303F1080294F81890A7
:10390000C8F80020D3E90023C4E91223D4E9120146
:1039100000F0AEFD012819D1D4E9120100220023E4
:1039200002F016FF10B12D2384F843309A4B9B4AC6
:10393000B9F1470F8CBF9046984603232361236853
:1039400023F0040323604FF0000A93E0D4E912014E
:1039500000F08EFD236848B9914A9249B9F1470FAA
:103960008CBF8846904603222261E9E7D4F804E040
:10397000D4E91201BEF1FF3F01D106220AE0B9F1FC
:10398000670F02D0B9F1470F05D1BEF1000F40F02B
:10399000B68101226260002243F4806306920CAA81
:1039A0002360059201930BAA636803920DF12B0229
:1039B0000292009302460B46CDF810902846FFF77E
:1039C000F1FE09F0DF03472B804609D10B9BD81C81
:1039D00002DB6268934230DDA9F102095FFA89F9DE
:1039E000B9F1650F0B9912D801394A4604F150001C
:1039F0000B91FFF737FF0C9A82468318012A236147
:103A000002DC2268D1072FD5013323612CE0B9F104
:103A1000660F14D10029636807DD216113B922689C
:103A2000D2071DD501330B4419E013B92268D00722
:103A300001D5023313E0012311E04FF067090B9B1E
:103A40000C9A934205DB22682361D10708D5013324
:103A500005E0002BD4BFC3F102030123134423610B
:103A60000B9B4FF0000AA3659DF82B3013B12D235B
:103A700084F84330009733460DAA2146284600F0CB
:103A800059F9013002D14FF0FF3050E123685A0557
:103A900001D4236965E0B9F1650F40F2D580D4E91E
:103AA00012010022002302F049FE78B301233E4AAE
:103AB00031462846B8470130E5D00C9B0B9A9A4214
:103AC0000BDB2368D80708D423689B0740F11181DA
:103AD0004FF0000804F1190906E1089B5A463146E7
:103AE0002846B8470130CED04FF0000804F11A093B
:103AF0000C9B013B9845E7DA01234A4631462846AC
:103B0000B8470130BFD008F10108F1E70B9B002B4B
:103B100029DC0123244A31462846B8470130B2D077
:103B20000B9B23B90C9B13B92368D907CCD5089BF1
:103B30005A4631462846B8470130A4D04FF0000914
:103B400004F11A0A0B9B5B42994509DA012352469C
:103B500031462846B847013095D009F10109F1E70F
:103B60000C9B4246A7E00C9AA36D9A42A8BF1A4646
:103B7000002A914607DC04F11A034FF0000A29EAF3
:103B8000E97909931CE01346314642462846B84776
:103B90000130F0D177E700BFE96C0000ED6C000068
:103BA000F16C0000F56C00003E6D00000123099AE5
:103BB00031462846B84701303FF465AF0AF1010AA3
:103BC000A36DC9EB03029245F0DB08EB03090B9AE6
:103BD0000C9B9A420FDB2368DA070CD40C9B0B9AE0
:103BE0009844C9EB08089B1A9845A8BF9846B8F1B5
:103BF000000F08DC0FE0089B5A4631462846B847BC
:103C00000130EBD13FE743464A4631462846B847A4
:103C100001303FF438AF4FF0000928EAE87804F1AA
:103C20001A0A09E00123524631462846B8470130B6
:103C30003FF429AF09F101090B9A0C9B9B1AC8EBC1
:103C400003039945EEDB3FE70C9A012A01DCDB0711
:103C500038D50123424631462846B84701303FF463
:103C600012AF089B5A4631462846B84701303FF408
:103C70000AAFD4E912010022002302F05FFD20B157
:103C80004FF0000804F11A090EE00C9B08F1010244
:103C9000013B19E001234A4631462846B847013026
:103CA0003FF4F1AE08F101080C9B013B9845F1DBB4
:103CB000534604F1500231462846B84701307FF49C
:103CC00003AFE0E64246012331462846B8470130BB
:103CD000EED1D8E601234A4631462846B84701309E
:103CE0003FF4D1AE08F10108E3680D9A9B1A98459C
:103CF000F0DBE0680D9B9842B8BF184617E0002241
:103D000006920CAA05920BAA43F4806303920DF16C
:103D10002B022360029201930246CDF81090CDF859
:103D200000E00B462846FFF73DFD80464EE60FB00B
:103D3000BDE8F08F2DE9F04791461F460A698B6870
:103D400006469342B8BF1346C9F8003091F84320A5
:103D50000C46DDF8208012B10133C9F80030236829
:103D6000990642BFD9F800300233C9F800302568FF
:103D700015F0060510D104F1190A07E00123524697
:103D800039463046C04701301AD00135E368D9F8CA
:103D900000209B1A9D42F1DB94F8433022680033E7
:103DA00018BF012392060FD5E118302081F8430097
:103DB0005A1C94F845102244023382F8431003E061
:103DC0004FF0FF30BDE8F08704F14302394630463A
:103DD000C0470130F4D02268D9F80050E36802F0FF
:103DE0000602042A08BF5D1B2269A3680CBF25EAEE
:103DF000E57500259342C4BF9B1AED184FF00009EA
:103E00001A344D4509D00123224639463046C04771
:103E10000130D5D009F10109F3E70020BDE8F087B2
:103E20002DE9F04317460A7E85B06E2A984606466D
:103E30000C460C9B01F1430E00F0AE8011D8632AB2
:103E400022D009D8002A00F0BB80582A40F0CA804E
:103E500081F84520834955E0642A1ED0692A1CD088
:103E6000C0E0732A00F0B08009D86F2A2ED0702AE3
:103E700040F0B8800A6842F020020A603EE0752AED
:103E800024D0782A3AD0ADE01A6801F14205111D1C
:103E90001960136884F84230A8E021681A6811F0AC
:103EA000800F02D0111D196008E011F0400F02F1DF
:103EB0000401196002D0B2F9003000E01368002B51
:103EC0003CDA2D225B4284F8432037E021681A68EF
:103ED00011F0800F02D0111D196007E011F0400FA2
:103EE00002F10401196001D0138800E01368227EFA
:103EF0005C496F2A14BF0A2208221BE078225A4923
:103F000084F845202268186812F0800F00F104053B
:103F10001D6003D1550601D5038800E00368D00772
:103F200044BF42F0200222601BB9226822F0200226
:103F300022601022002084F8430001E049490A224F
:103F40006568002DA56008DB206820F00400206073
:103F50002BB9002D7DD175460CE0002B79D075462C
:103F6000B3FBF2F002FB1033CB5C05F8013D0346D6
:103F70000028F5D1082A0BD12368DA0708D5236970
:103F800062689A42DEBF302305F8013C05F1FF3537
:103F9000C5EB0E0323612EE008681A6810F0800F4D
:103FA000496903D0101D1860136808E010F0400F35
:103FB00002F104001860136801D0198000E0196054
:103FC00000232361754616E01A68111D19601568F3
:103FD000002162682846FFF7C3F908B1401B606002
:103FE000636804E004F1420584F842200123236160
:103FF000002384F84330CDF800803B4603AA2146D5
:104000003046FFF797FE013002D14FF0FF3026E037
:1040100023692A4639463046C0470130F5D0236827
:104020009B0710D5002504F1190907E001234A4632
:1040300039463046C0470130E7D00135E368039A7E
:104040009B1A9D42F2DBE068039B9842B8BF18467A
:1040500005E00B7804F1420584F842308AE705B0A8
:10406000BDE8F083F96C00000A6D00002DE9F8430B
:1040700015468A6880460C4632B98A69002A0CBF08
:1040800001224FF0FF328A602268DFF8A890D10643
:1040900058BF1A684FF000065EBF111D19601768FF
:1040A000A069F8B923680136DA065EBF2B681B7871
:1040B0003B702A686B6802F101022A60A26803F172
:1040C000FF3302F1FF326B6058BF0137A260E2B1EB
:1040D000002BE5DCD4F8803129464046984700287B
:1040E000DED012E0012806D12B681A7863699B5C48
:1040F000002BD7D119E0022807D12B68D9F800206E
:104100001B7813445B781B07CCD5236813F010038E
:1041100005D1E2680132E260A26902B13B70236915
:1041200000201E442661BDE8F883002EEDD1BDE8D5
:10413000F88300BF380100102DE9F04F0C469A4675
:10414000724B87B08346164693E8070003ABA76817
:1041500083E807006E4BA1696E4A04F11C0903292C
:1041600018BF1A467B1EB3F5AE7F84BF40F25D13C5
:10417000A360236888BF6FF4AE7543F45063236077
:104180004B4600928CBF7F1900274FF00008316822
:10419000019303AB53F8280002220978FFF7E0F8F7
:1041A000019B002833D0B8F1010F0BD162682AB906
:1041B00008226260226842F400722260226822F4BF
:1041C000A0620CE0B8F1020F0AD1226802F4C061CB
:1041D000B1F5007F1BD11021616042F48072226032
:1041E000A268511EA16092B132685D1C511C316001
:1041F00012781A707368013B002B736006DCD4F8E8
:104200008031314658469847002841D12B4608F165
:104210000108B8F1030FBAD162680AB90A226260D4
:1042200062683D496069891A019300F059F9019B60
:104230004FF000081D46A36863B3316860690A78CF
:10424000805C38B3302A226808D1100506D508F101
:10425000010857B10133013FA36006E022F4106268
:1042600022600B78013505F8013C7368013B002B97
:10427000736003DD33680133336005E0D4F88031C7
:1042800031465846984728B9A368013BA360D2E756
:104290004FF000082368D9050CD54D4508D915F80D
:1042A000011C6F1ED4F87C313246584698473D4673
:1042B0004D4527D0226812F010021BD12A70636886
:1042C00049465846009EB0472268DAF8003012F09E
:1042D000200F07D1D20705D51A1DCAF800201B6888
:1042E000188004E01A1DCAF800201B681860E368F3
:1042F0000133E3602369C9EB050545441D4425618D
:10430000002000E0012007B0BDE8F08F1C6D000028
:10431000E1480000D5470000386D000038B5074C73
:10432000054608461146002222601A46FDF762FA49
:10433000431C02D1236803B12B6038BD480500102F
:104340000FB40A4B13B51C6824B1A36913B92046F6
:10435000FEF722FE05AB049AA16820460193FFF701
:10436000FBF802B0BDE8104004B070473401001003
:1043700070B50E46054618B183690BB9FEF70CFE01
:10438000AB69AC6813B92846FEF706FE314B9C4278
:1043900001D16C6808E0304B9C4201D1AC6803E06D
:1043A0002E4B9C4208BFEC68A389190701D52369ED
:1043B00083B92146284600F0B1FB58B14FF0FF30D9
:1043C00070BD002B0EDB236816F8012C1A702368D1
:1043D00001332360A36816F8012B013BA360002A78
:1043E000EFD116E0A269934209DB236816F8012C8D
:1043F0001A70236819780A29EAD1224602E0224677
:1044000016F8011C284600F023FB421C5042504184
:10441000D3E7002B15DAA269934208DB23680A224E
:104420001A702368197891420FD1224601E0224682
:104430000A21284600F00CFB431C5842584130B179
:10444000BCE723680A221A702368013323600A201C
:1044500070BD00BF706C0000906C0000B06C00007C
:10446000024B01461868FFF783BF00BF34010010FC
:1044700031F0004310B51BD00F4AA1F580149442CF
:1044800010D901F1FF410C4A01F5E001914209D92F
:10449000B3F5801F08D3094A934207D1B0FA80F0E0
:1044A000400910BD042010BD032010BD002010BD28
:1044B0000028E6D1022010BDFFFFDF7F0000F07F63
:1044C00038B5064C0023054608462360FDF7B0FAD0
:1044D000431C02D1236803B12B6038BD480500108E
:1044E00070B50B78441E5E2B13BF4A1C8A1C4B7898
:1044F000002108BF012100F1FF0504F8011FAC42B3
:10450000FBD10BB9501E70BD81F001041146C4549B
:104510000D784A1C2D2D06D05D2D0FD00DB12B46E8
:10452000F4E7084670BD4E785D2EF8D0B342F6DC55
:10453000023101339E42C454FBDCE9E7104670BDF2
:1045400000294FF480630CBF0222002200F000B863
:104550002DE9F0411D463D4B04461E680F4690462E
:1045600026B1B36913B93046FEF716FD384B9C42AD
:1045700001D1746808E0374B9C4201D1B46803E074
:10458000354B9C4208BFF468B8F1020F59D8002D92
:1045900057DB21463046FEF783FC00236360A361AE
:1045A000A3891B0603D521693046FEF715FFA389B1
:1045B000B8F1020F23F08303A38112D037BB002D83
:1045C00008BF4FF480652846FBF7D2FF0746C8B9FD
:1045D0004FF48060FBF7CCFF074688B94FF0FF30FF
:1045E00000E00020A38943F00203A3810023A3601D
:1045F00004F147032360236101236361BDE8F08177
:104600004FF48065A38943F08003A381B8F1010FC3
:1046100005D1A38943F00103A3816B42A3610F4B32
:10462000B362A389276003F0080080B22761656147
:1046300048B113F0030F18BF0025A5600020BDE8A6
:10464000F0814FF0FF30BDE8F08100BF3401001071
:10465000706C0000906C0000B06C0000192F00001E
:104660000EB400B54FF402719CB0ADF814106FF0A9
:104670000041049107914FF6FF711DAB0290069027
:10468000084853F8042BADF81610006802A90193EE
:1046900001F0BAFC029B00221A701CB05DF804EB1A
:1046A00003B07047340100100EB430B59CB01FAC9D
:1046B0004FF4017254F8045BADF814200290069098
:1046C00000F06BF80B4B03900B9300230F931493A4
:1046D0004FF6FF7307900848ADF816302A46234678
:1046E00002A90068019401F0DFFD1CB0BDE8304074
:1046F00003B070471F4700003401001010B50C468E
:10470000B1F90E1001F01EFF0028ABBF636DA38945
:104710001B1823F48053ACBF6365A38110BD002038
:1047200070472DE9F0411F468B890546DB050C4695
:10473000164605D502230022B1F90E1001F0EEF85D
:10474000A389324623F48053A381B4F90E103B466B
:104750002846BDE8F04100F0CFB910B50C46B1F9DC
:104760000E1001F0DBF8431CA38915BF606523F42C
:10477000805343F48053A38118BFA38110BDB1F9C6
:104780000E1000F037BA10F8012B11F8013B012A86
:1047900028BF9A42F7D0D01A7047034613F8012B6E
:1047A000002AFBD1181A0138704730B582B1451E76
:1047B000013915F8013F11F8014FA34206D1EC432E
:1047C0001444E04201D0002BF3D11C46181B30BD2D
:1047D000104630BD2DE9F0470F4680463F48D0F8DF
:1047E00000903D4615F8014B09EB0400407800F0BD
:1047F000080000F0FF0608B12F46F2E72D2C03D188
:10480000BD1C7C78012603E02B2C04BF7C78BD1CEA
:1048100013B1102B0AD15BE0302C57D1287800F06F
:10482000DF0058284DD16C7810230235002E14BFBC
:104830004FF0004C6FF0004CBCFBF3FA00273846F9
:1048400003FB1ACC09EB040E9EF801E01EF0040FE6
:1048500001D0303C0BE01EF0030E1BD0BEF1010F67
:104860000CBF4FF0370E4FF0570ECEEB0404A342AF
:1048700010DDB7F1FF3F0AD0504506D801D164459D
:1048800003DC03FB0040012701E04FF0FF3715F880
:10489000014BD7E77B1C0CD1002E4FF0220314BF35
:1048A0004FF000406FF00040C8F800302AB9BDE872
:1048B000F08706B1404272B107B1691E1160BDE8D0
:1048C000F0873024002BB1D10823AFE70A23ADE7EE
:1048D000302CA3D0AAE7BDE8F08700BF3801001054
:1048E0002DE9F0470E4680463B48D0F8009035460B
:1048F00015F8014B09EB0400407800F0080000F0C7
:10490000FF0708B12E46F2E72D2C03D1B51C7478B1
:10491000012703E02B2C04BF7478B51C13B1102BB6
:104920000AD153E0302C4FD1287800F0DF0058280E
:1049300045D16C78102302354FF0FF3CBCFBF3FCF3
:1049400003FB0CFA00266FEA0A0A304609EB040E54
:104950009EF801E01EF0040F01D0303C0BE01EF089
:10496000030E1AD0BEF1010F0CBF4FF0370E4FF0FF
:10497000570ECEEB0404A3420FDD002E08DB60458A
:1049800006D801D1544503DC03FB0040012601E0B9
:104990004FF0FF3615F8014BD8E7002E07DA222337
:1049A000C8F800304FF0FF302AB9BDE8F08707B1F2
:1049B000404272B106B1691E1160BDE8F087302433
:1049C000002BB9D10823B7E70A23B5E7302CABD0C9
:1049D000B2E7BDE8F08700BF380100102DE9F041D3
:1049E0000C46496B04F1440399421AD14FF480619B
:1049F000FEF736FD18B94FF0FF30BDE8F0814FF4F7
:104A00008063A36394F84630606380F8FF3394F8C2
:104A1000453000F2FD30437094F84430037020605C
:104A200012E0A66B77003A4601F06EFA05460028C0
:104A3000E1D000EB0608014632464046FEF79EFCF8
:104A4000C4F800806563A7630020BDE8F081000022
:104A5000F8B50F461446064618B183690BB9FEF740
:104A60009BFA224B9C4201D1746808E0204B9C4287
:104A700001D1B46803E01F4B9C4208BFF468A369EE
:104A8000A360A3891A0709D523693BB1236820696C
:104A9000FDB2181A636998420FDB08E021463046E0
:104AA00000F03CF80028F1D04FF0FF30F8BD21466F
:104AB0003046FEF7F5F90028F6D1A368013BA36064
:104AC00023685A1C22601F706269431C934204D001
:104AD000A389DB0707D50A2D05D121463046FEF70D
:104AE000DFF90028E0D12846F8BD00BF706C000057
:104AF000906C0000B06C000038B5074C05460846C5
:104B00001146002222601A46FCF708FF431C02D11E
:104B1000236803B12B6038BD48050010314B70B5D8
:104B20001D6806460C4625B1AB6913B92846FEF749
:104B300033FA2D4B9C4201D16C6808E02B4B9C4210
:104B400001D1AC6803E02A4B9C4208BFEC68A38902
:104B50009AB211071DD4D50602D40922326038E07A
:104B6000500712D5616B41B104F14403994202D060
:104B70003046FEF731FC00236363A38923F024034E
:104B8000A3810023636023692360A38943F00803A2
:104B9000A38123694BB9A38903F42073B3F5007F84
:104BA00003D021463046FEF77FFBA38913F00102B4
:104BB00005D00022A26062695242A26103E0990717
:104BC00058BF6269A26022694AB903F0800080B2CE
:104BD00030B143F04003A3814FF0FF3070BD00209F
:104BE00070BD00BF34010010706C0000906C0000BC
:104BF000B06C000038B5064C00230546084623601B
:104C0000FCF778FE431C02D1236803B12B6038BD4A
:104C1000480500102DE9F74F03690C6980469C4256
:104C20007FDC013C01F114074FEA840E00F1140609
:104C300006EB0E0357F82450019356F82430013543
:104C4000B3FBF5F507EB0E09C5B34FF0000A384684
:104C5000B446D34650F8043B9AB205FB02A21B0CA3
:104C60004FEA124A05FB03A392B2C2EB0B0BBCF84E
:104C700000204FEA134A5A441FFA83FBDCF8003045
:104C80008145CBEB134303EB224392B242EA03424A
:104C90004FEA234B4CF8042BDCD256F80E306BB99C
:104CA000019B043B9E421A4602D3C8F8104005E01F
:104CB0001268043B002AF8D1013CF3E7404601F0BA
:104CC0004CF800282BDB304601354FF0000E57F82A
:104CD000042B036891B2C1EB0E0E120C99B2714411
:104CE000C2EB134303EB214389B24FEA234EB9458C
:104CF00041EA034340F8043BE9D256F8242006EB8E
:104D0000840362B9043B9E421A4602D3C8F810409D
:104D100005E01268043B002AF8D1013CF3E728467D
:104D200000E0002003B0BDE8F08F000000000000AC
:104D30002DE9F04F456A95B08246219CCDE90223CA
:104D400045B91020FBF714FCCAF8240045608560C3
:104D50000560C560DAF82430196859B15A68012332
:104D600093404A608B60504600F01FFEDAF8243012
:104D700000221A60039BA04A002BBDBF01232360C1
:104D8000039B0023BCBF23F000430393DDF80C809A
:104D9000A8BF236028F000431B0D1B0593421DD1C3
:104DA00042F20F73209A1360029B43B9934A944BCB
:104DB000C8F31300002814BF1846104600E09048BE
:104DC000229B002B00F04685C37813B100F1080345
:104DD00000E0C31C229A136000F03CBDDDE90245EF
:104DE000002200232046294601F0A8FC074658B1BE
:104DF000209A01231360229B002B00F01E8581481E
:104E00001860013800F026BD12AB019313AB00937C
:104E100022462B46504601F01BF8C8F30A56049070
:104E200056B1C5F3130343F07F51204641F44011BE
:104E3000A6F2FF3611971DE0139B129E1E4406F248
:104E40003243202B0ADD029A06F21240C3F14003DE
:104E500022FA00F008FA03F3184304E0C3F120003B
:104E6000029B03FA00F0FDF7DFF90123A1F1F871CD
:104E7000013E11930022644BFDF798F858A3D3E943
:104E80000023FDF747FA58A3D3E90023FDF790F874
:104E9000044630460D46FDF7D7F955A3D3E9002364
:104EA000FDF738FA02460B4620462946FDF780F802
:104EB00004460D46FDF740FC0022834600232046B1
:104EC000294601F045FC58B15846FDF7BDF90246A8
:104ED0000B462046294601F031FC08B90BF1FF3B97
:104EE000BBF1160F0DD8DDE90223484901EBCB01D8
:104EF000D1E9000101F04AFC30B10BF1FF3B002386
:104F000000E00123109300E01090129B9E1B731E83
:104F1000079343BFC3F10008002307934FF0000835
:104F2000BBF1000F06DB079BCDF82CB05B44079369
:104F3000002705E00023CBEB0808CBF100070B931B
:104F40001E9B092B28D8052BC4BF043B1E931E9B18
:104F5000C8BF0025A3F10203D8BF0125032B20D829
:104F6000DFE803F0060E0204012302E0012308E05B
:104F700000230A931F9B002B1DDD9946059321E01A
:104F800000230A931F9B0BEB030909F10103012B7B
:104F90000593B8BF012315E0012500231E930A9550
:104FA00001E001230A934FF0FF390022CDF814905D
:104FB00012231F9206E04FF001094B46CDF81490E2
:104FC000CDF87C90DAF8244000226260042101F1DF
:104FD00014029A421CD86268490001326260F6E706
:104FE00061436F63A787D23FB3C8608B288AC63FEF
:104FF000FB799F501344D33F0000F07F446E0000C4
:105000004D6E00003F6D00000000F83F606E000034
:105010006168504600F094FCDAF8243020601B6888
:105020000693059B0E2B00F25B81002D00F058814A
:10503000DDE90234BBF1000FCDE90E3430DD9F4ACB
:105040000BF00F034FEA2B1502EBC303E80618CB56
:10505000CDE908340CD5DDE90E01994B05F00F05BB
:10506000D3E90823FDF780FA0324CDE9020100E02B
:105070000224934E6DB1E90708D5DDE90801D6E9B0
:105080000023FDF747F9CDE9080101346D1008361A
:10509000F0E7DDE90823DDE90201FDF765FA20E02C
:1050A000CBF1000505B3DDE90E01844B05F00F02DD
:1050B00003EBC203D3E90023FDF72CF9CDE902018C
:1050C0007F4E2D110023022455B1EA0705D5D6E9FC
:1050D0000023FDF71FF9013401236D100836F3E7B3
:1050E0001BB1CDE9020100E00224109BE3B1DDE930
:1050F00002560022734B2846314601F029FB98B135
:10510000059B8BB1B9F1000F40F3E6800BF1FF3343
:105110000893314600226C4B2846FDF7FBF801341A
:10512000CDE902014E4602E0059ECDF820B02046B2
:10513000FDF78AF8DDE90223FDF7ECF8634B002266
:10514000FCF736FFA1F1507304460C931D46D6B907
:10515000DDE9020100225E4BFCF728FF22460C9B92
:10516000CDE9020101F012FB002840F03F820C99CA
:10517000224601F10043DDE9020101F0E9FA0028CD
:1051800040F02B82A8E00A9A4C4B711E002A49D0AD
:1051900003EBC103D3E9002300204E49FDF7E4F9F6
:1051A00022462B46FCF702FFCDE90C01069CDDE907
:1051B0000201FDF7C1FA0546FDF746F802460B4627
:1051C000DDE90201FCF7F2FEDDE90C23303504F8DD
:1051D000015BCDE9020101F0BBFA002840F01D831C
:1051E000DDE9022300203749FCF7E0FEDDE90C236E
:1051F00001F0AEFA002840F0D180069BE31AB342DA
:105200006ADADDE90C0100222F4BFDF783F800225A
:10521000CDE90C01DDE902012B4BFDF77BF8CDE96F
:105220000201C4E703EBC1012246D1E900012B468C
:10523000FDF770F8069BCDE90C011D469C19DDE9D0
:105240000201FDF779FA0646FCF7FEFF02460B461F
:10525000DDE90201FCF7AAFE303605F8016BAC422D
:10526000CDE902014FF0000222D11A4BDDE90C0119
:10527000FCF79EFE02460B46DDE9020101F086FACC
:10528000002840F08B80DDE90C2300201149FCF759
:105290008DFE02460B46DDE9020101F059FAD8B154
:1052A00014F8013C621E302B40F0B7821446F7E739
:1052B000054BFDF72FF8CDE90201C0E7606E000055
:1052C000386F00000000F03F0000244000001C4048
:1052D000000014400000E03FDDE90E34CDE9023467
:1052E000139B002B7CDBBBF10E0F79DCAB4B03EB8C
:1052F000CB03D3E900671F9B002B14DA059B002B1F
:1053000011DC40F06C810022A54B30463946FDF798
:1053100001F8DDE9022301F02FFA059D2E46002851
:1053200040F05F8165E1069CDDE9028932463B463B
:1053300040464946FDF718F9FDF7FEF90546FCF72A
:1053400083FF32463B46FCF7E5FF0B4602464946E3
:105350004046FCF72BFE05F1300E069B04F801EBEE
:10536000C3EB040E059B73452DD102460B46FCF79B
:105370001FFE8046894602460B463046394601F0FC
:10538000E7F978B942464B463046394601F0D6F93E
:10539000002800F04482EB0704D440E2DDF820B09E
:1053A00000E01C4614F8012C631E392A07D1069A26
:1053B0009A42F6D1069930220BF1010B0A701A7845
:1053C00001321A702BE20022764BFCF7A3FF002279
:1053D00000238046894601F0B1F90028A6D01EE2DC
:1053E0000A9A002A2BD01E9A012A0ADC119A12B1BD
:1053F00003F2334302E0129BC3F136033D464446B9
:1054000013E0059B5D1EAF42BFBF0B9BEA1B9B18C1
:105410000B93059BB6BF2F467D1B0025002BA7BF16
:105420004446059BC3EB08040023079A01211A4454
:1054300050469844079200F057FB064602E03D466E
:1054400044460A9E5CB1079B002B08DDA342A8BF1F
:105450002346079AC3EB0808E41AD31A0793002FD0
:105460001DDD0A9BABB18DB131462A46504600F096
:10547000D5FB049A01460646504600F03EFB0499CF
:105480000890504600F091FA089B04937A1B06D0CE
:1054900000E03A460499504600F0C0FB0490012118
:1054A000504600F021FB0B9B05465BB31A460146B4
:1054B000504600F0B3FB1E9B0546012B18DC029BF7
:1054C00083B9039BC3F3130373B9039B23F0004712
:1054D0003F0D3F054FB1079B08F1010801330793CA
:1054E000012702E0002700E0029F0B9B73B100E060
:1054F00000272B6905EB8303186900F0A8FAC0F1B7
:10550000200004E01E9B012BD9DD0B9F0120079B8F
:10551000184410F01F0008D0C0F12003042B02DD56
:10552000C0F11C0002E006D018461C30079B8044E6
:10553000034404440793B8F1000F05DD4246049983
:10554000504600F0B9FB0490079B002B05DD29466F
:105550001A46504600F0B0FB0546109B23B329467F
:10556000049800F0FAFB00281EDA00230A220499AE
:10557000504600F031FA0A9B0BF1FF3B0490002BE0
:1055800000F05F81314600230A22504600F024FAE1
:10559000B9F1000F06463FDC3BE000BF606E000043
:1055A0000000144000002440059B002B2BDC1E9BB8
:1055B000022B28DDDDF81490B9F1000F11D1294636
:1055C0004B460522504600F007FA0146054604986E
:1055D00000F0C3FB00280CDC03E0354600E00025AA
:1055E0002E461F9B069C6FEA030B09E03546DDF84B
:1055F00020B0069B069A5C1C312313700BF1010B43
:1056000005960026F7E00A9BDDF8149023B9069C66
:10561000B2E01E9B022BCFDC002C05DD314622467A
:10562000504600F049FB06469FB17168504600F0B5
:1056300087F90446326906F10C01023292000C30FF
:10564000FDF79CFE01222146504600F035FB0590F7
:1056500000E00596029B069F03F00103079329468D
:105660000498FFF7D7FA3146044600F13008049851
:1056700000F073FB059A02902946504600F089FB22
:10568000C36802463BB901460A90049800F065FBE6
:105690000A9A034600E00123114650460A9300F09F
:1056A00084F90A9B53B91E9A42B9079A32B9B8F1E4
:1056B000390F2AD0029B002B1CDC1DE0029A002A25
:1056C00004DB1BD11E9ACAB9079ABAB9002B13DDA5
:1056D00001220499504600F0EFFA2946049000F0A8
:1056E0003CFB002803DC07D118F0010F04D0B8F10F
:1056F000390F0AD004F131087C1C0CE0002B07F1B3
:1057000001040BDDB8F1390F03D139233B700137A8
:1057100056E008F1010887F800806CE0069B2746F8
:10572000E31A4B4504F8018C3BD000230A2204996C
:10573000504600F051F9059B04909E424FF00A023A
:105740004FF000033146504604D100F045F90646BB
:10575000059084E700F040F9002306460A220599E7
:10576000504600F039F9059079E700230A220499A0
:10577000504600F031F9049029460498FFF74AFAA0
:10578000069B00F1300804F8018BE31A4B45ECDB73
:10579000069B0596B9F1010FACBF4B4401331F4680
:1057A000002601220499504600F086FA294604900A
:1057B00000F0D3FA002803DC15D118F0010F12D045
:1057C0003C4614F8013C621E392B09D1069B9342DA
:1057D00004D10BF1010B3123069A02E01446F0E7E5
:1057E0000133137007E03C4614F8013C621E302B75
:1057F00001D11446F8E72946504600F0D6F8059B3B
:105800006BB12EB19E4203D03146504600F0CDF828
:105810000599504600F0C9F801E0DDF820B0049980
:10582000504600F0C2F80023209A23700BF10103C8
:105830001360229B1BB11C6001E008480AE0069837
:1058400008E0B9F1000F3FF7E2AE1E9B022B7FF795
:10585000DEAEB1E615B0BDE8F08F00BF3E6D0000D2
:105860000B7830B5722B0ED0772B07D0612B0ED171
:105870004FF4027401234FF484701AE04FF4C064B3
:105880000123082015E000242346042011E01623FC
:105890000360002030BD622D10D0782D11D02B2D4B
:1058A00007D120F01C0023F0030340F0100043F068
:1058B000020311F8015F002DEDD105E043F48033C0
:1058C000F7E743F40063F4E72343136030BD0000BF
:1058D00038B5074C00230546084611462360FCF7FF
:1058E00089F8431C02D1236803B12B6038BD00BF87
:1058F0004805001038B5064C0023054608462360CD
:10590000FAF730FE431C02D1236803B12B6038BD87
:1059100048050010004870473C01001038B5074C9E
:10592000054608461146002222601A46FCF750F848
:10593000431C02D1236803B12B6038BD4805001019
:1059400070B5456A04460E463DB91020FAF710FEC0
:105950006062456085600560C560656AEB6843B15B
:10596000636ADB6853F8260078B1026843F82620A2
:1059700017E021220421204600F0B8FA636AE860AB
:10598000DB68002BECD1002070BD012101FA06F587
:105990006A1D9200204600F0A9FA0028F3D0466064
:1059A000856000230361C36070BD70B5446A06461C
:1059B0000D463CB91020FAF7DBFD7062446084604C
:1059C0000460C4603DB1736A6A68DB6853F82210F2
:1059D000296043F8225070BD2DE9F04106460C467F
:1059E0000D691F4601F1140E0023DEF8000001339B
:1059F00081B202FB0171000C0F0C02FB007089B236
:105A000001EB00419D424FEA10474EF8041BECDCCD
:105A1000D7B1A3689D4212DB616830460131FFF7C0
:105A20008FFF8046226904F10C01023292000C3093
:105A3000FDF7A4FC21463046FFF7B7FF444604EBD0
:105A4000850301355F6125612046BDE8F081030CC7
:105A50001B0413B90004102300E0002310F07F4F53
:105A600004BF0002083310F0704F04BF000104337C
:105A700010F0404F04BF80000233002803DB4200D7
:105A800003D5581C7047184670472020704703689C
:105A900013F007020BD0D90722D49A074BBF5B083B
:105AA0009B08036003604CBF01200220704799B23D
:105AB00009B91B0C102213F0FF0F04BF1B0A083298
:105AC000190704BF1B090432990704BF9B0802325F
:105AD000D90702D45B0805D0013203601046704735
