:1000000000800010A9100000D9100000DB100000D3
:10001000DD100000DF100000E11000000000000013
:10002000000000000000000000000000E3100000DD
:10003000E510000000000000E7100000E9100000DB
:10004000EB100000EB100000EB100000EB100000C4
:10005000EB100000EB100000EB100000EB100000B4
:10006000EB100000EB100000EB100000EB100000A4
:10007000EB100000EB100000EB100000EB10000094
:10008000EB100000EB100000EB100000EB10000084
:10009000EB100000EB100000EB100000EB10000074
:1000A000EB100000EB100000EB100000EB10000064
:1000B000EB100000EB100000EB100000EB10000054
:1000C000EB100000EB100000EB100000044B0548A3
:1000D0001B1A062B02D9044B03B11847704700BF07
:1000E00043010010400100100000000005490648CF
:1000F000091A891001EBD171491002D0034B03B1E9
:100100001847704740010010400100100000000037
:1001100010B5064C237843B9FFF7D8FF044B13B151
:100120000448AFF300800123237010BD400100108C
:10013000000000009C21000008B5084B1BB10849D5
:100140000848AFF300800848036813B9BDE80840C9
:10015000CCE7064B002BF9D09847F7E700000000EA
:10016000440100109C21000040010010000000002C
:1001700070B4084C084D23696268E66869691A60C2
:100180006A680A200B681A42FCD00138FAD1636809
:100190003360F5E75C0100107401001010B50C4BE2
:1001A000002418460B491C605C609C60DC601C618C
:1001B0005C6100F095F8084B08491C605C609C602D
:1001C000DC601C615C611846BDE8104000F09AB824
:1001D0007401001009C009205C01001032C0092020
:1001E000074A084808B50021121A01F0A5F9AFF333
:1001F000008001F021F900F01FFF00F07DFF00BF3B
:100200009403001040010010022801DC0120704717
:1002100000F0DABE036870B5DB68054698476B6886
:100220005B6883B12A681C6853689847201A0028C5
:100230006A680DDC50681168836853600029F0D04B
:1002400040688847EBE72B68BDE870409B6818471B
:100250002B6852681B691068BDE87040184700BFE2
:1002600030B585B018246D4620462946ABBE0446FD
:10027000204605B030BD00BF024B186800F00100F9
:10028000704700BFF0ED00E038B5054600F0EEF92C
:10029000044600F0EBF9001BA842FAD338BD00BFBA
:1002A0004FF47A7303FB00F0FFF7EEBF0FB400B515
:1002B000064A83B004AB53F8041B10681A46C068A2
:1002C000019301F01DFB012000F016FF300100102A
:1002D0000148FFF79FBF00BF701F0000FFF7CCBFB2
:1002E00038B50D46044600F055F9013509D02046D1
:1002F000002100F071F92046BDE83840032100F0EC
:1003000067B938BD38B50D46044600F043F90135EC
:100310000CD023696268204601211A6000F05CF964
:100320002046BDE83840022100F052B938BD00BF78
:1003300070B50D461646044600F02CF9013511D073
:1003400066B9236962681A602046012100F044F909
:100350002046BDE87040022100F03AB9E3686268C7
:100360001A60F1E770BD00BF431C1CD00B685A1C1B
:100370001AD0984210B5044602D10AE09C4208D037
:1003800051F80C3F5A1CF9D10948BDE81040FFF75D
:100390008DBF2046896800F08FF92046BDE81040E7
:1003A000022100F0A5B970470148FFF77FBF00BFE9
:1003B000781F000088420AD0421C09D0013106D0C3
:1003C00008B50448FFF772FF4FF0FF3008BD7047D3
:1003D000084670478C1F00000B685A1C08D09842D2
:1003E00002D107E0834205D051F80C3F5A1CF9D1E5
:1003F0001846704748687047421C0ED008B50B6815
:100400005A1C04D10AE051F80C3F5A1C06D09842FD
:10041000F9D14868411C01D008BD70470248FFF778
:1004200045FF4FF0FF3008BDA01F000000B599B098
:1004300072B617496846FFF765FF06A81549FFF72A
:1004400061FF0CA81449FFF75DFF12A81349FFF7DD
:1004500059FF039A01990A9B11600799109A196034
:100460000D99159B1160139A96201A60FFF718FFDB
:10047000049A0199099B116007990F9A19600D99C7
:10048000169B1160139A96201A60FFF709FFE0E7A8
:1004900032C0092034C0092035C0092037C00920E6
:1004A0000C4B30B49D689A682B46B2F1805F0CD239
:1004B000094AC43553F8044BAB4242F8044FF9D112
:1004C0004FF080521346034CA260103043F82010C6
:1004D00030BC704700ED00E0FCFFFF0F2B4A2023EB
:1004E000F0B4C2F8A031D2F8A031980645D4274B19
:1004F000002519460124AA20552202270B26C3F8FD
:100500000471C3F8A851C3F8AC51C3F80C41C3F847
:100510008460C3F88C00C3F88C20C3F88040C3F813
:100520008C00C3F88C20D1F88830184A5B01FAD5CA
:1005300011460324AA205523C2F88040C2F88C003B
:10054000C2F88C30D1F88830104A13F0407FF9D0CF
:100550000F4900230520C2F80801C2F8C410C2F8F0
:10056000C8311368F0BC23F4704323F03A0343F41A
:10057000405343F03A0313607047D2F8A031590654
:10058000B5D4D2F8A0315906F7D5B0E700C00F4076
:10059000DE8728044A1C016018D038B50C46054691
:1005A0000021204600F088F824F01F0104F01F020B
:1005B0000123934001F1180401F11C0001F1140220
:1005C000A9606B60EC6028616A6138BD704700BF4C
:1005D000006800F08DB800BF41B1012905D18268E3
:1005E000436811680B431360704770478268416825
:1005F000136823EA01031360704700BF38B5104940
:10060000104B01241C60D1F8C4300F4A43F400039E
:100610000E480025C1F8C430156703680C48022154
:10062000A0FB03031B0D013B51600420D36009496B
:100630005460FFF735FF084B10221A6038BD00BF29
:1006400000C00F409401001000400940C800001095
:1006500083DE1B43D102000000E100E0024B1B6877
:1006600003B17047FFF7CABF9401001008B5044BEF
:100670001B680BB9FFF7C2FF024B986808BD00BFAB
:100680009401001000400940034B98615A6942F000
:1006900001025A61704700BF00400940024A536995
:1006A00023F001035361704700400940014B0122D0
:1006B0001A6070470040094000F16040A0F51C201E
:1006C00003099B0003F1804303F53033400010B46D
:1006D00000F01E001C680322824024EA02021A6015
:1006E0001A68814041EA0200186010BC704700BFE0
:1006F00000F16040A0F51C2043099B0003F18043FA
:1007000003F5303330B400F01F029C6EC1F3800556
:1007100005FA02F224EA02049C669C6E22439A6661
:100720009DB903099B0003F1804303F5303340007A
:100730001C6C00F01E000322824024EA02021A64AC
:100740001A6C01FA00F01043186430BC704700BF07
:10075000154B9968C1F34201012918D0022914D11F
:10076000124A516F013106D0D2F88010906F0860A4
:1007700092F8A61089B1106F0C4B38B193F8A630DF
:1007800023B10B4B00211B68184770477047074B7C
:10079000186F38B1064B1B681847596821F00101E2
:1007A0005960E8E7704700BF00800940A0010010D1
:1007B0009C010010F8B5294C0368A34247D03FDDE7
:1007C000274CA34229D004F58044A34242D1254DB1
:1007D000082632BB01290BD04268234CC2EBC2026F
:1007E00004EBC20292F8364092F83520D44213D17D
:1007F000B1FA81F25D68012404FA01F125EA0101F0
:100800005960036852095B6804FA02F21A4203D184
:10081000164BB440C3F88040F8BD154D0726002A9A
:10082000D8D05868012707FA01F2024374B25A601F
:1008300029462046FFF734FE0C4BA7401F60F8BD49
:10084000A4F58044A34205D10A4D0526C1E70A4D0F
:100850000626BEE700252E46BBE700BF000001408C
:10086000008009407D080000A001001000E100E0C8
:1008700051070000E908000049090000174B99687A
:10088000C1F3420101291BD0022917D1144AD2F821
:10089000AC10013107D0D2F8B810D2F8B00008601F
:1008A00092F8DE1099B1D2F8A8000D4B38B193F848
:1008B000DE3023B10B4B00211B681847704770478F
:1008C000074BD3F8A80038B1064B1B681847596886
:1008D00021F001015960E6E7704700BF00C0094000
:1008E000A00100109C010010144B9968C1F3420153
:1008F000012917D0022913D1114A5168013105D0BD
:1009000011699068086092F8361089B110680C4B34
:1009100038B193F8363023B10A4B00211B681847D1
:1009200070477047064B186838B1064B1B6818476C
:10093000596821F001015960E8E7704700C00040A4
:10094000A00100109C010010144B9968C1F34201F2
:10095000012917D0022913D1114AD16B013105D0D9
:10096000916C106C086092F86E1089B1906B0C4B12
:1009700038B193F86E3023B10A4B00211B68184739
:1009800070477047064B986B38B1064B1B68184789
:10099000596821F001015960E8E770470000014003
:1009A000A00100109C0100102DE9F04F02686E4B71
:1009B00089B09A420790069200F0C88040F3B48054
:1009C0006A4B0698984272D003F58043984240F0F3
:1009D0009D80674BD3F8AC2122F44022C3F8AC21B0
:1009E000D3F8AC2142F48022C3F8AC21614A0B0158
:1009F0001268B2FBF3F003FB1023039280B2002BCA
:100A000000F09080039B4FF001085A009C00944630
:100A1000A246C3468E469946002305920494009050
:100A20000291019300242546029E5FFA88F7BCF1EB
:100A3000000FB5BFBCFBF6F0BAFBF6F000094009A9
:100A40000130C0F34F0008EB040200283DD00CB188
:100A500001283BD0034603FB02F3DB00B9FBF3F3B1
:100A60000133C1EB5303002BB8BF5B42734505DA7A
:100A7000994230D09E46BB468DE821000134E5B254
:100A8000AF420E44D3D8039B08F101089944059B5B
:100A9000B8F1100F9C44049B9A44029B0B440293B0
:100AA000C0D1019B009843EA0B15EDB216E0304B24
:100AB000D3F8AC2122F44032C3F8AC21D3F8AC21F6
:100AC00042F48032C3F8AC2190E714B1022003460F
:100AD000C1E70120BEE745EA0715EDB20699C0F36C
:100AE00007220B7BC0B243F080030B7307990B689E
:100AF0001A710B6818700B6883F828500A68137B0A
:100B000003F07F03137309B0BDE8F08F194A0B019E
:100B10001268B2FBF3F003FB1023039280B2002BA8
:100B20007FF470AF1025D9E7A3F580439A42EDD149
:100B30000F4BD3F8A82122F0C002C3F8A821D3F8A4
:100B4000A82142F04002C3F8A8214FE7084BD3F890
:100B5000A82122F44072C3F8A821D3F8A82142F4B6
:100B60008072C3F8A82141E70000014000800940DD
:100B700000C00F40C80000100268137DDB07FCD5E1
:100B800043680949C3EBC30301EBC30359681078F9
:100B90000131C0B206D059699B680B60536843F0BD
:100BA00001035360704700BFA00100104368154A5D
:100BB000C3EBC303DB00D11810B4CC6901340FD0F0
:100BC0000B460A6B1C335B6812681A4205D1036836
:100BD00010BC187DC0F380107047002010BC704717
:100BE00003681B7D9B0607D491F8340010BC0F28C6
:100BF0008CBF002001207047002381F83430012091
:100C000010BC7047A001001038B504460D462046C0
:100C1000FFF7CCFF0028FAD02368EDB21D7063689F
:100C2000054AC3EBC30302EBC30393F8342001323C
:100C300083F8342038BD00BFA00100102DE9F04F2B
:100C4000054644482C6883B084420F4691469A4634
:100C50001DD06E6800243246DFF804B14FEAC608A2
:100C6000C2EBC201C6EB08000BEBC00000220BEB8D
:100C7000C1014FF0FF3381F83520C3614360114655
:100C80002846FFF797FD4FB903B0BDE8F08F237CEE
:100C90006E6803F03F0323746A68DDE72E49484617
:100CA000FFF79AFB2D4901905046FFF795FBBA1EBE
:100CB000012A30D9012FE7D1B9F1FF3FE4D0254A0D
:100CC000019B29680720934208720BD154B1484612
:100CD000237C214943F04003237403B0BDE8F04F67
:100CE000FFF742BBC6EB08060BEBC60049460430D3
:100CF0000022FFF71DFB6A680124C2EBC2020BEB66
:100D0000C20328462246002183F8354003B0BDE8DF
:100D1000F04FFFF74FBDBAF1FF3F0AD00D4A9042A6
:100D20000DD0C6EB08000BEBC00051461C30FFF79E
:100D3000D7FA032FA8D1B9F1FF3FC0D1A4E7002C07
:100D4000EFD0227C504642F0800222740349FFF724
:100D50000BFBEEE700000140E01F0000DC2000007C
:100D6000A00100102DE9F0410F46054659493846CB
:100D70001646FFF741FB584904463046FFF73CFB57
:100D800001462046FFF716FB544B04469842286064
:100D90007FD06FD9524B98424BD003F58043984295
:100DA00006D1504AD2F8C43043F00073C2F8C430C0
:100DB000012323722B684FF00008C3F804804FF41E
:100DC00016512846FFF7F0FD2B6803221A7341499C
:100DD0003846FFF7C9FA40493046FFF7C5FA7A1C92
:100DE00003D041463846FFF783FC731C03D03046DE
:100DF0000021FFF77DFC394B9C4247D021D9384B6D
:100E00009C4263D003F580439C424AD103236B602C
:100E1000354CC3EBC3034FF0FF3604EBC304284645
:100E2000334632466660E6610021BDE8F041FFF7D7
:100E300005BF2C4AD2F8C43043F08073C2F8C430E6
:100E4000B6E7A3F580439C422BD1274E4FF0FF34E9
:100E5000002169602346224628467460F461FFF74A
:100E6000EDFE224B01221A6028686968204B03C3FB
:100E7000BDE8F081A3F58043984299D1194AD2F890
:100E8000C43043F00803C2F8C43091E701236B601B
:100E9000BEE7144AD2F8C43043F01003C2F8C4309D
:100EA00086E76E68104BC6EBC6064FF0FF3703EBC4
:100EB000C6063A463B46002128467760F761FFF7B1
:100EC000BDFE0C4B9C42CCD0BDE8F08102236B6090
:100ED0009EE700BF702000000420000000000140D9
:100EE0000080094000C00F40A001001098010010D0
:100EF0008803001000C00040024A03490348FFF77E
:100F000031BF00BF03C0092002C0092088030010C0
:100F100002280ADD074AC31E52F82300002142F8C6
:100F2000231020B103685B681847002070474FF01A
:100F3000FF30704780020010022812DC0E4B70B5A3
:100F40001B680C4616460BB9FFF7D6FFA51936B13C
:100F500014F8011B0948FFF757FEAC42F8D13046A0
:100F600070BD074B033853F8200010B103681B68AD
:100F700018474FF0FF3070479801001088030010A9
:100F80008002001002280DDC0C4B10B51B680C46CB
:100F90000BB9FFF7B1FF0A48FFF7EEFD0123207000
:100FA000184610BD074B033853F8200010B10368F2
:100FB0009B6818474FF0FF331846704798010010A0
:100FC0008803001080020010022807DD064B03385A
:100FD00053F8200020B10368DB68184701207047F0
:100FE0004FF0FF30704700BF80020010022807DD7D
:100FF000064B033853F8200020B103681B691847DB
:10100000002070474FF0FF30704700BF8002001093
:10101000022808B504D84FF400534B60002008BDE7
:1010200000F064F8092303604FF0FF3008BD00BFF3
:10103000704700BF704700BF08B5FFF7FBFFFFF721
:10104000F7FFBDE80840FFF793B800BF074A1368F1
:101050001918EFF30880814202D2184611607047D8
:10106000034B0C221A604FF0FF307047CC00001089
:10107000900300100B4C08B523680546986800F0F3
:10108000FFF82368D86800F0FBF8FFF727F920B9CC
:1010900005B9FEE7FFF7CAF9FBE7FFF7E1F8002D16
:1010A000F7D0F7E7300100100649074A074B9A428C
:1010B000BEBF51F8040B42F8040BF8E70448804720
:1010C00004480047A0210000C800001040010010A3
:1010D000DD040000E1010000FEE7FEE7FEE7FEE7B9
:1010E000FEE7FEE7FEE7FEE7FEE7FEE7014B1868D6
:1010F000704700BF3001001008B5074B044613B11C
:101100000021AFF30080054B1868836A03B198474C
:101110002046FFF7AFFF00BF000000006421000081
:101120008A892DE9F041054610070C4659D44B68D1
:10113000002B02DC0B6C002B17DDE66AAEB102F46B
:101140008052002392B22F682B600AB1606D15E0C7
:10115000216A01232846B047411C0FD12B686BB18F
:101160001D2B01D0162B03D12F600020BDE8F0818C
:10117000A38943F04003A381BDE8F081A3895A0706
:1011800005D56368C01A636B0BB1236CC01A0023CA
:101190000246E66A216A2846B047431CA38906D165
:1011A00029681D2939D8204ACA40D60735D50022DA
:1011B00062602269D904226004D5421C01D12B68E7
:1011C00003B96065616B2F600029CED004F1440340
:1011D000994202D0284600F0B7F900206063BDE8CC
:1011E000F0810F69002FC0D093070E680CBF4B69C8
:1011F0000023C7EB06080F608B6002E00744C0EBDA
:101200000808B8F1000FB0DD43463A46216A284687
:10121000A66AB0470028F1DCA38943F04003A3810C
:101220004FF0FF30BDE8F0810100402038B50B6978
:1012300005460C46DBB118B183690BB900F072F8B2
:101240000C4B9C4201D16C6808E00B4B9C4201D1D5
:10125000AC6803E0094B9C4208BFEC68B4F90C3061
:101260002BB121462846BDE83840FFF759BF002082
:1012700038BD00BF002100002021000040210000F7
:10128000014620B9044B0549186800F0B7B8044B73
:101290001868FFF7CBBF00BF642100002D120000CB
:1012A00030010010014900F0A9B800BF2D12000064
:1012B00010B5044600230360436083608181436668
:1012C000C281036143618361194608225C3000F0EA
:1012D00033F9054B24626362044BA362044BE3625F
:1012E000044B236310BD00BF6D1C00008F1C000069
:1012F000C71C0000EB1C000070B568234D1E5D4349
:101300000E4605F1740100F063F9044640B1002176
:1013100080E842000C30A06005F1680200F00CF992
:10132000204670BD836910B5044633BB8364C36433
:101330000365124B124A1B688262984204BF012364
:10134000836100F01FF86060204600F01BF8A06089
:10135000204600F017F80022E06004216068FFF7E3
:10136000A7FF01220921A068FFF7A2FF0222122194
:10137000E068FFF79DFF0123A36110BD6421000019
:10138000A5120000F8B51C4B07461E68B36913B9D7
:101390003046FFF7C7FF4836B4687368013B04D492
:1013A000B4F90C507DB16834F8E733680BB1366896
:1013B000F2E704213846FFF79FFF30600028F6D19E
:1013C0000C233B60F8BD4FF6FF73E3810123A3813B
:1013D00065662560A560656025616561A561082277
:1013E000294604F15C0000F0A7F86563A563A564D5
:1013F000E5642046F8BD00BF642100002DE9F843F4
:101400008046894600F14804002694B1A5686768C3
:10141000013F0CD4AB89012B07D9B5F90E3001334C
:1014200003D029464046C84706436835F0E724689C
:10143000EBE73046BDE8F8830E4B70B51E460E4C08
:101440000025E41AA410A54204D056F82530984788
:101450000135F8E700F076FD084B094C1E46E41A0A
:10146000A4100025A54204D056F825309847013530
:10147000F8E770BD34010010340100103401001091
:101480003C010010F0B58B8991B09D0706460C46D3
:1014900025D4B1F90E10002908DAA389002513F02C
:1014A000800F14BF40274FF480670DE001AA00F0C1
:1014B00003FD0028F1DB029D4FF4806705F47045C1
:1014C000A5F500514D424D413946304600F080F8B7
:1014D00060B9A3899A051DD443F00203A38104F1E6
:1014E0004703236023610123636113E00A4BB36266
:1014F000A389206043F08003A381206167614DB11F
:10150000B4F90E10304600F0E9FC18B1A38943F09D
:101510000103A38111B0F0BDA512000010B5C9B23E
:1015200002449042034605D01C7801308C42F8D129
:10153000184610BD002010BD03460244934202D05D
:1015400003F8011BFAE7704730B500293CD051F889
:10155000042C0B1F1D49002AB8BF9B180A680C46B3
:1015600012B95A600B6030BD9A420DD919685818EB
:10157000824201BF10685268091819605A602360DE
:1015800030BD994203D80A4651680029F9D1146840
:1015900015199D420AD11B682344D018814213605B
:1015A00012D10868034413604B680CE002D90C2385
:1015B000036030BD18681C18A14201BF0C6849685F
:1015C000001918605960536030BD00BF84030010DB
:1015D00070B5CD1C25F0030508350C2D38BF0C2542
:1015E000002D064603DA0C233360002070BDA942AB
:1015F000F9D81F4B1C681A462146A1B10B685B1B2A
:101600000ED40B2B03D90B60CC18CD501EE08C42AE
:101610000BBF63684B681360636018BF0C4615E02E
:101620000C464968E9E7134C23681BB9304600F0C3
:101630000DFB20602946304600F008FB431CD2D049
:10164000C41C24F00304A0420AD1256004F10B005D
:10165000231D20F00700C31A09D05A42E25070BD82
:10166000211A304600F0F2FA0130EED1BBE770BD2E
:101670008403001080030010936810B4013B002B1A
:10168000936008DA9469A34202DBCBB20A2B02D141
:1016900010BC00F02FBB1368581C10601970C8B242
:1016A00010BC7047F8B506460F461446D518AC4234
:1016B00008D03A4614F8011B3046FFF7DDFF431C03
:1016C000F5D100E00020F8BD2DE9F04F9DB00C46AB
:1016D00017460393064618B183690BB9FFF722FE3C
:1016E0007F4B9C4201D1746808E07E4B9C4201D143
:1016F000B46803E07C4B9C4208BFF468A3891807D8
:101700000CD5236953B10023099320238DF8293088
:1017100030238DF82A30DFF8D4B144E0214630463A
:1017200000F04EFB0028EED04FF0FF30D5E0039ADA
:10173000111D12680391002A80F28C80524243F0FE
:1017400002000792049098F800302E2B00F084805D
:10175000032298F800106548FFF7E0FE48B14023E7
:10176000CBEB000003FA00F0049B08F101081843DA
:10177000049098F8001006225D4808F101078DF8E2
:101780002810FFF7CBFE002800F09580594B002B66
:1017900040F08880039B073323F00703083303934B
:1017A000099B53440993B846454615F8013B1BB9BC
:1017B000B8EB07090FD003E0252BF9D0A846F3E7D3
:1017C0004B463A4621463046FFF76CFF01307FD04A
:1017D000099B4B44099398F80030002B78D00023E4
:1017E0004FF0FF3204930793059206938DF8533020
:1017F0001A930127052229783F48FFF78FFE05F14C
:101800000108049B38B13C4A4546801A07FA00F0AB
:1018100018430490EEE7D90644BF20228DF85320E8
:101820001A0744BF2B228DF853202A782A2A3FF426
:101830007EAF079A00210A20A84698F800300135AB
:10184000303B092B03D800FB02320121F4E70029C9
:101850003FF479AF079276E798F801302A2B0BD145
:10186000039B08F102081A1D1B680392002BB8BFE6
:101870004FF0FF3305936BE700231946059308F1FA
:1018800001000A25804698F800200130303A092AE4
:1018900003D805FB01210123F4E7002B3FF458AFE7
:1018A000059155E703AB00932246144B04A930463B
:1018B000AFF3008007E003AB009322460F4B04A96F
:1018C000304600F09DF8B0F1FF3F82467FF468AFEC
:1018D000A3895B063FF528AF09981DB0BDE8F08FDE
:1018E0000021000020210000402100006E210000A6
:1018F000722100000000000068210000A516000011
:1019000013460A46014602480068FFF7DDBE00BFE5
:10191000300100102DE9F04791461F460A698B6897
:1019200006469342B8BF1346C9F8003091F84320E9
:101930000C46DDF8208012B10133C9F8003023686D
:10194000990642BFD9F800300233C9F80030256843
:1019500015F0060510D104F1190A07E001235246DB
:1019600039463046C04701301AD00135E368D9F80E
:1019700000209B1A9D42F1DB94F84330226800332B
:1019800018BF012392060FD5E118302081F84300DB
:101990005A1C94F845102244023382F8431003E0A5
:1019A0004FF0FF30BDE8F08704F14302394630467E
:1019B000C0470130F4D02268D9F80050E36802F043
:1019C0000602042A08BF5D1B2269A3680CBF25EA32
:1019D000E57500259342C4BF9B1AED184FF000092E
:1019E0001A344D4509D00123224639463046C047B6
:1019F0000130D5D009F10109F3E70020BDE8F087F7
:101A00002DE9F04317460A7E85B06E2A98460646B1
:101A10000C460C9B01F1430E00F0AE8011D8632AF6
:101A200022D009D8002A00F0BB80582A40F0CA8092
:101A300081F84520834955E0642A1ED0692A1CD0CC
:101A4000C0E0732A00F0B08009D86F2A2ED0702A27
:101A500040F0B8800A6842F020020A603EE0752A31
:101A600024D0782A3AD0ADE01A6801F14205111D60
:101A70001960136884F84230A8E021681A6811F0F0
:101A8000800F02D0111D196008E011F0400F02F123
:101A90000401196002D0B2F9003000E01368002B95
:101AA0003CDA2D225B4284F8432037E021681A6833
:101AB00011F0800F02D0111D196007E011F0400FE6
:101AC00002F10401196001D0138800E01368227E3E
:101AD0005C496F2A14BF0A2208221BE078225A4967
:101AE00084F845202268186812F0800F00F1040580
:101AF0001D6003D1550601D5038800E00368D007B7
:101B000044BF42F0200222601BB9226822F020026A
:101B100022601022002084F8430001E049490A2293
:101B20006568002DA56008DB206820F004002060B7
:101B30002BB9002D7DD175460CE0002B79D0754670
:101B4000B3FBF2F002FB1033CB5C05F8013D03461A
:101B50000028F5D1082A0BD12368DA0708D52369B4
:101B600062689A42DEBF302305F8013C05F1FF357B
:101B7000C5EB0E0323612EE008681A6810F0800F91
:101B8000496903D0101D1860136808E010F0400F79
:101B900002F104001860136801D0198000E0196098
:101BA00000232361754616E01A68111D1960156837
:101BB000002162682846FFF7B1FC08B1401B606055
:101BC000636804E004F1420584F8422001232361A4
:101BD000002384F84330CDF800803B4603AA214619
:101BE0003046FFF797FE013002D14FF0FF3026E07C
:101BF00023692A4639463046C0470130F5D023686C
:101C00009B0710D5002504F1190907E001234A4676
:101C100039463046C0470130E7D00135E368039AC2
:101C20009B1A9D42F2DBE068039B9842B8BF1846BE
:101C300005E00B7804F1420584F842308AE705B0EC
:101C4000BDE8F083792100008A21000038B5064CF8
:101C50000023054608462360FFF7F8F9431C02D12C
:101C6000236803B12B6038BD9003001010B50C46FB
:101C7000B1F90E1000F054F90028ABBF636DA389D1
:101C80001B1823F48053ACBF6365A38110BD2DE9FD
:101C9000F0411F468B890546DB050C46164605D5E7
:101CA00002230022B1F90E1000F028F9A389324670
:101CB00023F48053A381B4F90E103B462846BDE8B7
:101CC000F04100F06BB810B50C46B1F90E1000F001
:101CD00015F9431CA38915BF606523F4805343F4B1
:101CE0008053A38118BFA38110BDB1F90E1000F07D
:101CF000D3B80000F8B50F461446064618B18369FC
:101D00000BB9FFF70FFB224B9C4201D1746808E02E
:101D1000204B9C4201D1B46803E01F4B9C4208BF9A
:101D2000F468A369A360A3891A0709D523693BB1A5
:101D300023682069FDB2181A636998420FDB08E036
:101D40002146304600F03CF80028F1D04FF0FF303B
:101D5000F8BD21463046FFF769FA0028F6D1A3689E
:101D6000013BA36023685A1C22601F706269431CF8
:101D7000934204D0A389DB0707D50A2D05D121465C
:101D80003046FFF753FA0028E0D12846F8BD00BFDF
:101D900000210000202100004021000038B5074C40
:101DA000054608461146002222601A46FFF7C4F88D
:101DB000431C02D1236803B12B6038BD900300108F
:101DC000314B70B51D6806460C4625B1AB6913B999
:101DD0002846FFF7A7FA2D4B9C4201D16C6808E01A
:101DE0002B4B9C4201D1AC6803E02A4B9C4208BFBC
:101DF000EC68A3899AB211071DD4D50602D4092232
:101E0000326038E0500712D5616B41B104F14403F0
:101E1000994202D03046FFF797FB00236363A38902
:101E200023F02403A3810023636023692360A38933
:101E300043F00803A38123694BB9A38903F42073FA
:101E4000B3F5007F03D021463046FFF71BFBA38983
:101E500013F0010205D00022A26062695242A26121
:101E600003E0990758BF6269A26022694AB903F08A
:101E7000800080B230B143F04003A3814FF0FF30C7
:101E800070BD002070BD00BF3001001000210000B7
:101E9000202100004021000038B5064C00230546F3
:101EA00008462360FFF734F8431C02D1236803B1CE
:101EB0002B6038BD9003001038B5074C0023054651
:101EC000084611462360FFF7A3F8431C02D123689C
:101ED00003B12B6038BD00BF9003001038B5064C2D
:101EE0000023054608462360FEF78EF9431C02D105
:101EF000236803B12B6038BD9003001038B5074C40
:101F0000054608461146002222601A46FFF76EF881
:101F1000431C02D1236803B12B6038BD900300102D
:101F200038B5074C054608461146002222601A467D
:101F3000FFF728F8431C02D1236803B12B6038BD9A
:101F400090030010F8B500BFF8BC08BC9E4670476F
:101F5000F8B500BFF8BC08BC9E4670475D0600009F
:101F60006D0600009D060000AD0600008906000019
:101F70005C1F00008C010010636F756C64206E6F35
:101F8000742070696E6F75740000000070696E6D6A
:101F90006170206D69732D6D6174636800000000CD
:101FA00070696E6D6170206E6F7420666F756E64FF
:101FB00020666F72207065726970686572616C006E
:101FC00070696E6D6170206E6F7420666F756E64DF
:101FD00020666F722066756E6374696F6E00000014
:101FE00016C00920000001400100000047C0092080
:101FF0000000014002000000FFFFFFFFFFFFFFFFA6
:102000000000000001C0092000C0094002000000DB
:1020100003C0092000C00040010000000BC00920DF
:10202000008009400100000010C0092000000140AC
:10203000010000001AC0092000C009400300000090
:1020400041C00920000001400200000049C00920F1
:1020500000800940020000009DC0092000C0094026
:1020600003000000FFFFFFFFFFFFFFFF0000000075
:1020700000C0092000C009400200000002C0092081
:1020800000C00040010000000AC009200080094093
:10209000010000000FC00920000001400100000005
:1020A00019C0092000C009400300000040C00920F9
:1020B000000001400200000048C0092000800940E3
:1020C000020000009CC0092000C00940030000007D
:1020D000FFFFFFFFFFFFFFFF0000000011C009200E
:1020E000000001400100000042C009200000014042
:1020F00002000000FFFFFFFFFFFFFFFF00000000E6
:1021000000000000000000000000000000000000CF
:1021100000000000000000000000000000000000BF
:1021200000000000000000000000000000000000AF
:10213000000000000000000000000000000000009F
:10214000000000000000000000000000000000008F
:10215000000000000000000000000000000000007F
:1021600043000000D0000010232D302B2000686CAD
:102170004C006566674546470030313233343536AA
:1021800037383941424344454600303132333435E3
:10219000363738396162636465660000000000000C
:1021A00000D8B805980300100000000000210000CE
:1021B000202100004021000000000000000000007D
:1021C000000000000000000060210000000000008E
:1021D00000000000000000000000000000000000FF
:1021E00000000000000000000000000000000000EF
:1021F00000000000000000000000000000000000DF
:102200000000000000000000D000001039010000B4
:082210009D0100001101000016
:04000003000010A940
:00000001FF
