:1000000000800010A9170000D9170000DB170000BE
:10001000DD170000DF170000E117000000000000FE
:10002000000000000000000000000000E3170000D6
:10003000E517000000000000E7170000E9170000C6
:10004000EB170000EB170000EB170000EB170000A8
:10005000EB170000EB170000EB170000EB17000098
:10006000EB170000EB170000EB170000EB17000088
:10007000EB170000EB170000EB170000EB17000078
:10008000EB170000EB170000EB170000EB17000068
:10009000EB170000EB170000EB170000EB17000058
:1000A000EB170000EB170000EB170000EB17000048
:1000B000EB170000EB170000EB170000EB17000038
:1000C000EB170000EB170000EB170000044B05488E
:1000D0001B1A062B02D9044B03B11847704700BF07
:1000E0007F0100107C010010000000000549064857
:1000F000091A891001EBD171491002D0034B03B1E9
:10010000184770477C0100107C01001000000000BF
:1001100010B5064C237843B9FFF7D8FF044B13B151
:100120000448AFF300800123237010BD7C01001050
:1001300000000000784E000008B5084B1BB10849CC
:100140000848AFF300800848036813B9BDE80840C9
:10015000CCE7064B002BF9D09847F7E700000000EA
:1001600080010010784E00007C01001000000000AB
:10017000044B59695A6809680A420CBFDB681B695D
:100180001A60704798010010044B59695A68096851
:100190000A420CBFDB681B691A607047B00100108F
:1001A00010B50446044B036001F032F9204601F01B
:1001B000E3FA204610BD00BF844C000008B50D488E
:1001C00001F062F9B0F5FA7F13DD0B4B59695A68FB
:1001D00009680A4206D1DB6806481A60BDE8084093
:1001E00001F064B91B6903481A60BDE8084001F0DA
:1001F0005DB908BD98020010C801001010B5044692
:10020000054B036001F004F9204601F0B5FA2046E1
:1002100001F0F1FA204610BD844C000008B50E4AEA
:100220000E4B002418469A610D49DC6201F0F8F883
:100230000C4B0D4A18460D49DC629A6101F0F0F84A
:100240000B4801F015F90B490B4801F06DFA4FF01E
:100250007A5000F04DF9FAE7710100003802001001
:1002600040420F00680200108901000020A1070031
:1002700098020010BD010000E00100102DE9F843D4
:10028000274C284F284E2046284901F029FADFF84C
:10029000C4903A462649204601F0A8FA254DDFF8D9
:1002A000B8803046002401F053FA3A4649463046B9
:1002B000C6F80080B461F46201F098FA284601F0B3
:1002C00047FA3A4649462846C5F80080AC61EC62D8
:1002D00001F08CFA184801F0BBF8184B1849184681
:1002E0001C605C609C60DC601C615C6100F042F939
:1002F000144B154918461C605C609C60DC601C61F6
:100300005C6100F037F9114B114918461C605C60C4
:100310009C60DC601C615C61BDE8F84300F02AB9B8
:10032000E0010010C8000010380200101AC00920B7
:100330007116000068020010980200109801001069
:1003400032C00920B001001034C00920C8010010DB
:1003500035C00920A1010000844C0000074A08486C
:1003600008B50021121A01F0EEFFAFF3008001F092
:100370004FFF01F045F901F0ABFD00BF740500101F
:100380007C010010022801DC0120704701F000B957
:10039000EFF3058303B100BE01F0ACBFEFF30583BB
:1003A00003B100BE01F0AEBF08B5012001F090FD21
:1003B00008B5FFF7F9FF00BF38B504460D460368DE
:1003C0001B68984763681D6038BD00BF036870B53F
:1003D000DB68054698476B685B6883B12A681C68D0
:1003E00053689847201A00286A680DDC5068116825
:1003F000836853600029F0D040688847EBE72B689A
:10040000BDE870409B6818472B6852681B691068EC
:10041000BDE87040184700BF30B583B072B644687D
:100420000A6065684B608DB12B68D31A002B05DA22
:100430000CE01C68141B002C03DB1D46AB68002B72
:10044000F7D1A9608B6062B603B030BD036861600C
:100450001B691046019198472B460199F2E700BFAE
:1004600008B572B643685A688A4211D04AB1936897
:10047000994208D02BB19A68914205D01346002BBF
:10048000F9D162B608BD13468A689A6062B608BDA3
:1004900092685A60036822B110681B69984762B677
:1004A00008BD9B689847ECE703685B68184700BF86
:1004B00030B585B018246D4620462946ABBE0446AB
:1004C000204605B030BD00BF024B186800F00100A7
:1004D000704700BFF0ED00E038B5054600F03AFB8C
:1004E000044600F037FB001BA842FAD338BD00BF1A
:1004F00008B5044901F062FB01F0B0FCBDE808401A
:10050000FFF7EABF002474494FF47A7303FB00F04D
:10051000FFF7E2BF0FB400B5064A83B004AB53F84F
:10052000041B10681A46C068019302F0F1F801201C
:1005300001F0CEFC3401001000487047BC4A0000B6
:100540000148FFF743BF00BFBC4A0000FFF7BCBF34
:1005500038B50D46044600F091FA013509D0204621
:10056000002100F0ADFA2046BDE83840032100F03C
:10057000A3BA38BD38B50D46044600F07FFA013500
:100580000CD023696268204601211A6000F098FAB5
:100590002046BDE83840022100F08EBA38BD00BFC9
:1005A00070B50D461646044600F068FA013511D0C4
:1005B00066B9236962681A602046012100F080FA5A
:1005C0002046BDE87040022100F076BAE368626818
:1005D0001A60F1E770BD00BF431C1CD00B685A1CA9
:1005E0001AD0984210B5044602D10AE09C4208D0C5
:1005F00051F80C3F5A1CF9D10948BDE81040FFF7EB
:1006000089BF2046896800F0CBFA2046BDE810403B
:10061000022100F0E1BA70470148FFF77BBF00BF3D
:10062000C44A000088420AD0421C09D0013106D0D9
:1006300008B50448FFF76EFF4FF0FF3008BD704764
:1006400008467047D84A00000B685A1C08D09842E8
:1006500002D107E0834205D051F80C3F5A1CF9D172
:100660001846704748687047421C0ED008B50B68A2
:100670005A1C04D10AE051F80C3F5A1C06D098428B
:10068000F9D14868411C01D008BD70470248FFF706
:1006900041FF4FF0FF3008BDEC4A000000B599B0B3
:1006A00072B617496846FFF765FF06A81549FFF7B8
:1006B00061FF0CA81449FFF75DFF12A81349FFF76B
:1006C00059FF039A01990A9B11600799109A1960C2
:1006D0000D99159B1160139A96201A60FFF714FF6D
:1006E000049A0199099B116007990F9A19600D9955
:1006F000169B1160139A96201A60FFF705FFE0E73A
:1007000032C0092034C0092035C0092037C0092073
:100710000C4B30B49D689A682B46B2F1805F0CD2C6
:10072000094AC43553F8044BAB4242F8044FF9D19F
:100730004FF080521346034CA260103043F8201053
:1007400030BC704700ED00E0FCFFFF0F2B4A202378
:10075000F0B4C2F8A031D2F8A031980645D4274BA6
:10076000002519460124AA20552202270B26C3F88A
:100770000471C3F8A851C3F8AC51C3F80C41C3F8D5
:100780008460C3F88C00C3F88C20C3F88040C3F8A1
:100790008C00C3F88C20D1F88830184A5B01FAD558
:1007A00011460324AA205523C2F88040C2F88C00C9
:1007B000C2F88C30D1F88830104A13F0407FF9D05D
:1007C0000F4900230520C2F80801C2F8C410C2F87E
:1007D000C8311368F0BC23F4704323F03A0343F4A8
:1007E000405343F03A0313607047D2F8A0315906E2
:1007F000B5D4D2F8A0315906F7D5B0E700C00F4004
:10080000DE8728042DE9F04F434B83B05C689F6876
:100810005E6A9D6A14B39946DFF80081DFF800B183
:100820004FF0010A05E00AFA03F3E41AC9F80C30A4
:1008300014D0B4FA84F3C3F11F03DBB258F82300D9
:100840000028F0D0DBF80020012101939047019BA4
:100850000AFA03F3E41AC9F80C30EAD1DFB1DFF881
:10086000BC80DFF8BCA0DFF8B09006E0012303FAFB
:1008700004F43F1BC9F80C400DD0B7FA87F4C4F15B
:100880001F04E4B258F824000028EFD0DAF8003052
:1008900002219847EAE7EEB1DFF88080DFF8809028
:1008A0001D4F05E0012303FA04F4361BFC6211D04E
:1008B000B6FA86F4C4F11F04E4B20F2C04F120034D
:1008C000F0D858F823000028ECD0D9F800300121E6
:1008D0009847E7E7E5B1114FDFF844800E4E05E099
:1008E000012303FA04F42D1BF46211D0B5FA85F448
:1008F000C4F11F04E4B20F2C04F12003F0D857F820
:1009000023000028ECD0D8F8003002219847E7E710
:1009100003B0BDE8F08F00BF80800240B402001039
:10092000B0020010B1F1FF3F29D070B50446154E5A
:100930001D46154821F01F03B34201F01F0102605C
:100940002360616019D0114A934206D01048FFF726
:10095000E1FD23686168B3420FD001F120020D4B25
:10096000A2600D49152043F82250FFF7D1FE0B4B32
:100970004FF400121A60002070BD0A46EFE70846E7
:10098000704700BF00C00920B002001040C009201D
:100990002C4B0000B40200100508000000E100E04C
:1009A0008268024B002143F822107047B402001005
:1009B00030B403682E4CA3421CD02E4DAB4207D05E
:1009C000012934D0A3421CD0AB4208D030BC7047C0
:1009D00045680123284CAB400129E3622ED026490B
:1009E00040680123F2B930BC4A6B834022EA03031A
:1009F0004B637047456801231F4CAB400129E360FE
:100A000025D01D49406801232AB130BC4A69834082
:100A100013434B6170474A69834022EA03034B61E9
:100A200030BC70474A6B834013434B63CEE7A3420D
:100A30000AD0AB42CAD1436801FA03F30E498AB126
:100A40000A6B13430B63C1E7436801FA03F30A49D6
:100A50001AB10A6913430B61B8E70A6922EA030372
:100A60000B61B3E70A6B22EA03030B63AEE700BF37
:100A700000C0092040C00920808002404A1C01605B
:100A800018D038B50C4605460021204600F088F8FD
:100A900024F01F0104F01F020123934001F1180408
:100AA00001F11C0001F11402A9606B60EC60286187
:100AB0006A6138BD704700BF006800F08DB800BFA4
:100AC00041B1012905D18268436811680B43136065
:100AD0007047704782684168136823EA0103136016
:100AE000704700BF38B51049104B01241C60D1F885
:100AF000C4300F4A43F400030E480025C1F8C43047
:100B0000156703680C480221A0FB03031B0D013B82
:100B100051600420D36009495460FFF7F9FD084B88
:100B200010221A6038BD00BF00C00F4074030010CF
:100B300000400940CC00001083DE1B43410500004B
:100B400000E100E0024B1B6803B17047FFF7CABF2A
:100B50007403001008B5044B1B680BB9FFF7C2FF04
:100B6000024B986808BD00BF7403001000400940A4
:100B7000034B98615A6942F001025A61704700BF05
:100B800000400940024A536923F001035361704752
:100B900000400940014B01221A60704700400940A3
:100BA00000F16040A0F51C2003099B0003F1804385
:100BB00003F53033400010B400F01E001C6803221F
:100BC000824024EA02021A601A68814041EA020067
:100BD000186010BC704700BF00F16040A0F51C20F9
:100BE00043099B0003F1804303F5303330B400F038
:100BF0001F029C6EC1F3800505FA02F224EA02048A
:100C00009C669C6E22439A669DB903099B0003F182
:100C1000804303F5303340001C6C00F01E000322BB
:100C2000824024EA02021A641A6C01FA00F01043AE
:100C3000186430BC704700BF154B9968C1F342017E
:100C4000012918D0022914D1124A516F013106D05E
:100C5000D2F88010906F086092F8A61089B1106FDA
:100C60000C4B38B193F8A63023B10B4B00211B6815
:100C7000184770477047074B186F38B1064B1B6811
:100C80001847596821F001015960E8E7704700BF33
:100C900000800940800300107C030010F8B5294C47
:100CA0000368A34247D03FDD274CA34229D004F577
:100CB0008044A34242D1254D082632BB01290BD0E6
:100CC0004268234CC2EBC20204EBC20292F83640E7
:100CD00092F83520D44213D1B1FA81F25D68012433
:100CE00004FA01F125EA01015960036852095B68C1
:100CF00004FA02F21A4203D1164BB440C3F8804002
:100D0000F8BD154D0726002AD8D05868012707FAE4
:100D100001F2024374B25A6029462046FFF7F8FCFC
:100D20000C4BA7401F60F8BDA4F58044A34205D139
:100D30000A4D0526C1E70A4D0626BEE700252E46C8
:100D4000BBE700BF0000014000800940650D0000C6
:100D50008003001000E100E0390C0000D10D00001C
:100D6000310E0000174B9968C1F3420101291BD0D5
:100D7000022917D1144AD2F8AC10013107D0D2F8A9
:100D8000B810D2F8B000086092F8DE1099B1D2F82D
:100D9000A8000D4B38B193F8DE3023B10B4B002186
:100DA0001B68184770477047074BD3F8A80038B145
:100DB000064B1B681847596821F001015960E6E7A6
:100DC000704700BF00C00940800300107C03001082
:100DD000144B9968C1F34201012917D0022913D19C
:100DE000114A5168013105D011699068086092F884
:100DF000361089B110680C4B38B193F8363023B1F6
:100E00000A4B00211B68184770477047064B18684B
:100E100038B1064B1B681847596821F00101596029
:100E2000E8E7704700C00040800300107C0300101A
:100E3000144B9968C1F34201012917D0022913D13B
:100E4000114AD16B013105D0916C106C086092F899
:100E50006E1089B1906B0C4B38B193F86E3023B1A2
:100E60000A4B00211B68184770477047064B986B68
:100E700038B1064B1B681847596821F001015960C9
:100E8000E8E7704700000140800300107C03001079
:100E90002DE9F04F02686E4B89B09A420790069296
:100EA00000F0C88040F3B4806A4B0698984272D034
:100EB00003F58043984240F09D80674BD3F8AC2106
:100EC00022F44022C3F8AC21D3F8AC2142F48022B2
:100ED000C3F8AC21614A0B011268B2FBF3F003FBCB
:100EE0001023039280B2002B00F09080039B4FF000
:100EF00001085A009C009446A246C3468E46994675
:100F00000023059204940090029101930024254649
:100F1000029E5FFA88F7BCF1000FB5BFBCFBF6F08C
:100F2000BAFBF6F0000940090130C0F34F0008EBAE
:100F3000040200283DD00CB101283BD0034603FB3E
:100F400002F3DB00B9FBF3F30133C1EB5303002BD6
:100F5000B8BF5B42734505DA994230D09E46BB4626
:100F60008DE821000134E5B2AF420E44D3D8039B93
:100F700008F101089944059BB8F1100F9C44049BAB
:100F80009A44029B0B440293C0D1019B009843EA10
:100F90000B15EDB216E0304BD3F8AC2122F4403201
:100FA000C3F8AC21D3F8AC2142F48032C3F8AC21B1
:100FB00090E714B102200346C1E70120BEE745EAED
:100FC0000715EDB20699C0F307220B7BC0B243F0C0
:100FD00080030B7307990B681A710B6818700B6804
:100FE00083F828500A68137B03F07F03137309B05A
:100FF000BDE8F08F194A0B011268B2FBF3F003FB56
:101000001023039280B2002B7FF470AF1025D9E734
:10101000A3F580439A42EDD10F4BD3F8A82122F0DB
:10102000C002C3F8A821D3F8A82142F04002C3F8B7
:10103000A8214FE7084BD3F8A82122F44072C3F847
:10104000A821D3F8A82142F48072C3F8A82141E76F
:10105000000001400080094000C00F40CC0000109B
:101060000268137DDB07FCD543680949C3EBC30362
:1010700001EBC303596810780131C0B206D0596939
:101080009B680B60536843F001035360704700BFD7
:10109000800300104368154AC3EBC303DB00D1187B
:1010A00010B4CC6901340FD00B460A6B1C335B685B
:1010B00012681A4205D1036810BC187DC0F3801075
:1010C0007047002010BC704703681B7D9B0607D447
:1010D00091F8340010BC0F288CBF0020012070470D
:1010E000002381F83430012010BC704780030010C9
:1010F00038B504460D462046FFF7CCFF0028FAD04D
:101100002368EDB21D706368054AC3EBC30302EBAD
:10111000C30393F83420013283F8342038BD00BF74
:10112000800300102DE9F04F054644482C6883B039
:1011300084420F4691469A461DD06E68002432467E
:10114000DFF804B14FEAC608C2EBC201C6EB0800E3
:101150000BEBC00000220BEBC1014FF0FF3381F815
:101160003520C361436011462846FFF797FD4FB90C
:1011700003B0BDE8F08F237C6E6803F03F03237457
:101180006A68DDE72E494846FFF75EFA2D4901906F
:101190005046FFF759FABA1E012A30D9012FE7D17C
:1011A000B9F1FF3FE4D0254A019B2968072093420B
:1011B00008720BD154B14846237C214943F04003C7
:1011C000237403B0BDE8F04FFFF706BAC6EB08067C
:1011D0000BEBC600494604300022FFF7E1F96A68CC
:1011E0000124C2EBC2020BEBC203284622460021B7
:1011F00083F8354003B0BDE8F04FFFF74FBDBAF1BB
:10120000FF3F0AD00D4A90420DD0C6EB08000BEB11
:10121000C00051461C30FFF79BF9032FA8D1B9F14C
:10122000FF3FC0D1A4E7002CEFD0227C504642F013
:10123000800222740349FFF7CFF9EEE70000014076
:101240005C4B0000584C0000800300102DE9F04179
:101250000F460546594938461646FFF705FA5849DC
:1012600004463046FFF700FA01462046FFF7DAF958
:10127000544B0446984228607FD06FD9524B984215
:101280004BD003F58043984206D1504AD2F8C4307F
:1012900043F00073C2F8C430012323722B684FF06F
:1012A0000008C3F804804FF416512846FFF7F0FDFC
:1012B0002B6803221A7341493846FFF78DF94049DC
:1012C0003046FFF789F97A1C03D041463846FFF7CC
:1012D00083FC731C03D030460021FFF77DFC394BA3
:1012E0009C4247D021D9384B9C4263D003F58043C0
:1012F0009C424AD103236B60354CC3EBC3034FF0D0
:10130000FF3604EBC3042846334632466660E66186
:101310000021BDE8F041FFF705BF2C4AD2F8C430E8
:1013200043F08073C2F8C430B6E7A3F580439C4213
:101330002BD1274E4FF0FF3400216960234622460F
:1013400028467460F461FFF7EDFE224B01221A601B
:1013500028686968204B03C3BDE8F081A3F580438A
:10136000984299D1194AD2F8C43043F00803C2F820
:10137000C43091E701236B60BEE7144AD2F8C43051
:1013800043F01003C2F8C43086E76E68104BC6EB1A
:10139000C6064FF0FF3703EBC6063A463B46002130
:1013A00028467760F761FFF7BDFE0C4B9C42CCD01E
:1013B000BDE8F08102236B609EE700BFEC4B0000AC
:1013C000804B0000000001400080094000C00F4039
:1013D00080030010780300106805001000C0004072
:1013E00010B5044643694168194400F0D3F9E36A33
:1013F0003BB1A06920B104F11C01BDE810401847C1
:1014000010BDA369002BFBD0BDE81040184700BFFA
:1014100010B5044600F0C4F90023A361E36210BDD7
:1014200038B50D46044600F0BBF965612069FFF749
:101430003BF829182046BDE8384000F0ABB900BFA2
:1014400010B50446C068FFF72FF86368C01A10BDD6
:1014500038B500250560456085600446FFF76CF8E7
:10146000E060FFF721F8A5606060204638BD00BF4E
:10147000036803B1704710B50446C068FFF714F85D
:1014800001236060236010BD036810B5846813B148
:10149000FFF7D6FF03460448234480FB0320DB17F5
:1014A000C3EBA01010BD00BFD34D621010B50446B1
:1014B000C068FEF7F9FF00236060A36010BD00BFA5
:1014C000024A03490348FFF7C1BE00BF03C0092019
:1014D00002C009206805001002280ADD074AC31E61
:1014E00052F82300002142F8231020B103685B6802
:1014F0001847002070474FF0FF307047600400101D
:10150000022812DC0E4B70B51B680C4616460BB950
:10151000FFF7D6FFA51936B114F8011B0948FFF7EC
:10152000E7FDAC42F8D1304670BD074B033853F8A5
:10153000200010B103681B6818474FF0FF30704758
:1015400078030010680500106004001002280DDC0C
:101550000C4B10B51B680C460BB9FFF7B1FF0A48DE
:10156000FFF77EFD01232070184610BD074B03389E
:1015700053F8200010B103689B6818474FF0FF3301
:1015800018467047780300106805001060040010CA
:10159000022807DD064B033853F8200020B103680A
:1015A000DB681847012070474FF0FF30704700BFDD
:1015B00060040010022807DD064B033853F82000B2
:1015C00020B103681B691847002070474FF0FF30B7
:1015D000704700BF60040010022808B504D84FF41B
:1015E00000534B60002008BD00F06CFC0923036031
:1015F0004FF0FF3008BD00BF704700BF704700BF0D
:1016000008B5FFF7FBFFFFF7F7FFBDE80840FEF75F
:1016100005BE00BF074A13681918EFF3088081421E
:1016200002D2184611607047034B0C221A604FF02B
:10163000FF307047D0000010700500100B4C08B54B
:1016400023680546986800F007FD2368D86800F015
:1016500003FDFEF77BFF20B905B9FEE7FFF71EF893
:10166000FBE7FEF725FF002DF7D0F7E73401001068
:1016700010B50446034B40F81C3BFFF791F9204698
:1016800010BD00BF984C000010B50446044B40F854
:101690001C3BFFF785F9204600F0ADF8204610BD51
:1016A000984C000001290DD0022907D1436D33B1B8
:1016B000026C32B100F14401104618477047036CC8
:1016C00063B97047C36B33B1826A002AF9D000F165
:1016D0002C0110461847836A002BF2D0184700BF30
:1016E00070B5054604460E460D4B002245F8043BF6
:1016F000426003466A60AA60EA602A616A611C303F
:10170000E26122626262A262E26322646265054A69
:10171000FFF708F928463146FEF71AFF204670BD4C
:10172000984C0000A516000039B100230122816207
:10173000C36311461C30FFF73BB98162C1630A469F
:101740001C300121FFF734B903689B68184700BFBC
:10175000074A002310B580E80C008360C36004468C
:10176000FEF7EAFE03492061FEF726FE204610BD83
:10177000A84C000049170000014610B50446044B70
:10178000006941F8043BFEF76BFE204610BD00BF28
:10179000A84C000003460A46011D0069FEF73CBE46
:1017A000011D0069FEF75CBE0649074A074B9A42D5
:1017B000BEBF51F8040B42F8040BF8E70448804719
:1017C000044800477C4E0000C80000107C01001057
:1017D0004D0700005D030000FEE7FEE7FEE7FEE7C1
:1017E000FEE7FEE7FEE7FEE7FEE7FEE70B46014603
:1017F000184600F059BBFEF7D1BD000081F0004152
:1018000002E000BF83F0004330B54FEA41044FEAE5
:10181000430594EA050F08BF90EA020F1FBF54EA80
:10182000000C55EA020C7FEA645C7FEA655C00F01C
:10183000E2804FEA5454D4EB5555B8BF6D420CDDED
:101840002C4480EA020281EA030382EA000083EA70
:10185000010180EA020281EA0303362D88BF30BD10
:1018600011F0004F4FEA01314FF4801C4CEA113166
:1018700002D0404261EB410113F0004F4FEA0333C5
:101880004CEA133302D0524263EB430394EA050F50
:1018900000F0A780A4F10104D5F1200E0DDB02FABF
:1018A0000EFC22FA05F2801841F1000103FA0EF253
:1018B000801843FA05F359410EE0A5F120050EF119
:1018C000200E012A03FA0EFC28BF4CF0020C43FA4A
:1018D00005F3C01851EBE37101F0004507D54FF057
:1018E000000EDCF1000C7EEB00006EEB0101B1F5A7
:1018F000801F1BD3B1F5001F0CD349085FEA3000ED
:101900004FEA3C0C04F101044FEA445212F5800FF7
:1019100080F09A80BCF1004F08BF5FEA500C50F194
:10192000000041EB045141EA050130BD5FEA4C0C77
:10193000404141EB010111F4801FA4F10104E9D100
:1019400091F0000F04BF01460020B1FA81F308BFF7
:101950002033A3F10B03B3F120020CDA0C3208DDC3
:1019600002F1140CC2F10C0201FA0CF021FA02F19E
:101970000CE002F11402D8BFC2F1200C01FA02F10E
:1019800020FA0CFCDCBF41EA0C019040E41AA2BF33
:1019900001EB0451294330BD6FEA04041F3C1CDAFB
:1019A0000C340EDC04F11404C4F1200220FA04F01B
:1019B00001FA02F340EA030021FA04F345EA0301C5
:1019C00030BDC4F10C04C4F1200220FA02F001FA87
:1019D00004F340EA0300294630BD21FA04F0294609
:1019E00030BD94F0000F83F4801306BF81F48011A2
:1019F0000134013D4EE77FEA645C18BF7FEA655C15
:101A000029D094EA050F08BF90EA020F05D054EAE6
:101A1000000C04BF1946104630BD91EA030F1EBFEB
:101A20000021002030BD5FEA545C05D140004941EF
:101A300028BF41F0004130BD14F580043CBF01F5E2
:101A4000801130BD01F0004545F0FE4141F47001C8
:101A50004FF0000030BD7FEA645C1ABF19461046A3
:101A60007FEA655C1CBF0B46024650EA013406BFA4
:101A700052EA033591EA030F41F4002130BD00BF63
:101A800090F0000F04BF0021704730B54FF4806420
:101A900004F132044FF000054FF0000150E700BFA1
:101AA00090F0000F04BF0021704730B54FF4806400
:101AB00004F1320410F0004548BF40424FF00001ED
:101AC0003EE700BF42004FEAE2014FEA31014FEA30
:101AD00002701FBF12F07F4393F07F4F81F060517F
:101AE000704792F0000F14BF93F07F4F704730B5EE
:101AF0004FF4607401F0004521F0004120E700BF81
:101B000050EA010208BF704730B54FF000050AE007
:101B100050EA010208BF704730B511F0004502D508
:101B2000404261EB41014FF4806404F132045FEA0A
:101B3000915C3FF4DCAE4FF003025FEADC0C18BFAF
:101B400003325FEADC0C18BF033202EBDC02C2F1A5
:101B5000200300FA03FC20FA02F001FA03FE40EA37
:101B60000E0021FA02F11444C1E600BF4FEA41021F
:101B700012F5001215D211D56FF47873B3EB6252DF
:101B800012D94FEAC12343F0004343EA505311F006
:101B9000004F23FA02F018BF404270474FF0000098
:101BA000704750EA013005D111F0004008BF6FF0D6
:101BB000004070474FF00000704700BF4FF0FF0C2F
:101BC0001CEAD0521EBF1CEAD15392EA0C0F93EAD2
:101BD0000C0F6FD01A4480EA010C400218BF5FEA74
:101BE00041211ED04FF0006343EA501043EA5111E7
:101BF000A0FB01310CF00040B1F5000F3EBF4900E1
:101C000041EAD3715B0040EA010062F17F02FD2AE4
:101C10001DD8B3F1004F40EBC25008BF20F00100C7
:101C2000704790F0000F0CF0004C08BF49024CEADE
:101C3000502040EA51207F3AC2BFD2F1FF0340EA70
:101C4000C250704740F400004FF00003013A5DDCE1
:101C500012F1190FDCBF00F000407047C2F1000222
:101C6000410021FA02F1C2F1200200FA02FC5FEA0F
:101C7000310040F1000053EA4C0308BF20EADC7059
:101C8000704792F0000F00F0004C02BF400010F4CB
:101C9000000F013AF9D040EA0C0093F0000F01F078
:101CA000004C02BF490011F4000F013BF9D041EA9A
:101CB0000C018FE70CEAD15392EA0C0F18BF93EA9C
:101CC0000C0F0AD030F0004C18BF31F0004CD8D1C6
:101CD00080EA010000F00040704790F0000F17BF4D
:101CE00090F0004F084691F0000F91F0004F14D093
:101CF00092EA0C0F01D142020FD193EA0C0F03D1EB
:101D00004B0218BF084608D180EA010000F00040ED
:101D100040F0FE4040F40000704740F0FE4040F4C8
:101D2000400070474FF0FF0C1CEAD0521EBF1CEA67
:101D3000D15392EA0C0F93EA0C0F69D0A2EB030285
:101D400080EA010C49024FEA402037D04FF080531F
:101D500043EA111143EA10130CF000408B4238BFE4
:101D60005B0042F17D024FF4000C8B4224BF5B1AF2
:101D700040EA0C00B3EB510F24BFA3EB510340EA40
:101D80005C00B3EB910F24BFA3EB910340EA9C00EE
:101D9000B3EBD10F24BFA3EBD10340EADC001B015E
:101DA00018BF5FEA1C1CE0D1FD2A3FF650AF8B4202
:101DB00040EBC25008BF20F0010070470CF0004C0F
:101DC0004CEA50207F32C2BFD2F1FF0340EAC2503A
:101DD000704740F400004FF00003013A37E792F0FB
:101DE000000F00F0004C02BF400010F4000F013A59
:101DF000F9D040EA0C0093F0000F01F0004C02BF54
:101E0000490011F4000F013BF9D041EA0C0195E7BC
:101E10000CEAD15392EA0C0F08D142027FF47DAF55
:101E200093EA0C0F7FF470AF084676E793EA0C0F45
:101E300004D14B023FF44CAF08466EE730F0004C43
:101E400018BF31F0004CCAD130F000427FF45CAFD3
:101E500031F000437FF43CAF5FE700BF4FEA400240
:101E6000B2F1FE4F0FD34FF09E03B3EB12620DD9C8
:101E70004FEA002343F0004310F0004F23FA02F032
:101E800018BF404270474FF00000704712F1610FD9
:101E900001D1420205D110F0004008BF6FF00040B0
:101EA00070474FF00000704710B5054C13462CB139
:101EB0000A4601460220AFF3008010BD204610BD47
:101EC00000000000014B1868704700BF340100108B
:101ED00008B5074B044613B10021AFF30080054B52
:101EE0001868836A03B198472046FFF7A7FB00BF35
:101EF00000000000184D00008A892DE9F0410546D8
:101F000010070C4659D44B68002B02DC0B6C002BDD
:101F100017DDE66AAEB102F48052002392B22F6858
:101F20002B600AB1606D15E0216A01232846B04795
:101F3000411C0FD12B686BB11D2B01D0162B03D187
:101F40002F600020BDE8F081A38943F04003A38106
:101F5000BDE8F081A3895A0705D56368C01A636B91
:101F60000BB1236CC01A00230246E66A216A284698
:101F7000B047431CA38906D129681D2939D8204AB6
:101F8000CA40D60735D5002262602269D904226092
:101F900004D5421C01D12B6803B96065616B2F60C9
:101FA0000029CED004F14403994202D0284600F023
:101FB000D3F900206063BDE8F0810F69002FC0D025
:101FC00093070E680CBF4B690023C7EB06080F6030
:101FD0008B6002E00744C0EB0808B8F1000FB0DDE9
:101FE00043463A46216A2846A66AB0470028F1DCF3
:101FF000A38943F04003A3814FF0FF30BDE8F08197
:102000000100402038B50B6905460C46DBB118B11C
:1020100083690BB900F072F80C4B9C4201D16C68DB
:1020200008E00B4B9C4201D1AC6803E0094B9C4299
:1020300008BFEC68B4F90C302BB121462846BDE846
:102040003840FFF759BF002038BD00BFB44C000036
:10205000D44C0000F44C0000014620B9044B054963
:10206000186800F0B7B8044B1868FFF7CBBF00BF83
:10207000184D00000520000034010010014900F057
:10208000A9B800BF0520000010B504460023036076
:102090004360836081814366C281036143618361E0
:1020A000194608225C3000F04EF9054B2462636249
:1020B000044BA362044BE362044B236310BD00BFD7
:1020C0005D3000007F300000B7300000DB300000E2
:1020D00070B568234D1E5D430E4605F1740100F096
:1020E0007FF9044640B1002180E842000C30A06036
:1020F00005F1680200F027F9204670BD836910B52C
:10210000044633BB8364C3640365124B124A1B68E5
:102110008262984204BF0123836100F01FF860606F
:10212000204600F01BF8A060204600F017F80022BF
:10213000E06004216068FFF7A7FF01220921A06881
:10214000FFF7A2FF02221221E068FFF79DFF0123A3
:10215000A36110BD184D00007D200000F8B51C4B98
:1021600007461E68B36913B93046FFF7C7FF483604
:10217000B4687368013B04D4B4F90C507DB1683481
:10218000F8E733680BB13668F2E704213846FFF709
:102190009FFF30600028F6D10C233B60F8BD4FF65E
:1021A000FF73E3810123A38165662560A5606560F7
:1021B00025616561A5610822294604F15C0000F0F3
:1021C000C2F86563A563A564E5642046F8BD00BF59
:1021D000184D00002DE9F8438046894600F1480477
:1021E000002694B1A5686768013F0CD4AB89012B28
:1021F00007D9B5F90E30013303D029464046C84708
:1022000006436835F0E72468EBE73046BDE8F8831D
:102210000E4B70B51E460E4C0025E41AA410A542C4
:1022200004D056F8253098470135F8E702F030FC25
:10223000084B094C1E46E41AA4100025A54204D000
:1022400056F8253098470135F8E770BD7001001049
:10225000700100107001001078010010F0B58B893A
:1022600091B09D0706460C4625D4B1F90E10002901
:1022700008DAA389002513F0800F14BF40274FF41C
:1022800080670DE001AA01F03BFE0028F1DB029D12
:102290004FF4806705F47045A5F500514D424D415E
:1022A0003946304600F09CF860B9A3899A051DD4E0
:1022B00043F00203A38104F1470323602361012358
:1022C000636113E00A4BB362A389206043F080038B
:1022D000A381206167614DB1B4F90E10304601F061
:1022E00021FE18B1A38943F00103A38111B0F0BD11
:1022F0007D200000024B0146186800F071B800BF55
:1023000034010010024B0146186800F025B800BFE8
:102310003401001010B5C9B202449042034605D002
:102320001C7801308C42F8D1184610BD002010BD39
:1023300010B5431E0A44914204D011F8014B03F832
:10234000014FF8E710BD03460244934202D003F860
:10235000011BFAE77047000030B500293CD051F866
:10236000042C0B1F1D49002AB8BF9B180A680C4695
:1023700012B95A600B6030BD9A420DD919685818CD
:10238000824201BF10685268091819605A602360C0
:1023900030BD994203D80A4651680029F9D1146822
:1023A00015199D420AD11B682344D018814213603D
:1023B00012D10868034413604B680CE002D90C2367
:1023C000036030BD18681C18A14201BF0C68496841
:1023D000001918605960536030BD00BF64050010DB
:1023E00070B5CD1C25F0030508350C2D38BF0C2524
:1023F000002D064603DA0C233360002070BDA9428D
:10240000F9D81F4B1C681A462146A1B10B685B1B0B
:102410000ED40B2B03D90B60CC18CD501EE08C4290
:102420000BBF63684B681360636018BF0C4615E010
:102430000C464968E9E7134C23681BB9304600F0A5
:10244000FDFD20602946304600F0F8FD431CD2D047
:10245000C41C24F00304A0420AD1256004F10B003F
:10246000231D20F00700C31A09D05A42E25070BD64
:10247000211A304600F0E2FD0130EED1BBE770BD1D
:102480006405001060050010936810B4013B002B38
:10249000936008DA9469A34202DBCBB20A2B02D123
:1024A00010BC00F027BE1368581C10601970C8B229
:1024B00010BC7047F8B506460F461446D518AC4216
:1024C00008D03A4614F8011B3046FFF7DDFF431CE5
:1024D000F5D100E00020F8BD2DE9F04F9DB00C468D
:1024E00017460393064618B183690BB9FFF706FE3A
:1024F0007F4B9C4201D1746808E07E4B9C4201D125
:10250000B46803E07C4B9C4208BFF468A3891807B9
:102510000CD5236953B10023099320238DF829306A
:1025200030238DF82A30DFF8D4B144E0214630461C
:1025300000F046FE0028EED04FF0FF30D5E0039AC1
:10254000111D12680391002A80F28C80524243F0E0
:1025500002000792049098F800302E2B00F084803F
:10256000032298F800106548FFF7D4FE48B14023D5
:10257000CBEB000003FA00F0049B08F101081843BC
:10258000049098F8001006225D4808F101078DF8C4
:102590002810FFF7BFFE002800F09580594B002B54
:1025A00040F08880039B073323F00703083303932D
:1025B000099B53440993B846454615F8013B1BB99E
:1025C000B8EB07090FD003E0252BF9D0A846F3E7B5
:1025D0004B463A4621463046FFF76CFF01307FD02C
:1025E000099B4B44099398F80030002B78D00023C6
:1025F0004FF0FF3204930793059206938DF8533002
:102600001A930127052229783F48FFF783FE05F139
:102610000108049B38B13C4A4546801A07FA00F08D
:1026200018430490EEE7D90644BF20228DF85320CA
:102630001A0744BF2B228DF853202A782A2A3FF408
:102640007EAF079A00210A20A84698F8003001358D
:10265000303B092B03D800FB02320121F4E70029AB
:102660003FF479AF079276E798F801302A2B0BD127
:10267000039B08F102081A1D1B680392002BB8BFC8
:102680004FF0FF3305936BE700231946059308F1DC
:1026900001000A25804698F800200130303A092AC6
:1026A00003D805FB01210123F4E7002B3FF458AFC9
:1026B000059155E703AB00932246144B04A930461D
:1026C00000F0C2F807E003AB009322460F4B04A9C9
:1026D000304600F065FBB0F1FF3F82467FF468AF03
:1026E000A3895B063FF528AF09981DB0BDE8F08FC0
:1026F000B44C0000D44C0000F44C0000224D00000B
:10270000264D0000492800001C4D0000B5240000A3
:1027100013460A46014602480068FFF7DDBE00BFC7
:10272000340100102DE9F04788B0149F002B1E469D
:102730001299B8BF03F1004327F02007B6BF1E4629
:1027400000232D23462F1446109DDDF84CA00B705E
:1027500003D0452F03D1013501E0032300E002231C
:1027600007AA049206AA03928DE82804224633465B
:1027700000F02EFE472F804602D1119BDB0728D5A3
:10278000462F08EB050911D198F80030302B0AD1FB
:10279000002200232046314602F048F918B9C5F15D
:1027A0000105CAF80050DAF80030994400220023ED
:1027B0002046314602F03AF908B9302202E0CDF85D
:1027C0001C9006E0079B994503D9591C07911A7084
:1027D000F8E74046079B159AC8EB0303136008B05F
:1027E000BDE8F087034673B50029B8BF494203F836
:1027F000022BB4BF2D222B22092942701ADD0DF1C4
:10280000070216460A2591FBF5F405FB1411092C65
:1028100001F1300102F8011D2146F4DC3031541E73
:1028200002F8011CB4421A460AD214F8012B03F82C
:10283000012BF7E71A463024214402F8024B597065
:10284000101A02B070BD00002DE9F04F8FB00C4699
:1028500016461F46DDF86080054601F073FBD0F890
:1028600000B0584600F03DFC00230C93D8F800302F
:102870000890073323F0070303F1080294F8189037
:10288000C8F80020D3E90023C4E91223D4E91201D7
:1028900000F0ACFB012819D1D4E912010022002379
:1028A00002F0CEF810B12D2384F843309A4B9B4AA6
:1028B000B9F1470F8CBF90469846032323612368E4
:1028C00023F0040323604FF0000A93E0D4E91201DF
:1028D00000F08CFB236848B9914A9249B9F1470F3F
:1028E0008CBF8846904603222261E9E7D4F804E0D1
:1028F000D4E91201BEF1FF3F01D106220AE0B9F18D
:10290000670F02D0B9F1470F05D1BEF1000F40F0BB
:10291000B68101226260002243F4806306920CAA11
:102920002360059201930BAA636803920DF12B02B9
:102930000292009302460B46CDF810902846FFF70E
:10294000F1FE09F0DF03472B804609D10B9BD81C11
:1029500002DB6268934230DDA9F102095FFA89F96E
:10296000B9F1650F0B9912D801394A4604F15000AC
:102970000B91FFF737FF0C9A82468318012A2361D7
:1029800002DC2268D1072FD5013323612CE0B9F195
:10299000660F14D10029636807DD216113B922682D
:1029A000D2071DD501330B4419E013B92268D007B3
:1029B00001D5023313E0012311E04FF067090B9BAF
:1029C0000C9A934205DB22682361D10708D50133B5
:1029D00005E0002BD4BFC3F102030123134423619C
:1029E0000B9B4FF0000AA3659DF82B3013B12D23EC
:1029F00084F84330009733460DAA2146284600F05C
:102A000059F9013002D14FF0FF3050E123685A05E7
:102A100001D4236965E0B9F1650F40F2D580D4E9AE
:102A200012010022002302F001F878B301233E4A8C
:102A300031462846B8470130E5D00C9B0B9A9A42A4
:102A40000BDB2368D80708D423689B0740F111816A
:102A50004FF0000804F1190906E1089B5A46314677
:102A60002846B8470130CED04FF0000804F11A09CB
:102A70000C9B013B9845E7DA01234A46314628463C
:102A8000B8470130BFD008F10108F1E70B9B002BDC
:102A900029DC0123244A31462846B8470130B2D008
:102AA0000B9B23B90C9B13B92368D907CCD5089B82
:102AB0005A4631462846B8470130A4D04FF00009A5
:102AC00004F11A0A0B9B5B42994509DA012352462D
:102AD00031462846B847013095D009F10109F1E7A0
:102AE0000C9B4246A7E00C9AA36D9A42A8BF1A46D7
:102AF000002A914607DC04F11A034FF0000A29EA84
:102B0000E97909931CE01346314642462846B84706
:102B10000130F0D177E700BF2D4D0000314D0000AE
:102B2000354D0000394D00003D4D00000123099A4C
:102B300031462846B84701303FF465AF0AF1010A33
:102B4000A36DC9EB03029245F0DB08EB03090B9A76
:102B50000C9B9A420FDB2368DA070CD40C9B0B9A70
:102B60009844C9EB08089B1A9845A8BF9846B8F145
:102B7000000F08DC0FE0089B5A4631462846B8474C
:102B80000130EBD13FE743464A4631462846B84735
:102B900001303FF438AF4FF0000928EAE87804F13B
:102BA0001A0A09E00123524631462846B847013047
:102BB0003FF429AF09F101090B9A0C9B9B1AC8EB52
:102BC00003039945EEDB3FE70C9A012A01DCDB07A2
:102BD00038D50123424631462846B84701303FF4F4
:102BE00012AF089B5A4631462846B84701303FF499
:102BF0000AAFD4E912010022002301F017FF20B12F
:102C00004FF0000804F11A090EE00C9B08F10102D4
:102C1000013B19E001234A4631462846B8470130B6
:102C20003FF4F1AE08F101080C9B013B9845F1DB44
:102C3000534604F1500231462846B84701307FF42C
:102C400003AFE0E64246012331462846B84701304B
:102C5000EED1D8E601234A4631462846B84701302E
:102C60003FF4D1AE08F10108E3680D9A9B1A98452C
:102C7000F0DBE0680D9B9842B8BF184617E00022D1
:102C800006920CAA05920BAA43F4806303920DF1FD
:102C90002B022360029201930246CDF81090CDF8EA
:102CA00000E00B462846FFF73DFD80464EE60FB09C
:102CB000BDE8F08F2DE9F04791461F460A698B6801
:102CC00006469342B8BF1346C9F8003091F8432036
:102CD0000C46DDF8208012B10133C9F800302368BA
:102CE000990642BFD9F800300233C9F80030256890
:102CF00015F0060510D104F1190A07E00123524628
:102D000039463046C04701301AD00135E368D9F85A
:102D100000209B1A9D42F1DB94F843302268003377
:102D200018BF012392060FD5E118302081F8430027
:102D30005A1C94F845102244023382F8431003E0F1
:102D40004FF0FF30BDE8F08704F1430239463046CA
:102D5000C0470130F4D02268D9F80050E36802F08F
:102D60000602042A08BF5D1B2269A3680CBF25EA7E
:102D7000E57500259342C4BF9B1AED184FF000097A
:102D80001A344D4509D00123224639463046C04702
:102D90000130D5D009F10109F3E70020BDE8F08743
:102DA0002DE9F04317460A7E85B06E2A98460646FE
:102DB0000C460C9B01F1430E00F0AE8011D8632A43
:102DC00022D009D8002A00F0BB80582A40F0CA80DF
:102DD00081F84520834955E0642A1ED0692A1CD019
:102DE000C0E0732A00F0B08009D86F2A2ED0702A74
:102DF00040F0B8800A6842F020020A603EE0752A7E
:102E000024D0782A3AD0ADE01A6801F14205111DAC
:102E10001960136884F84230A8E021681A6811F03C
:102E2000800F02D0111D196008E011F0400F02F16F
:102E30000401196002D0B2F9003000E01368002BE1
:102E40003CDA2D225B4284F8432037E021681A687F
:102E500011F0800F02D0111D196007E011F0400F32
:102E600002F10401196001D0138800E01368227E8A
:102E70005C496F2A14BF0A2208221BE078225A49B3
:102E800084F845202268186812F0800F00F10405CC
:102E90001D6003D1550601D5038800E00368D00703
:102EA00044BF42F0200222601BB9226822F02002B7
:102EB00022601022002084F8430001E049490A22E0
:102EC0006568002DA56008DB206820F00400206004
:102ED0002BB9002D7DD175460CE0002B79D07546BD
:102EE000B3FBF2F002FB1033CB5C05F8013D034667
:102EF0000028F5D1082A0BD12368DA0708D5236901
:102F000062689A42DEBF302305F8013C05F1FF35C7
:102F1000C5EB0E0323612EE008681A6810F0800FDD
:102F2000496903D0101D1860136808E010F0400FC5
:102F300002F104001860136801D0198000E01960E4
:102F400000232361754616E01A68111D1960156883
:102F5000002162682846FFF7DDF908B1401B606078
:102F6000636804E004F1420584F8422001232361F0
:102F7000002384F84330CDF800803B4603AA214665
:102F80003046FFF797FE013002D14FF0FF3026E0C8
:102F900023692A4639463046C0470130F5D02368B8
:102FA0009B0710D5002504F1190907E001234A46C3
:102FB00039463046C0470130E7D00135E368039A0F
:102FC0009B1A9D42F2DBE068039B9842B8BF18460B
:102FD00005E00B7804F1420584F842308AE705B039
:102FE000BDE8F0833F4D0000504D000031F000433C
:102FF00010B51BD00F4AA1F58014944210D901F1ED
:10300000FF410C4A01F5E001914209D9B3F5801F57
:1030100008D3094A934207D1B0FA80F0400910BDA5
:10302000042010BD032010BD002010BD0028E6D1F3
:10303000022010BDFFFFDF7F0000F07F38B5064C97
:103040000023054608462360FEF7E4FA431C02D13C
:10305000236803B12B6038BD7005001010B50C4615
:10306000B1F90E1001F068FA0028ABBF636DA389B7
:103070001B1823F48053ACBF6365A38110BD2DE9F9
:10308000F0411F468B890546DB050C46164605D5E3
:1030900002230022B1F90E1000F058FFA389324636
:1030A00023F48053A381B4F90E103B462846BDE8B3
:1030B000F04100F073B810B50C46B1F90E1000F0F5
:1030C00045FF431CA38915BF606523F4805343F477
:1030D0008053A38118BFA38110BDB1F90E1000F079
:1030E000DBB8034613F8012B002AFBD1181A01386C
:1030F00070470000F8B50F461446064618B18369BC
:103100000BB9FEF7FBFF224B9C4201D1746808E02B
:10311000204B9C4201D1B46803E01F4B9C4208BF86
:10312000F468A369A360A3891A0709D523693BB191
:1031300023682069FDB2181A636998420FDB08E022
:103140002146304600F03CF80028F1D04FF0FF3027
:10315000F8BD21463046FEF755FF0028F6D1A3689A
:10316000013BA36023685A1C22601F706269431CE4
:10317000934204D0A389DB0707D50A2D05D1214648
:103180003046FEF73FFF0028E0D12846F8BD00BFDB
:10319000B44C0000D44C0000F44C000038B5074C8F
:1031A000054608461146002222601A46FEF7A8F995
:1031B000431C02D1236803B12B6038BD7005001099
:1031C000314B70B51D6806460C4625B1AB6913B985
:1031D0002846FEF793FF2D4B9C4201D16C6808E016
:1031E0002B4B9C4201D1AC6803E02A4B9C4208BFA8
:1031F000EC68A3899AB211071DD4D50602D409221E
:10320000326038E0500712D5616B41B104F14403DC
:10321000994202D03046FFF79FF800236363A389E9
:1032200023F02403A3810023636023692360A3891F
:1032300043F00803A38123694BB9A38903F42073E6
:10324000B3F5007F03D021463046FFF707F8A38986
:1032500013F0010205D00022A26062695242A2610D
:1032600003E0990758BF6269A26022694AB903F076
:10327000800080B230B143F04003A3814FF0FF30B3
:1032800070BD002070BD00BF34010010B44C0000C0
:10329000D44C0000F44C000038B5064C0023054621
:1032A00008462360FEF718F9431C02D1236803B1D6
:1032B0002B6038BD700500102DE9F74F03690C69CC
:1032C00080469C427FDC013C01F114074FEA840EEA
:1032D00000F1140606EB0E0357F82450019356F83C
:1032E00024300135B3FBF5F507EB0E09C5B34FF0FC
:1032F000000A3846B446D34650F8043B9AB205FB60
:1033000002A21B0C4FEA124A05FB03A392B2C2EBC6
:103310000B0BBCF800204FEA134A5A441FFA83FBF8
:10332000DCF800308145CBEB134303EB224392B230
:1033300042EA03424FEA234B4CF8042BDCD256F806
:103340000E306BB9019B043B9E421A4602D3C8F86B
:10335000104005E01268043B002AF8D1013CF3E775
:10336000404601F012F800282BDB304601354FF0C3
:10337000000E57F8042B036891B2C1EB0E0E120C2D
:1033800099B27144C2EB134303EB214389B24FEA74
:10339000234EB94541EA034340F8043BE9D256F8CD
:1033A000242006EB840362B9043B9E421A4602D3F2
:1033B000C8F8104005E01268043B002AF8D1013C2F
:1033C000F3E7284600E0002003B0BDE8F08F0000DE
:1033D0002DE9F04F456A95B08246219CCDE9022344
:1033E00045B91020FCF7D4FFCAF824004560856079
:1033F0000560C560DAF82430196859B15A680123AC
:1034000093404A608B60504600F0E7FDDAF82430C4
:1034100000221A60039BA04A002BBDBF012323603A
:10342000039B0023BCBF23F000430393DDF80C8013
:10343000A8BF236028F000431B0D1B0593421DD13C
:1034400042F20F73209A1360029B43B9934A944B44
:10345000C8F31300002814BF1846104600E0904837
:10346000229B002B00F04685C37813B100F10803BE
:1034700000E0C31C229A136000F03CBDDDE9024568
:10348000002200232046294601F0D0FA074658B111
:10349000209A01231360229B002B00F01E85814897
:1034A0001860013800F026BD12AB019313AB0093F6
:1034B00022462B46504600F0E3FFC8F30A5604901C
:1034C00056B1C5F3130343F07F51204641F4401138
:1034D000A6F2FF3611971DE0139B129E1E4406F2C2
:1034E0003243202B0ADD029A06F21240C3F1400358
:1034F00022FA00F008FA03F3184304E0C3F12000B5
:10350000029B03FA00F0FEF7BBFA0123A1F1F87168
:10351000013E11930022644BFEF774F958A3D3E9DE
:10352000002301F01BF858A3D3E90023FEF76CF940
:10353000044630460D46FEF7B3FA55A3D3E90023FF
:1035400001F00CF802460B4620462946FEF75CF9CE
:1035500004460D46FEF70AFB002283460023204660
:10356000294601F06DFA58B15846FEF799FA02461D
:103570000B462046294601F059FA08B90BF1FF3BEA
:10358000BBF1160F0DD8DDE90223484901EBCB0151
:10359000D1E9000101F072FA30B10BF1FF3B0023D9
:1035A00000E00123109300E01090129B9E1B731EFD
:1035B000079343BFC3F10008002307934FF00008AF
:1035C000BBF1000F06DB079BCDF82CB05B440793E3
:1035D000002705E00023CBEB0808CBF100070B9395
:1035E0001E9B092B28D8052BC4BF043B1E931E9B92
:1035F000C8BF0025A3F10203D8BF0125032B20D8A3
:10360000DFE803F0060E0204012302E0012308E0D4
:1036100000230A931F9B002B1DDD9946059321E093
:1036200000230A931F9B0BEB030909F10103012BF4
:103630000593B8BF012315E0012500231E930A95C9
:1036400001E001230A934FF0FF390022CDF81490D6
:1036500012231F9206E04FF001094B46CDF814905B
:10366000CDF87C90DAF8244000226260042101F158
:1036700014029A421CD86268490001326260F6E77F
:1036800061436F63A787D23FB3C8608B288AC63F68
:10369000FB799F501344D33F0000F07F614D000041
:1036A0006A4D00003E4D00000000F83F784D0000DC
:1036B0006168504600F05CFCDAF8243020601B683A
:1036C0000693059B0E2B00F25B81002D00F05881C4
:1036D000DDE90234BBF1000FCDE90E3430DD9F4A45
:1036E0000BF00F034FEA2B1502EBC303E80618CBD0
:1036F000CDE908340CD5DDE90E01994B05F00F0535
:10370000D3E9082301F054F80324CDE9020100E0D5
:103710000224934E6DB1E90708D5DDE90801D6E929
:10372000002300F01BFFCDE9080101346D100836BD
:10373000F0E7DDE90823DDE9020101F039F820E0D6
:10374000CBF1000505B3DDE90E01844B05F00F0256
:1037500003EBC203D3E9002300F000FFCDE902012F
:103760007F4E2D110023022455B1EA0705D5D6E975
:10377000002300F0F3FE013401236D100836F3E757
:103780001BB1CDE9020100E00224109BE3B1DDE9A9
:1037900002560022734B2846314601F051F998B188
:1037A000059B8BB1B9F1000F40F3E6800BF1FF33BD
:1037B0000893314600226C4B284600F0CFFE0134BE
:1037C000CDE902014E4602E0059ECDF820B020462C
:1037D000FEF766F9DDE9022300F0C0FE634B00222C
:1037E000FEF712F8A1F1507304460C931D46D6B9AA
:1037F000DDE9020100225E4BFEF704F822460C9B35
:10380000CDE9020101F03AF9002840F03F820C991D
:10381000224601F10043DDE9020101F011F900281F
:1038200040F02B82A8E00A9A4C4B711E002A49D026
:1038300003EBC103D3E9002300204E4900F0B8FF99
:1038400022462B46FDF7DEFFCDE90C01069CDDE9A3
:103850000201FEF78BF90546FEF722F902460B46F8
:10386000DDE90201FDF7CEFFDDE90C23303504F878
:10387000015BCDE9020101F0E3F8002840F01D836F
:10388000DDE9022300203749FDF7BCFFDDE90C2309
:1038900001F0D6F8002840F0D180069BE31AB3422D
:1038A0006ADADDE90C0100222F4B00F057FE0022FE
:1038B000CDE90C01DDE902012B4B00F04FFECDE913
:1038C0000201C4E703EBC1012246D1E900012B4606
:1038D00000F044FE069BCDE90C011D469C19DDE974
:1038E0000201FEF743F90646FEF7DAF802460B46F8
:1038F000DDE90201FDF786FF303605F8016BAC42C9
:10390000CDE902014FF0000222D11A4BDDE90C0192
:10391000FDF77AFF02460B46DDE9020101F0AEF841
:10392000002840F08B80DDE90C2300201149FDF7D1
:1039300069FF02460B46DDE9020101F081F8D8B1CA
:1039400014F8013C621E302B40F0B7821446F7E7B2
:10395000054B00F003FECDE90201C0E7784D000001
:10396000504E00000000F03F0000244000001C40CA
:10397000000014400000E03FDDE90E34CDE90234E0
:10398000139B002B7CDBBBF10E0F79DCAB4B03EB05
:10399000CB03D3E900671F9B002B14DA059B002B98
:1039A00011DC40F06C810022A54B3046394600F016
:1039B000D5FDDDE9022301F057F8059D2E460028CC
:1039C00040F05F8165E1069CDDE9028932463B46B5
:1039D0004046494600F0ECFEFEF7C8F80546FEF703
:1039E0005FF832463B4600F0B9FD0B4602464946B9
:1039F0004046FDF707FF05F1300E069B04F801EB8A
:103A0000C3EB040E059B73452DD102460B46FDF713
:103A1000FBFE8046894602460B463046394601F099
:103A20000FF878B942464B463046394600F0FEFF63
:103A3000002800F04482EB0704D440E2DDF820B017
:103A400000E01C4614F8012C631E392A07D1069A9F
:103A50009A42F6D1069930220BF1010B0A701A78BE
:103A600001321A702BE20022764B00F077FD002223
:103A700000238046894600F0D9FF0028A6D01EE228
:103A80000A9A002A2BD01E9A012A0ADC119A12B136
:103A900003F2334302E0129BC3F136033D46444632
:103AA00013E0059B5D1EAF42BFBF0B9BEA1B9B183B
:103AB0000B93059BB6BF2F467D1B0025002BA7BF90
:103AC0004446059BC3EB08040023079A01211A44CE
:103AD00050469844079200F01FFB064602E03D4620
:103AE00044460A9E5CB1079B002B08DDA342A8BF99
:103AF0002346079AC3EB0808E41AD31A0793002F4A
:103B00001DDD0A9BABB18DB131462A46504600F00F
:103B10009DFB049A01460646504600F006FB0499B8
:103B20000890504600F059FA089B04937A1B06D07F
:103B300000E03A460499504600F088FB04900121C9
:103B4000504600F0E9FA0B9B05465BB31A46014666
:103B5000504600F07BFB1E9B0546012B18DC029BA8
:103B600083B9039BC3F3130373B9039B23F000478B
:103B70003F0D3F054FB1079B08F101080133079343
:103B8000012702E0002700E0029F0B9B73B100E0D9
:103B900000272B6905EB8303186900F070FAC0F168
:103BA000200004E01E9B012BD9DD0B9F0120079B09
:103BB000184410F01F0008D0C0F12003042B02DDD0
:103BC000C0F11C0002E006D018461C30079B804460
:103BD000034404440793B8F1000F05DD42460499FD
:103BE000504600F081FB0490079B002B05DD294621
:103BF0001A46504600F078FB0546109B23B3294631
:103C0000049800F0C2FB00281EDA00230A2204995F
:103C1000504600F0F9F90A9B0BF1FF3B0490002B92
:103C200000F05F81314600230A22504600F0ECF993
:103C3000B9F1000F06463FDC3BE000BF784D0000C5
:103C40000000144000002440059B002B2BDC1E9B31
:103C5000022B28DDDDF81490B9F1000F11D12946AF
:103C60004B460522504600F0CFF901460546049820
:103C700000F08BFB00280CDC03E0354600E000255B
:103C80002E461F9B069C6FEA030B09E03546DDF8C4
:103C900020B0069B069A5C1C312313700BF1010BBC
:103CA00005960026F7E00A9BDDF8149023B9069CE0
:103CB000B2E01E9B022BCFDC002C05DD31462246F4
:103CC000504600F011FB06469FB17168504600F067
:103CD0004FF90446326906F10C01023292000C30B1
:103CE000FEF726FB01222146504600F0FDFA059022
:103CF00000E00596029B069F03F001030793294607
:103D00000498FFF7D9FA3146044600F130080498C8
:103D100000F03BFB059A02902946504600F051FB0B
:103D2000C36802463BB901460A90049800F02DFB97
:103D30000A9A034600E00123114650460A9300F018
:103D40004CF90A9B53B91E9A42B9079A32B9B8F195
:103D5000390F2AD0029B002B1CDC1DE0029A002A9E
:103D600004DB1BD11E9ACAB9079ABAB9002B13DD1E
:103D700001220499504600F0B7FA2946049000F059
:103D800004FB002803DC07D118F0010F04D0B8F1C0
:103D9000390F0AD004F131087C1C0CE0002B07F12C
:103DA00001040BDDB8F1390F03D139233B70013722
:103DB00056E008F1010887F800806CE0069B274672
:103DC000E31A4B4504F8018C3BD000230A220499E6
:103DD000504600F019F9059B04909E424FF00A02EC
:103DE0004FF000033146504604D100F00DF906466D
:103DF000059084E700F008F9002306460A22059999
:103E0000504600F001F9059079E700230A22049951
:103E1000504600F0F9F8049029460498FFF74CFA50
:103E2000069B00F1300804F8018BE31A4B45ECDBEC
:103E3000069B0596B9F1010FACBF4B4401331F46F9
:103E4000002601220499504600F04EFA29460490BB
:103E500000F09BFA002803DC15D118F0010F12D0F6
:103E60003C4614F8013C621E392B09D1069B934253
:103E700004D10BF1010B3123069A02E01446F0E75E
:103E80000133137007E03C4614F8013C621E302BEE
:103E900001D11446F8E72946504600F09EF8059BEC
:103EA0006BB12EB19E4203D03146504600F095F8DA
:103EB0000599504600F091F801E0DDF820B0049932
:103EC000504600F08AF80023209A23700BF101037A
:103ED0001360229B1BB11C6001E008480AE00698B1
:103EE00008E0B9F1000F3FF7E2AE1E9B022B7FF70F
:103EF000DEAEB1E615B0BDE8F08F00BF3D4D00006D
:103F000038B5074C00230546084611462360FDF7E7
:103F100063FB431C02D1236803B12B6038BD00BF93
:103F20007005001038B5064C00230546084623608E
:103F3000FCF728FA431C02D1236803B12B6038BD7B
:103F400070050010004870473801001038B5074C64
:103F5000054608461146002222601A46FDF72AFB54
:103F6000431C02D1236803B12B6038BD70050010DB
:103F700070B5456A04460E463DB91020FCF708FAB4
:103F80006062456085600560C560656AEB6843B145
:103F9000636ADB6853F8260078B1026843F826208C
:103FA00017E021220421204600F0B8FA636AE86095
:103FB000DB68002BECD1002070BD012101FA06F571
:103FC0006A1D9200204600F0A9FA0028F3D046604E
:103FD000856000230361C36070BD70B5446A064606
:103FE0000D463CB91020FCF7D3F970624460846040
:103FF0000460C4603DB1736A6A68DB6853F82210DC
:10400000296043F8225070BD2DE9F04106460C4668
:104010000D691F4601F1140E0023DEF80000013384
:1040200081B202FB0171000C0F0C02FB007089B21F
:1040300001EB00419D424FEA10474EF8041BECDCB7
:10404000D7B1A3689D4212DB616830460131FFF7AA
:104050008FFF8046226904F10C01023292000C307D
:10406000FEF766F921463046FFF7B7FF444604EBFA
:10407000850301355F6125612046BDE8F081030CB1
:104080001B0413B90004102300E0002310F07F4F3D
:1040900004BF0002083310F0704F04BF0001043366
:1040A00010F0404F04BF80000233002803DB4200C1
:1040B00003D5581C70471846704720207047036886
:1040C00013F007020BD0D90722D49A074BBF5B0825
:1040D0009B08036003604CBF01200220704799B227
:1040E00009B91B0C102213F0FF0F04BF1B0A083282
:1040F000190704BF1B090432990704BF9B08023249
:10410000D90702D45B0805D001320360104670471E
:10411000002070472020704710B50C460121FFF7A2
:1041200027FF01224461026110BD2DE9F74F1446BB
:104130000A69236988469A42BEBF0B46A0461C46C0
:10414000D8F81070D4F81090D8F80830D8F80410C7
:1041500007EB09069E42C8BF0131FFF709FF00F1D6
:1041600014052B4605EB860C0022634502D243F86A
:10417000042BFAE704F1140208F1140102EB89039D
:1041800001EB87070093009B0192934257D9B2F845
:1041900000B0BBF1000F23D08946AE464FF00008B7
:1041A00059F8044BBEF800A0A3B20BFB03A34FEADF
:1041B000144ADEF8004043444FEA14480BFB0A84DB
:1041C000F24604EB13449BB243EA04434F454FEAE3
:1041D00014484AF8043B01D9D646E1E7CEF80480FA
:1041E000019B0432B3F802A0BAF1000F21D02C4693
:1041F00089462B684FF00008B9F800E0B4F802B027
:104200009BB20AFB0EBEA346F04443EA08434BF8B8
:10421000043B59F8043BB4F804E01B0C0AFB03E32D
:104220004F4503EB18434FEA134801D95C46E3E7D7
:1042300063600435A7E75CF8043D13B9013E002E26
:10424000F9DC066103B0BDE8F08F00002DE9F8430A
:10425000154612F0030206460F4607D0214C013ADC
:10426000002354F82220FFF7CFFE0746AD1036D0CA
:10427000746A3CB91020FCF78BF87062446084606B
:104280000460C460D6F82480D8F808404CB940F2E5
:1042900071213046FFF740FF04460023C8F80800AC
:1042A00003604FF00008EB070AD539462246304636
:1042B000FFF73BFF814639463046FFF78EFE4F46FB
:1042C0006D100CD0206808B10446ECE72246214668
:1042D0003046FFF72AFF2060C0F80080F4E7384638
:1042E000BDE8F883404E00002DE9F0470C46074634
:1042F000914626694FEA621A56444968A368751CBC
:10430000AB4202DA01315B00FAE73846FFF730FED4
:10431000002380461A4600F11401534503DA41F8A0
:1043200023200133F9E72AEAEA73206901EB8303CA
:1043300019F01F0904F1140101EB800E14D0C9F12A
:10434000200C002208689A4600FA09F0024343F85C
:10435000042B51F8042B8E4522FA0CF2F2D8CAF83D
:10436000042042B1B51C06E0043B51F8042B8E45F5
:1043700043F8042FF9D8013D3846C8F810502146BB
:10438000FFF72BFE4046BDE8F08703690A6910B5C8
:104390009B1A11D192001430143183180A4453F837
:1043A000044D52F8041D8C4202D007D3012010BDE9
:1043B0009842F4D3002010BD184610BD4FF0FF30D6
:1043C00010BD2DE9F8430C46074611462046154618
:1043D000FFF7DBFF061E08D131463846FFF7C8FD60
:1043E000012303614661BDE8F883BCBF23462C4628
:1043F00038466168BABF1D4601260026FFF7B8FDA2
:104400002B69C660266905F1140904F1140101EB5A
:10441000860709EB830800F114054FF0000C51F8F2
:10442000042B59F8044B93B29C44A3B2240CC3EB65
:104430000C03C4EB124202EB23429BB24FEA224C24
:10444000C84543EA02428E4645F8042BE7D8BE45EC
:104450000ED25EF8041B8AB26244131403EB1143BC
:1044600092B242EA03424FEA234C45F8042BEEE7AE
:1044700055F8043D0BB9013EFAE70661BDE8F88343
:104480002DE9F3411C4601219046089E099DFFF746
:104490006FFDC4F31302C4F30A5407460CB142F48F
:1044A00080120192B8F1000F19D002A840F8088DCF
:1044B000FFF705FE009B48B1019AC0F1200102FA06
:1044C00001F10B43C2407B61019200E07B61019BE3
:1044D000002B14BF02210121BB61396107E001A853
:1044E000FFF7EDFD019B01217B613961203034B183
:1044F000A4F2334404443460C0F1350009E0A0F272
:10450000324007EB810330601869FFF7B8FDC0EB5C
:1045100041102860384602B0BDE8F08138B502FB92
:1045200001F42146FDF75CFF054618B12246002143
:10453000FDF709FF284638BD38B5074C0546084643
:104540001146002222601A46FDF700F8431C02D1F2
:10455000236803B12B6038BD7005001070B54FF0B3
:10456000FF0C4CF4E06C1CEA11541DBF1CEA1355FF
:1045700094EA0C0F95EA0C0F00F0DEF82C4481EA67
:10458000030621EA4C5123EA4C5350EA013518BF87
:1045900052EA033541F4801143F4801338D0A0FB74
:1045A00002CE4FF00005E1FB02E506F00042E0FB21
:1045B00003E54FF00006E1FB03569CF0000F18BF27
:1045C0004EF0010EA4F1FF04B6F5007F64F54074CF
:1045D00004D25FEA4E0E6D4146EB060642EAC62162
:1045E00041EA55514FEAC52040EA5E504FEACE2ECF
:1045F000B4F1FD0C88BFBCF5E06F1ED8BEF1004FD2
:1046000008BF5FEA500E50F1000041EB045170BD4D
:1046100006F0004646EA010140EA020081EA030191
:10462000B4EB5C04C2BFD4EB0C0541EA045170BD8D
:1046300041F480114FF0000E013C00F3AB8014F107
:10464000360FDEBF002001F0004170BDC4F1000450
:10465000203C35DA0C341BDC04F11404C4F12005D1
:1046600000FA05F320FA04F001FA05F240EA02002C
:1046700001F0004221F0004110EBD37021FA04F662
:1046800042EB06015EEA430E08BF20EAD37070BD1C
:10469000C4F10C04C4F1200500FA04F320FA05F07B
:1046A00001FA04F240EA020001F0004110EBD3707D
:1046B00041F100015EEA430E08BF20EAD37070BDED
:1046C000C4F1200500FA05F24EEA020E20FA04F3C6
:1046D00001FA05F243EA020321FA04F001F0004175
:1046E00021FA04F220EA020000EBD3705EEA430EE6
:1046F00008BF20EAD37070BD94F0000F0FD101F015
:104700000046400041EB010111F4801F08BF013C4D
:10471000F7D041EA060195F0000F18BF704703F08B
:104720000046520043EB030313F4801F08BF013D12
:10473000F7D043EA0603704794EA0C0F0CEA1355CE
:1047400018BF95EA0C0F0CD050EA410618BF52EA88
:104750004306D1D181EA030101F000414FF000008E
:1047600070BD50EA410606BF1046194652EA43069C
:1047700019D094EA0C0F02D150EA013613D195EA10
:104780000C0F05D152EA03361CBF104619460AD158
:1047900081EA030101F0004141F0FE4141F4700162
:1047A0004FF0000070BD41F0FE4141F4780170BD52
:1047B00070B54FF0FF0C4CF4E06C1CEA11541DBFB7
:1047C0001CEA135594EA0C0F95EA0C0F00F0A7F8B9
:1047D000A4EB050481EA030E52EA03354FEA0131E6
:1047E00000F088804FEA03334FF0805545EA1313F9
:1047F00043EA12634FEA022245EA111545EA1065C1
:104800004FEA00260EF000419D4208BF964244F157
:10481000FD0404F5407402D25B084FEA3202B61A76
:1048200065EB03055B084FEA32024FF480104FF44A
:10483000002CB6EB020E75EB030E22BFB61A7546BE
:1048400040EA0C005B084FEA3202B6EB020E75EB51
:10485000030E22BFB61A754640EA5C005B084FEAB9
:104860003202B6EB020E75EB030E22BFB61A754686
:1048700040EA9C005B084FEA3202B6EB020E75EB91
:10488000030E22BFB61A754640EADC0055EA060E52
:1048900018D04FEA051545EA16754FEA06164FEA95
:1048A000C30343EA52734FEAC2025FEA1C1CC0D141
:1048B00011F4801F0BD141EA00014FF000004FF0CE
:1048C000004CB6E711F4801F04BF01430020B4F18F
:1048D000FD0C88BFBCF5E06F3FF6AFAEB5EB030C47
:1048E00004BFB6EB020C5FEA500C50F1000041EB44
:1048F000045170BD0EF0004E4EEA113114EB5C0411
:10490000C2BFD4EB0C0541EA045170BD41F48011E3
:104910004FF0000E013C90E645EA060E8DE60CEAEB
:10492000135594EA0C0F08BF95EA0C0F3FF43BAF08
:1049300094EA0C0F0AD150EA01347FF434AF95EABF
:104940000C0F7FF425AF104619462CE795EA0C0FA3
:1049500006D152EA03353FF4FDAE1046194622E770
:1049600050EA410618BF52EA43067FF4C5AE50EA4A
:1049700041047FF40DAF52EA43057FF4EBAE12E73A
:104980004FF0FF3C06E000BF4FF0010C02E000BF1B
:104990004FF0010C4DF804CD4FEA410C7FEA6C5CFE
:1049A0004FEA430C18BF7FEA6C5C1BD001B050EAA1
:1049B000410C0CBF52EA430C91EA030F02BF90EA8C
:1049C000020F0020704710F1000F91EA030F58BF4B
:1049D000994208BF90422CBFD8176FEAE37040F0AD
:1049E000010070474FEA410C7FEA6C5C02D150EA4B
:1049F000013C07D14FEA430C7FEA6C5CD6D152EA06
:104A0000033CD3D05DF8040B704700BF84461046CA
:104A100062468C461946634600E000BF01B5FFF7C9
:104A2000B7FF002848BF10F1000F01BD4DF808ED99
:104A3000FFF7F4FF0CBF012000205DF808FB00BF6A
:104A40004DF808EDFFF7EAFF34BF012000205DF8C4
:104A500008FB00BF4DF808EDFFF7E0FF94BF012011
:104A600000205DF808FB00BF4DF808EDFFF7CEFF12
:104A700094BF012000205DF808FB00BF4DF808ED51
:104A8000FFF7C4FF34BF012000205DF808FB00BF22
:104A9000F8B500BFF8BC08BC9E467047F8B500BF2B
:104AA000F8BC08BC9E467047450B0000550B000043
:104AB000850B0000950B0000710B0000A84A000058
:104AC000A8020010636F756C64206E6F74207069AB
:104AD0006E6F75740000000070696E6D6170206DFE
:104AE00069732D6D617463680000000070696E6DFC
:104AF0006170206E6F7420666F756E6420666F72D1
:104B0000207065726970686572616C0070696E6DA5
:104B10006170206E6F7420666F756E6420666F72B0
:104B20002066756E6374696F6E00000070696E7345
:104B3000206F6E207468697320706F7274206361D7
:104B40006E6E6F742067656E657261746520696E44
:104B500074657272757074730000000016C00920CD
:104B6000000001400100000047C009200000014092
:104B700002000000FFFFFFFFFFFFFFFF000000003B
:104B800001C0092000C009400200000003C0092044
:104B900000C00040010000000BC009200080094057
:104BA0000100000010C009200000014001000000C9
:104BB0001AC0092000C009400300000041C00920BC
:104BC000000001400200000049C0092000800940A7
:104BD000020000009DC0092000C009400300000041
:104BE000FFFFFFFFFFFFFFFF0000000000C00920E4
:104BF00000C009400200000002C0092000C00040BF
:104C0000010000000AC009200080094001000000E6
:104C10000FC00920000001400100000019C0092058
:104C200000C009400300000040C00920000001400E
:104C30000200000048C00920008009400200000076
:104C40009CC0092000C0094003000000FFFFFFFFD7
:104C5000FFFFFFFF0000000011C00920000001401D
:104C60000100000042C009200000014002000000D5
:104C7000FFFFFFFFFFFFFFFF00000000000000003C
:104C800000000000A1010000FD010000E113000090
:104C900000000000000000007116000089160000EE
:104CA0000000000000000000000000000000000004
:104CB000B103000000000000000000000000000040
:104CC00000000000000000000000000000000000E4
:104CD00000000000000000000000000000000000D4
:104CE00000000000000000000000000000000000C4
:104CF00000000000000000000000000000000000B4
:104D000000000000000000000000000000000000A3
:104D10000000000043000000D4000010232D302BC1
:104D20002000686C4C0065666745464700494E4662
:104D300000696E66004E414E006E616E00300030BC
:104D400031323334353637383941424344454600F1
:104D500030313233343536373839616263646566F1
:104D600000496E66696E697479004E614E00504F5D
:104D7000534958002E000000000000000000F03FE2
:104D80000000000000002440000000000000594026
:104D90000000000000408F40000000000088C34079
:104DA00000000000006AF8400000000080842E41EE
:104DB00000000000D01263410000000084D797413A
:104DC0000000000065CDCD41000000205FA0024240
:104DD000000000E876483742000000A2941A6D42B5
:104DE000000040E59C30A2420000901EC4BCD642A8
:104DF00000003426F56B0C430080E03779C3414353
:104E000000A0D8855734764300C84E676DC1AB43C8
:104E1000003D9160E458E143408CB5781DAF1544E6
:104E200050EFE2D6E41A4B4492D54D06CFF08044C1
:104E3000F64AE1C7022DB544B49DD9794378EA44D6
:104E400005000000190000007D00000000000000C7
:104E50000080E03779C34143176E05B5B5B8934676
:104E6000F5F93FE9034F384D321D30F94877825A42
:0C4E70003CBF737FDD4F15750000000093
:104E7C000000000000D8B805780500100000000004
:104E8C00B44C0000D44C0000F44C000000000000B6
:104E9C00000000000000000000000000144D0000A5
:104EAC0000000000000000000000000000000000F6
:104EBC0000000000000000000000000000000000E6
:104ECC0000000000000000000000000000000000D6
:104EDC00000000000000000000000000D4000010E2
:104EEC00744D0000214D0000214D0000214D0000AB
:104EFC00214D0000214D0000214D0000214D0000EE
:104F0C00214D0000214D0000FFFFFFFFFFFFFFFFC1
:104F1C00FFFFFFFFFFFF0000390100007D020000D2
:044F2C00110100006F
:04000003000017A939
:00000001FF
