:1000000000800010FD2500002D2600002F26000096
:1000100031260000332600003526000000000000D5
:100020000000000000000000000000003726000073
:1000300039260000000000003B2600003D2600009D
:100040003F2600003F2600003F2600003F2600001C
:100050003F2600003F2600003F2600003F2600000C
:100060003F2600003F2600003F2600003F260000FC
:100070003F2600003F2600003F2600003F260000EC
:100080003F2600003F2600003F2600003F260000DC
:100090003F2600003F2600003F2600003F260000CC
:1000A0003F2600003F2600003F2600003F260000BC
:1000B0003F2600003F2600003F2600003F260000AC
:1000C0003F2600003F2600003F260000044B054865
:1000D0001B1A062B02D9044B03B11847704700BF07
:1000E0008701001084010010000000000549064847
:1000F000091A891001EBD171491002D0034B03B1E9
:1001000018477047840100108401001000000000AF
:1001100010B5064C237843B9FFF7D8FF044B13B151
:100120000448AFF300800123237010BD8401001048
:1001300000000000F07A000008B5084B1BB1084928
:100140000848AFF300800848036813B9BDE80840C9
:10015000CCE7064B002BF9D09847F7E700000000EA
:1001600088010010F07A00008401001000000000F7
:10017000704700BF10B50446024B036002F04EF812
:10018000204610BDB877000010B5044602F05DFAB5
:10019000204610BD10B50446064B403003F118014F
:1001A00003F14C0223602164626402F003F82046EC
:1001B00010BD00BFF8750000A0F14000EAE700BFE5
:1001C000A0F14400E6E700BFF8B50446D6685768DA
:1001D0000023002580E8060023616361A361258177
:1001E0006581A581084603223760082101F0D4FC0F
:1001F00020684FF4486101F0DBFC94E809001A69BB
:100200005968036811601B683121984720680B21E9
:1002100003681B68984794E80900D9685D681A6903
:100220000D605968036811601B682D21984720688C
:10023000082103681B68984763684FF41651DA6811
:100240005B680348136002F097F82046F8BD00BFD2
:10025000A001001070B504464368054654F81B0B16
:10026000596806681A6933681160F221984705F1E8
:1002700021062868002103681B68984704F8010FCD
:10028000B442F6D16B68DA685B6813606E7F297FD1
:10029000EC7FAA7F95F8210095F8203041EA0621ED
:1002A00042EA042243EA002329816A81AB8170BDBE
:1002B00010B50446FFF7CEFFB4F9080002F032FB98
:1002C00011A3D3E9002302F093FB02F0CBFD2061E0
:1002D000B4F90A0002F026FB0BA3D3E9002302F0D5
:1002E00087FB02F0BFFD6061B4F90C0002F01AFB5D
:1002F00005A3D3E9002302F07BFB02F0B3FDA0616C
:1003000010BD00BFAFF300807B14AE47E17AA43F7D
:10031000D0B5044684B0006902F016FB0646A06919
:100320000F4602F011FBCDE90201606902F00CFBFF
:100330003246CDE900013B460249034801F04CFF3B
:1003400004B0D0BDF86F0000E001001010B5044605
:10035000074B403003F1180103F14C022360216484
:10036000626401F027FF204602F06FF9204610BDBD
:10037000F8750000A0F14000E8E700BFA0F14400DC
:10038000E4E700BF10B50446044B036001F046FFEC
:10039000204602F05AF9204610BD00BFB877000091
:1003A00070B50D4E0D4D00230D4C30460D4A0E49D3
:1003B00001F0A0FB2A4630460C4902F041F92046E4
:1003C0000B4901F01FFF0B4B2A46204623600A49C8
:1003D000BDE8704002F034B9A0010010C800001060
:1003E000F801001003C0092002C009209501000097
:1003F00040700000B877000075010000704700BF32
:1004000010B50F4801F002FEB0F5FA7F00DC10BD18
:100410000C4C0B48E36862681A6001F009FE0A4A56
:100420000120136809490344072B087005DD23697F
:10043000616800201060196010BD136010BD00BF1E
:10044000E00200101C020010CC0200103402001068
:1004500010B5044602F0F9F8204610BDF0B5013998
:1004600085B0062900F2EA80DFE811F0310048008B
:1004700068008800A800C8000700714C714804F0AB
:100480000FFC2046FFF714FF6F49704803F0F0F9A6
:100490000546206902F058FA0646A0690F4602F0A8
:1004A00053FACDE90201606902F04EFA3246CDE915
:1004B00000013B462846664903F0E2F9284603F06E
:1004C0001FF8204605B0BDE8F040FFF721BF6148A6
:1004D00004F0E6FB60495D4803F0CAF904460346B0
:1004E000262201215D4803F0E3FA204603F008F8D4
:1004F000534805B0BDE8F040FFF70ABF504C5848DC
:1005000004F0CEFB2046FFF7D3FE4F494F4803F0DF
:10051000AFF90546206902F017FA0646A0690F46B2
:1005200002F012FACDE90201606902F00DFA3246DA
:10053000CDE900013B4628464A49BDE7404C4A48C0
:1005400004F0AEFB2046FFF7B3FE3F493F4803F0FF
:100550008FF90546206902F0F7F90646A0690F46B3
:1005600002F0F2F9CDE90201606902F0EDF93246DC
:10057000CDE900013B4628463C499DE7304C3C48CC
:1005800004F08EFB2046FFF793FE2F492F4803F01F
:100590006FF90546206902F0D7F90646A0690F46B3
:1005A00002F0D2F9CDE90201606902F0CDF93246DC
:1005B000CDE900013B4628462E497DE7204C2E48D8
:1005C00004F06EFB2046FFF773FE1F491F4803F03F
:1005D0004FF90546206902F0B7F90646A0690F46B3
:1005E00002F0B2F9CDE90201606902F0ADF93246DC
:1005F000CDE900013B46284620495DE7104C2048E4
:1006000004F04EFB2046FFF753FE0F490F4803F05E
:100610002FF90546206902F097F90646A0690F46B2
:1006200002F092F9CDE90201606902F08DF93246DB
:10063000CDE900013B46284612493DE705B0F0BD33
:10064000380200108C720000F47000008870000006
:10065000B87200004870000084700000A8700000AC
:10066000D0700000F87000002C7100005071000084
:1006700084710000A8710000DC71000000720000AD
:100680003472000058720000F8B5104801F0B2FC56
:100690000F4C1049104801F027FE1048274604F07F
:1006A000FFFA0F4E002503E04FF07C5000F060F998
:1006B0002378012BF8D131680020FFF7CFFE4FF0EF
:1006C0007C503D7000F054F9EEE700BFE0020010EE
:1006D00034020010010400005C020010EC72000003
:1006E000CC0200102DE9F041244F82B0244E4FF08F
:1006F000FF33244D00933846234B244A244901F00C
:1007000011FA32463846234901F09AFF0024284660
:1007100021492C606C60AC60EC602C616C6100F075
:1007200069F91E4BDFF89C8018461D491C605C600F
:100730009C60DC601C615C6100F05CF9404619491A
:1007400001F0AEFD32461849404601F079FF174CE2
:10075000174801F03FFC2A4639461648FFF734FD9A
:100760002046154901F04EFD32462046134B1449F0
:10077000236002B0BDE8F04101F062BF0802001042
:10078000C8000010B40200100FC0092011C00920D9
:1007900012C00920FD03000010C009201C02001037
:1007A00034C009201AC0092031220000D0020010F4
:1007B000E00200103802001040700000B87700001E
:1007C000750100005C020010074A084808B50021C6
:1007D000121A03F031FAAFF3008003F077F901F059
:1007E00059FB02F027FE00BFC8050010840100106D
:1007F000022801DC0120704701F014BBEFF30583F0
:1008000003B100BE03F0D4B9EFF3058303B100BE1A
:1008100003F0D6B908B5012002F00CFE08B5FFF7C9
:10082000F9FF00BF30B585B00190029104F0D5FB0F
:100830000124039001AD20462946ABBE0446204664
:1008400005B030BD30B583B002AD022445F8040DCB
:1008500020462946ABBE0446204603B030BD00BF4B
:100860006AB130B585B0019002910392052401ADC3
:1008700020462946ABBE0446204605B030BD104692
:10088000704700BF30B585B00190029103920624F5
:1008900001AD20462946ABBE0446204605B030BD1A
:1008A00030B583B002AD092445F8040D2046294631
:1008B000ABBE0446204603B030BD00BF30B583B0A8
:1008C0008DE803000A246D4620462946ABBE044647
:1008D000204603B030BD00BF30B583B002AD0B245D
:1008E00045F8040D20462946ABBE0446204603B019
:1008F00030BD00BF30B583B002AD0C2445F8040D07
:1009000020462946ABBE0446204603B030BD00BF9A
:1009100030B583B0009004F060FB0E2401906D466A
:1009200020462946ABBE0446204603B030BD00BF7A
:1009300030B585B018246D4620462946ABBE044626
:10094000204605B030BD00BF024B186800F0010022
:10095000704700BFF0ED00E038B5054600F068FCD8
:10096000044600F065FC001BA842FAD338BD00BF66
:1009700008B5044902F0D4FB02F022FDBDE80840AE
:10098000FFF7EABF002474494FF47A7303FB00F0C9
:10099000FFF7E2BF0FB400B5064A83B004AB53F8CB
:1009A000041B10681A46C068019303F029FB01205C
:1009B00002F040FD34010010004870471873000039
:1009C000014800F049B800BF18730000FFF7BCBF32
:1009D00038B50D46044600F0BFFB013509D020466E
:1009E000002100F0DBFB2046BDE83840032100F089
:1009F000D1BB38BD38B50D46044600F0ADFB01351E
:100A00000CD023696268204601211A6000F0C6FB01
:100A10002046BDE83840022100F0BCBB38BD00BF15
:100A200070B50D461646044600F096FB013511D010
:100A300066B9236962681A602046012100F0AEFBA6
:100A40002046BDE87040022100F0A4BBE368626864
:100A50001A60F1E770BD00BF036870B5DB6805463A
:100A600098476B685B6883B12A681C68536898472D
:100A7000201A00286A680DDC50681168836853608A
:100A80000029F0D040688847EBE72B68BDE870404C
:100A90009B6818472B6852681B691068BDE8704056
:100AA000184700BF03685B68184700BF00B599B0DE
:100AB00072B617496846FFF79DFF06A81549FFF76C
:100AC00099FF0CA81449FFF795FF12A81349FFF7E7
:100AD00091FF039A01990A9B11600799109A196076
:100AE0000D99159B1160139A96201A60FFF74CFF21
:100AF000049A0199099B116007990F9A19600D9941
:100B0000169B1160139A96201A60FFF73DFFE0E7ED
:100B100032C0092034C0092035C0092037C009205F
:100B2000431C1CD00B685A1C1AD0984210B50446BE
:100B300002D10AE09C4208D051F80C3F5A1CF9D16E
:100B40000948BDE81040FFF725BF2046896800F03E
:100B500095FB2046BDE81040022100F0ABBB70477A
:100B60000148FFF717BF00BF2073000088420AD07A
:100B7000421C09D0013106D008B50448FFF70AFF2E
:100B80004FF0FF3008BD70470846704734730000CF
:100B90000B685A1C08D0984202D107E0834205D066
:100BA00051F80C3F5A1CF9D11846704748687047F5
:100BB000421C0ED008B50B685A1C04D10AE051F84B
:100BC0000C3F5A1C06D09842F9D14868411C01D00C
:100BD00008BD70470248FFF7DDFE4FF0FF3008BD4B
:100BE000487300000C4B30B49D689A682B46B2F1F4
:100BF000805F0CD2094AC43553F8044BAB4242F82B
:100C0000044FF9D14FF080521346034CA2601030CC
:100C100043F8201030BC704700ED00E0FCFFFF0FF0
:100C20002B4A2023F0B4C2F8A031D2F8A0319806A4
:100C300045D4274B002519460124AA205522022716
:100C40000B26C3F80471C3F8A851C3F8AC51C3F81C
:100C50000C41C3F88460C3F88C00C3F88C20C3F83F
:100C60008040C3F88C00C3F88C20D1F88830184A33
:100C70005B01FAD511460324AA205523C2F880400F
:100C8000C2F88C00C2F88C30D1F88830104A13F0CA
:100C9000407FF9D00F4900230520C2F80801C2F8AF
:100CA000C410C2F8C8311368F0BC23F4704323F0B9
:100CB0003A0343F4405343F03A0313607047D2F8C9
:100CC000A0315906B5D4D2F8A0315906F7D5B0E70E
:100CD00000C00F40DE8728042DE9F04F0F4683B097
:100CE00080462B49384616461D460C9CFFF760FF90
:100CF000284981463046FFF75BFF27490190284687
:100D0000FFF756FF254982462046FFF751FF019B1A
:100D1000834619464846FFF729FF59468146504603
:100D2000FFF724FF01464846FFF720FF1C4BC8F899
:100D30000000984223D003F5B023984214D03846DF
:100D40001349FFF7EDFE30461249FFF7E9FE28464A
:100D50001149FFF7E5FE631C0ED020460F4903B092
:100D6000BDE8F04FFFF7DCBE0E4AD2F8C43043F4C2
:100D70000013C2F8C430E2E703B0BDE8F08F094ABF
:100D8000D2F8C43043F48063C2F8C430D7E700BF60
:100D90002874000088730000C473000064740000AD
:100DA0000000034000C00F40002B036830B45C68B3
:100DB0004FEAC21024F002045C601C6800F080005E
:100DC00001F1FF3141EA0001C2F340024FEA144051
:100DD00041EA82114FEA004040EA010018605A6877
:100DE00014BF0425002522F00D022A435A605A68D8
:100DF00030BC42F002025A60704700BFF8B5076885
:100E00002D4A7B68974223F002037B6041D02B4B35
:100E10009F422FD02A4B08461E6802F02DF902246B
:100E2000054603E00234B4F5807F40D0B6FBF4F011
:100E300002F022F9294602F027FA4FF07C5102F025
:100E400067F801F081FD05F0BBFF01F0E3FFFF282B
:100E5000E8DC3C613B68013823F47F0323F47F43E3
:100E60003B603B6843EA002038607B6843F0020344
:100E70007B60F8BD03F5E823D3F8AC2122F440628F
:100E8000C3F8AC21D3F8AC2142F48062C3F8AC21A2
:100E9000C0E70C4BD3F8A82122F44012C3F8A821D4
:100EA000D3F8A82142F48012C3F8A821B2E706487B
:100EB000BDE8F840FFF76EBD000003400080084029
:100EC000CC00001000C00F40007400000368DA6816
:100ED0009007FCD59960DA685207FCD5986870478E
:100EE0002DE9F04F434B83B05C689F685E6A9D6A52
:100EF00014B39946DFF80081DFF800B14FF0010A22
:100F000005E00AFA03F3E41AC9F80C3014D0B4FA75
:100F100084F3C3F11F03DBB258F823000028F0D09C
:100F2000DBF80020012101939047019B0AFA03F3AB
:100F3000E41AC9F80C30EAD1DFB1DFF8BC80DFF881
:100F4000BCA0DFF8B09006E0012303FA04F43F1BD5
:100F5000C9F80C400DD0B7FA87F4C4F11F04E4B20D
:100F600058F824000028EFD0DAF800300221984722
:100F7000EAE7EEB1DFF88080DFF880901D4F05E0F2
:100F8000012303FA04F4361BFC6211D0B6FA86F48E
:100F9000C4F11F04E4B20F2C04F12003F0D858F878
:100FA00023000028ECD0D9F8003001219847E7E76A
:100FB000E5B1114FDFF844800E4E05E0012303FA3E
:100FC00004F42D1BF46211D0B5FA85F4C4F11F04AA
:100FD000E4B20F2C04F12003F0D857F823000028C6
:100FE000ECD0D8F8003002219847E7E703B0BDE81D
:100FF000F08F00BF80800240FC020010F802001059
:10100000B1F1FF3F29D070B50446154E1D46154875
:1010100021F01F03B34201F01F01026023606160F1
:1010200019D0114A934206D01048FFF7B3FC236849
:101030006168B3420FD001F120020D4BA2600D494F
:10104000152043F82250FFF7CDFD0B4B4FF4001253
:101050001A60002070BD0A46EFE70846704700BFDF
:1010600000C00920F802001040C00920A074000050
:10107000FC020010E10E000000E100E08268024B7B
:10108000002143F822107047FC02001030B40368BE
:101090002E4CA3421CD02E4DAB4207D0012934D098
:1010A000A3421CD0AB4208D030BC70474568012336
:1010B000284CAB400129E3622ED026494068012329
:1010C000F2B930BC4A6B834022EA03034B6370479A
:1010D000456801231F4CAB400129E36025D01D4921
:1010E000406801232AB130BC4A69834013434B61F5
:1010F00070474A69834022EA03034B6130BC704762
:101100004A6B834013434B63CEE7A3420AD0AB4202
:10111000CAD1436801FA03F30E498AB10A6B13433B
:101120000B63C1E7436801FA03F30A491AB10A697C
:1011300013430B61B8E70A6922EA03030B61B3E7C3
:101140000A6B22EA03030B63AEE700BF00C009206D
:1011500040C00920808002404A1C016018D038B588
:101160000C4605460021204600F088F824F01F01B7
:1011700004F01F020123934001F1180401F11C0047
:1011800001F11402A9606B60EC6028616A6138BDEE
:10119000704700BF006800F08DB800BF41B1012961
:1011A00005D18268436811680B431360704770472C
:1011B00082684168136823EA01031360704700BF27
:1011C00038B51049104B01241C60D1F8C4300F4AC7
:1011D00043F400030E480025C1F8C43015670368C6
:1011E0000C480221A0FB03031B0D013B51600420AE
:1011F000D36009495460FFF7F5FC084B10221A60D0
:1012000038BD00BF00C00F40BC03001000400940C3
:10121000CC00001083DE1B43C109000000E100E0A8
:10122000024B1B6803B17047FFF7CABFBC03001035
:1012300008B5044B1B680BB9FFF7C2FF024B986857
:1012400008BD00BFBC03001000400940034B98617B
:101250005A6942F001025A61704700BF00400940DC
:10126000024A536923F0010353617047004009406B
:10127000014B01221A6070470040094000F16040B4
:10128000A0F51C2003099B0003F1804303F53033D4
:10129000400010B400F01E001C680322824024EAC3
:1012A00002021A601A68814041EA0200186010BC0C
:1012B000704700BF00F16040A0F51C2043099B006F
:1012C00003F1804303F5303330B400F01F029C6E0D
:1012D000C1F3800505FA02F224EA02049C669C6EC2
:1012E00022439A669DB903099B0003F1804303F5ED
:1012F000303340001C6C00F01E000322824024EAC0
:1013000002021A641A6C01FA00F01043186430BC2F
:10131000704700BF154B9968C1F34201012918D0ED
:10132000022914D1124A516F013106D0D2F880102F
:10133000906F086092F8A61089B1106F0C4B38B10D
:1013400093F8A63023B10B4B00211B681847704758
:101350007047074B186F38B1064B1B681847596820
:1013600021F001015960E8E7704700BF00800940A3
:10137000C8030010C4030010F8B5294C0368A34249
:1013800047D03FDD274CA34229D004F58044A34237
:1013900042D1254D082632BB01290BD04268234C8F
:1013A000C2EBC20204EBC20292F8364092F835203A
:1013B000D44213D1B1FA81F25D68012404FA01F13B
:1013C00025EA01015960036852095B6804FA02F2D8
:1013D0001A4203D1164BB440C3F88040F8BD154DF6
:1013E0000726002AD8D05868012707FA01F20243DD
:1013F00074B25A6029462046FFF7F4FB0C4BA74015
:101400001F60F8BDA4F58044A34205D10A4D05260E
:10141000C1E70A4D0626BEE700252E46BBE700BF02
:10142000000001400080094041140000C803001082
:1014300000E100E015130000AD1400000D150000E0
:10144000174B9968C1F3420101291BD0022917D11A
:10145000144AD2F8AC10013107D0D2F8B810D2F843
:10146000B000086092F8DE1099B1D2F8A8000D4BD8
:1014700038B193F8DE3023B10B4B00211B681847BD
:1014800070477047074BD3F8A80038B1064B1B686C
:101490001847596821F001015960E6E7704700BF1D
:1014A00000C00940C8030010C4030010144B996821
:1014B000C1F34201012917D0022913D1114A516801
:1014C000013105D011699068086092F8361089B131
:1014D00010680C4B38B193F8363023B10A4B002119
:1014E0001B68184770477047064B186838B1064BA1
:1014F0001B681847596821F001015960E8E77047F7
:1015000000C00040C8030010C4030010144B9968C9
:10151000C1F34201012917D0022913D1114AD16B1D
:10152000013105D0916C106C086092F86E1089B191
:10153000906B0C4B38B193F86E3023B10A4B0021FD
:101540001B68184770477047064B986B38B1064BBD
:101550001B681847596821F001015960E8E7704796
:1015600000000140C8030010C40300102DE9F04F33
:1015700002686E4B89B09A420790069200F0C880CC
:1015800040F3B4806A4B0698984272D003F58043CA
:10159000984240F09D80674BD3F8AC2122F4402262
:1015A000C3F8AC21D3F8AC2142F48022C3F8AC21BB
:1015B000614A0B011268B2FBF3F003FB10230392A4
:1015C00080B2002B00F09080039B4FF001085A007E
:1015D0009C009446A246C3468E4699460023059237
:1015E000049400900291019300242546029E5FFA24
:1015F00088F7BCF1000FB5BFBCFBF6F0BAFBF6F004
:10160000000940090130C0F34F0008EB0402002834
:101610003DD00CB101283BD0034603FB02F3DB00B5
:10162000B9FBF3F30133C1EB5303002BB8BF5B42AB
:10163000734505DA994230D09E46BB468DE82100BD
:101640000134E5B2AF420E44D3D8039B08F1010840
:101650009944059BB8F1100F9C44049B9A44029B4B
:101660000B440293C0D1019B009843EA0B15EDB2E5
:1016700016E0304BD3F8AC2122F44032C3F8AC2151
:10168000D3F8AC2142F48032C3F8AC2190E714B116
:1016900002200346C1E70120BEE745EA0715EDB287
:1016A0000699C0F307220B7BC0B243F080030B7393
:1016B00007990B681A710B6818700B6883F828502B
:1016C0000A68137B03F07F03137309B0BDE8F08F42
:1016D000194A0B011268B2FBF3F003FB10230392CB
:1016E00080B2002B7FF470AF1025D9E7A3F58043BB
:1016F0009A42EDD10F4BD3F8A82122F0C002C3F8D3
:10170000A821D3F8A82142F04002C3F8A8214FE74E
:10171000084BD3F8A82122F44072C3F8A821D3F8CB
:10172000A82142F48072C3F8A82141E700000140DB
:101730000080094000C00F40CC000010436810B486
:101740000448054CC3EBC30344F83320016010BCCC
:10175000704700BFC4030010C80300100268137D67
:10176000DB07FCD543680949C3EBC30301EBC303A3
:10177000596810780131C0B206D059699B680B6076
:10178000536843F001035360704700BFC803001063
:101790004368154AC3EBC303DB00D11810B4CC690E
:1017A00001340FD00B460A6B1C335B6812681A4277
:1017B00005D1036810BC187DC0F38010704700206D
:1017C00010BC704703681B7D9B0607D491F834005A
:1017D00010BC0F288CBF002001207047002381F827
:1017E0003430012010BC7047C803001038B50446DF
:1017F0000D462046FFF7CCFF0028FAD02368EDB253
:101800001D706368054AC3EBC30302EBC30393F87F
:101810003420013283F8342038BD00BFC8030010E3
:101820002DE9F04F054644482C6883B084420F46AA
:1018300091469A461DD06E6800243246DFF804B106
:101840004FEAC608C2EBC201C6EB08000BEBC000B2
:1018500000220BEBC1014FF0FF3381F83520C3614B
:10186000436011462846FFF787FD4FB903B0BDE836
:10187000F08F237C6E6803F03F0323746A68DDE712
:101880002E494846FFF784F92D4901905046FFF74D
:101890007FF9BA1E012A30D9012FE7D1B9F1FF3FF4
:1018A000E4D0254A019B29680720934208720BD196
:1018B00054B14846237C214943F04003237403B0CC
:1018C000BDE8F04FFFF72CB9C6EB08060BEBC600DE
:1018D000494604300022FFF7A3F86A680124C2EBEE
:1018E000C2020BEBC20328462246002183F8354092
:1018F00003B0BDE8F04FFFF73FBDBAF1FF3F0AD09C
:101900000D4A90420DD0C6EB08000BEBC0005146CB
:101910001C30FFF75DF8032FA8D1B9F1FF3FC0D10C
:10192000A4E7002CEFD0227C504642F080022274C3
:101930000349FFF7F5F8EEE700000140D07400001E
:10194000CC750000C80300102DE9F0410F46054694
:10195000594938461646FFF72BF958490446304690
:10196000FFF726F901462046FFF700F9544B0446DD
:10197000984228607FD06FD9524B98424BD003F5E4
:101980008043984206D1504AD2F8C43043F00073E5
:10199000C2F8C430012323722B684FF00008C3F84B
:1019A00004804FF416512846FFF7E0FD2B68032210
:1019B0001A7341493846FFF7B3F840493046FFF7FC
:1019C000AFF87A1C03D041463846FFF773FC731C0E
:1019D00003D030460021FFF76DFC394B9C4247D0C5
:1019E00021D9384B9C4263D003F580439C424AD1B5
:1019F00003236B60354CC3EBC3034FF0FF3604EB9E
:101A0000C3042846334632466660E6610021BDE8DD
:101A1000F041FFF705BF2C4AD2F8C43043F0807381
:101A2000C2F8C430B6E7A3F580439C422BD1274EC1
:101A30004FF0FF3400216960234622462846746037
:101A4000F461FFF7EDFE224B01221A6028686968F5
:101A5000204B03C3BDE8F081A3F58043984299D1A0
:101A6000194AD2F8C43043F00803C2F8C43091E7F1
:101A700001236B60BEE7144AD2F8C43043F0100370
:101A8000C2F8C43086E76E68104BC6EBC6064FF04E
:101A9000FF3703EBC6063A463B46002128467760EF
:101AA000F761FFF7BDFE0C4B9C42CCD0BDE8F08146
:101AB00002236B609EE700BF60750000F4740000B5
:101AC000000001400080094000C00F40C803001022
:101AD000C0030010BC05001000C0004000F054BC62
:101AE000A0F14000FFF7FABF00F052BCA0F14000A7
:101AF000FFF7FABF38B504461D4600F01FFC294623
:101B000004F1400000F034FB054B204603F10801CE
:101B100003F12002543321602264636438BD00BFA6
:101B2000F0750000F0B5044683B00E4E0827A7609C
:101B30000D48089F251D2660002620616660284606
:101B4000E6600097FFF7C8F833462846E268A168C8
:101B5000FFF72AF928462169FFF750F9204603B01C
:101B6000F0BD00BF5476000040420F0070B5094D33
:101B70002B6883420CD00446061D30460023E268E1
:101B8000A168FFF711F930462169FFF737F92C609A
:101B900070BD00BFA804001010B4044C00232360E3
:101BA0008160C26010BCFFF7E1BF00BFA804001055
:101BB000024B002201611A60FFF7D8BFA804001091
:101BC00038B504460D46FFF7D1FF2946201DBDE874
:101BD0003840FFF77BB900BF036870B501221B696D
:101BE000002104469847064601300ED023680222A1
:101BF0001B690021204698472368054631461B692A
:101C0000204600229847284670BD304670BD00BF70
:101C10004FF0FF30704700BF4FF0FF30704700BFFC
:101C2000002070474FF0FF30704700BF024A034961
:101C30000348FFF789BE00BF03C0092002C0092086
:101C4000BC050010074A084B10B4026003F5807110
:101C5000002453F8042F904208BF1C608B42F8D137
:101C600010BC704780760000A8040010F0B50E4646
:101C700085B03749054603F0A6F928B9354B1B68EE
:101C8000002B43D005B0F0BD3349284603F09BF943
:101C900030B9304B1B68002B43D0012005B0F0BD9C
:101CA0002E49284603F08FF9002835D02C4B00240C
:101CB00002E00134402C3DD053F8042F002AF8D123
:101CC0002B783A2B3DD0294602A800F01FF902A834
:101CD00000F072F970B302A800F054F928BB02A812
:101CE00000F040F9054628B3036802A89F6800F099
:101CF00037F926F4803201462846B8470346CBB16F
:101D0000184AE01C42F8243005B0F0BD0190FFF7FE
:101D10008DFF019805B0F0BD0E4B1B686BB1022022
:101D2000B0E7FFF783FF0120ACE702A800F034F929
:101D30000346E4E74FF0FF30A4E7FFF777FF022008
:101D4000A0E7284602AA084903F0CEF8029BD6E78E
:101D500060760000C0030010707600006876000016
:101D6000A8040010AC040010A476000002280ADDCC
:101D7000074AC31E52F82300002142F8231020B165
:101D800003685B681847002070474FF0FF307047CA
:101D9000AC040010022812DC0E4B70B51B680C4618
:101DA00016460BB9FFF742FFA51936B114F8011B0F
:101DB0000948FFF71BFDAC42F8D1304670BD074B18
:101DC000033853F8200010B103681B6818474FF020
:101DD000FF307047C0030010BC050010AC040010B9
:101DE00002280DDC0C4B10B51B680C460BB9FFF735
:101DF0001DFF0A48FFF7B2FC01232070184610BDF2
:101E0000074B033853F8200010B103689B6818474C
:101E10004FF0FF3318467047C0030010BC05001098
:101E2000AC040010022807DD064B033853F82000ED
:101E300020B10368DB681847012070474FF0FF307E
:101E4000704700BFAC040010022807DD064B0338C2
:101E500053F8200020B103681B6918470020704721
:101E60004FF0FF30704700BFAC040010022808B5E7
:101E700004D84FF400534B60002008BD01F0D4FAA1
:101E8000092303604FF0FF3008BD00BF704700BF5B
:101E9000704700BF08B5FFF7FBFFFFF7F7FFBDE88E
:101EA0000840FEF7F1BB00BF074A13681918EFF3AB
:101EB0000880814202D2184611607047034B0C2201
:101EC0001A604FF0FF307047D0000010C4050010BA
:101ED0000B4C08B523680546986801F0C9FB2368D8
:101EE000D86801F0C5FBFEF771FD20B905B9FEE722
:101EF000FEF7DCFDFBE7FEF71BFD002DF7D0F7E753
:101F000034010010002102F03BBF00BF38B50023B0
:101F1000036043600A7804462F2A01D0204638BD6A
:101F20004A78002AFAD0481C20604D782F2D13D013
:101F300085B1034600E06AB15D1A013323601A7867
:101F40002F2AF8D129460133236000F0C3F86060DE
:101F5000204638BD2946F8E719460346F3E700BF97
:101F600000687047436843B110B50446184600F056
:101F7000CBF8012803D1606810BD00207047002015
:101F800010BD00BF406830B108B500F0BDF8B0FA30
:101F900080F0400908BD704743684BB110B5044656
:101FA000184600F0B1F828B9606818B1043810BDBF
:101FB00000207047002010BD4068003018BF01208D
:101FC000704700BF10B50446C068FEF76BFD63683C
:101FD000C01A10BD38B5002505604560856004460F
:101FE000FEF7EAFCE060FEF75DFDA560606020465C
:101FF00038BD00BF036803B1704710B50446C06820
:10200000FEF750FD01236060236010BD036810B52A
:10201000846813B1FFF7D6FF03460448234480FBCE
:102020000320DB17C3EBA01010BD00BFD34D62101F
:1020300010B50446C068FEF735FD00236060A3605C
:1020400010BD00BF094A8368026053B1084B1A688B
:10205000904201D106E01A4653689842FBD143688A
:102060005360704742681A60704700BFBC7600003A
:10207000AC0500100C4A836810B50446026053B1E9
:102080000A4B1A68904201D10AE01A4653689C42F2
:10209000FBD163685360204600F0D7FA204610BD9C
:1020A00042681A60F7E700BFBC760000AC0500107C
:1020B00010B4064C0023027381600460436019B1C0
:1020C000034B1A681860426010BC7047BC76000071
:1020D000AC050010F8B50B4B1C688CB107460E46DA
:1020E000A56855B132463946284602F07EFF20B930
:1020F000284602F072FF864202D06468002CEFD1BD
:102100002046F8BDAC050010007B7047F8B58E186E
:10211000B1420F460ED005460C4601E0A64207D05C
:102120002B6814F8011B5B6A284698470130F5D1EB
:10213000E01BF8BD0C46FBE7F8B58E18B1420F4620
:102140000ED005460C4603E004F8010BA64205D06C
:102150002B6828469B6A9847431CF5D1E01BF8BDC5
:102160000C46FBE7002070470020704700207047B6
:1021700010B5044684B000F013F90B4B002203F1B4
:1021800008013C3384E80A00626101A8224607493D
:1021900002F086FE064901A801F06AFB6061FFF7C4
:1021A000B1FE204604B010BDC4760000A476000045
:1021B0000877000010B50446064B406903F1080299
:1021C0003C3384E80C0001F09BF9204600F0FCF859
:1021D000204610BDC47600000EB430B5044682B06F
:1021E00005AB53F8045B4069019301F041FA2946BD
:1021F0006069019A01F004FF02B0BDE8304003B00D
:10220000704700BF10B504460122FFF751FF024B93
:102210002046236010BD00BF1477000010B50446AF
:10222000024B0360FFF70EFF204610BD147700003D
:1022300010B50446034B40F81C3BFEF71FFF204639
:1022400010BD00BF3877000010B50446044B40F8BD
:102250001C3BFEF713FF204600F0F7F9204610BDA7
:102260003877000001290DD0022907D1436D33B121
:10227000026C32B100F14401104618477047036CFC
:1022800063B97047C36B33B1826A002AF9D000F199
:102290002C0110461847836A002BF2D0184700BF64
:1022A00070B5054604460E460D4B002245F8043B2A
:1022B000426003466A60AA60EA602A616A611C3073
:1022C000E26122626262A262E26322646265054A9E
:1022D000FEF796FE28463146FEF77AFB204670BD93
:1022E000387700006522000039B1002301228162A5
:1022F000C36311461C30FEF7C9BE8162C1630A4642
:102300001C300121FEF7C2BE4A1C02EB420200EB68
:10231000C202936853B101EB4101C9004218D2686F
:102320001AB10144103110461847704701EB4103C0
:1023300000EBC301CB68002BF7D0184770B50446FB
:102340000B4E0023251D4FF41650E06363602846B2
:10235000A360E36023626362A3632660FFF7F4FA7D
:10236000284622460349FFF7E9F9204670BD00BF21
:10237000487700000923000038B504460D460430B4
:10238000FFF7F4F8E56338BD0430FFF7E7B900BFA5
:1023900010B50C460430FFF729FA204610BD00BFE7
:1023A00010B50446064B002240F8043BFFF780FEC0
:1023B000044B204603F10802343384E80C0010BDBE
:1023C000807600005077000010B50446064B03F1FC
:1023D00008023433026040F8043FFFF733FE204622
:1023E000FFF730FC204610BD5077000028B108B53B
:1023F00003689B699847002008BD0020704700BF14
:102400000023C0F828317047D0F82801704700BF7A
:10241000C0F82811704700BF704700BF38B50446A8
:102420004068FEF70FFA05461CB1236820461B6A78
:102430009847284638BD00BF10B5044600F005F99E
:10244000204610BD10B50446024B0360FFF7FAFBAF
:10245000204610BDDC77000010B50446044B036035
:10246000FFF7F0FB204600F0F0F8204610BD00BF5B
:10247000DC77000038B50546002340681446FEF7B7
:10248000EFF9AB68201A0344AB6038BD38B5054698
:10249000002340681446FEF7F5F9AB68201A0344A0
:1024A000AB6038BD4068FEF7FBB900BF4068FEF77F
:1024B00021BA00BF012A38B505460C4608D0022AC9
:1024C00009D021466868FEF7F9F9AC60204638BDAE
:1024D00083681C44F5E74068FEF70CFA0444F0E713
:1024E0004068FEF7F9B900BF10B54FF49E7000F0D8
:1024F000AEF80446074B4FF4807240F8043B0021CD
:1025000001F09AFB04F582703822002101F094FB5F
:10251000204610BD947700000846FEF7F9B900BFC9
:10252000F0B5144985B000F58274012238230646BF
:102530008DE8160003934FF480756F4628463946A0
:10254000ABBE05469DB9331D184627686568A1686E
:10255000E2687760B560F160326127696569A169F9
:10256000E2697761B561F161326205B0F0BD0020CA
:1025700005B0F0BD00780000810703D502070ED535
:102580000A207047C30705D510F0080F14BF0820B4
:1025900004207047003018BF01204042704710F4FB
:1025A000806F14BF06200220704700BF10B50B7863
:1025B00053B12F2B18BF0C4602D11BE02F2B19D083
:1025C00014F8013F002BF9D110460C46FFF7D4FF59
:1025D000421C0FD001462046FEF724F9431C044656
:1025E00008D00C2000F033F80349002280E81200E4
:1025F000826010BD002010BDDC7700000649074A4C
:10260000074B9A42BEBF51F8040B42F8040BF8E79F
:102610000448804704480047F47A0000C8000010CE
:1026200084010010210C0000C9070000FEE7FEE74E
:10263000FEE7FEE7FEE7FEE7FEE7FEE7FEE7FEE772
:102640000B460146184600F0E1BEFEF7DDB810B5B6
:10265000002814BF044601242046FEF7CFF830B905
:1026600000F006F808B9FEF7D5F88047F4E710BD8A
:10267000024B1868BFF35F8F704700BFB0050010B2
:1026800081F0004102E000BF83F0004330B54FEA23
:1026900041044FEA430594EA050F08BF90EA020F90
:1026A0001FBF54EA000C55EA020C7FEA645C7FEA23
:1026B000655C00F0E2804FEA5454D4EB5555B8BF46
:1026C0006D420CDD2C4480EA020281EA030382EAB7
:1026D000000083EA010180EA020281EA0303362D49
:1026E00088BF30BD11F0004F4FEA01314FF4801C1C
:1026F0004CEA113102D0404261EB410113F0004F2E
:102700004FEA03334CEA133302D0524263EB4303E4
:1027100094EA050F00F0A780A4F10104D5F1200E82
:102720000DDB02FA0EFC22FA05F2801841F10001DD
:1027300003FA0EF2801843FA05F359410EE0A5F1B1
:1027400020050EF1200E012A03FA0EFC28BF4CF0E2
:10275000020C43FA05F3C01851EBE37101F0004598
:1027600007D54FF0000EDCF1000C7EEB00006EEBA5
:102770000101B1F5801F1BD3B1F5001F0CD349082F
:102780005FEA30004FEA3C0C04F101044FEA445286
:1027900012F5800F80F09A80BCF1004F08BF5FEA0D
:1027A000500C50F1000041EB045141EA050130BDED
:1027B0005FEA4C0C404141EB010111F4801FA4F190
:1027C0000104E9D191F0000F04BF01460020B1FAE5
:1027D00081F308BF2033A3F10B03B3F120020CDA1D
:1027E0000C3208DD02F1140CC2F10C0201FA0CF0FB
:1027F00021FA02F10CE002F11402D8BFC2F1200C60
:1028000001FA02F120FA0CFCDCBF41EA0C01904015
:10281000E41AA2BF01EB0451294330BD6FEA04045E
:102820001F3C1CDA0C340EDC04F11404C4F1200249
:1028300020FA04F001FA02F340EA030021FA04F35B
:1028400045EA030130BDC4F10C04C4F1200220FAB2
:1028500002F001FA04F340EA0300294630BD21FAF0
:1028600004F0294630BD94F0000F83F4801306BFB6
:1028700081F480110134013D4EE77FEA645C18BFAA
:102880007FEA655C29D094EA050F08BF90EA020F41
:1028900005D054EA000C04BF1946104630BD91EA39
:1028A000030F1EBF0021002030BD5FEA545C05D13C
:1028B0004000494128BF41F0004130BD14F580047B
:1028C0003CBF01F5801130BD01F0004545F0FE41EF
:1028D00041F470014FF0000030BD7FEA645C1ABF24
:1028E000194610467FEA655C1CBF0B46024650EA5B
:1028F000013406BF52EA033591EA030F41F4002187
:1029000030BD00BF90F0000F04BF0021704730B50C
:102910004FF4806404F132044FF000054FF00001E1
:1029200050E700BF90F0000F04BF0021704730B5A2
:102930004FF4806404F1320410F0004548BF404277
:102940004FF000013EE700BF42004FEAE2014FEACC
:1029500031014FEA02701FBF12F07F4393F07F4FA7
:1029600081F06051704792F0000F14BF93F07F4FD9
:10297000704730B54FF4607401F0004521F000411C
:1029800020E700BF50EA010208BF704730B54FF0A2
:1029900000050AE050EA010208BF704730B511F0A7
:1029A000004502D5404261EB41014FF4806404F1DF
:1029B00032045FEA915C3FF4DCAE4FF003025FEA61
:1029C000DC0C18BF03325FEADC0C18BF033202EBE9
:1029D000DC02C2F1200300FA03FC20FA02F001FA43
:1029E00003FE40EA0E0021FA02F11444C1E600BFE2
:1029F00070B54FF0FF0C4CF4E06C1CEA11541DBF95
:102A00001CEA135594EA0C0F95EA0C0F00F0DEF85F
:102A10002C4481EA030621EA4C5123EA4C5350EA44
:102A2000013518BF52EA033541F4801143F4801395
:102A300038D0A0FB02CE4FF00005E1FB02E506F026
:102A40000042E0FB03E54FF00006E1FB03569CF07B
:102A5000000F18BF4EF0010EA4F1FF04B6F5007F81
:102A600064F5407404D25FEA4E0E6D4146EB0606F3
:102A700042EAC62141EA55514FEAC52040EA5E507C
:102A80004FEACE2EB4F1FD0C88BFBCF5E06F1ED826
:102A9000BEF1004F08BF5FEA500E50F1000041EB5D
:102AA000045170BD06F0004646EA010140EA02000A
:102AB00081EA0301B4EB5C04C2BFD4EB0C0541EA2C
:102AC000045170BD41F480114FF0000E013C00F341
:102AD000AB8014F1360FDEBF002001F0004170BD65
:102AE000C4F10004203C35DA0C341BDC04F114047E
:102AF000C4F1200500FA05F320FA04F001FA05F20A
:102B000040EA020001F0004221F0004110EBD370D6
:102B100021FA04F642EB06015EEA430E08BF20EA02
:102B2000D37070BDC4F10C04C4F1200500FA04F3A5
:102B300020FA05F001FA04F240EA020001F0004137
:102B400010EBD37041F100015EEA430E08BF20EAAA
:102B5000D37070BDC4F1200500FA05F24EEA020EF2
:102B600020FA04F301FA05F243EA020321FA04F021
:102B700001F0004121FA04F220EA020000EBD370D8
:102B80005EEA430E08BF20EAD37070BD94F0000FD8
:102B90000FD101F00046400041EB010111F4801F0C
:102BA00008BF013CF7D041EA060195F0000F18BFBD
:102BB000704703F00046520043EB030313F4801FF9
:102BC00008BF013DF7D043EA0603704794EA0C0FB3
:102BD0000CEA135518BF95EA0C0F0CD050EA4106C9
:102BE00018BF52EA4306D1D181EA030101F0004146
:102BF0004FF0000070BD50EA410606BF104619466E
:102C000052EA430619D094EA0C0F02D150EA013679
:102C100013D195EA0C0F05D152EA03361CBF1046BA
:102C200019460AD181EA030101F0004141F0FE4159
:102C300041F470014FF0000070BD41F0FE4141F4DD
:102C4000780170BD70B54FF0FF0C4CF4E06C1CEADD
:102C500011541DBF1CEA135594EA0C0F95EA0C0F92
:102C600000F0A7F8A4EB050481EA030E52EA03354D
:102C70004FEA013100F088804FEA03334FF080556E
:102C800045EA131343EA12634FEA022245EA11159B
:102C900045EA10654FEA00260EF000419D4208BF4C
:102CA000964244F1FD0404F5407402D25B084FEAF9
:102CB0003202B61A65EB03055B084FEA32024FF4A5
:102CC00080104FF4002CB6EB020E75EB030E22BF02
:102CD000B61A754640EA0C005B084FEA3202B6EBC2
:102CE000020E75EB030E22BFB61A754640EA5C0071
:102CF0005B084FEA3202B6EB020E75EB030E22BF01
:102D0000B61A754640EA9C005B084FEA3202B6EB01
:102D1000020E75EB030E22BFB61A754640EADC00C0
:102D200055EA060E18D04FEA051545EA16754FEA22
:102D300006164FEAC30343EA52734FEAC2025FEA40
:102D40001C1CC0D111F4801F0BD141EA00014FF0CF
:102D500000004FF0004CB6E711F4801F04BF0143A0
:102D60000020B4F1FD0C88BFBCF5E06F3FF6AFAEBC
:102D7000B5EB030C04BFB6EB020C5FEA500C50F14C
:102D8000000041EB045170BD0EF0004E4EEA1131CF
:102D900014EB5C04C2BFD4EB0C0541EA045170BDD6
:102DA00041F480114FF0000E013C90E645EA060E1A
:102DB0008DE60CEA135594EA0C0F08BF95EA0C0F48
:102DC0003FF43BAF94EA0C0F0AD150EA01347FF490
:102DD00034AF95EA0C0F7FF425AF104619462CE767
:102DE00095EA0C0F06D152EA03353FF4FDAE1046CA
:102DF000194622E750EA410618BF52EA43067FF41B
:102E0000C5AE50EA41047FF40DAF52EA43057FF4AA
:102E1000EBAE12E74FEA410212F5001215D211D5BE
:102E20006FF47873B3EB625212D94FEAC12343F0C7
:102E3000004343EA505311F0004F23FA02F018BF49
:102E4000404270474FF00000704750EA013005D112
:102E500011F0004008BF6FF0004070474FF00000D5
:102E6000704700BF4FEA4102B2F1E04324BFB3F51F
:102E7000001CDCF1FE5C0DD901F0004C4FEAC002F1
:102E80004CEA5070B2F1004F40EB830008BF20F0D5
:102E90000100704711F0804F21D113F13872BCBF8F
:102EA00001F00040704741F480114FEA5252C2F1E4
:102EB0001802C2F1200C10FA0CF320FA02F018BF2D
:102EC00040F001004FEAC1234FEAD32303FA0CFC80
:102ED00040EA0C0023FA02F34FEA4303CCE77FEA0F
:102EE000625307D150EA01331EBF4FF0FE4040F459
:102EF0004000704701F0004040F0FE4040F4000008
:102F0000704700BF80F0004002E000BF81F0004148
:102F100042001FBF5FEA410392EA030F7FEA226C7F
:102F20007FEA236C6AD04FEA1262D2EB1363C1BF0F
:102F3000D218414048404140B8BF5B42192B88BF7E
:102F4000704710F0004F40F4000020F07F4018BFA1
:102F5000404211F0004F41F4000121F07F4118BFC1
:102F6000494292EA030F3FD0A2F1010241FA03FC69
:102F700010EB0C00C3F1200301FA03F100F0004351
:102F800002D5494260EB4000B0F5000F13D3B0F119
:102F9000807F06D340084FEA310102F10102FE2A88
:102FA00051D2B1F1004F40EBC25008BF20F00100F8
:102FB00040EA03007047490040EB000010F4000FA6
:102FC000A2F10102EDD1B0FA80FCACF1080CB2EB39
:102FD0000C0200FA0CF0AABF00EBC2505242184398
:102FE000BCBFD0401843704792F0000F81F400013D
:102FF00006BF80F400000132013BB5E74FEA410310
:103000007FEA226C18BF7FEA236C21D092EA030F7B
:1030100004D092F0000F08BF0846704790EA010FF5
:103020001CBF0020704712F07F4F04D1400028BF22
:1030300040F00040704712F100723CBF00F5000004
:10304000704700F0004343F0FE4040F4000070473A
:103050007FEA226216BF08467FEA236301464202E6
:1030600006BF5FEA412390EA010F40F480007047F9
:103070004FF0000304E000BF10F0004348BF40429F
:103080005FEA000C08BF704743F0964301464FF0DB
:1030900000001CE050EA010208BF70474FF0000337
:1030A0000AE000BF50EA010208BF704711F0004378
:1030B00002D5404261EB41015FEA010C02BF844648
:1030C0000146002043F0B64308BFA3F18053A3F5A7
:1030D0000003BCFA8CF2083AA3EBC25310DB01FAEE
:1030E00002FC634400FA02FCC2F12002BCF1004F72
:1030F00020FA02F243EB020008BF20F00100704703
:1031000002F1200201FA02FCC2F1200250EA4C0056
:1031100021FA02F243EB020008BF20EADC7070479C
:103120004FF0FF0C1CEAD0521EBF1CEAD15392EAAA
:103130000C0F93EA0C0F6FD01A4480EA010C400286
:1031400018BF5FEA41211ED04FF0006343EA5010E0
:1031500043EA5111A0FB01310CF00040B1F5000F22
:103160003EBF490041EAD3715B0040EA010062F1D1
:103170007F02FD2A1DD8B3F1004F40EBC25008BFBB
:1031800020F00100704790F0000F0CF0004C08BFD9
:1031900049024CEA502040EA51207F3AC2BFD2F1A6
:1031A000FF0340EAC250704740F400004FF00003B4
:1031B000013A5DDC12F1190FDCBF00F000407047EE
:1031C000C2F10002410021FA02F1C2F1200200FA2C
:1031D00002FC5FEA310040F1000053EA4C0308BFF3
:1031E00020EADC70704792F0000F00F0004C02BF44
:1031F000400010F4000F013AF9D040EA0C0093F0BF
:10320000000F01F0004C02BF490011F4000F013B18
:10321000F9D041EA0C018FE70CEAD15392EA0C0F86
:1032200018BF93EA0C0F0AD030F0004C18BF31F0F1
:10323000004CD8D180EA010000F00040704790F0C7
:10324000000F17BF90F0004F084691F0000F91F06B
:10325000004F14D092EA0C0F01D142020FD193EA31
:103260000C0F03D14B0218BF084608D180EA0100B9
:1032700000F0004040F0FE4040F40000704740F095
:10328000FE4040F4400070474FF0FF0C1CEAD05263
:103290001EBF1CEAD15392EA0C0F93EA0C0F69D0BF
:1032A000A2EB030280EA010C49024FEA402037D02A
:1032B0004FF0805343EA111143EA10130CF0004021
:1032C0008B4238BF5B0042F17D024FF4000C8B4211
:1032D00024BF5B1A40EA0C00B3EB510F24BFA3EBF1
:1032E000510340EA5C00B3EB910F24BFA3EB9103C1
:1032F00040EA9C00B3EBD10F24BFA3EBD10340EA1B
:10330000DC001B0118BF5FEA1C1CE0D1FD2A3FF660
:1033100050AF8B4240EBC25008BF20F00100704715
:103320000CF0004C4CEA50207F32C2BFD2F1FF03B8
:1033300040EAC250704740F400004FF00003013AE9
:1033400037E792F0000F00F0004C02BF400010F48D
:10335000000F013AF9D040EA0C0093F0000F01F0A1
:10336000004C02BF490011F4000F013BF9D041EAC3
:103370000C0195E70CEAD15392EA0C0F08D14202F6
:103380007FF47DAF93EA0C0F7FF470AF084676E7C9
:1033900093EA0C0F04D14B023FF44CAF08466EE7A2
:1033A00030F0004C18BF31F0004CCAD130F0004270
:1033B0007FF45CAF31F000437FF43CAF5FE700BFC8
:1033C0004FEA4002B2F1FE4F0FD34FF09E03B3EB32
:1033D00012620DD94FEA002343F0004310F0004F72
:1033E00023FA02F018BF404270474FF000007047C8
:1033F00012F1610F01D1420205D110F0004008BF67
:103400006FF0004070474FF00000704710B5054C5A
:1034100013462CB10A4601460220AFF3008010BDCE
:10342000204610BD00000000014B1868704700BF27
:103430003401001008B5074B044613B10021AFF367
:103440000080054B1868836A03B198472046FEF751
:103450003FFD00BF000000006878000070B5054621
:103460000C4609B9002070BD18B183690BB900F092
:1034700051F9204B9C4201D16C6808E01E4B9C42E4
:1034800001D1AC6803E01D4B9C4208BFEC68B4F965
:103490000C30002BE6D02146284600F039F8236B8B
:1034A000064633B1216A284698470028B8BF4FF036
:1034B000FF36A3891B0603D52169284600F0C4FB0B
:1034C000616B41B104F14403994202D0284600F0F7
:1034D000BBFB00236363A16C21B1284600F0B4FB61
:1034E0000023A36400F082F90023A38100F07FF998
:1034F000304670BD04780000247800004478000055
:10350000024B01461868FFF7A9BF00BF3401001045
:103510008A892DE9F041054610070C4659D44B68BD
:10352000002B02DC0B6C002B17DDE66AAEB102F457
:103530008052002392B22F682B600AB1606D15E0B3
:10354000216A01232846B047411C0FD12B686BB17B
:103550001D2B01D0162B03D12F600020BDE8F08178
:10356000A38943F04003A381BDE8F081A3895A07F2
:1035700005D56368C01A636B0BB1236CC01A0023B6
:103580000246E66A216A2846B047431CA38906D151
:1035900029681D2939D8204ACA40D60735D50022C6
:1035A00062602269D904226004D5421C01D12B68D3
:1035B00003B96065616B2F600029CED004F144032C
:1035C000994202D0284600F03FFB00206063BDE82E
:1035D000F0810F69002FC0D093070E680CBF4B69B4
:1035E0000023C7EB06080F608B6002E00744C0EBC6
:1035F0000808B8F1000FB0DD43463A46216A284674
:10360000A66AB0470028F1DCA38943F04003A381F8
:103610004FF0FF30BDE8F0810100402038B50B6964
:1036200005460C46DBB118B183690BB900F072F89E
:103630000C4B9C4201D16C6808E00B4B9C4201D1C1
:10364000AC6803E0094B9C4208BFEC68B4F90C304D
:103650002BB121462846BDE83840FFF759BF00206E
:1036600038BD00BF047800002478000044780000D2
:10367000014620B9044B0549186800F0A1B9044B74
:103680001868FFF7CBBF00BF687800001D36000048
:1036900034010010014900F093B900BF1D3600004D
:1036A00010B5044600230360436083608181436654
:1036B000C281036143618361194608225C3000F0D6
:1036C000BBFA054B24626362044BA362044BE362C2
:1036D000044B236310BD00BF3D4F0000634F00004B
:1036E0009B4F0000BF4F000070B568234D1E5D4327
:1036F0000E4605F1740100F0EBFA044640B10021DA
:1037000080E842000C30A06005F1680200F094FAF5
:10371000204670BD836910B5044633BB8364C3641F
:103720000365124B124A1B688262984204BF012350
:10373000836100F01FF86060204600F01BF8A06075
:10374000204600F017F80022E06004216068FFF7CF
:10375000A7FF01220921A068FFF7A2FF0222122180
:10376000E068FFF79DFF0123A36110BD68780000AA
:1037700095360000F8B51C4B07461E68B36913B9AF
:103780003046FFF7C7FF4836B4687368013B04D47E
:10379000B4F90C507DB16834F8E733680BB1366882
:1037A000F2E704213846FFF79FFF30600028F6D18A
:1037B0000C233B60F8BD4FF6FF73E3810123A38127
:1037C00065662560A560656025616561A561082263
:1037D000294604F15C0000F02FFA6563A563A56437
:1037E000E5642046F8BD00BF687800007047704768
:1037F000F7B50F46114601AA054602F051FC0646F0
:1038000008B9002029E02846FFF7B4FF0446002845
:10381000F7D04FF4DB73019A3946284601F0B6F928
:10382000002806DA0025FFF7E1FFA581FFF7DFFF9B
:10383000E7E70B4BE08163620A4BA681A3620A4B68
:103840002462E362094B2363F30505D502230022BA
:103850002146284600F026F8204603B0F0BD00BF00
:103860003D4F0000634F00009B4F0000BF4F000022
:10387000024B0A4601461868FFF7BABF3401001030
:103880000EB403B5014603AB054853F8042B00689A
:10389000019300F099FA02B05DF804EB03B07047B1
:1038A0003401001000F000B82DE9F8430C469046B2
:1038B0001E46054618B183690BB9FFF72BFF3D4B38
:1038C0009C4201D16C6808E03B4B9C4201D1AC6842
:1038D00003E03A4B9C4208BFEC68A38903F484736D
:1038E000B3F5847F03D121462846FFF797FEE76AA8
:1038F0000FB91D232BE0012E04D0022E2BD056B37E
:10390000162324E021462846FFF788FEA28902F408
:10391000805292B20AB1606D05E0216A33462846B2
:10392000B847411C14D0A3895A0706D56368C01A4A
:10393000636B4BB1236CC01A06E01B0704D52368E8
:1039400013B122699B1A18448044002603E02B60BF
:103950004FF0FF392BE023691BB92146284600F0C0
:10396000DBF821462846FFF759FE81460028EFD1B3
:1039700033464246216A2846B8470130E8D0616B99
:1039800041B104F14403994202D0284600F05CF9A9
:1039900000236363236900212360A389616023F40A
:1039A0000263A381082204F15C0000F045F9484657
:1039B000BDE8F88304780000247800004478000013
:1039C0002DE9F8438046894600F14804002694B169
:1039D000A5686768013F0CD4AB89012B07D9B5F9FD
:1039E0000E30013303D029464046C84706436835A8
:1039F000F0E72468EBE73046BDE8F8832DE9F843AB
:103A0000089C0E46904602FB03F9074618B18369ED
:103A10000BB9FFF77FFE234B9C4201D17C6808E085
:103A2000214B9C4201D1BC6803E0204B9C4208BF63
:103A3000FC68A3891A0703D523690BB1002520E090
:103A40002146384601F08AFC0028F7D0002525E001
:103A5000A368013B002BA36019DAA269934213DB30
:103A6000236832781A70236819780A2913D12246FC
:103A7000384601F00DFC431C5842584170B90135DD
:103A800001364D45E4D109E022463178F0E723685C
:103A900032781A70236801332360F0E7B5FBF8F041
:103AA000BDE8F88304780000247800004478000022
:103AB00007B5009313460A46014603480068FFF71E
:103AC0009DFF03B05DF804FB340100100E4B70B590
:103AD0001E460E4C0025E41AA410A54204D056F848
:103AE000253098470135F8E703F07AFA084B094C7E
:103AF0001E46E41AA4100025A54204D056F825302D
:103B000098470135F8E770BD74010010740100108A
:103B10007401001080010010F0B58B8991B09D07F1
:103B200006460C4625D4B1F90E10002908DAA389FF
:103B3000002513F0800F14BF40274FF480670DE07D
:103B400001AA02F0E5FA0028F1DB029D4FF480673C
:103B500005F47045A5F500514D424D4139463046BA
:103B600000F0B6F860B9A3899A051DD443F00203AA
:103B7000A38104F14703236023610123636113E000
:103B80000A4BB362A389206043F08003A3812061C4
:103B900067614DB1B4F90E10304602F0CBFA18B19E
:103BA000A38943F00103A38111B0F0BD9536000055
:103BB000024B0146186800F08BB800BF34010010BA
:103BC000024B0146186800F03FB800BF34010010F6
:103BD00010B5C9B202449042034605D01C780130AA
:103BE0008C42F8D1184610BD002010BD10B5431E00
:103BF0000A44914204D011F8014B03F8014FF8E751
:103C000010BD884210B501EB020301D8421E0BE043
:103C10009842FBD28118D21AD34204D013F8014D36
:103C200001F8014DF8E710BD994204D011F8014B9D
:103C300002F8014FF8E710BD03460244934202D058
:103C400003F8011BFAE7704730B500293CD051F862
:103C5000042C0B1F1D49002AB8BF9B180A680C468C
:103C600012B95A600B6030BD9A420DD919685818C4
:103C7000824201BF10685268091819605A602360B7
:103C800030BD994203D80A4651680029F9D1146819
:103C900015199D420AD11B682344D0188142136034
:103CA00012D10868034413604B680CE002D90C235E
:103CB000036030BD18681C18A14201BF0C68496838
:103CC000001918605960536030BD00BFB80500107E
:103CD00070B5CD1C25F0030508350C2D38BF0C251B
:103CE000002D064603DA0C233360002070BDA94284
:103CF000F9D81F4B1C681A462146A1B10B685B1B03
:103D00000ED40B2B03D90B60CC18CD501EE08C4287
:103D10000BBF63684B681360636018BF0C4615E007
:103D20000C464968E9E7134C23681BB9304600F09C
:103D3000E7FF20602946304600F0E2FF431CD2D066
:103D4000C41C24F00304A0420AD1256004F10B0036
:103D5000231D20F00700C31A09D05A42E25070BD5B
:103D6000211A304600F0CCFF0130EED1BBE770BD28
:103D7000B8050010B4050010936810B4013B002B87
:103D8000936008DA9469A34202DBCBB20A2B02D11A
:103D900010BC01F07DBA1368581C10601970C8B2CD
:103DA00010BC7047F8B506460F461446D518AC420D
:103DB00008D03A4614F8011B3046FFF7DDFF431CDC
:103DC000F5D100E00020F8BD2DE9F04F9DB00C4684
:103DD00017460393064618B183690BB9FFF79AFC9F
:103DE0007F4B9C4201D1746808E07E4B9C4201D11C
:103DF000B46803E07C4B9C4208BFF468A3891807B1
:103E00000CD5236953B10023099320238DF8293061
:103E100030238DF82A30DFF8D4B144E02146304613
:103E200001F09CFA0028EED04FF0FF30D5E0039A65
:103E3000111D12680391002A80F28C80524243F0D7
:103E400002000792049098F800302E2B00F0848036
:103E5000032298F800106548FFF7BAFE48B14023E6
:103E6000CBEB000003FA00F0049B08F101081843B3
:103E7000049098F8001006225D4808F101078DF8BB
:103E80002810FFF7A5FE002800F09580594B002B65
:103E900040F08880039B073323F007030833039324
:103EA000099B53440993B846454615F8013B1BB995
:103EB000B8EB07090FD003E0252BF9D0A846F3E7AC
:103EC0004B463A4621463046FFF76CFF01307FD023
:103ED000099B4B44099398F80030002B78D00023BD
:103EE0004FF0FF3204930793059206938DF85330F9
:103EF0001A930127052229783F48FFF769FE05F14B
:103F00000108049B38B13C4A4546801A07FA00F084
:103F100018430490EEE7D90644BF20228DF85320C1
:103F20001A0744BF2B228DF853202A782A2A3FF4FF
:103F30007EAF079A00210A20A84698F80030013584
:103F4000303B092B03D800FB02320121F4E70029A2
:103F50003FF479AF079276E798F801302A2B0BD11E
:103F6000039B08F102081A1D1B680392002BB8BFBF
:103F70004FF0FF3305936BE700231946059308F1D3
:103F800001000A25804698F800200130303A092ABD
:103F900003D805FB01210123F4E7002B3FF458AFC0
:103FA000059155E703AB00932246144B04A9304614
:103FB00000F0C2F807E003AB009322460F4B04A9C0
:103FC000304600F065FBB0F1FF3F82467FF468AFFA
:103FD000A3895B063FF528AF09981DB0BDE8F08FB7
:103FE0000478000024780000447800007278000013
:103FF00076780000394100006C780000A53D000093
:1040000013460A46014602480068FFF7DDBE00BFBE
:10401000340100102DE9F04788B0149F002B1E4694
:104020001299B8BF03F1004327F02007B6BF1E4620
:1040300000232D23462F1446109DDDF84CA00B7055
:1040400003D0452F03D1013501E0032300E0022313
:1040500007AA049206AA03928DE828042246334652
:1040600001F086FA472F804602D1119BDB0728D545
:10407000462F08EB050911D198F80030302B0AD1F2
:10408000002200232046314602F078FF18B9C5F11E
:104090000105CAF80050DAF80030994400220023E4
:1040A0002046314602F06AFF08B9302202E0CDF81E
:1040B0001C9006E0079B994503D9591C07911A707B
:1040C000F8E74046079B159AC8EB0303136008B056
:1040D000BDE8F087034673B50029B8BF494203F82D
:1040E000022BB4BF2D222B22092942701ADD0DF1BB
:1040F000070216460A2591FBF5F405FB1411092C5D
:1041000001F1300102F8011D2146F4DC3031541E6A
:1041100002F8011CB4421A460AD214F8012B03F823
:10412000012BF7E71A463024214402F8024B59705C
:10413000101A02B070BD00002DE9F04F8FB00C4690
:1041400016461F46DDF86080054602F003F8D0F8F9
:1041500000B0584600F041FF00230C93D8F800301F
:104160000890073323F0070303F1080294F818902E
:10417000C8F80020D3E90023C4E91223D4E91201CE
:1041800000F096FD012819D1D4E912010022002384
:1041900002F0FEFE10B12D2384F843309A4B9B4A67
:1041A000B9F1470F8CBF90469846032323612368DB
:1041B00023F0040323604FF0000A93E0D4E91201D6
:1041C00000F076FD236848B9914A9249B9F1470F4A
:1041D0008CBF8846904603222261E9E7D4F804E0C8
:1041E000D4E91201BEF1FF3F01D106220AE0B9F184
:1041F000670F02D0B9F1470F05D1BEF1000F40F0B3
:10420000B68101226260002243F4806306920CAA08
:104210002360059201930BAA636803920DF12B02B0
:104220000292009302460B46CDF810902846FFF705
:10423000F1FE09F0DF03472B804609D10B9BD81C08
:1042400002DB6268934230DDA9F102095FFA89F965
:10425000B9F1650F0B9912D801394A4604F15000A3
:104260000B91FFF737FF0C9A82468318012A2361CE
:1042700002DC2268D1072FD5013323612CE0B9F18C
:10428000660F14D10029636807DD216113B9226824
:10429000D2071DD501330B4419E013B92268D007AA
:1042A00001D5023313E0012311E04FF067090B9BA6
:1042B0000C9A934205DB22682361D10708D50133AC
:1042C00005E0002BD4BFC3F1020301231344236193
:1042D0000B9B4FF0000AA3659DF82B3013B12D23E3
:1042E00084F84330009733460DAA2146284600F053
:1042F00059F9013002D14FF0FF3050E123685A05DF
:1043000001D4236965E0B9F1650F40F2D580D4E9A5
:1043100012010022002302F031FE78B301233E4A4D
:1043200031462846B8470130E5D00C9B0B9A9A429B
:104330000BDB2368D80708D423689B0740F1118161
:104340004FF0000804F1190906E1089B5A4631466E
:104350002846B8470130CED04FF0000804F11A09C2
:104360000C9B013B9845E7DA01234A463146284633
:10437000B8470130BFD008F10108F1E70B9B002BD3
:1043800029DC0123244A31462846B8470130B2D0FF
:104390000B9B23B90C9B13B92368D907CCD5089B79
:1043A0005A4631462846B8470130A4D04FF000099C
:1043B00004F11A0A0B9B5B42994509DA0123524624
:1043C00031462846B847013095D009F10109F1E797
:1043D0000C9B4246A7E00C9AA36D9A42A8BF1A46CE
:1043E000002A914607DC04F11A034FF0000A29EA7B
:1043F000E97909931CE01346314642462846B847FE
:104400000130F0D177E700BF7D78000081780000AF
:104410008578000089780000D27800000123099A8D
:1044200031462846B84701303FF465AF0AF1010A2A
:10443000A36DC9EB03029245F0DB08EB03090B9A6D
:104440000C9B9A420FDB2368DA070CD40C9B0B9A67
:104450009844C9EB08089B1A9845A8BF9846B8F13C
:10446000000F08DC0FE0089B5A4631462846B84743
:104470000130EBD13FE743464A4631462846B8472C
:1044800001303FF438AF4FF0000928EAE87804F132
:104490001A0A09E00123524631462846B84701303E
:1044A0003FF429AF09F101090B9A0C9B9B1AC8EB49
:1044B00003039945EEDB3FE70C9A012A01DCDB0799
:1044C00038D50123424631462846B84701303FF4EB
:1044D00012AF089B5A4631462846B84701303FF490
:1044E0000AAFD4E912010022002302F047FD20B1F7
:1044F0004FF0000804F11A090EE00C9B08F10102CC
:10450000013B19E001234A4631462846B8470130AD
:104510003FF4F1AE08F101080C9B013B9845F1DB3B
:10452000534604F1500231462846B84701307FF423
:1045300003AFE0E64246012331462846B847013042
:10454000EED1D8E601234A4631462846B847013025
:104550003FF4D1AE08F10108E3680D9A9B1A984523
:10456000F0DBE0680D9B9842B8BF184617E00022C8
:1045700006920CAA05920BAA43F4806303920DF1F4
:104580002B022360029201930246CDF81090CDF8E1
:1045900000E00B462846FFF73DFD80464EE60FB093
:1045A000BDE8F08F2DE9F04791461F460A698B68F8
:1045B00006469342B8BF1346C9F8003091F843202D
:1045C0000C46DDF8208012B10133C9F800302368B1
:1045D000990642BFD9F800300233C9F80030256887
:1045E00015F0060510D104F1190A07E0012352461F
:1045F00039463046C04701301AD00135E368D9F852
:1046000000209B1A9D42F1DB94F84330226800336E
:1046100018BF012392060FD5E118302081F843001E
:104620005A1C94F845102244023382F8431003E0E8
:104630004FF0FF30BDE8F08704F1430239463046C1
:10464000C0470130F4D02268D9F80050E36802F086
:104650000602042A08BF5D1B2269A3680CBF25EA75
:10466000E57500259342C4BF9B1AED184FF0000971
:104670001A344D4509D00123224639463046C047F9
:104680000130D5D009F10109F3E70020BDE8F0873A
:104690002DE9F04317460A7E85B06E2A98460646F5
:1046A0000C460C9B01F1430E00F0AE8011D8632A3A
:1046B00022D009D8002A00F0BB80582A40F0CA80D6
:1046C00081F84520834955E0642A1ED0692A1CD010
:1046D000C0E0732A00F0B08009D86F2A2ED0702A6B
:1046E00040F0B8800A6842F020020A603EE0752A75
:1046F00024D0782A3AD0ADE01A6801F14205111DA4
:104700001960136884F84230A8E021681A6811F033
:10471000800F02D0111D196008E011F0400F02F166
:104720000401196002D0B2F9003000E01368002BD8
:104730003CDA2D225B4284F8432037E021681A6876
:1047400011F0800F02D0111D196007E011F0400F29
:1047500002F10401196001D0138800E01368227E81
:104760005C496F2A14BF0A2208221BE078225A49AA
:1047700084F845202268186812F0800F00F10405C3
:104780001D6003D1550601D5038800E00368D007FA
:1047900044BF42F0200222601BB9226822F02002AE
:1047A00022601022002084F8430001E049490A22D7
:1047B0006568002DA56008DB206820F004002060FB
:1047C0002BB9002D7DD175460CE0002B79D07546B4
:1047D000B3FBF2F002FB1033CB5C05F8013D03465E
:1047E0000028F5D1082A0BD12368DA0708D52369F8
:1047F00062689A42DEBF302305F8013C05F1FF35BF
:10480000C5EB0E0323612EE008681A6810F0800FD4
:10481000496903D0101D1860136808E010F0400FBC
:1048200002F104001860136801D0198000E01960DB
:1048300000232361754616E01A68111D196015687A
:10484000002162682846FFF7C3F908B1401B606089
:10485000636804E004F1420584F8422001232361E7
:10486000002384F84330CDF800803B4603AA21465C
:104870003046FFF797FE013002D14FF0FF3026E0BF
:1048800023692A4639463046C0470130F5D02368AF
:104890009B0710D5002504F1190907E001234A46BA
:1048A00039463046C0470130E7D00135E368039A06
:1048B0009B1A9D42F2DBE068039B9842B8BF184602
:1048C00005E00B7804F1420584F842308AE705B030
:1048D000BDE8F0838D7800009E7800002DE9F84354
:1048E00015468A6880460C4632B98A69002A0CBF90
:1048F00001224FF0FF328A602268DFF8A890D106CB
:1049000058BF1A684FF000065EBF111D1960176886
:10491000A069F8B923680136DA065EBF2B681B78F8
:104920003B702A686B6802F101022A60A26803F1F9
:10493000FF3302F1FF326B6058BF0137A260E2B172
:10494000002BE5DCD4F88031294640469847002802
:10495000DED012E0012806D12B681A7863699B5CCF
:10496000002BD7D119E0022807D12B68D9F80020F5
:104970001B7813445B781B07CCD5236813F0100316
:1049800005D1E2680132E260A26902B13B7023699D
:1049900000201E442661BDE8F883002EEDD1BDE85D
:1049A000F88300BF380100102DE9F04F0C469A46FD
:1049B000724B87B08346164693E8070003ABA7689F
:1049C00083E807006E4BA1696E4A04F11C090329B4
:1049D00018BF1A467B1EB3F5AE7F84BF40F25D134D
:1049E000A360236888BF6FF4AE7543F450632360FF
:1049F0004B4600928CBF7F1900274FF000083168AA
:104A0000019303AB53F8280002220978FFF7E0F87E
:104A1000019B002833D0B8F1010F0BD162682AB98D
:104A200008226260226842F400722260226822F446
:104A3000A0620CE0B8F1020F0AD1226802F4C06152
:104A4000B1F5007F1BD11021616042F480722260B9
:104A5000A268511EA16092B132685D1C511C316088
:104A600012781A707368013B002B736006DCD4F86F
:104A70008031314658469847002841D12B4608F1ED
:104A80000108B8F1030FBAD162680AB90A2262605C
:104A900062683D496069891A019300F041F9019B00
:104AA0004FF000081D46A36863B3316860690A7857
:104AB000805C38B3302A226808D1100506D508F189
:104AC000010857B10133013FA36006E022F41062F0
:104AD00022600B78013505F8013C7368013B002B1F
:104AE000736003DD33680133336005E0D4F880314F
:104AF00031465846984728B9A368013BA360D2E7DE
:104B00004FF000082368D9050CD54D4508D915F894
:104B1000011C6F1ED4F87C313246584698473D46FA
:104B20004D4527D0226812F010021BD12A7063680D
:104B300049465846009EB0472268DAF8003012F025
:104B4000200F07D1D20705D51A1DCAF800201B680F
:104B5000188004E01A1DCAF800201B681860E3687A
:104B60000133E3602369C9EB050545441D44256114
:104B7000002000E0012007B0BDE8F08FB078000011
:104B80002151000015500000CC78000038B5074CCA
:104B9000054608461146002222601A46FDF766F8CF
:104BA000431C02D1236803B12B6038BDC40500103B
:104BB00070B50E46054618B183690BB9FEF7AAFD1C
:104BC000AB69AC6813B92846FEF7A4FD314B9C4293
:104BD00001D16C6808E0304B9C4201D1AC6803E025
:104BE0002E4B9C4208BFEC68A389190701D52369A5
:104BF00083B92146284600F0B1FB58B14FF0FF3091
:104C000070BD002B0EDB236816F8012C1A70236888
:104C100001332360A36816F8012B013BA360002A2F
:104C2000EFD116E0A269934209DB236816F8012C44
:104C30001A70236819780A29EAD1224602E022462E
:104C400016F8011C284600F023FB421C504250413C
:104C5000D3E7002B15DAA269934208DB23680A2206
:104C60001A702368197891420FD1224601E022463A
:104C70000A21284600F00CFB431C5842584130B131
:104C8000BCE723680A221A702368013323600A20D4
:104C900070BD00BF04780000247800004478000054
:104CA000024B01461868FFF783BF00BF34010010B4
:104CB00031F0004310B51BD00F4AA1F58014944287
:104CC00010D901F1FF410C4A01F5E001914209D9E7
:104CD000B3F5801F08D3094A934207D1B0FA80F098
:104CE000400910BD042010BD032010BD002010BDE0
:104CF0000028E6D1022010BDFFFFDF7F0000F07F1B
:104D000038B5064C0023054608462360FDF7CCF86D
:104D1000431C02D1236803B12B6038BDC4050010C9
:104D200070B50B78441E5E2B13BF4A1C8A1C4B784F
:104D3000002108BF012100F1FF0504F8011FAC426A
:104D4000FBD10BB9501E70BD81F001041146C45453
:104D50000D784A1C2D2D06D05D2D0FD00DB12B46A0
:104D6000F4E7084670BD4E785D2EF8D0B342F6DC0D
:104D7000023101339E42C454FBDCE9E7104670BDAA
:104D800000294FF480630CBF0222002200F000B81B
:104D90002DE9F0411D463D4B04461E680F469046E6
:104DA00026B1B36913B93046FEF7B4FC384B9C42C8
:104DB00001D1746808E0374B9C4201D1B46803E02C
:104DC000354B9C4208BFF468B8F1020F59D8002D4A
:104DD00057DB21463046FEF721FC00236360A361C8
:104DE000A3891B0603D521693046FEF72DFFA38951
:104DF000B8F1020F23F08303A38112D037BB002D3B
:104E000008BF4FF480652846FBF7F8FC0746C8B991
:104E10004FF48060FBF7F2FC074688B94FF0FF3093
:104E200000E00020A38943F00203A3810023A360D4
:104E300004F147032360236101236361BDE8F0812E
:104E40004FF48065A38943F08003A381B8F1010F7B
:104E500005D1A38943F00103A3816B42A3610F4BEA
:104E6000B362A389276003F0080080B227616561FF
:104E700048B113F0030F18BF0025A5600020BDE85E
:104E8000F0814FF0FF30BDE8F08100BF3401001029
:104E90000478000024780000447800009536000073
:104EA0000EB400B54FF402719CB0ADF814106FF061
:104EB0000041049107914FF6FF711DAB02900690DF
:104EC000084853F8042BADF81610006802A90193A6
:104ED00001F0BAFC029B00221A701CB05DF804EBD2
:104EE00003B07047340100100EB430B59CB01FAC55
:104EF0004FF4017254F8045BADF814200290069050
:104F000000F06BF80B4B03900B9300230F9314935B
:104F10004FF6FF7307900848ADF816302A4623462F
:104F200002A90068019401F0DFFD1CB0BDE830402B
:104F300003B070475F4F00003401001010B50C46FD
:104F4000B1F90E1001F01EFF0028ABBF636DA389FD
:104F50001B1823F48053ACBF6365A38110BD0020F0
:104F600070472DE9F0411F468B890546DB050C464D
:104F7000164605D502230022B1F90E1001F0EEF815
:104F8000A389324623F48053A381B4F90E103B4623
:104F90002846BDE8F04100F0CFB910B50C46B1F994
:104FA0000E1001F0DBF8431CA38915BF606523F4E4
:104FB000805343F48053A38118BFA38110BDB1F97E
:104FC0000E1000F037BA10F8012B11F8013B012A3E
:104FD00028BF9A42F7D0D01A7047034613F8012B26
:104FE000002AFBD1181A0138704730B582B1451E2E
:104FF000013915F8013F11F8014FA34206D1EC43E6
:105000001444E04201D0002BF3D11C46181B30BDE4
:10501000104630BD2DE9F0470F4680463F48D0F896
:1050200000903D4615F8014B09EB0400407800F074
:10503000080000F0FF0608B12F46F2E72D2C03D13F
:10504000BD1C7C78012603E02B2C04BF7C78BD1CA2
:1050500013B1102B0AD15BE0302C57D1287800F027
:10506000DF0058284DD16C7810230235002E14BF74
:105070004FF0004C6FF0004CBCFBF3FA00273846B1
:1050800003FB1ACC09EB040E9EF801E01EF0040F9E
:1050900001D0303C0BE01EF0030E1BD0BEF1010F1F
:1050A0000CBF4FF0370E4FF0570ECEEB0404A34267
:1050B00010DDB7F1FF3F0AD0504506D801D1644555
:1050C00003DC03FB0040012701E04FF0FF3715F838
:1050D000014BD7E77B1C0CD1002E4FF0220314BFED
:1050E0004FF000406FF00040C8F800302AB9BDE82A
:1050F000F08706B1404272B107B1691E1160BDE888
:10510000F0873024002BB1D10823AFE70A23ADE7A5
:10511000302CA3D0AAE7BDE8F08700BF380100100B
:105120002DE9F0470E4680463B48D0F800903546C2
:1051300015F8014B09EB0400407800F0080000F07E
:10514000FF0708B12E46F2E72D2C03D1B51C747869
:10515000012703E02B2C04BF7478B51C13B1102B6E
:105160000AD153E0302C4FD1287800F0DF005828C6
:1051700045D16C78102302354FF0FF3CBCFBF3FCAB
:1051800003FB0CFA00266FEA0A0A304609EB040E0C
:105190009EF801E01EF0040F01D0303C0BE01EF041
:1051A000030E1AD0BEF1010F0CBF4FF0370E4FF0B7
:1051B000570ECEEB0404A3420FDD002E08DB604542
:1051C00006D801D1544503DC03FB0040012601E071
:1051D0004FF0FF3615F8014BD8E7002E07DA2223EF
:1051E000C8F800304FF0FF302AB9BDE8F08707B1AA
:1051F000404272B106B1691E1160BDE8F0873024EB
:10520000002BB9D10823B7E70A23B5E7302CABD080
:10521000B2E7BDE8F08700BF380100102DE9F0418A
:105220000C46496B04F1440399421AD14FF4806152
:10523000FEF74EFD18B94FF0FF30BDE8F0814FF496
:105240008063A36394F84630606380F8FF3394F87A
:10525000453000F2FD30437094F844300370206014
:1052600012E0A66B77003A4601F06EFA0546002878
:10527000E1D000EB0608014632464046FEF7B6FC98
:10528000C4F800806563A7630020BDE8F0810000DA
:10529000F8B50F461446064618B183690BB9FEF7F8
:1052A00039FA224B9C4201D1746808E0204B9C42A1
:1052B00001D1B46803E01F4B9C4208BFF468A369A6
:1052C000A360A3891A0709D523693BB12368206924
:1052D000FDB2181A636998420FDB08E02146304698
:1052E00000F03CF80028F1D04FF0FF30F8BD214627
:1052F0003046FEF793F90028F6D1A368013BA3607E
:1053000023685A1C22601F706269431C934204D0B8
:10531000A389DB0707D50A2D05D121463046FEF7C4
:105320007DF90028E0D12846F8BD00BF04780000D0
:10533000247800004478000038B5074C054608463C
:105340001146002222601A46FCF724FD431C02D1BC
:10535000236803B12B6038BDC4050010314B70B514
:105360001D6806460C4625B1AB6913B92846FEF701
:10537000D1F92D4B9C4201D16C6808E02B4B9C422B
:1053800001D1AC6803E02A4B9C4208BFEC68A389BA
:105390009AB211071DD4D50602D40922326038E032
:1053A000500712D5616B41B104F14403994202D018
:1053B0003046FEF749FC00236363A38923F02403EE
:1053C000A3810023636023692360A38943F008035A
:1053D000A38123694BB9A38903F42073B3F5007F3C
:1053E00003D021463046FEF797FBA38913F0010254
:1053F00005D00022A26062695242A26103E09907CF
:1054000058BF6269A26022694AB903F0800080B285
:1054100030B143F04003A3814FF0FF3070BD002056
:1054200070BD00BF34010010047800002478000033
:105430004478000038B5064C002305460846236032
:10544000FCF794FC431C02D1236803B12B6038BDE8
:10545000C40500102DE9F74F03690C6980469C4292
:105460007FDC013C01F114074FEA840E00F11406C1
:1054700006EB0E0357F82450019356F824300135FB
:10548000B3FBF5F507EB0E09C5B34FF0000A38463C
:10549000B446D34650F8043B9AB205FB02A21B0C5B
:1054A0004FEA124A05FB03A392B2C2EB0B0BBCF806
:1054B00000204FEA134A5A441FFA83FBDCF80030FD
:1054C0008145CBEB134303EB224392B242EA034202
:1054D0004FEA234B4CF8042BDCD256F80E306BB954
:1054E000019B043B9E421A4602D3C8F8104005E0D7
:1054F0001268043B002AF8D1013CF3E7404601F072
:105500004CF800282BDB304601354FF0000E57F8E1
:10551000042B036891B2C1EB0E0E120C99B27144C8
:10552000C2EB134303EB214389B24FEA234EB94543
:1055300041EA034340F8043BE9D256F8242006EB45
:10554000840362B9043B9E421A4602D3C8F8104055
:1055500005E01268043B002AF8D1013CF3E7284635
:1055600000E0002003B0BDE8F08F00000000000064
:105570002DE9F04F456A95B08246219CCDE9022382
:1055800045B91020FBF73AF9CAF824004560856058
:105590000560C560DAF82430196859B15A680123EA
:1055A00093404A608B60504600F01FFEDAF82430CA
:1055B00000221A60039BA04A002BBDBF0123236079
:1055C000039B0023BCBF23F000430393DDF80C8052
:1055D000A8BF236028F000431B0D1B0593421DD17B
:1055E00042F20F73209A1360029B43B9934A944B83
:1055F000C8F31300002814BF1846104600E0904876
:10560000229B002B00F04685C37813B100F10803FC
:1056100000E0C31C229A136000F03CBDDDE90245A6
:10562000002200232046294601F0A8FC074658B175
:10563000209A01231360229B002B00F01E858148D5
:105640001860013800F026BD12AB019313AB009334
:1056500022462B46504601F01BF8C8F30A56049028
:1056600056B1C5F3130343F07F51204641F4401176
:10567000A6F2FF3611971DE0139B129E1E4406F200
:105680003243202B0ADD029A06F21240C3F1400396
:1056900022FA00F008FA03F3184304E0C3F12000F3
:1056A000029B03FA00F0FDF72DF90123A1F1F87137
:1056B000013E11930022644BFCF7E6FF58A3D3E9A7
:1056C0000023FDF795F958A3D3E90023FCF7DEFF8B
:1056D000044630460D46FDF725F955A3D3E90023CE
:1056E000FDF786F902460B4620462946FCF7CEFF19
:1056F00004460D46FDF78EFB00228346002320461C
:10570000294601F045FC58B15846FDF70BF9024611
:105710000B462046294601F031FC08B90BF1FF3B4E
:10572000BBF1160F0DD8DDE90223484901EBCB018F
:10573000D1E9000101F04AFC30B10BF1FF3B00233D
:1057400000E00123109300E01090129B9E1B731E3B
:10575000079343BFC3F10008002307934FF00008ED
:10576000BBF1000F06DB079BCDF82CB05B44079321
:10577000002705E00023CBEB0808CBF100070B93D3
:105780001E9B092B28D8052BC4BF043B1E931E9BD0
:10579000C8BF0025A3F10203D8BF0125032B20D8E1
:1057A000DFE803F0060E0204012302E0012308E013
:1057B00000230A931F9B002B1DDD9946059321E0D2
:1057C00000230A931F9B0BEB030909F10103012B33
:1057D0000593B8BF012315E0012500231E930A9508
:1057E00001E001230A934FF0FF390022CDF8149015
:1057F00012231F9206E04FF001094B46CDF814909A
:10580000CDF87C90DAF8244000226260042101F196
:1058100014029A421CD86268490001326260F6E7BD
:1058200061436F63A787D23FB3C8608B288AC63FA6
:10583000FB799F501344D33F0000F07FD8790000DC
:10584000E1790000D37800000000F83FF079000013
:105850006168504600F094FCDAF8243020601B6840
:105860000693059B0E2B00F25B81002D00F0588102
:10587000DDE90234BBF1000FCDE90E3430DD9F4A83
:105880000BF00F034FEA2B1502EBC303E80618CB0E
:10589000CDE908340CD5DDE90E01994B05F00F0573
:1058A000D3E90823FDF7CEF90324CDE9020100E096
:1058B0000224934E6DB1E90708D5DDE90801D6E968
:1058C0000023FDF795F8CDE9080101346D10083685
:1058D000F0E7DDE90823DDE90201FDF7B3F920E097
:1058E000CBF1000505B3DDE90E01844B05F00F0295
:1058F00003EBC203D3E90023FDF77AF8CDE90201F7
:105900007F4E2D110023022455B1EA0705D5D6E9B3
:105910000023FDF76DF8013401236D100836F3E71D
:105920001BB1CDE9020100E00224109BE3B1DDE9E7
:1059300002560022734B2846314601F029FB98B1EC
:10594000059B8BB1B9F1000F40F3E6800BF1FF33FB
:105950000893314600226C4B2846FDF749F8013484
:10596000CDE902014E4602E0059ECDF820B020466A
:10597000FCF7D8FFDDE90223FDF73AF8634B00227C
:10598000FCF784FEA1F1507304460C931D46D6B972
:10599000DDE9020100225E4BFCF776FE22460C9BFD
:1059A000CDE9020101F012FB002840F03F820C9982
:1059B000224601F10043DDE9020101F0E9FA002885
:1059C00040F02B82A8E00A9A4C4B711E002A49D065
:1059D00003EBC103D3E9002300204E49FDF732F960
:1059E00022462B46FCF750FECDE90C01069CDDE972
:1059F0000201FDF70FFA0546FCF794FF02460B463D
:105A0000DDE90201FCF740FEDDE90C23303504F846
:105A1000015BCDE9020101F0BBFA002840F01D83D3
:105A2000DDE9022300203749FCF72EFEDDE90C23D7
:105A300001F0AEFA002840F0D180069BE31AB34291
:105A40006ADADDE90C0100222F4BFCF7D1FF0022BE
:105A5000CDE90C01DDE902012B4BFCF7C9FFCDE9D3
:105A60000201C4E703EBC1012246D1E900012B4644
:105A7000FCF7BEFF069BCDE90C011D469C19DDE934
:105A80000201FDF7C7F90646FCF74CFF02460B463C
:105A9000DDE90201FCF7F8FD303605F8016BAC4298
:105AA000CDE902014FF0000222D11A4BDDE90C01D1
:105AB000FCF7ECFD02460B46DDE9020101F086FA37
:105AC000002840F08B80DDE90C2300201149FCF711
:105AD000DBFD02460B46DDE9020101F059FAD8B1BF
