:100000000080001085230000B5230000B723000006
:10001000B9230000BB230000BD2300000000000046
:10002000000000000000000000000000BF230000EE
:10003000C123000000000000C3230000C52300000E
:10004000C7230000C7230000C7230000C723000008
:10005000C7230000C7230000C7230000C7230000F8
:10006000C7230000C7230000C7230000C7230000E8
:10007000C7230000C7230000C7230000C7230000D8
:10008000C7230000C7230000C7230000C7230000C8
:10009000C7230000C7230000C7230000C7230000B8
:1000A000C7230000C7230000C7230000C7230000A8
:1000B000C7230000C7230000C7230000C723000098
:1000C000C7230000C7230000C7230000044B0548D6
:1000D0001B1A062B02D9044B03B11847704700BF07
:1000E000830100108001001000000000054906484F
:1000F000091A891001EBD171491002D0034B03B1E9
:1001000018477047800100108001001000000000B7
:1001100010B5064C237843B9FFF7D8FF044B13B151
:100120000448AFF300800123237010BD800100104C
:10013000000000006871000008B5084B1BB10849B9
:100140000848AFF300800848036813B9BDE80840C9
:10015000CCE7064B002BF9D09847F7E700000000EA
:100160008401001068710000800100100000000090
:100170001020704702207047F8B504460E46124D15
:1001800000F16C070911384602F076F8284600F0B5
:10019000A9FC636EA26D28461A6000F0A3FC236ED2
:1001A000A26D31461A60384602F066F8284600F023
:1001B00099FC636EA26D28461A6000F093FC236ED2
:1001C000A26D1A60F8BD00BFACC527382DE9F04319
:1001D0000446914688461F468FB0394D1A99199E9C
:1001E00000F020FC04F12400256005F150030025F7
:1001F00063606562494645608560C560056145612B
:1002000000F0AEFC04F13C00E563414645608560CA
:10021000C5600561456100F0A3FC04F1540065650B
:10022000394645608560C5600561456100F098FC10
:100230004FF0FF35009616A90EC904F16C000C951D
:100240000B950A95099508950795069505950495CA
:1002500003950295019501F0B1FF636BA16A226ECF
:100260001960A16DE36C1160226C03251A600321F3
:100270002046FFF781FF134800F034FC013DF6D122
:1002800020460221FFF778FFE36C226C20461A60BB
:100290002821FFF771FFE36C226C20461A600C21C5
:1002A000FFF76AFFE36C226C06211A602046FFF715
:1002B00063FF204600F08EFB20460FB0BDE8F083C0
:1002C0003469000045F5D63A70B504461D46066C03
:1002D00002EB8202C36C01EBC20180311E60FFF7AA
:1002E0004BFF206CA26C294610602046BDE8704090
:1002F000FFF742BF10B50446094B6C3003F108020A
:10030000583384E80C0001F031FF064B204603F11E
:1003100050022360626001F0F5FE204610BD00BF70
:100320002C690000A06A0000A0F10400E2E700BF11
:1003300010B504460A4B6C3003F10802583384E8C8
:100340000C0001F013FF074B204603F1500223601D
:10035000626001F0D7FE204602F03BF8204610BD57
:100360002C690000A06A0000A0F10400E0E700BFD3
:10037000704700BF10B5044602F02BF8204610BDB0
:1003800010B50446064B403003F1180103F14C024E
:1003900023602164626401F0B5FE204610BD00BFF9
:1003A0001C6D0000A0F14000EAE700BFA0F144008E
:1003B000E6E700BF000000002DE9F04F4FF41651B2
:1003C00087B0AB4801F0A4FF0024AA49AA480394CF
:1003D0000494059401F0B4FEA84800F083FBA848FB
:1003E00000F074FAA7490246A34801F0A9FEA34809
:1003F00000F078FB2146A24800F06CFA002840F09B
:1004000022819E4800F06EFB0B219D4800F072FA9D
:10041000002840F01081994800F064FB0F219848B3
:1004200000F078FA002840F01381944800F05AFB5D
:100430000821934800F04EFA002840F00E81DFF8C2
:1004400088A2DFF88892DFF888828F4D8F4F904E18
:10045000904800F047FB0021894800F03BFA0B214F
:10046000874800F047FA0F21854800F053FA082129
:10047000834800F02FFA03A9814800F015FABDF96E
:100480000C0002F013F978A3D3E9002302F074F909
:1004900002F0ACFBCAF80000BDF9100002F006F94A
:1004A00071A3D3E9002302F067F902F09FFBC9F8BA
:1004B0000000BDF9140002F0F9F86BA3D3E90023A2
:1004C00002F05AF902F092FBC8F80000724800F0FE
:1004D00081FA00220221704800F070FA6F496E48DC
:1004E00001F02EFE4FF0804000F0FCFA6A4800F068
:1004F00071FA00220221684800F060FADAF8000080
:1005000002F0E6F80B4602466549634801F018FE22
:100510004FF0804000F0E6FA5F4800F05BFA0022FE
:1005200002215D4800F04AFAD9F8000002F0D0F844
:100530000B4602465B49584801F002FE4FF08040EE
:1005400000F0D0FA544800F045FA00220221524847
:1005500000F034FAD8F8000002F0BAF802460B4670
:100560004D48514901F0ECFD4FF0804000F0BAFADF
:10057000494800F02FFA4FF07E5000F0B3FA002403
:1005800060204FF0A00E4FF0010B68700094032321
:100590003D4A90213A4885F802E085F800B001F024
:1005A000CDFA5B46384A9021009435482C7001F012
:1005B000C5FA4FF07E5000F095FA344A00940223B9
:1005C00090212F4801F0DCFA7B78387803EB00208B
:1005D000001102F06BF8354B002202F0CDF802F06A
:1005E00005FB30602C4800F0F5F9224602212A482C
:1005F00000F0E4F92E49284801F0A2FD4FF08040B8
:1006000000F070FA244800F0E5F922460221224861
:1006100000F0D4F9306802F05BF802460B461E4841
:10062000244901F08DFD4FF0804000F05BFA1A483C
:1006300000F0D0F90CE720490F4801F081FD0020BF
:1006400007B0BDE8F08F1D490B4801F079FDF6E7D2
:100650001B49094801F074FDF1E71A49064801F009
:100660006FFDECE7AFF300807B14AE47E17AA43F67
:10067000A00100108C690000E00100106F12833AA5
:10068000FC010010A8690000040200100C02001018
:100690009C010010CDCCCC3D10020010446A00003B
:1006A000586A0000646A0000706A00000000B03FF1
:1006B0007C6A00008C6A0000E4690000C0690000E8
:1006C000FC690000146A0000F80100100802001024
:1006D000C402001010B50446074B403003F1180166
:1006E00003F14C0223602164626401F00BFD20469B
:1006F00001F06FFE204610BD1C6D0000A0F140000F
:10070000E8E700BFA0F14400E4E700BFF0B5164CF5
:1007100087B0164D164A1749174800F043F80023D2
:100720002046164A164901F0D7F92A4620461549AF
:1007300001F04AFE144C154F154E1649164A002377
:10074000019100920493204603970296134B363290
:100750003831FFF73BFD2A462046114907B0BDE876
:10076000F04001F031BE00BFA0010010C800001031
:1007700001C0092000C00920FC01001003C00920AD
:1007800002C00920810300001002001004C00920EB
:1007900005C009200AC009200BC0092040C009205B
:1007A000F5020000F0B5044689B0002501F0ACF96F
:1007B0002046234901F0B8F92C27009503AA2046CA
:1007C0000E260223A6218DF80C708DF80D603127BE
:1007D00001F0B4F90B26009504AA20460223A621B5
:1007E0008DF810708DF811601E2701F0A7F9FD2615
:1007F000009505AA20460223A6218DF814708DF8D5
:1008000015601F2701F09AF90326009506AA2046D5
:100810000223A6218DF819608DF81870202601F0AA
:100820008DF900952046FE25022307AAA6218DF802
:100830001C608DF81D5001F081F9204609B0F0BD13
:10084000801A060030B5054685B004AA002402F8D7
:10085000021D01230094A62101F070F9009428469E
:1008600001230DF10F02A72101F08AF99DF80F0075
:1008700005B030BD2DE9F04117469846064684B0D4
:1008800004AC04F8011D0025224600950123A62191
:1008900001F054F9009543463A463046A72101F04D
:1008A0006FF904B0BDE8F08110B582B00C466A461D
:1008B00006233221FFF7DEFFBDF80010BDF802204D
:1008C000BDF8043084E80E0002B010BD0021FFF72F
:1008D000B9BF00BF10B5002384B08DF80D10009390
:1008E0002D24022303AAA6218DF80C4001F026F93D
:1008F00004B010BD10B5002384B08DF80D10009326
:100900003124022303AAA6218DF80C4001F016F928
:1009100004B010BD30B50C4685B02C210546FFF75C
:1009200091FF002300F010000443009328460223A7
:100930002C2503AAA6218DF80D408DF80C5001F04E
:10094000FDF805B030BD00BF0A2970B50E4604465B
:1009500025D002680B46D56AB0F91810B0F91A20F4
:10096000A847258B23680135ADB225835B6B2046F4
:1009700098472DB2854201DA304670BD658B2368F9
:100980000135ADB2002265831B6B20462283984758
:100990002DB28542F0DB00236383304670BD458B6A
:1009A00003680135ADB2002245831B6B0283984773
:1009B0002DB28542E0DB00236383EEE701834283AF
:1009C000704700BF4FF0FF30704700BFC1617047F4
:1009D00001627047036870B5114ADD6B04469542A9
:1009E0004FF0000217D102834283002604E0204624
:1009F00001F09AFB236801365B6B20469847236819
:100A000005461B6B2046984700FB05F086424FF0D9
:100A10002001ECDB70BD1146A8472368E5E700BF65
:100A2000BD09000010B5044601F04AFB054B002249
:100A300003F10801583384E80A00628322832046C8
:100A400010BD00BF986A0000074A084808B5002199
:100A5000121A02F059FEAFF3008002F09FFD01F080
:100A600001FA02F09DFA00BFDC04001080010010C2
:100A7000022801DC0120704701F0BCB9EFF30583C7
:100A800003B100BE02F0FCBDEFF3058303B100BE6D
:100A900002F0FEBD08B5012002F082FA08B5FFF7AA
:100AA000F9FF00BF30B585B018246D4620462946B1
:100AB000ABBE0446204605B030BD00BF024B1868EF
:100AC00000F00100704700BFF0ED00E038B50546CA
:100AD00000F020FA044600F01DFA001BA842FAD3E9
:100AE00038BD00BF08B5044902F0D0F802F01EFA84
:100AF000BDE80840FFF7EABF002474494FF47A7359
:100B000003FB00F0FFF7E2BF0FB400B5064A83B065
:100B100004AB53F8041B10681A46C068019302F036
:100B2000D7FF012002F03CFA34010010014800F028
:100B300049B800BF0C6B0000FFF7C0BF38B50D46C9
:100B4000044600F07BF9013509D02046002100F071
:100B500097F92046BDE83840032100F08DB938BD33
:100B600038B50D46044600F069F901350CD023690B
:100B70006268204601211A6000F082F92046BDE833
:100B80003840022100F078B938BD00BF70B50D467D
:100B90001646044600F052F9013511D066B92369B2
:100BA00062681A602046012100F06AF92046BDE81B
:100BB0007040022100F060B9E36862681A60F1E7F2
:100BC00070BD00BF036870B5DB68054698476B6869
:100BD0005B6883B12A681C6853689847201A00280C
:100BE0006A680DDC50681168836853600029F0D092
:100BF00040688847EBE72B68BDE870409B68184762
:100C00002B6852681B691068BDE87040184700BF28
:100C100000B599B072B617496846FFF7A1FF06A85C
:100C20001549FFF79DFF0CA81449FFF799FF12A87B
:100C30001349FFF795FF039A01990A9B11600799E1
:100C4000109A19600D99159B1160139A96201A60DD
:100C5000FFF754FF049A0199099B116007990F9AB5
:100C600019600D99169B1160139A96201A60FFF770
:100C700045FFE0E732C0092034C0092035C0092013
:100C800037C00920431C1CD00B685A1C1AD098424C
:100C900010B5044602D10AE09C4208D051F80C3F3E
:100CA0005A1CF9D10948BDE81040FFF72DBF204676
:100CB000896800F0D5FA2046BDE81040022100F016
:100CC000EBBA70470148FFF71FBF00BF146B00006D
:100CD00088420AD0421C09D0013106D008B5044828
:100CE000FFF712FF4FF0FF3008BD7047084670470E
:100CF000286B00000B685A1C08D0984202D107E00C
:100D0000834205D051F80C3F5A1CF9D11846704760
:100D100048687047421C0ED008B50B685A1C04D1B5
:100D20000AE051F80C3F5A1C06D09842F9D14868A5
:100D3000411C01D008BD70470248FFF7E5FE4FF0A7
:100D4000FF3008BD3C6B00000C4B30B49D689A68C6
:100D50002B46B2F1805F0CD2094AC43553F8044BDC
:100D6000AB4242F8044FF9D14FF080521346034C86
:100D7000A260103043F8201030BC704700ED00E056
:100D8000FCFFFF0F2B4A2023F0B4C2F8A031D2F8A9
:100D9000A031980645D4274B002519460124AA20E6
:100DA000552202270B26C3F80471C3F8A851C3F8D3
:100DB000AC51C3F80C41C3F88460C3F88C00C3F88D
:100DC0008C20C3F88040C3F88C00C3F88C20D1F885
:100DD0008830184A5B01FAD511460324AA2055230E
:100DE000C2F88040C2F88C00C2F88C30D1F888304C
:100DF000104A13F0407FF9D00F4900230520C2F8B4
:100E00000801C2F8C410C2F8C8311368F0BC23F45A
:100E1000704323F03A0343F4405343F03A03136022
:100E20007047D2F8A0315906B5D4D2F8A03159068E
:100E3000F7D5B0E700C00F40DE8728044A1C0160E8
:100E400018D038B50C4605460021204600F008FAB7
:100E500024F01F0104F01F020123934001F1180444
:100E600001F11C0001F11402A9606B60EC602861C3
:100E70006A6138BD704700BF006800F00DBA00BF5E
:100E800041B1012905D18268436811680B431360A1
:100E90007047704782684168136823EA0103136052
:100EA000704700BF38B51049104B01241C60D1F8C1
:100EB000C4300F4A43F400030E480025C1F8C43083
:100EC000156703680C480221A0FB03031B0D013BBF
:100ED00051600420D36009495460FFF735FF084B87
:100EE00010221A6038BD00BF00C00F40D0020010B1
:100EF00000400940CC00001083DE1B432D0B000096
:100F000000E100E0024B1B6803B17047FFF7CABF66
:100F1000D002001008B5044B1B680BB9FFF7C2FFE5
:100F2000024B986808BD00BFD00200100040094085
:100F3000034B98615A6942F001025A61704700BF41
:100F400000400940024A536923F00103536170478E
:100F500000400940014B01221A60704700400940DF
:100F6000F8B50D460646254928461446FFF7D2FE39
:100F7000234907462046FFF7CDFE01463846FFF7D6
:100F8000A7FE204B0246984230602ED003F58823FE
:100F9000984222D0A3F50423984216D01A4B1B493D
:100FA0001B683C271B0AA1FB031340261B09536146
:100FB00028461361114997611660FFF763FE2046CA
:100FC000BDE8F8400E49FFF75DBE1149D1F8C430C5
:100FD00043F08003C1F8C430E0E70D49D1F8C430D4
:100FE00043F08063C1F8C430D8E70949D1F8C43070
:100FF00043F40023C1F8C430D0E700BF7C6B00008D
:10100000B86B000000C00540CC000010598B4F01A8
:1010100000C00F40044B49001B6802689B08B3FBEB
:10102000F1F1516111617047CC0000102DE9F043DE
:1010300004683C2507462420A5614E4D206001E050
:10104000013D02D026683607FAD5606820251028B1
:10105000A56110D008280ED0102308222360454B2C
:10106000A26101E0013B02D02268D506FAD46FF0FC
:101070000100BDE8F08341F001010820A1603D4975
:10108000A06101E0013902D025682807FAD561681E
:1010900040290ED0102308222360364BA26101E0C4
:1010A000013B02D02268D606FAD44FF0FF30BDE8EB
:1010B000F083581E002859DD844602F1FF3E0026C9
:1010C0004FF004094FF00808C4F800902949C4F80B
:1010D000188001E0013902D025682D07FAD5A568EE
:1010E0006168502921D101360EF8015F86423C68C3
:1010F000EAD108210425A561A1611E4901E0013959
:1011000002D025682E07FAD5A568616858291AD03B
:10111000102308222360174BA26101E0013B10D08D
:101120002268D506FAD4BDE8F08310230822236094
:10113000104BA26101E0013B02D02268D706FAD42D
:101140003046BDE8F08302F80C50079A5AB138686F
:10115000102208210260074A816101E0013A02D0B1
:101160000168C906FAD41846BDE8F0834FF0000CB8
:10117000BFE700BFA186010070B404683C252420AD
:10118000A561364D206001E0013D02D026683007A0
:10119000FAD5606820251028A56110D008280ED047
:1011A0001023082223602D4BA26101E0013B02D0F5
:1011B0002268D606FAD46FF0010070BC704701F0C7
:1011C000FE010820A1602549A06101E0013902D09B
:1011D00025682D07FAD5616818290ED0102308223A
:1011E00023601E4BA26101E0013B02D02268D006C1
:1011F000FAD44FF0FF3070BC7047002B13DD551E42
:101200000020082615F8011F144AA160A66101E01C
:10121000013A02D021680907FAD56268282A11D15B
:1012200001308342EED1039A52B11022082122608C
:101230000A4AA16101E0013A02D02168C906FAD444
:101240001846BAE7102308222360044BA26101E08C
:10125000013BB2D02268D506FAD4AEE7A1860100E0
:1012600000F16040A0F51C2003099B0003F18043BE
:1012700003F53033400010B400F01E001C68032258
:10128000824024EA02021A601A68814041EA0200A0
:10129000186010BC704700BF00F16040A0F51C2032
:1012A00043099B0003F1804303F5303330B400F071
:1012B0001F029C6EC1F3800505FA02F224EA0204C3
:1012C0009C669C6E22439A669DB903099B0003F1BC
:1012D000804303F5303340001C6C00F01E000322F5
:1012E000824024EA02021A641A6C01FA00F01043E8
:1012F000186430BC704700BF154B9968C1F34201B8
:10130000012918D0022914D1124A516F013106D097
:10131000D2F88010906F086092F8A61089B1106F13
:101320000C4B38B193F8A63023B10B4B00211B684E
:10133000184770477047074B186F38B1064B1B684A
:101340001847596821F001015960E8E7704700BF6C
:1013500000800940DC020010D8020010F8B5294CCA
:101360000368A34247D03FDD274CA34229D004F5B0
:101370008044A34242D1254D082632BB01290BD01F
:101380004268234CC2EBC20204EBC20292F8364020
:1013900092F83520D44213D1B1FA81F25D6801246C
:1013A00004FA01F125EA01015960036852095B68FA
:1013B00004FA02F21A4203D1164BB440C3F880403B
:1013C000F8BD154D0726002AD8D05868012707FA1E
:1013D00001F2024374B25A6029462046FFF7B4FC7A
:1013E0000C4BA7401F60F8BDA4F58044A34205D173
:1013F0000A4D0526C1E70A4D0626BEE700252E4602
:10140000BBE700BF00000140008009402514000038
:10141000DC02001000E100E0F9120000911400006D
:10142000F1140000174B9968C1F3420101291BD048
:10143000022917D1144AD2F8AC10013107D0D2F8E2
:10144000B810D2F8B000086092F8DE1099B1D2F866
:10145000A8000D4B38B193F8DE3023B10B4B0021BF
:101460001B68184770477047074BD3F8A80038B17E
:10147000064B1B681847596821F001015960E6E7DF
:10148000704700BF00C00940DC020010D802001005
:10149000144B9968C1F34201012917D0022913D1D5
:1014A000114A5168013105D011699068086092F8BD
:1014B000361089B110680C4B38B193F8363023B12F
:1014C0000A4B00211B68184770477047064B186885
:1014D00038B1064B1B681847596821F00101596063
:1014E000E8E7704700C00040DC020010D80200109E
:1014F000144B9968C1F34201012917D0022913D175
:10150000114AD16B013105D0916C106C086092F8D2
:101510006E1089B1906B0C4B38B193F86E3023B1DB
:101520000A4B00211B68184770477047064B986BA1
:1015300038B1064B1B681847596821F00101596002
:10154000E8E7704700000140DC020010D8020010FC
:101550002DE9F04F02686E4B89B09A4207900692CF
:1015600000F0C88040F3B4806A4B0698984272D06D
:1015700003F58043984240F09D80674BD3F8AC213F
:1015800022F44022C3F8AC21D3F8AC2142F48022EB
:10159000C3F8AC21614A0B011268B2FBF3F003FB04
:1015A0001023039280B2002B00F09080039B4FF039
:1015B00001085A009C009446A246C3468E469946AE
:1015C0000023059204940090029101930024254683
:1015D000029E5FFA88F7BCF1000FB5BFBCFBF6F0C6
:1015E000BAFBF6F0000940090130C0F34F0008EBE8
:1015F000040200283DD00CB101283BD0034603FB78
:1016000002F3DB00B9FBF3F30133C1EB5303002B0F
:10161000B8BF5B42734505DA994230D09E46BB465F
:101620008DE821000134E5B2AF420E44D3D8039BCC
:1016300008F101089944059BB8F1100F9C44049BE4
:101640009A44029B0B440293C0D1019B009843EA49
:101650000B15EDB216E0304BD3F8AC2122F440323A
:10166000C3F8AC21D3F8AC2142F48032C3F8AC21EA
:1016700090E714B102200346C1E70120BEE745EA26
:101680000715EDB20699C0F307220B7BC0B243F0F9
:1016900080030B7307990B681A710B6818700B683D
:1016A00083F828500A68137B03F07F03137309B093
:1016B000BDE8F08F194A0B011268B2FBF3F003FB8F
:1016C0001023039280B2002B7FF470AF1025D9E76E
:1016D000A3F580439A42EDD10F4BD3F8A82122F015
:1016E000C002C3F8A821D3F8A82142F04002C3F8F1
:1016F000A8214FE7084BD3F8A82122F44072C3F881
:10170000A821D3F8A82142F48072C3F8A82141E7A8
:10171000000001400080094000C00F40CC000010D4
:10172000436810B40448054CC3EBC30344F83320AA
:10173000016010BC704700BFD8020010DC0200102E
:101740000268137DDB07FCD543680949C3EBC3037B
:1017500001EBC303596810780131C0B206D0596952
:101760009B680B60536843F001035360704700BFF0
:10177000DC0200104368154AC3EBC303DB00D11839
:1017800010B4CC6901340FD00B460A6B1C335B6874
:1017900012681A4205D1036810BC187DC0F380108E
:1017A0007047002010BC704703681B7D9B0607D460
:1017B00091F8340010BC0F288CBF00200120704726
:1017C000002381F83430012010BC7047DC02001087
:1017D00038B504460D462046FFF7CCFF0028FAD066
:1017E0002368EDB21D706368054AC3EBC30302EBC7
:1017F000C30393F83420013283F8342038BD00BF8E
:10180000DC0200102DE9F04F054644482C6883B0F7
:1018100084420F4691469A461DD06E680024324697
:10182000DFF804B14FEAC608C2EBC201C6EB0800FC
:101830000BEBC00000220BEBC1014FF0FF3381F82E
:101840003520C361436011462846FFF787FD4FB935
:1018500003B0BDE8F08F237C6E6803F03F03237470
:101860006A68DDE72E494846FFF744FA2D490190A2
:101870005046FFF73FFABA1E012A30D9012FE7D1AF
:10188000B9F1FF3FE4D0254A019B29680720934224
:1018900008720BD154B14846237C214943F04003E0
:1018A000237403B0BDE8F04FFFF7ECB9C6EB0806B0
:1018B0000BEBC600494604300022FFF767F96A685F
:1018C0000124C2EBC2020BEBC203284622460021D0
:1018D00083F8354003B0BDE8F04FFFF73FBDBAF1E4
:1018E000FF3F0AD00D4A90420DD0C6EB08000BEB2B
:1018F000C00051461C30FFF721F9032FA8D1B9F1E0
:10190000FF3FC0D1A4E7002CEFD0227C504642F02C
:10191000800222740349FFF7B5F9EEE700000140A9
:10192000F46B0000F06C0000DC0200102DE9F041C7
:101930000F460546594938461646FFF7EBF9584910
:1019400004463046FFF7E6F901462046FFF7C0F9A6
:10195000544B0446984228607FD06FD9524B98422E
:101960004BD003F58043984206D1504AD2F8C43098
:1019700043F00073C2F8C430012323722B684FF088
:101980000008C3F804804FF416512846FFF7E0FD25
:101990002B6803221A7341493846FFF773F940490F
:1019A0003046FFF76FF97A1C03D041463846FFF7FF
:1019B00073FC731C03D030460021FFF76DFC394BDC
:1019C0009C4247D021D9384B9C4263D003F58043D9
:1019D0009C424AD103236B60354CC3EBC3034FF0E9
:1019E000FF3604EBC3042846334632466660E661A0
:1019F0000021BDE8F041FFF705BF2C4AD2F8C43002
:101A000043F08073C2F8C430B6E7A3F580439C422C
:101A10002BD1274E4FF0FF34002169602346224628
:101A200028467460F461FFF7EDFE224B01221A6034
:101A300028686968204B03C3BDE8F081A3F58043A3
:101A4000984299D1194AD2F8C43043F00803C2F839
:101A5000C43091E701236B60BEE7144AD2F8C4306A
:101A600043F01003C2F8C43086E76E68104BC6EB33
:101A7000C6064FF0FF3703EBC6063A463B46002149
:101A800028467760F761FFF7BDFE0C4B9C42CCD037
:101A9000BDE8F08102236B609EE700BF846C00000C
:101AA000186C0000000001400080094000C00F4099
:101AB000DC020010D4020010D004001000C000406E
:101AC00000F02EBCA0F14000FFF7FABF00F02CBCE4
:101AD000A0F14000FFF7FABF38B504461D4600F0FC
:101AE000F9FB294604F1400000F0EAFA054B2046D4
:101AF00003F1080103F1200254332160226463647E
:101B000038BD00BF146D000038B50446044B0025F5
:101B100005604360FFF724FA024B20461C6038BD85
:101B2000A0860100BC03001010B504464160FFF719
:101B300071FA014B1C6010BDBC0300102DE9F0438D
:101B40000E4F8846396883B08842044691461E4647
:101B50009DF8285003D04168FFF75CFA3C6085F09F
:101B6000010500954A46414620463346FFF704FBEF
:101B7000301A18BF012003B0BDE8F083BC03001089
:101B80002DE9F0430E4F8846396883B088420446F9
:101B900091461E469DF8285003D04168FFF73AFA57
:101BA0003C6085F0010500954A4641462046334693
:101BB000FFF73CFA301A18BF012003B0BDE8F083EC
:101BC000BC030010036870B501221B6900210446A4
:101BD0009847064601300ED0236802221B69002177
:101BE000204698472368054631461B692046002257
:101BF0009847284670BD304670BD00BF024A034971
:101C00000348FFF793BE00BF03C0092002C00920AC
:101C1000D0040010074A084B10B4026003F580712D
:101C2000002453F8042F904208BF1C608B42F8D167
:101C300010BC7047906D0000BC030010F0B50E465C
:101C400085B03749054602F0E2FE28B9354B1B68DE
:101C5000002B43D005B0F0BD3349284602F0D7FE33
:101C600030B9304B1B68002B43D0012005B0F0BDCC
:101C70002E49284602F0CBFE002835D02C4B0024FC
:101C800002E00134402C3DD053F8042F002AF8D153
:101C90002B783A2B3DD0294602A800F01FF902A864
:101CA00000F072F970B302A800F054F928BB02A842
:101CB00000F040F9054628B3036802A89F6800F0C9
:101CC00037F926F4803201462846B8470346CBB19F
:101CD000184AE01C42F8243005B0F0BD0190FFF72F
:101CE0008DFF019805B0F0BD0E4B1B686BB1022053
:101CF000B0E7FFF783FF0120ACE702A800F034F95A
:101D00000346E4E74FF0FF30A4E7FFF777FF022038
:101D1000A0E7284602AA084902F00AFE029BD6E77D
:101D2000706D0000D4020010806D0000786D00001E
:101D3000BC030010C0030010B46D000002280ADDCF
:101D4000074AC31E52F82300002142F8231020B195
:101D500003685B681847002070474FF0FF307047FA
:101D6000C0030010022812DC0E4B70B51B680C4635
:101D700016460BB9FFF742FFA51936B114F8011B3F
:101D80000948FFF725FDAC42F8D1304670BD074B3E
:101D9000033853F8200010B103681B6818474FF050
:101DA000FF307047D4020010D0040010C0030010B0
:101DB00002280DDC0C4B10B51B680C460BB9FFF765
:101DC0001DFF0A48FFF7BCFC01232070184610BD18
:101DD000074B033853F8200010B103689B6818477D
:101DE0004FF0FF3318467047D4020010D0040010A3
:101DF000C0030010022807DD064B033853F820000B
:101E000020B10368DB681847012070474FF0FF30AE
:101E1000704700BFC0030010022807DD064B0338DF
:101E200053F8200020B103681B6918470020704751
:101E30004FF0FF30704700BFC0030010022808B504
:101E400004D84FF400534B60002008BD01F0A2F805
:101E5000092303604FF0FF3008BD00BF704700BF8B
:101E6000704700BF08B5FFF7FBFFFFF7F7FFBDE8BE
:101E70000840FEF7A1BA00BF074A13681918EFF32C
:101E80000880814202D2184611607047034B0C2231
:101E90001A604FF0FF307047D0000010D8040010D7
:101EA0000B4C08B523680546986801F097F923683C
:101EB000D86801F093F9FEF73FFE20B905B9FEE7B7
:101EC000FEF7A6FEFBE7FEF7EDFD002DF7D0F7E7E6
:101ED00034010010002102F077BC00BF38B50023A8
:101EE000036043600A7804462F2A01D0204638BD9B
:101EF0004A78002AFAD0481C20604D782F2D13D044
:101F000085B1034600E06AB15D1A013323601A7897
:101F10002F2AF8D129460133236000F083F860604E
:101F2000204638BD2946F8E719460346F3E700BFC7
:101F300000687047436843B110B50446184600F086
:101F40008BF8012803D1606810BD00207047002085
:101F500010BD00BF406830B108B500F07DF8B0FAA0
:101F600080F0400908BD704743684BB110B5044686
:101F7000184600F071F828B9606818B1043810BD2F
:101F800000207047002010BD4068003018BF0120BD
:101F9000704700BF094A8368026053B1084B1A6852
:101FA000904201D106E01A4653689842FBD143683B
:101FB0005360704742681A60704700BFCC6D0000E4
:101FC000C00400100C4A836810B50446026053B187
:101FD0000A4B1A68904201D10AE01A4653689C42A3
:101FE000FBD163685360204600F0F3F9204610BD32
:101FF00042681A60F7E700BFCC6D0000C004001013
:1020000010B4064C0023027381600460436019B170
:10201000034B1A681860426010BC7047CC6D00001A
:10202000C0040010F8B50B4B1C688CB107460E4677
:10203000A56855B132463946284602F0FAFC20B967
:10204000284602F0EEFC864202D06468002CEFD1F4
:102050002046F8BDC0040010007B7047F8B58E180C
:10206000B1420F460ED005460C4601E0A64207D00D
:102070002B6814F8011B5B6A284698470130F5D19C
:10208000E01BF8BD0C46FBE7F8B58E18B1420F46D1
:102090000ED005460C4603E004F8010BA64205D01D
:1020A0002B6828469B6A9847431CF5D1E01BF8BD76
:1020B0000C46FBE700207047002070470020704767
:1020C00010B5044684B000F037F90B4B002203F141
:1020D00008013C3384E80A00626101A822460749EE
:1020E00002F002FC064901A801F078F96061FFF7EF
:1020F000F1FE204604B010BDD46D0000B46D0000A8
:10210000186E000010B50446064B406903F1080242
:102110003C3384E80C0000F0A9FF204600F020F9D1
:10212000204610BDD46D000038B50D460446406908
:1021300001F054F861692846BDE8384001F07AB9E9
:102140000EB430B5044682B005AB53F8045B406969
:10215000019301F043F829466069019A01F0B8FC47
:1021600002B0BDE8304003B0704700BF70B506460E
:102170000446064B00F14005036054F8040F08B113
:1021800000F027F9AC42F8D1304670BD246E000053
:1021900070B506460446084B00F14005036054F84C
:1021A000040F08B100F015F9AC42F8D1304600F048
:1021B00010F9304670BD00BF246E00002DE9F04FCD
:1021C000804691B00F4600912A49019202931C9AD1
:1021D0001D9BC8F800101A99059203911F9A1E9929
:1021E0000693209B079108922199229A0993239B99
:1021F0001B980A910B922499259A0C93269B0024F4
:1022000026462546C8F8444008F1040904900D917B
:102210000E920F93EB464FF0010A08E00136102EA4
:10222000C9F8005009F104091FD05BF8047F7B1C3A
:102230004FF01800F2D000F0CEF8044639460560A1
:1022400045608560C56005614561FEF789FCD8F889
:1022500044200AFA06F301361343102EC9F8004051
:10226000C8F8443009F10409DFD1404611B0BDE897
:10227000F08F00BF246E000030B40446002354F8F1
:10228000042F41FA03F52AB1ED074CBFD568156953
:1022900052682A600133102BF1D130BC704700BF67
:1022A0004A1C02EB420200EBC202936853B101EBFD
:1022B0004101C9004218D2681AB1014410311046D8
:1022C0001847704701EB410300EBC301CB68002BBB
:1022D000F7D0184770B504460B4E0023251D4FF468
:1022E0001650E06363602846A360E3602362636284
:1022F000A3632660FFF71AFB284622460349FFF72F
:102300000FFA204670BD00BF346E0000A12200000D
:1023100038B504460D460430FFF71AF9E56338BDB9
:102320000430FFF70DBA00BF10B50C460430FFF7BC
:102330004FFA204610BD00BF10B50446064B0022E0
:1023400040F8043BFFF75CFE044B204603F1080213
:10235000343384E80C0010BD906D00003C6E00002A
:1023600010B50446064B03F108023433026040F80E
:10237000043FFFF70FFE2046FFF74CFC204610BD40
:102380003C6E00000649074A074B9A42BEBF51F80F
:10239000040B42F8040BF8E7044880470448004760
:1023A0006C710000C800001080010010850D000055
:1023B000490A0000FEE7FEE7FEE7FEE7FEE7FEE76C
:1023C000FEE7FEE7FEE7FEE70B460146184600F093
:1023D000D3BDFEF759BB10B5002814BF0446012435
:1023E0002046FEF74BFB30B900F006F808B9FEF7BF
:1023F00051FB8047F4E710BD024B1868BFF35F8FB5
:10240000704700BFC404001081F0004102E000BF2B
:1024100083F0004330B54FEA41044FEA430594EAA4
:10242000050F08BF90EA020F1FBF54EA000C55EADF
:10243000020C7FEA645C7FEA655C00F0E2804FEAB0
:102440005454D4EB5555B8BF6D420CDD2C4480EA92
:10245000020281EA030382EA000083EA010180EAC2
:10246000020281EA0303362D88BF30BD11F0004F10
:102470004FEA01314FF4801C4CEA113102D0404246
:1024800061EB410113F0004F4FEA03334CEA133381
:1024900002D0524263EB430394EA050F00F0A78099
:1024A000A4F10104D5F1200E0DDB02FA0EFC22FA94
:1024B00005F2801841F1000103FA0EF2801843FA88
:1024C00005F359410EE0A5F120050EF1200E012A79
:1024D00003FA0EFC28BF4CF0020C43FA05F3C018B7
:1024E00051EBE37101F0004507D54FF0000EDCF130
:1024F000000C7EEB00006EEB0101B1F5801F1BD3D9
:10250000B1F5001F0CD349085FEA30004FEA3C0CDC
:1025100004F101044FEA445212F5800F80F09A80D2
:10252000BCF1004F08BF5FEA500C50F1000041EBD6
:10253000045141EA050130BD5FEA4C0C404141EBDA
:10254000010111F4801FA4F10104E9D191F0000F01
:1025500004BF01460020B1FA81F308BF2033A3F184
:102560000B03B3F120020CDA0C3208DD02F1140C7B
:10257000C2F10C0201FA0CF021FA02F10CE002F1B6
:102580001402D8BFC2F1200C01FA02F120FA0CFCAF
:10259000DCBF41EA0C019040E41AA2BF01EB0451F8
:1025A000294330BD6FEA04041F3C1CDA0C340EDCF6
:1025B00004F11404C4F1200220FA04F001FA02F339
:1025C00040EA030021FA04F345EA030130BDC4F1F7
:1025D0000C04C4F1200220FA02F001FA04F340EAEC
:1025E0000300294630BD21FA04F0294630BD94F09D
:1025F000000F83F4801306BF81F480110134013D84
:102600004EE77FEA645C18BF7FEA655C29D094EAF4
:10261000050F08BF90EA020F05D054EA000C04BF72
:102620001946104630BD91EA030F1EBF002100205D
:1026300030BD5FEA545C05D14000494128BF41F0FC
:10264000004130BD14F580043CBF01F5801130BD60
:1026500001F0004545F0FE4141F470014FF00000EB
:1026600030BD7FEA645C1ABF194610467FEA655C9C
:102670001CBF0B46024650EA013406BF52EA03353E
:1026800091EA030F41F4002130BD00BF90F0000F2C
:1026900004BF0021704730B54FF4806404F1320468
:1026A0004FF000054FF0000150E700BF90F0000F21
:1026B00004BF0021704730B54FF4806404F1320448
:1026C00010F0004548BF40424FF000013EE700BF18
:1026D00042004FEAE2014FEA31014FEA02701FBFA8
:1026E00012F07F4393F07F4F81F06051704792F07A
:1026F000000F14BF93F07F4F704730B54FF46074F4
:1027000001F0004521F0004120E700BF50EA01023E
:1027100008BF704730B54FF000050AE050EA0102EB
:1027200008BF704730B511F0004502D5404261EB5B
:1027300041014FF4806404F132045FEA915C3FF49C
:10274000DCAE4FF003025FEADC0C18BF03325FEA35
:10275000DC0C18BF033202EBDC02C2F1200300FAEA
:1027600003FC20FA02F001FA03FE40EA0E0021FA0F
:1027700002F11444C1E600BF70B54FF0FF0C4CF4F9
:10278000E06C1CEA11541DBF1CEA135594EA0C0FAF
:1027900095EA0C0F00F0DEF82C4481EA030621EAEA
:1027A0004C5123EA4C5350EA013518BF52EA033525
:1027B00041F4801143F4801338D0A0FB02CE4FF0D7
:1027C0000005E1FB02E506F00042E0FB03E54FF007
:1027D0000006E1FB03569CF0000F18BF4EF0010EFF
:1027E000A4F1FF04B6F5007F64F5407404D25FEAFB
:1027F0004E0E6D4146EB060642EAC62141EA5551AE
:102800004FEAC52040EA5E504FEACE2EB4F1FD0CEF
:1028100088BFBCF5E06F1ED8BEF1004F08BF5FEA6D
:10282000500E50F1000041EB045170BD06F000461F
:1028300046EA010140EA020081EA0301B4EB5C04CC
:10284000C2BFD4EB0C0541EA045170BD41F48011C4
:102850004FF0000E013C00F3AB8014F1360FDEBFE9
:10286000002001F0004170BDC4F10004203C35DAC5
:102870000C341BDC04F11404C4F1200500FA05F348
:1028800020FA04F001FA05F240EA020001F00042E9
:1028900021F0004110EBD37021FA04F642EB06015F
:1028A0005EEA430E08BF20EAD37070BDC4F10C0489
:1028B000C4F1200500FA04F320FA05F001FA04F24D
:1028C00040EA020001F0004110EBD37041F1000139
:1028D0005EEA430E08BF20EAD37070BDC4F1200544
:1028E00000FA05F24EEA020E20FA04F301FA05F2AC
:1028F00043EA020321FA04F001F0004121FA04F254
:1029000020EA020000EBD3705EEA430E08BF20EA23
:10291000D37070BD94F0000F0FD101F0004640005D
:1029200041EB010111F4801F08BF013CF7D041EADF
:10293000060195F0000F18BF704703F000465200E3
:1029400043EB030313F4801F08BF013DF7D043EAB4
:102950000603704794EA0C0F0CEA135518BF95EA6A
:102960000C0F0CD050EA410618BF52EA4306D1D1F1
:1029700081EA030101F000414FF0000070BD50EA10
:10298000410606BF1046194652EA430619D094EA9A
:102990000C0F02D150EA013613D195EA0C0F05D184
:1029A00052EA03361CBF104619460AD181EA0301D8
:1029B00001F0004141F0FE4141F470014FF0000090
:1029C00070BD41F0FE4141F4780170BD70B54FF02B
:1029D000FF0C4CF4E06C1CEA11541DBF1CEA1355AB
:1029E00094EA0C0F95EA0C0F00F0A7F8A4EB05048D
:1029F00081EA030E52EA03354FEA013100F0888084
:102A00004FEA03334FF0805545EA131343EA12634C
:102A10004FEA022245EA111545EA10654FEA002601
:102A20000EF000419D4208BF964244F1FD0404F5BA
:102A3000407402D25B084FEA3202B61A65EB030516
:102A40005B084FEA32024FF480104FF4002CB6EBD3
:102A5000020E75EB030E22BFB61A754640EA0C0053
:102A60005B084FEA3202B6EB020E75EB030E22BF93
:102A7000B61A754640EA5C005B084FEA3202B6EBD4
:102A8000020E75EB030E22BFB61A754640EA9C0093
:102A90005B084FEA3202B6EB020E75EB030E22BF63
:102AA000B61A754640EADC0055EA060E18D04FEA21
:102AB000051545EA16754FEA06164FEAC30343EAC1
:102AC00052734FEAC2025FEA1C1CC0D111F4801F8E
:102AD0000BD141EA00014FF000004FF0004CB6E787
:102AE00011F4801F04BF01430020B4F1FD0C88BF26
:102AF000BCF5E06F3FF6AFAEB5EB030C04BFB6EB31
:102B0000020C5FEA500C50F1000041EB045170BD23
:102B10000EF0004E4EEA113114EB5C04C2BFD4EB50
:102B20000C0541EA045170BD41F480114FF0000ED4
:102B3000013C90E645EA060E8DE60CEA135594EA50
:102B40000C0F08BF95EA0C0F3FF43BAF94EA0C0F53
:102B50000AD150EA01347FF434AF95EA0C0F7FF4C8
:102B600025AF104619462CE795EA0C0F06D152EA1C
:102B700003353FF4FDAE1046194622E750EA410600
:102B800018BF52EA43067FF4C5AE50EA41047FF411
:102B90000DAF52EA43057FF4EBAE12E74FEA410274
:102BA00012F5001215D211D56FF47873B3EB62529F
:102BB00012D94FEAC12343F0004343EA505311F0C6
:102BC000004F23FA02F018BF404270474FF0000058
:102BD000704750EA013005D111F0004008BF6FF096
:102BE000004070474FF00000704700BF4FEA4102BD
:102BF000B2F1E04324BFB3F5001CDCF1FE5C0DD95B
:102C000001F0004C4FEAC0024CEA5070B2F1004FA4
:102C100040EB830008BF20F00100704711F0804FA7
:102C200021D113F13872BCBF01F00040704741F46C
:102C300080114FEA5252C2F11802C2F1200C10FA70
:102C40000CF320FA02F018BF40F001004FEAC12354
:102C50004FEAD32303FA0CFC40EA0C0023FA02F3F8
:102C60004FEA4303CCE77FEA625307D150EA0133CE
:102C70001EBF4FF0FE4040F44000704701F000409E
:102C800040F0FE4040F40000704700BF4FF0FF0CE2
:102C90001CEAD0521EBF1CEAD15392EA0C0F93EAF1
:102CA0000C0F6FD01A4480EA010C400218BF5FEA93
:102CB00041211ED04FF0006343EA501043EA511106
:102CC000A0FB01310CF00040B1F5000F3EBF490000
:102CD00041EAD3715B0040EA010062F17F02FD2A04
:102CE0001DD8B3F1004F40EBC25008BF20F00100E7
:102CF000704790F0000F0CF0004C08BF49024CEAFE
:102D0000502040EA51207F3AC2BFD2F1FF0340EA8F
:102D1000C250704740F400004FF00003013A5DDC00
:102D200012F1190FDCBF00F000407047C2F1000241
:102D3000410021FA02F1C2F1200200FA02FC5FEA2E
:102D4000310040F1000053EA4C0308BF20EADC7078
:102D5000704792F0000F00F0004C02BF400010F4EA
:102D6000000F013AF9D040EA0C0093F0000F01F097
:102D7000004C02BF490011F4000F013BF9D041EAB9
:102D80000C018FE70CEAD15392EA0C0F18BF93EABB
:102D90000C0F0AD030F0004C18BF31F0004CD8D1E5
:102DA00080EA010000F00040704790F0000F17BF6C
:102DB00090F0004F084691F0000F91F0004F14D0B2
:102DC00092EA0C0F01D142020FD193EA0C0F03D10A
:102DD0004B0218BF084608D180EA010000F000400D
:102DE00040F0FE4040F40000704740F0FE4040F4E8
:102DF000400070474FF0FF0C1CEAD0521EBF1CEA87
:102E0000D15392EA0C0F93EA0C0F69D0A2EB0302A4
:102E100080EA010C49024FEA402037D04FF080533E
:102E200043EA111143EA10130CF000408B4238BF03
:102E30005B0042F17D024FF4000C8B4224BF5B1A11
:102E400040EA0C00B3EB510F24BFA3EB510340EA5F
:102E50005C00B3EB910F24BFA3EB910340EA9C000D
:102E6000B3EBD10F24BFA3EBD10340EADC001B017D
:102E700018BF5FEA1C1CE0D1FD2A3FF650AF8B4221
:102E800040EBC25008BF20F0010070470CF0004C2E
:102E90004CEA50207F32C2BFD2F1FF0340EAC25059
:102EA000704740F400004FF00003013A37E792F01A
:102EB000000F00F0004C02BF400010F4000F013A78
:102EC000F9D040EA0C0093F0000F01F0004C02BF73
:102ED000490011F4000F013BF9D041EA0C0195E7DC
:102EE0000CEAD15392EA0C0F08D142027FF47DAF75
:102EF00093EA0C0F7FF470AF084676E793EA0C0F65
:102F000004D14B023FF44CAF08466EE730F0004C62
:102F100018BF31F0004CCAD130F000427FF45CAFF2
:102F200031F000437FF43CAF5FE700BF4FEA40025F
:102F3000B2F1FE4F0FD34FF09E03B3EB12620DD9E7
:102F40004FEA002343F0004310F0004F23FA02F051
:102F500018BF404270474FF00000704712F1610FF8
:102F600001D1420205D110F0004008BF6FF00040CF
:102F700070474FF00000704710B5054C13462CB158
:102F80000A4601460220AFF3008010BD204610BD66
:102F900000000000014B1868704700BF34010010AA
:102FA00008B5074B044613B10021AFF30080054B71
:102FB0001868836A03B198472046FEF771FF00BF87
:102FC00000000000DC6E000070B505460C4609B933
:102FD000002070BD18B183690BB900F051F9204B86
:102FE0009C4201D16C6808E01E4B9C4201D1AC6848
:102FF00003E01D4B9C4208BFEC68B4F90C30002B79
:10300000E6D02146284600F039F8236B064633B156
:10301000216A284698470028B8BF4FF0FF36A38999
:103020001B0603D52169284600F076FB616B41B190
:1030300004F14403994202D0284600F06DFB0023BE
:103040006363A16C21B1284600F066FB0023A364F2
:1030500000F082F90023A38100F07FF9304670BDB3
:10306000786E0000986E0000B86E0000024B0146BA
:103070001868FFF7A9BF00BF340100108A892DE945
:10308000F041054610070C4659D44B68002B02DC72
:103090000B6C002B17DDE66AAEB102F48052002300
:1030A00092B22F682B600AB1606D15E0216A01238E
:1030B0002846B047411C0FD12B686BB11D2B01D0A6
:1030C000162B03D12F600020BDE8F081A38943F0C7
:1030D0004003A381BDE8F081A3895A0705D5636841
:1030E000C01A636B0BB1236CC01A00230246E66A58
:1030F000216A2846B047431CA38906D129681D29A7
:1031000039D8204ACA40D60735D5002262602269E4
:10311000D904226004D5421C01D12B6803B9606533
:10312000616B2F600029CED004F14403994202D094
:10313000284600F0F1FA00206063BDE8F0810F69D5
:10314000002FC0D093070E680CBF4B690023C7EB5C
:1031500006080F608B6002E00744C0EB0808B8F176
:10316000000FB0DD43463A46216A2846A66AB047BA
:103170000028F1DCA38943F04003A3814FF0FF3026
:10318000BDE8F0810100402038B50B6905460C46CA
:10319000DBB118B183690BB900F072F80C4B9C429B
:1031A00001D16C6808E00B4B9C4201D1AC6803E094
:1031B000094B9C4208BFEC68B4F90C302BB1214696
:1031C0002846BDE83840FFF759BF002038BD00BF92
:1031D000786E0000986E0000B86E0000014620B9BD
:1031E000044B0549186800F0BBB9044B1868FFF799
:1031F000CBBF00BFDC6E000089310000340100103D
:10320000014900F0ADB900BF8931000010B5044696
:10321000002303604360836081814366C281036150
:1032200043618361194608225C3000F06DFA054B5A
:1032300024626362044BA362044BE362044B236386
:1032400010BD00BF85490000AB490000E349000004
:10325000074A000070B568234D1E5D430E4605F118
:10326000740100F09DFA044640B1002180E842005C
:103270000C30A06005F1680200F046FA204670BDEF
:10328000836910B5044633BB8364C3640365124B82
:10329000124A1B688262984204BF0123836100F0D6
:1032A0001FF86060204600F01BF8A060204600F088
:1032B00017F80022E06004216068FFF7A7FF0122F1
:1032C0000921A068FFF7A2FF02221221E068FFF7A0
:1032D0009DFF0123A36110BDDC6E000001320000E0
:1032E000F8B51C4B07461E68B36913B93046FFF7A3
:1032F000C7FF4836B4687368013B04D4B4F90C5076
:103300007DB16834F8E733680BB13668F2E7042121
:103310003846FFF79FFF30600028F6D10C233B6052
:10332000F8BD4FF6FF73E3810123A3816566256035
:10333000A560656025616561A5610822294604F1E3
:103340005C0000F0E1F96563A563A564E5642046CF
:10335000F8BD00BFDC6E000070477047F7B50F4640
:10336000114601AA054602F0BFFB064608B9002037
:1033700029E02846FFF7B4FF04460028F7D04FF4B1
:10338000DB73019A3946284601F068F9002806DA0D
:103390000025FFF7E1FFA581FFF7DFFFE7E70B4B14
:1033A000E08163620A4BA681A3620A4B2462E36256
:1033B000094B2363F30505D5022300222146284645
:1033C00000F040F8204603B0F0BD00BF8549000082
:1033D000AB490000E3490000074A0000024B0A46DF
:1033E00001461868FFF7BABF3401001070B50E46E9
:1033F0001446054618B183690BB9FFF741FF0A4B24
:103400009C4201D16C6808E0084B9C4201D1AC6839
:1034100003E0074B9C4208BFEC6822463146284631
:10342000BDE8704001F02CB9786E0000986E000085
:10343000B86E0000024B0A4601461868FFF7D6BF77
:103440003401001000F000B82DE9F8430C46904616
:103450001E46054618B183690BB9FFF711FF3D4BB6
:103460009C4201D16C6808E03B4B9C4201D1AC68A6
:1034700003E03A4B9C4208BFEC68A38903F48473D1
:10348000B3F5847F03D121462846FFF77DFEE76A26
:103490000FB91D232BE0012E04D0022E2BD056B3E2
:1034A000162324E021462846FFF76EFEA28902F487
:1034B000805292B20AB1606D05E0216A3346284617
:1034C000B847411C14D0A3895A0706D56368C01AAF
:1034D000636B4BB1236CC01A06E01B0704D523684D
:1034E00013B122699B1A18448044002603E02B6024
:1034F0004FF0FF392BE023691BB92146284600F025
:1035000073F821462846FFF73FFE81460028EFD199
:1035100033464246216A2846B8470130E8D0616BFD
:1035200041B104F14403994202D0284600F0F4F876
:1035300000236363236900212360A389616023F46E
:103540000263A381082204F15C0000F0DDF8484624
:10355000BDE8F883786E0000986E0000B86E000039
:103560002DE9F8438046894600F14804002694B1CD
:10357000A5686768013F0CD4AB89012B07D9B5F961
:103580000E30013303D029464046C847064368350C
:10359000F0E72468EBE73046BDE8F8830E4B70B5E2
:1035A0001E460E4C0025E41AA410A54204D056F87D
:1035B000253098470135F8E703F0ACF9084B094C82
:1035C0001E46E41AA4100025A54204D056F8253062
:1035D00098470135F8E770BD7401001074010010C0
:1035E000740100107C010010F0B58B8991B09D072B
:1035F00006460C4625D4B1F90E10002908DAA38935
:10360000002513F0800F14BF40274FF480670DE0B2
:1036100001AA02F0A1FA0028F1DB029D4FF48067B5
:1036200005F47045A5F500514D424D4139463046EF
:1036300000F0B6F860B9A3899A051DD443F00203DF
:10364000A38104F14703236023610123636113E035
:103650000A4BB362A389206043F08003A3812061F9
:1036600067614DB1B4F90E10304602F087FA18B117
:10367000A38943F00103A38111B0F0BD0132000022
:10368000024B0146186800F08BB800BF34010010EF
:10369000024B0146186800F03FB800BF340100102B
:1036A00010B5C9B202449042034605D01C780130DF
:1036B0008C42F8D1184610BD002010BD10B5431E35
:1036C0000A44914204D011F8014B03F8014FF8E786
:1036D00010BD884210B501EB020301D8421E0BE079
:1036E0009842FBD28118D21AD34204D013F8014D6C
:1036F00001F8014DF8E710BD994204D011F8014BD3
:1037000002F8014FF8E710BD03460244934202D08D
:1037100003F8011BFAE7704730B500293CD051F897
:10372000042C0B1F1D49002AB8BF9B180A680C46C1
:1037300012B95A600B6030BD9A420DD919685818F9
:10374000824201BF10685268091819605A602360EC
:1037500030BD994203D80A4651680029F9D114684E
:1037600015199D420AD11B682344D0188142136069
:1037700012D10868034413604B680CE002D90C2393
:10378000036030BD18681C18A14201BF0C6849686D
:10379000001918605960536030BD00BFCC040010A0
:1037A00070B5CD1C25F0030508350C2D38BF0C2550
:1037B000002D064603DA0C233360002070BDA942B9
:1037C000F9D81F4B1C681A462146A1B10B685B1B38
:1037D0000ED40B2B03D90B60CC18CD501EE08C42BD
:1037E0000BBF63684B681360636018BF0C4615E03D
:1037F0000C464968E9E7134C23681BB9304600F0D2
:10380000A3FF20602946304600F09EFF431CD2D023
:10381000C41C24F00304A0420AD1256004F10B006B
:10382000231D20F00700C31A09D05A42E25070BD90
:10383000211A304600F088FF0130EED1BBE770BDA1
:10384000CC040010C8040010936810B4013B002B96
:10385000936008DA9469A34202DBCBB20A2B02D14F
:1038600010BC01F039BA1368581C10601970C8B246
:1038700010BC7047F8B506460F461446D518AC4242
:1038800008D03A4614F8011B3046FFF7DDFF431C11
:10389000F5D100E00020F8BD2DE9F04F9DB00C46B9
:1038A00017460393064618B183690BB9FFF7E8FC86
:1038B0007F4B9C4201D1746808E07E4B9C4201D151
:1038C000B46803E07C4B9C4208BFF468A3891807E6
:1038D0000CD5236953B10023099320238DF8293097
:1038E00030238DF82A30DFF8D4B144E02146304649
:1038F00001F058FA0028EED04FF0FF30D5E0039ADF
:10390000111D12680391002A80F28C80524243F00C
:1039100002000792049098F800302E2B00F084806B
:10392000032298F800106548FFF7BAFE48B140231B
:10393000CBEB000003FA00F0049B08F101081843E8
:10394000049098F8001006225D4808F101078DF8F0
:103950002810FFF7A5FE002800F09580594B002B9A
:1039600040F08880039B073323F007030833039359
:10397000099B53440993B846454615F8013B1BB9CA
:10398000B8EB07090FD003E0252BF9D0A846F3E7E1
:103990004B463A4621463046FFF76CFF01307FD058
:1039A000099B4B44099398F80030002B78D00023F2
:1039B0004FF0FF3204930793059206938DF853302E
:1039C0001A930127052229783F48FFF769FE05F180
:1039D0000108049B38B13C4A4546801A07FA00F0BA
:1039E00018430490EEE7D90644BF20228DF85320F7
:1039F0001A0744BF2B228DF853202A782A2A3FF435
:103A00007EAF079A00210A20A84698F800300135B9
:103A1000303B092B03D800FB02320121F4E70029D7
:103A20003FF479AF079276E798F801302A2B0BD153
:103A3000039B08F102081A1D1B680392002BB8BFF4
:103A40004FF0FF3305936BE700231946059308F108
:103A500001000A25804698F800200130303A092AF2
:103A600003D805FB01210123F4E7002B3FF458AFF5
:103A7000059155E703AB00932246144B04A9304649
:103A800000F0C2F807E003AB009322460F4B04A9F5
:103A9000304600F065FBB0F1FF3F82467FF468AF2F
:103AA000A3895B063FF528AF09981DB0BDE8F08FEC
:103AB000786E0000986E0000B86E0000E66E0000A0
:103AC000EA6E0000093C0000E06E0000753800005E
:103AD00013460A46014602480068FFF7DDBE00BFF4
:103AE000340100102DE9F04788B0149F002B1E46CA
:103AF0001299B8BF03F1004327F02007B6BF1E4656
:103B000000232D23462F1446109DDDF84CA00B708A
:103B100003D0452F03D1013501E0032300E0022348
:103B200007AA049206AA03928DE828042246334687
:103B300001F042FA472F804602D1119BDB0728D5BE
:103B4000462F08EB050911D198F80030302B0AD127
:103B5000002200232046314602F0AAFE18B9C5F122
:103B60000105CAF80050DAF8003099440022002319
:103B70002046314602F09CFE08B9302202E0CDF822
:103B80001C9006E0079B994503D9591C07911A70B0
:103B9000F8E74046079B159AC8EB0303136008B08B
:103BA000BDE8F087034673B50029B8BF494203F862
:103BB000022BB4BF2D222B22092942701ADD0DF1F0
:103BC000070216460A2591FBF5F405FB1411092C92
:103BD00001F1300102F8011D2146F4DC3031541EA0
:103BE00002F8011CB4421A460AD214F8012B03F859
:103BF000012BF7E71A463024214402F8024B597092
:103C0000101A02B070BD00002DE9F04F8FB00C46C5
:103C100016461F46DDF86080054601F0BFFFD0F86C
:103C200000B0584600F0FDFE00230C93D8F8003099
:103C30000890073323F0070303F1080294F8189063
:103C4000C8F80020D3E90023C4E91223D4E9120103
:103C500000F052FD012819D1D4E9120100220023FD
:103C600002F030FE10B12D2384F843309A4B9B4A6A
:103C7000B9F1470F8CBF9046984603232361236810
:103C800023F0040323604FF0000A93E0D4E912010B
:103C900000F032FD236848B9914A9249B9F1470FC3
:103CA0008CBF8846904603222261E9E7D4F804E0FD
:103CB000D4E91201BEF1FF3F01D106220AE0B9F1B9
:103CC000670F02D0B9F1470F05D1BEF1000F40F0E8
:103CD000B68101226260002243F4806306920CAA3E
:103CE0002360059201930BAA636803920DF12B02E6
:103CF0000292009302460B46CDF810902846FFF73B
:103D0000F1FE09F0DF03472B804609D10B9BD81C3D
:103D100002DB6268934230DDA9F102095FFA89F99A
:103D2000B9F1650F0B9912D801394A4604F15000D8
:103D30000B91FFF737FF0C9A82468318012A236103
:103D400002DC2268D1072FD5013323612CE0B9F1C1
:103D5000660F14D10029636807DD216113B9226859
:103D6000D2071DD501330B4419E013B92268D007DF
:103D700001D5023313E0012311E04FF067090B9BDB
:103D80000C9A934205DB22682361D10708D50133E1
:103D900005E0002BD4BFC3F10203012313442361C8
:103DA0000B9B4FF0000AA3659DF82B3013B12D2318
:103DB00084F84330009733460DAA2146284600F088
:103DC00059F9013002D14FF0FF3050E123685A0514
:103DD00001D4236965E0B9F1650F40F2D580D4E9DB
:103DE00012010022002302F063FD78B301233E4A52
:103DF00031462846B8470130E5D00C9B0B9A9A42D1
:103E00000BDB2368D80708D423689B0740F1118196
:103E10004FF0000804F1190906E1089B5A463146A3
:103E20002846B8470130CED04FF0000804F11A09F7
:103E30000C9B013B9845E7DA01234A463146284668
:103E4000B8470130BFD008F10108F1E70B9B002B08
:103E500029DC0123244A31462846B8470130B2D034
:103E60000B9B23B90C9B13B92368D907CCD5089BAE
:103E70005A4631462846B8470130A4D04FF00009D1
:103E800004F11A0A0B9B5B42994509DA0123524659
:103E900031462846B847013095D009F10109F1E7CC
:103EA0000C9B4246A7E00C9AA36D9A42A8BF1A4603
:103EB000002A914607DC04F11A034FF0000A29EAB0
:103EC000E97909931CE01346314642462846B84733
:103ED0000130F0D177E700BFF16E0000F56E000011
:103EE000F96E0000FD6E0000466F00000123099A84
:103EF00031462846B84701303FF465AF0AF1010A60
:103F0000A36DC9EB03029245F0DB08EB03090B9AA2
:103F10000C9B9A420FDB2368DA070CD40C9B0B9A9C
:103F20009844C9EB08089B1A9845A8BF9846B8F171
:103F3000000F08DC0FE0089B5A4631462846B84778
:103F40000130EBD13FE743464A4631462846B84761
:103F500001303FF438AF4FF0000928EAE87804F167
:103F60001A0A09E00123524631462846B847013073
:103F70003FF429AF09F101090B9A0C9B9B1AC8EB7E
:103F800003039945EEDB3FE70C9A012A01DCDB07CE
:103F900038D50123424631462846B84701303FF420
:103FA00012AF089B5A4631462846B84701303FF4C5
:103FB0000AAFD4E912010022002302F079FC20B1FB
:103FC0004FF0000804F11A090EE00C9B08F1010201
:103FD000013B19E001234A4631462846B8470130E3
:103FE0003FF4F1AE08F101080C9B013B9845F1DB71
:103FF000534604F1500231462846B84701307FF459
:1040000003AFE0E64246012331462846B847013077
:10401000EED1D8E601234A4631462846B84701305A
:104020003FF4D1AE08F10108E3680D9A9B1A984558
:10403000F0DBE0680D9B9842B8BF184617E00022FD
:1040400006920CAA05920BAA43F4806303920DF129
:104050002B022360029201930246CDF81090CDF816
:1040600000E00B462846FFF73DFD80464EE60FB0C8
:10407000BDE8F08F2DE9F04791461F460A698B682D
:1040800006469342B8BF1346C9F8003091F8432062
:104090000C46DDF8208012B10133C9F800302368E6
:1040A000990642BFD9F800300233C9F800302568BC
:1040B00015F0060510D104F1190A07E00123524654
:1040C00039463046C04701301AD00135E368D9F887
:1040D00000209B1A9D42F1DB94F8433022680033A4
:1040E00018BF012392060FD5E118302081F8430054
:1040F0005A1C94F845102244023382F8431003E01E
:104100004FF0FF30BDE8F08704F1430239463046F6
:10411000C0470130F4D02268D9F80050E36802F0BB
:104120000602042A08BF5D1B2269A3680CBF25EAAA
:10413000E57500259342C4BF9B1AED184FF00009A6
:104140001A344D4509D00123224639463046C0472E
:104150000130D5D009F10109F3E70020BDE8F0876F
:104160002DE9F04317460A7E85B06E2A984606462A
:104170000C460C9B01F1430E00F0AE8011D8632A6F
:1041800022D009D8002A00F0BB80582A40F0CA800B
:1041900081F84520834955E0642A1ED0692A1CD045
:1041A000C0E0732A00F0B08009D86F2A2ED0702AA0
:1041B00040F0B8800A6842F020020A603EE0752AAA
:1041C00024D0782A3AD0ADE01A6801F14205111DD9
:1041D0001960136884F84230A8E021681A6811F069
:1041E000800F02D0111D196008E011F0400F02F19C
:1041F0000401196002D0B2F9003000E01368002B0E
:104200003CDA2D225B4284F8432037E021681A68AB
:1042100011F0800F02D0111D196007E011F0400F5E
:1042200002F10401196001D0138800E01368227EB6
:104230005C496F2A14BF0A2208221BE078225A49DF
:1042400084F845202268186812F0800F00F10405F8
:104250001D6003D1550601D5038800E00368D0072F
:1042600044BF42F0200222601BB9226822F02002E3
:1042700022601022002084F8430001E049490A220C
:104280006568002DA56008DB206820F00400206030
:104290002BB9002D7DD175460CE0002B79D07546E9
:1042A000B3FBF2F002FB1033CB5C05F8013D034693
:1042B0000028F5D1082A0BD12368DA0708D523692D
:1042C00062689A42DEBF302305F8013C05F1FF35F4
:1042D000C5EB0E0323612EE008681A6810F0800F0A
:1042E000496903D0101D1860136808E010F0400FF2
:1042F00002F104001860136801D0198000E0196011
:1043000000232361754616E01A68111D19601568AF
:10431000002162682846FFF7C3F908B1401B6060BE
:10432000636804E004F1420584F84220012323611C
:10433000002384F84330CDF800803B4603AA214691
:104340003046FFF797FE013002D14FF0FF3026E0F4
:1043500023692A4639463046C0470130F5D02368E4
:104360009B0710D5002504F1190907E001234A46EF
:1043700039463046C0470130E7D00135E368039A3B
:104380009B1A9D42F2DBE068039B9842B8BF184637
:1043900005E00B7804F1420584F842308AE705B065
:1043A000BDE8F083016F0000126F00002DE9F843B3
:1043B00015468A6880460C4632B98A69002A0CBFC5
:1043C00001224FF0FF328A602268DFF8A890D10600
:1043D00058BF1A684FF000065EBF111D19601768BC
:1043E000A069F8B923680136DA065EBF2B681B782E
:1043F0003B702A686B6802F101022A60A26803F12F
:10440000FF3302F1FF326B6058BF0137A260E2B1A7
:10441000002BE5DCD4F88031294640469847002837
:10442000DED012E0012806D12B681A7863699B5C04
:10443000002BD7D119E0022807D12B68D9F800202A
:104440001B7813445B781B07CCD5236813F010034B
:1044500005D1E2680132E260A26902B13B702369D2
:1044600000201E442661BDE8F883002EEDD1BDE892
:10447000F88300BF380100102DE9F04F0C469A4632
:10448000724B87B08346164693E8070003ABA768D4
:1044900083E807006E4BA1696E4A04F11C090329E9
:1044A00018BF1A467B1EB3F5AE7F84BF40F25D1382
:1044B000A360236888BF6FF4AE7543F45063236034
:1044C0004B4600928CBF7F1900274FF000083168DF
:1044D000019303AB53F8280002220978FFF7E0F8B4
:1044E000019B002833D0B8F1010F0BD162682AB9C3
:1044F00008226260226842F400722260226822F47C
:10450000A0620CE0B8F1020F0AD1226802F4C06187
:10451000B1F5007F1BD11021616042F480722260EE
:10452000A268511EA16092B132685D1C511C3160BD
:1045300012781A707368013B002B736006DCD4F8A4
:104540008031314658469847002841D12B4608F122
:104550000108B8F1030FBAD162680AB90A22626091
:1045600062683D496069891A019300F0FDF8019B7A
:104570004FF000081D46A36863B3316860690A788C
:10458000805C38B3302A226808D1100506D508F1BE
:10459000010857B10133013FA36006E022F4106225
:1045A00022600B78013505F8013C7368013B002B54
:1045B000736003DD33680133336005E0D4F8803184
:1045C00031465846984728B9A368013BA360D2E713
:1045D0004FF000082368D9050CD54D4508D915F8CA
:1045E000011C6F1ED4F87C313246584698473D4630
:1045F0004D4527D0226812F010021BD12A70636843
:1046000049465846009EB0472268DAF8003012F05A
:10461000200F07D1D20705D51A1DCAF800201B6844
:10462000188004E01A1DCAF800201B681860E368AF
:104630000133E3602369C9EB050545441D44256149
:10464000002000E0012007B0BDE8F08F246F0000DB
:10465000694B00005D4A0000406F000038B5074C10
:10466000054608461146002222601A46FDF7E6FA82
:10467000431C02D1236803B12B6038BDD80400105D
:1046800070B50E461446054618B183690BB9FEF79E
:10469000F7FD164B9C4201D16C6808E0144B9C421C
:1046A00001D1AC6803E0134B9C4208BFEC68A368DF
:1046B000013B002BA36011DAA269934207DB236858
:1046C0001E70236819780A290BD1224601E0224680
:1046D00031462846BDE8704000F0FEBA23681E70DF
:1046E00023685A1C2260187870BD00BF786E0000E5
:1046F000986E0000B86E000031F0004310B51BD07A
:104700000F4AA1F58014944210D901F1FF410C4ADF
:1047100001F5E001914209D9B3F5801F08D3094A98
:10472000934207D1B0FA80F0400910BD042010BDBB
:10473000032010BD002010BD0028E6D1022010BDCE
:10474000FFFFDF7F0000F07F38B5064C00230546F1
:1047500008462360FDF790FB431C02D1236803B198
:104760002B6038BDD804001070B50B78441E5E2B4A
:1047700013BF4A1C8A1C4B78002108BF012100F19D
:10478000FF0504F8011FAC42FBD10BB9501E70BDF0
:1047900081F001041146C4540D784A1C2D2D06D019
:1047A0005D2D0FD00DB12B46F4E7084670BD4E7855
:1047B0005D2EF8D0B342F6DC023101339E42C45480
:1047C000FBDCE9E7104670BD00294FF480630CBFA5
:1047D0000222002200F000B82DE9F0411D463D4BB9
:1047E00004461E680F46904626B1B36913B9304699
:1047F000FEF746FD384B9C4201D1746808E0374B08
:104800009C4201D1B46803E0354B9C4208BFF46878
:10481000B8F1020F59D8002D57DB21463046FEF77C
:10482000B3FC00236360A361A3891B0603D5216940
:104830003046FEF771FFA389B8F1020F23F083031E
:10484000A38112D037BB002D08BF4FF480652846E6
:10485000FCF714F90746C8B94FF48060FCF70EF96D
:10486000074688B94FF0FF3000E00020A38943F0ED
:104870000203A3810023A36004F1470323602361A3
:1048800001236361BDE8F0814FF48065A38943F0A3
:104890008003A381B8F1010F05D1A38943F001037F
:1048A000A3816B42A3610F4BB362A389276003F01E
:1048B000080080B22761656148B113F0030F18BF8B
:1048C0000025A5600020BDE8F0814FF0FF30BDE875
:1048D000F08100BF34010010786E0000986E000077
:1048E000B86E0000013200000EB400B54FF4027142
:1048F0009CB0ADF814106FF00041049107914FF691
:10490000FF711DAB02900690084853F8042BADF8D8
:104910001610006802A9019301F0BAFC029B002264
:104920001A701CB05DF804EB03B07047340100103E
:104930000EB430B59CB01FAC4FF4017254F8045B58
:10494000ADF814200290069000F06BF80B4B03902A
:104950000B9300230F9314934FF6FF7307900848AF
:10496000ADF816302A46234602A90068019401F0EA
:10497000DFFD1CB0BDE8304003B07047A749000020
:104980003401001010B50C46B1F90E1001F01EFFF5
:104990000028ABBF636DA3891B1823F48053ACBF01
:1049A0006365A38110BD002070472DE9F0411F46CB
:1049B0008B890546DB050C46164605D502230022E9
:1049C000B1F90E1001F0EEF8A389324623F48053BA
:1049D000A381B4F90E103B462846BDE8F04100F033
:1049E000CFB910B50C46B1F90E1001F0DBF8431C3D
:1049F000A38915BF606523F4805343F48053A381DA
:104A000018BFA38110BDB1F90E1000F037BA10F82D
:104A1000012B11F8013B012A28BF9A42F7D0D01A86
:104A20007047034613F8012B002AFBD1181A0138EE
:104A3000704730B582B1451E013915F8013F11F8B4
:104A4000014FA34206D1EC431444E04201D0002BB5
:104A5000F3D11C46181B30BD104630BD2DE9F04780
:104A60000F4680463F48D0F800903D4615F8014B70
:104A700009EB0400407800F0080000F0FF0608B1E0
:104A80002F46F2E72D2C03D1BD1C7C78012603E0D4
:104A90002B2C04BF7C78BD1C13B1102B0AD15BE01A
:104AA000302C57D1287800F0DF0058284DD16C7891
:104AB00010230235002E14BF4FF0004C6FF0004C55
:104AC000BCFBF3FA0027384603FB1ACC09EB040EB3
:104AD0009EF801E01EF0040F01D0303C0BE01EF008
:104AE000030E1BD0BEF1010F0CBF4FF0370E4FF07D
:104AF000570ECEEB0404A34210DDB7F1FF3F0AD0FE
:104B0000504506D801D1644503DC03FB0040012772
:104B100001E04FF0FF3715F8014BD7E77B1C0CD1B4
:104B2000002E4FF0220314BF4FF000406FF0004002
:104B3000C8F800302AB9BDE8F08706B1404272B12A
:104B400007B1691E1160BDE8F0873024002BB1D198
:104B50000823AFE70A23ADE7302CA3D0AAE7BDE8CE
:104B6000F08700BF380100102DE9F0470E4680465F
:104B70003B48D0F80090354615F8014B09EB04008E
:104B8000407800F0080000F0FF0708B12E46F2E779
:104B90002D2C03D1B51C7478012703E02B2C04BF06
:104BA0007478B51C13B1102B0AD153E0302C4FD1BF
:104BB000287800F0DF00582845D16C7810230235A2
:104BC0004FF0FF3CBCFBF3FC03FB0CFA00266FEA42
:104BD0000A0A304609EB040E9EF801E01EF0040FAD
:104BE00001D0303C0BE01EF0030E1AD0BEF1010FD5
:104BF0000CBF4FF0370E4FF0570ECEEB0404A3421C
:104C00000FDD002E08DB604506D801D1544503DCDA
:104C100003FB0040012601E04FF0FF3615F8014B81
:104C2000D8E7002E07DA2223C8F800304FF0FF3013
:104C30002AB9BDE8F08707B1404272B106B1691EDA
:104C40001160BDE8F0873024002BB9D10823B7E705
:104C50000A23B5E7302CABD0B2E7BDE8F08700BF40
:104C6000380100102DE9F0410C46496B04F1440372
:104C700099421AD14FF48061FEF792FD18B94FF0B6
:104C8000FF30BDE8F0814FF48063A36394F84630B1
:104C9000606380F8FF3394F8453000F2FD304370D4
:104CA00094F844300370206012E0A66B77003A4617
:104CB00001F06EFA05460028E1D000EB0608014637
:104CC00032464046FEF7FAFCC4F800806563A763ED
:104CD0000020BDE8F0810000F8B50F4614460646F6
:104CE00018B183690BB9FEF7CBFA224B9C4201D174
:104CF000746808E0204B9C4201D1B46803E01F4B6C
:104D00009C4208BFF468A369A360A3891A0709D568
:104D100023693BB123682069FDB2181A6369984280
:104D20000FDB08E02146304600F03CF80028F1D0C7
:104D30004FF0FF30F8BD21463046FEF725FA002837
:104D4000F6D1A368013BA36023685A1C22601F7040
:104D50006269431C934204D0A389DB0707D50A2D5F
:104D600005D121463046FEF70FFA0028E0D128464B
:104D7000F8BD00BF786E0000986E0000B86E0000AD
:104D800038B5074C054608461146002222601A46EF
:104D9000FCF7E8FF431C02D1236803B12B6038BD48
:104DA000D8040010314B70B51D6806460C4625B17D
:104DB000AB6913B92846FEF763FA2D4B9C4201D12B
:104DC0006C6808E02B4B9C4201D1AC6803E02A4B95
:104DD0009C4208BFEC68A3899AB211071DD4D5067E
:104DE00002D40922326038E0500712D5616B41B11C
:104DF00004F14403994202D03046FEF78DFC0023B3
:104E00006363A38923F02403A381002363602369E0
:104E10002360A38943F00803A38123694BB9A389C5
:104E200003F42073B3F5007F03D021463046FEF72C
:104E3000DBFBA38913F0010205D00022A2606269A6
:104E40005242A26103E0990758BF6269A2602269D9
:104E50004AB903F0800080B230B143F04003A3812F
:104E60004FF0FF3070BD002070BD00BF3401001056
:104E7000786E0000986E0000B86E000038B5064CE1
:104E80000023054608462360FCF758FF431C02D167
:104E9000236803B12B6038BDD80400102DE9F74F0B
:104EA00003690C6980469C427FDC013C01F11407D8
:104EB0004FEA840E00F1140606EB0E0357F8245057
:104EC000019356F824300135B3FBF5F507EB0E09D5
:104ED000C5B34FF0000A3846B446D34650F8043BF9
:104EE0009AB205FB02A21B0C4FEA124A05FB03A370
:104EF00092B2C2EB0B0BBCF800204FEA134A5A44A3
:104F00001FFA83FBDCF800308145CBEB134303EB46
:104F1000224392B242EA03424FEA234B4CF8042B5D
:104F2000DCD256F80E306BB9019B043B9E421A4608
:104F300002D3C8F8104005E01268043B002AF8D1FB
:104F4000013CF3E7404601F04CF800282BDB3046EB
:104F500001354FF0000E57F8042B036891B2C1EBF6
:104F60000E0E120C99B27144C2EB134303EB2143B2
:104F700089B24FEA234EB94541EA034340F8043B66
:104F8000E9D256F8242006EB840362B9043B9E4222
:104F90001A4602D3C8F8104005E01268043B002A04
:104FA000F8D1013CF3E7284600E0002003B0BDE85B
:104FB000F08F0000000000002DE9F04F456A95B029
:104FC0008246219CCDE9022345B91020FBF756FD0E
:104FD000CAF82400456085600560C560DAF82430B1
:104FE000196859B15A68012393404A608B60504652
:104FF00000F01FFEDAF8243000221A60039BA04A5A
:10500000002BBDBF01232360039B0023BCBF23F003
:1050100000430393DDF80C80A8BF236028F0004311
:105020001B0D1B0593421DD142F20F73209A136092
:10503000029B43B9934A944BC8F31300002814BF52
:105040001846104600E09048229B002B00F0468551
:10505000C37813B100F1080300E0C31C229A136067
:1050600000F03CBDDDE90245002200232046294630
:1050700001F01EFC074658B1209A01231360229BC1
:10508000002B00F01E8581481860013800F026BD15
:1050900012AB019313AB009322462B46504601F00E
:1050A0001BF8C8F30A56049056B1C5F3130343F036
:1050B0007F51204641F44011A6F2FF3611971DE0C2
:1050C000139B129E1E4406F23243202B0ADD029AE5
:1050D00006F21240C3F1400322FA00F008FA03F38B
:1050E000184304E0C3F12000029B03FA00F0FDF72F
:1050F000CDFA0123A1F1F871013E11930022644B16
:10510000FDF786F958A3D3E90023FDF735FB58A333
:10511000D3E90023FDF77EF9044630460D46FDF73E
:10512000C5FA55A3D3E90023FDF726FB02460B463B
:1051300020462946FDF76EF904460D46FDF72EFD83
:105140000022834600232046294601F0BBFB58B1CC
:105150005846FDF7ABFA02460B462046294601F0B9
:10516000A7FB08B90BF1FF3BBBF1160F0DD8DDE92A
:105170000223484901EBCB01D1E9000101F0C0FB5A
:1051800030B10BF1FF3B002300E00123109300E05E
:105190001090129B9E1B731E079343BFC3F1000820
:1051A000002307934FF00008BBF1000F06DB079BBD
:1051B000CDF82CB05B440793002705E00023CBEB30
:1051C0000808CBF100070B931E9B092B28D8052B51
:1051D000C4BF043B1E931E9BC8BF0025A3F102035E
:1051E000D8BF0125032B20D8DFE803F0060E020408
:1051F000012302E0012308E000230A931F9B002BF8
:105200001DDD9946059321E000230A931F9B0BEBBC
:10521000030909F10103012B0593B8BF012315E030
:10522000012500231E930A9501E001230A934FF004
:10523000FF390022CDF8149012231F9206E04FF0A0
:1052400001094B46CDF81490CDF87C90DAF8244053
:1052500000226260042101F114029A421CD86268A3
:10526000490001326260F6E761436F63A787D23F6E
:10527000B3C8608B288AC63FFB799F501344D33F45
:105280000000F07F4C70000055700000476F000078
:105290000000F83F687000006168504600F094FC20
:1052A000DAF8243020601B680693059B0E2B00F271
:1052B0005B81002D00F05881DDE90234BBF1000F65
:1052C000CDE90E3430DD9F4A0BF00F034FEA2B156A
:1052D00002EBC303E80618CBCDE908340CD5DDE9B1
:1052E0000E01994B05F00F05D3E90823FDF76EFB7E
:1052F0000324CDE9020100E00224934E6DB1E907D9
:1053000008D5DDE90801D6E90023FDF735FACDE936
:10531000080101346D100836F0E7DDE90823DDE906
:105320000201FDF753FB20E0CBF1000505B3DDE9F9
:105330000E01844B05F00F0203EBC203D3E90023F7
:10534000FDF71AFACDE902017F4E2D110023022448
:1053500055B1EA0705D5D6E90023FDF70DFA01346A
:1053600001236D100836F3E71BB1CDE9020100E01F
:105370000224109BE3B1DDE902560022734B28465C
:10538000314601F09FFA98B1059B8BB1B9F1000F3E
:1053900040F3E6800BF1FF330893314600226C4B5B
:1053A0002846FDF7E9F90134CDE902014E4602E055
:1053B000059ECDF820B02046FDF778F9DDE90223FF
:1053C000FDF7DAF9634B0022FDF724F8A1F15073E1
:1053D00004460C931D46D6B9DDE9020100225E4B5E
:1053E000FDF716F822460C9BCDE9020101F088FA80
:1053F000002840F03F820C99224601F10043DDE98C
:10540000020101F05FFA002840F02B82A8E00A9A1E
:105410004C4B711E002A49D003EBC103D3E9002392
:1054200000204E49FDF7D2FA22462B46FCF7F0FF4A
:10543000CDE90C01069CDDE90201FDF7AFFB054655
:10544000FDF734F902460B46DDE90201FCF7E0FF07
:10545000DDE90C23303504F8015BCDE9020101F0F0
:1054600031FA002840F01D83DDE90223002037498E
:10547000FCF7CEFFDDE90C2301F024FA002840F010
:10548000D180069BE31AB3426ADADDE90C010022FF
:105490002F4BFDF771F90022CDE90C01DDE9020186
:1054A0002B4BFDF769F9CDE90201C4E703EBC1011C
:1054B0002246D1E900012B46FDF75EF9069BCDE9B6
:1054C0000C011D469C19DDE90201FDF767FB06464C
:1054D000FDF7ECF802460B46DDE90201FCF798FF08
:1054E000303605F8016BAC42CDE902014FF0000205
:1054F00022D11A4BDDE90C01FCF78CFF02460B466A
:10550000DDE9020101F0FCF9002840F08B80DDE9C3
:105510000C2300201149FCF77BFF02460B46DDE916
:10552000020101F0CFF9D8B114F8013C621E302B12
:1055300040F0B7821446F7E7054BFDF71DF9CDE9BA
:105540000201C0E768700000407100000000F03FF9
:105550000000244000001C40000014400000E03F18
:10556000DDE90E34CDE90234139B002B7CDBBBF16B
:105570000E0F79DCAB4B03EBCB03D3E900671F9B2A
:10558000002B14DA059B002B11DC40F06C8100220B
:10559000A54B30463946FDF7EFF8DDE9022301F06F
:1055A000A5F9059D2E46002840F05F8165E1069C27
:1055B000DDE9028932463B4640464946FDF706FA98
:1055C000FDF7ECFA0546FDF771F832463B46FDF76C
:1055D000D3F80B46024649464046FCF719FF05F151
:1055E000300E069B04F801EBC3EB040E059B7345DC
:1055F0002DD102460B46FCF70DFF80468946024638
:105600000B463046394601F05DF978B942464B46C3
:105610003046394601F04CF9002800F04482EB078F
:1056200004D440E2DDF820B000E01C4614F8012C60
:10563000631E392A07D1069A9A42F6D1069930227A
:105640000BF1010B0A701A7801321A702BE200225A
:10565000764BFDF791F8002200238046894601F041
:1056600027F90028A6D01EE20A9A002A2BD01E9AFB
:10567000012A0ADC119A12B103F2334302E0129BB1
:10568000C3F136033D46444613E0059B5D1EAF4221
:10569000BFBF0B9BEA1B9B180B93059BB6BF2F4606
:1056A0007D1B0025002BA7BF4446059BC3EB0804C8
:1056B0000023079A01211A4450469844079200F0AB
:1056C00057FB064602E03D4644460A9E5CB1079BF6
:1056D000002B08DDA342A8BF2346079AC3EB0808A6
:1056E000E41AD31A0793002F1DDD0A9BABB18DB1CD
:1056F00031462A46504600F0D5FB049A014606463C
:10570000504600F03EFB04990890504600F091FA94
:10571000089B04937A1B06D000E03A460499504651
:1057200000F0C0FB04900121504600F021FB0B9BD0
:1057300005465BB31A460146504600F0B3FB1E9B7C
:105740000546012B18DC029B83B9039BC3F31303AB
:1057500073B9039B23F000473F0D3F054FB1079BF3
:1057600008F1010801330793012702E0002700E058
:10577000029F0B9B73B100E000272B6905EB8303AD
:10578000186900F0A8FAC0F1200004E01E9B012B6C
:10579000D9DD0B9F0120079B184410F01F0008D093
:1057A000C0F12003042B02DDC0F11C0002E006D092
:1057B00018461C30079B8044034404440793B8F107
:1057C000000F05DD42460499504600F0B9FB0490F5
:1057D000079B002B05DD29461A46504600F0B0FB1A
:1057E0000546109B23B32946049800F0FAFB0028D5
:1057F0001EDA00230A220499504600F031FA0A9B6F
:105800000BF1FF3B0490002B00F05F813146002339
:105810000A22504600F024FAB9F1000F06463FDC98
:105820003BE000BF6870000000001440000024400E
:10583000059B002B2BDC1E9B022B28DDDDF8149032
:10584000B9F1000F11D129464B460522504600F010
:1058500007FA01460546049800F0C3FB00280CDC5B
:1058600003E0354600E000252E461F9B069C6FEAAC
:10587000030B09E03546DDF820B0069B069A5C1C58
:10588000312313700BF1010B05960026F7E00A9BFC
:10589000DDF8149023B9069CB2E01E9B022BCFDCEE
:1058A000002C05DD31462246504600F049FB0646F5
:1058B0009FB17168504600F087F90446326906F1DD
:1058C0000C01023292000C30FDF7F8FE0122214655
:1058D000504600F035FB059000E00596029B069FC0
:1058E00003F00103079329460498FFF7D7FA3146DE
:1058F000044600F13008049800F073FB059A02900A
:105900002946504600F089FBC36802463BB9014670
:105910000A90049800F065FB0A9A034600E0012310
:10592000114650460A9300F084F90A9B53B91E9A17
:1059300042B9079A32B9B8F1390F2AD0029B002B2D
:105940001CDC1DE0029A002A04DB1BD11E9ACAB996
:10595000079ABAB9002B13DD01220499504600F0D2
:10596000EFFA2946049000F03CFB002803DC07D145
:1059700018F0010F04D0B8F1390F0AD004F1310842
:105980007C1C0CE0002B07F101040BDDB8F1390F92
:1059900003D139233B70013756E008F1010887F83D
:1059A00000806CE0069B2746E31A4B4504F8018C07
:1059B0003BD000230A220499504600F051F9059B80
:1059C00004909E424FF00A024FF0000331465046C9
:1059D00004D100F045F90646059084E700F040F94F
:1059E000002306460A220599504600F039F9059031
:1059F00079E700230A220499504600F031F9049017
:105A000029460498FFF74AFA069B00F1300804F88B
:105A1000018BE31A4B45ECDB069B0596B9F1010FB0
:105A2000ACBF4B4401331F46002601220499504667
:105A300000F086FA2946049000F0D3FA002803DC2F
:105A400015D118F0010F12D03C4614F8013C621E2B
:105A5000392B09D1069B934204D10BF1010B312361
:105A6000069A02E01446F0E70133137007E03C4663
:105A700014F8013C621E302B01D11446F8E7294688
:105A8000504600F0D6F8059B6BB12EB19E4203D074
:105A90003146504600F0CDF80599504600F0C9F85F
:105AA00001E0DDF820B00499504600F0C2F8002370
:105AB000209A23700BF101031360229B1BB11C6021
:105AC00001E008480AE0069808E0B9F1000F3FF746
:105AD000E2AE1E9B022B7FF7DEAEB1E615B0BDE84D
